S02B00007365637572652D6170702D626F6F746C6F616465722D7370692D617434356462303231642E733337DB
S31508000000000400206F00000885000008850000082D
S31508000010A70B090100000000010221510040000859
S31508000020040C0000C50D000885120008200600080B
S31508000030A70700082B0900088D09000815080008FD
S31508000040F1070008050A0008F70700085E00000027
S31508000050FFFFFFFF09480068202100EA010028B1D8
S315080000600748016842685FEA010D10477047FFF7C5
S31508000070F1FF00F013F800F045F800002C000040EE
S315080000800040000806E000005FEA000D704744489B
S31508000090008870474FF4017000F09CB838B54FF2ED
S315080000A00F04404D00F0C2F828B140F20520288020
S315080000B06C80012032BD3C480068C00613D56888AC
S315080000C0A0421CD1288840F2022188421CBF40F277
S315080000D00621884213D040F2011188421CBF40F223
S315080000E0111188420BD0314C208A40F6A72188424C
S315080000F005D12068FFF7C8FF6068804700BF002069
S3150800010032BD000038B5044672B629480168490868
S315080001104900016000F0D0F8234800680009C107CB
S3150800012054BF2449244902E0CD2201F8012B234A71
S315080001309142F9D32249234A234B03E011F8015B84
S3150800014002F8015B9A42F9D32049214A002301E0CB
S3150800015001F8013B9142FBD340F20521114A53882D
S315080001604FF20F05AB420BD113888B4206D0C0075E
S3150800017006D5180A012818BF022801D1194601E038
S3150800018004B90021064801804CF23C30508000F04A
S3150800019019FA4FF40170BDE8324000F01BB80000B0
S315080001A0B80C0020000000202C0000400040000889
S315080001B0FCED00E00000002098000020000400206C
S315080001C03418000800040020080400200804002051
S315080001D0BD0C00200D4930220A600D490A600D4900
S315080001E00A600D4910220A60010A08BF00020B497D
S315080001F008804FF20F004880BFF35F8F0848002140
S315080002000160416007480849016070473020004096
S3150800021030C8004030C0004010E000400000002018
S315080002201C4000400CED00E00400FA050020704771
S3150800023080B500F0F9F90121062000F000FA062041
S3150800024000F02DFA0121072000F0F9F9072000F047
S3150800025019FA1748016821F01001016001BD000074
S31508000260052800D9704710B5DFE800F01721030FFD
S315080002701C17104C2088411E2180C0B9072000F0A9
S315080002801BFA42F21070208010BD072000F007FA12
S315080002900620BDE8104000F00FBA0620BDE8104061
S315080002A000F0F0B90620BDE8104000F0F8B910BD1E
S315080002B000BC0040BA0C002006E05248016841F034
S315080002C001010160012141605348512101607047D5
S315080002D0F8B5504C4C4D4FF6FF774D4EB088B842A6
S315080002E027D102237F224D480188301D00F0FAF9F4
S315080002F0B088B84204BF0220B080A069800703D442
S31508000300A06940F00200A06101207070B0882060EA
S315080003100720286000206860A8603C484FF00071FC
S315080003200160A069C00732D5E06980B348F69F40EE
S315080003303CE0A0698007E3D52868C00348BF00F001
S3150800034051F8707898BBA06810F00100A168B288CF
S3150800035003D10F2A08D2521C06E0890704D5F17882
S3150800036011B1032A28BF521EF07092B2022A38BF72
S315080003700222B2802068B1888842C5D1A06900F0FF
S315080003800300032818BFFFF798FF0120F2BDA069F4
S31508000390C00701D5E06920B1A069C00704D4E069A7
S315080003A010B144F24F6001E042F227306860002045
S315080003B0F2BD80B51A48017829B9C07807281CBF4C
S315080003C00928032809D01748016841F4807101609B
S315080003D003E040F2DC5000F0B9F9FFF779FF002896
S315080003E0F7D001BD0848002141608160016821F00D
S315080003F00201016005484FF00071016004480021C0
S31508000400417070471C40004010E000E004ED00E039
S315080004100004002004400040008000403018000816
S3150800042096070808384000400078704700210160A8
S315080004308180C18001817047F8B504460D4616468D
S31508000440002710E02068803020600020E0808020AF
S315080004502081A088401CA080E088411CE18000190A
S31508000460807A78557F1CBFB2B7420CD2E0882189C2
S315080004708842F1D3802204F10A01206800F055FA77
S315080004800028DFD0F2BD0020F2BD0020704710B56D
S31508000490044600F0D0F82046BDE8104000F0D9BA6E
S315080004A02DE9F043A5B000F0BBFA00F0C4F800F05F
S315080004B00FFB012100A800F013FB404C04F1800556
S315080004C000206860A86000F093F900280FBFE86074
S315080004D08168E9604088A4F8800000A800F0C4FBA1
S315080004E0070046D1BDF80420BDF8060000A940184B
S315080004F000F20A065FFA82F894F8800080070FD5A2
S31508000500E96869B1686808EB00024B1E22EA03072E
S3150800051010B1A868B84203D2384600F073FAAF6043
S3150800052042463146686800F031FA07000FD1424664
S315080005302146686800F0F9F9002000E0401C4045B3
S3150800054005DA015D825D9142F8D0832706E0686886
S3150800055040446860002FC0D01B2FBED00420FFF790
S315080005607FFE0121384600F007FB384625B0BDE876
S31508000570F083172FF0D10020F8E770B5DAB00446FB
S3150800058036A8FFF753FF012000904FF402630C4A88
S3150800059036A901A800F016FC0FF284050FF27406BE
S315080005A000F049F8002C14BF3246002201A928465B
S315080005B000F068FE5028F3D05AB070BD280C002011
S315080005C00804002080B5FFF7F4FEFFF731FE00F0BF
S315080005D0EAF818B14FF40170FFF7FCFD00F02BF8AC
S315080005E0FFF755FD40F2011188421CBF40F2111178
S315080005F0884207D040F2052188421CBF40F20321F9
S31508000600884201D1012000E0002000F069FE0020A8
S3150800061002BD00009D170008D91700082904000824
S31508000620390400088B0400080E48012181604EF643
S31508000630BE21416000E00C4801210160704710B5F9
S3150800064082080FF2280353F82220136800F00300EB
S3150800065080000F248440A34301FA00F01843106079
S3150800066010BD0000006000400860004000B0004077
S3150800067004B0004000B2004004B2004000B400409C
S3150800068004B40040C108032908D2C1104902124A1D
S31508000690012300F0070003FA00F050507047C10824
S315080006A0032908D2C11049020C4A012300F00700A9
S315080006B003FA00F050507047C10803290BD2C11045
S315080006C0074A02EB41210A68012300F0070003FAF2
S315080006D000F050400860704714B0004010B0004069
S315080006E00CB0004030B583B0044610467F2808BFDA
S315080006F00020B1F5004F1AD108237F2240F61201D7
S3150800070000A8FFF7EFFF08220FF2380100A800F053
S315080007104BFE30B908237F2240F2A27100A8FFF7EA
S31508000720E1FF082200A9204600F01EFE37BD1A4642
S31508000730034D294300FB0311204600F015FE37BD83
S3150800074000000808FFFFFFFFFFFFFFFF0A490A68CE
S315080007500A4B1B68DB0758BF4008032809D34B6DB3
S3150800076043F001034B650B689B1A1B031B0B834263
S31508000770F9D3704700000000382000401C400040B4
S315080007809B49086048680007FCD50868704798497F
S31508000790FF2008604A681207FCD54A68920748BFD6
S315080007A00868C0B2704710B5924C41F649102060EF
S315080007B091480021C1600161416010214160022118
S315080007C0016044F62060FFF7C1FF606940F0080049
S315080007D060619F20FFF7D4FFFFF7D9FF216941F039
S315080007E0080121611F2801D1002010BD862010BDF7
S315080007F00FF2142070470020704710B500F045F836
S31508000800D720FFF7BDFFFFF7C2FF216841F00801B7
S31508000810216010BD80B5FFF7F0FF8028FBD301BD2E
S31508000820F8B505460E461746FFF7E7FF8028FBD3BF
S3150800083000F02BF8D220FFF7A3FF6802000EFFF79F
S315080008409FFF280A4006000EFFF79AFFE8B2FFF757
S3150800085097FF00F018F800F016F800F014F800F00A
S3150800086012F805E0FFF7E7FEFFF791FF06F8010B20
S315080008703846471E80B20028F4D1206840F00800A8
S3150800088020600020F2BD00207AE75C4C606840F0EA
S315080008900800606070472DE9F84306468846914689
S315080008A0FFF7ABFF8028FBD3300A4400F50B534F04
S315080008B0B9F5807F17D2786840F008007860532031
S315080008C0FFF75EFFE8B2FFF75BFFE0B2FFF758FFFE
S315080008D0F0B2FFF755FF386840F008003860FFF7B8
S315080008E08CFF8028FBD3786840F008007860822067
S315080008F0FFF746FFE8B2FFF743FFE0B2FFF740FF16
S31508000900F0B203E0FFF797FE18F8010BFFF738FF80
S315080009104846A0F1010980B20028F3D1386840F0B2
S31508000920080038600020BDE8F2832DE9F843044644
S315080009300D461646324884423ABF3119814285200F
S3150800094012D240F201194FF48078200607D0200A07
S31508000950000200F58070814203D3071B02E04E4572
S3150800096004D237461EB90020BDE8F2834746BAB21C
S3150800097029462046FFF754FF0028F5D1F61BB8B2E2
S3150800098004440544B6B24E45F0D2EAE72DE9F843E9
S3150800099004460D4616461A4884423ABF3119814222
S315080009A0852012D240F201194FF48078200607D02C
S315080009B0200A000200F58070814203D3071B02E07B
S315080009C04E4504D237461EB90020BDE8F283474695
S315080009D0BAB229462046FFF75EFF0028F5D1F61B76
S315080009E0B8B204440544B6B24E45F0D2EAE7000070
S315080009F03CC0004000B0004054C0004010B0004069
S31508000A000100040088207047020100000000000071
S31508000A10000100000000040024180008010000007E
S31508000A2080B52848682141610021816102218160E1
S31508000A300121016009210920FFF701FE04210A208E
S31508000A40BDE80440FFF7FBBD1F4800684006FBD51C
S31508000A5070471E49CA685207FCD50860704710B52A
S31508000A60044603E014F8010BFFF7F3FF207800288B
S31508000A70F8D110BD10B5044620090A282CBF373016
S31508000A803030C0B2FFF7E5FF04F00F000A282CBF8C
S31508000A9037303030C0B2BDE81040DAE70A4800689F
S31508000AA010F0020018BF0120704710B50446FFF782
S31508000AB0F5FF20B1054800682070002010BD012010
S31508000AC010BD000054C8004048C800403CC800405B
S31508000AD080B500A8FFF7E9FF0028FAD001BD00009D
S31508000AE0017001224270827001290CBF80214021C9
S31508000AF081800021C18001811D4801600E2181622B
S31508000B00016821F0100101600021416341627047CC
S31508000B10F8B504460D46164616484FF0FF310160F3
S31508000B20134FFE6200207862386840F00100386092
S31508000B30FFF781FD012C19D16DB9FFF7AFFF78B921
S31508000B40786AB042F4D3002EF2D0386840084000E4
S31508000B5038601620F2BD2846FFF7A7FF0028EFD118
S31508000B6038684008400038600020F2BD0120F2BD18
S31508000B7000F0004000A8004038B504460D4600F0D5
S31508000B8009F800F007F82A4621461820BDE838403B
S31508000B90FFF77DBC2A4621461820FFF778BC30B5FA
S31508000BA083B00446002020814AF6B43200A9207892
S31508000BB0FFF7AEFF08B11C203EBD9DF800000328D4
S31508000BC018BF182801D118203EBD042801D11720C6
S31508000BD03EBD012801D021203EBD002500E06D1C48
S31508000BE0EDB2A188091D8D420BDA40F2DD222819E3
S31508000BF000F10A012078FFF78BFF0028EFD02620A6
S31508000C003EBD0025002006E00146EDB22819007B0E
S31508000C1000F0DCFB6D1CA188EAB28A42F4D3A27A02
S31508000C20E37A9B18FF2B01D022203EBD0B191D7BB2
S31508000C30B5EB102F01D023203EBD5B7BC0B28342AB
S31508000C4001D024203EBDA078824207D0401EC0B203
S31508000C50824201D127203EBD25203EBD881C208129
S31508000C600220E08000203EBD38B5044660780128A1
S31508000C7004D023D3032855D018D31FE020780128A1
S31508000C8011D13B254320FFF7E4FE40F2DD22002187
S31508000C902078FFF73DFF30B12846451EC0B2002830
S31508000CA0F0D11B2032BD0220607010E0FFF710FF64
S31508000CB000F03AF8A078401CA07008E0182032BD71
S31508000CC02278A078411EC9B20620FFF7E0FB20462D
S31508000CD0FFF765FF050018BFFFF7FAFE272DEFD0CF
S31508000CE0A8060BD52278A1781520FFF7D0FB002D92
S31508000CF0EDD10320FFF7B4FA002032BD680603D40D
S31508000D00182D18BF1C2D07D121782846FFF734FF68
S31508000D1004206070284632BD172DE8D100F004F88B
S31508000D2003206070172032BD2278A1780620FFF7CD
S31508000D30AEBB0000F8B504460D4616461F4607E04A
S31508000D403046A047294600F053FB05467F1E761C11
S31508000D50BFB2002FF4D12846F2BD38B50C46154669
S31508000D6005E0014614F8010B00F042FB6D1EADB21A
S31508000D70002DF6D132BDF8B507460E4614461D4677
S31508000D802A46214630683B689847070005D12A4617
S31508000D902146F068FFF7E1FFF060D6F8A8002818AA
S31508000DA0C6F8A80096F8A70050B1AC362A462146E0
S31508000DB0304600F0F1FB2A462146304600F06CFB2F
S31508000DC03846F2BD10B5029C847203814260016008
S31508000DD04FF0FF31C16000210174A0F8A4108021F2
S31508000DE080F8A610002180F8A710C0F8A8102822BD
S31508000DF0AC30BDE8104000F0D0BA2DE9F84F0446F3
S31508000E008B461E469BF81B70802F28BF8027D0680C
S31508000E109B49884250D1002E4CD0B06800904FF0C4
S31508000E20FF384FF000090BEB490A9AF848500FE0D3
S31508000E30FF2D16D0FFF7FFFB4FF40063E80240F0E2
S31508000E40006241460098FFF775FF8046681CC5B2E8
S31508000E509AF84900A842EBDA09F10109B9F1060F37
S31508000E60E1DBDBF844006FEA0801884224D1A06878
S31508000E7000BA7A08594673689847C8B9E06805BA47
S31508000E80A06802BA3B464FF0FF31B068FFF752FF41
S31508000E90C04385420CD140F6A720ABF81000A068E5
S31508000EA000BA01220BF1100110307368984708B197
S31508000EB0422002E0172000E04320BDE8F28F2DE92A
S31508000EC0F44F82B081460D46D5F804B02889ADF8AE
S31508000ED0000005F1140606F1100704235A4600F02F
S31508000EE0CFF9002825D1BBF8000040BA1FFA80F8D0
S31508000EF0BBF8020040BA84B2E00748BF462076D461
S31508000F00B4F5026FC8BF4E2071DC002C6ED0DFF836
S31508000F1074A15FEA080009D04FF60441B8EB010056
S31508000F2064D0FF3865D0FE3863D0A7E0287C08B1C6
S31508000F3051205CE08D2C28BF4F2058D22346321D05
S31508000F4000F09DF9002852D1FA7E802A28BF802217
S31508000F5002F10C00844201BFB08840BA00F47F4019
S31508000F60B0F5007F3ED1F08840BA4EF25031884243
S31508000F7002BF388A40F6A721884233D1788A00F41E
S31508000F807F40B0F5807F01BFB06800BADAF81C1060
S31508000F90884227D1BAF8180040F2032188420BD1BB
S31508000FA0788AB0F5847F1DD3F86D41051AD1364984
S31508000FB0081AB0F5F02F15D84FF6FF70388206F1EB
S31508000FC010014FF0FF30FFF7C8FEF16809BAC943B0
S31508000FD0884204BF387E042804D1787E0C2818BFBE
S31508000FE0062801D0452002E0012028740020BDE82B
S31508000FF0FE8F287C08B94120F9E7042300F03EF962
S315080010000028F4D1DBF8000006BA201F84B2DAF80B
S315080010101C00864238BF4820E9D3A019796D88425A
S3150800102028BF4920E3D24FF6035080450CD10298D9
S3150800103050B131460220029A1268904720B14A20E0
S31508001040D5E7E01B84B2BE19002CCFD0BDF800004E
S315080010508442B4BF274607463B4600F00FF90028EE
S31508001060C5D102980028ECD07A0859463046029B2A
S315080010705B6898470028E4D04B20B8E74420B6E7D9
S31508001080E320BBDE0000000800E007082DE9F8436E
S3150800109004468846154605F1AC062F89102C38BF3C
S315080010A04E202CD30423324600F02BF838BB0C23F1
S315080010B0321D00F026F810BBA4F11001306800BA02
S315080010C030608CB22146304600F0AEF906E04A465A
S315080010D06968304600F0E0F9A4EB0904A4B254B1FB
S315080010E0A146BC4288BFB9464B466A6800F009F873
S315080010F00028ECD003E0304600F0F1F90020BDE806
S31508001100F2832946404636E62DE9FE4F81460C46CF
S315080011109046666804F1140A0AF1100B04F1A40556
S31508001120A878832805D14FF60710AF888221A970C1
S315080011300AE00423324600F0A3F8002866D1308876
S3150800114040BA718849BA8FB2F90748BF46205DD4BC
S31508001150A97880B24FF20972801A58D04FF4FF72FC
S31508001160801A3AD0FF382FD0FF3802D0FF386BD01C
S3150800117081E080296AD1062F23D3062301AA2146B6
S315080011804846FFF7F8FDE8B9BDF8040040BA00F490
S315080011907F40B0F5007F01BFBDF8080040BA4EF2A7
S315080011A0503188420DD1BDF8060040BA012818BF53
S315080011B0522007D1BDF8060040BAA4F8A4000020C2
S315080011C000E04520812154E081293FD12246494645
S315080011D03846FFF75BFF82214BE0822936D1042F80
S315080011E02DD30120E8700020686042462146484613
S315080011F0FFF765FE18BB0021E97069688F421ED3A8
S31508001200B94239D28322AA70791A696034E08229F0
S315080012101CD104F1AC08404600F061F92089B842B7
S31508001220B8BF4F2028DB3B463246214600F028F857
S3150800123010BBFAB23146404600F077F908B9542097
S315080012401AE00020842114E0842901D0512013E0FB
S31508001250042F18BF4C200FD104233246214600F034
S315080012600FF848B94346224659465046FFF7C5FD8A
S315080012708521A97000E04420BDE8FE8F5A4629461C
S31508001280484678E570B505460C4616462089C107D6
S3150800129001D4802801DA4F2070BD00F0B9F808B9EA
S315080012A0532070BD324621462846FFF72DFF0028F9
S315080012B018BF172803D08F2184F8A61070BD94F89C
S315080012C0A600852806D1206869688847172805D1A9
S315080012D0002070BDA07A0028E4D0502070BD000020
S315080012E010B504460020FEF7BBFF24BB0020FFF71D
S315080012F044F950B90120FFF740F930B90520FEF747
S31508001300AFFF40F20120FEF765FF0420FEF7A8FFB5
S315080013100120FEF7A5FF40F20320BDE81040FEF7C6
S3150800132059BF0FF23400FFF79AFBFFF78DFB40F227
S315080013300220FEF74FFFFFF7B3F80400F1D00FF2D3
S315080013402000FFF78CFB2046FFF794FB01A0FFF770
S3150800135086FBF0E70D0A00000D0A4F6B0D0A000028
S315080013600D0A455252200000814212D21018401E22
S315080013705118491E92B2002A1EBF11F8013900F809
S315080013800139521EF6D1704711F8013B00F8013BAE
S31508001390521E92B2002AF7D17047130003D00A46AC
S315080013A0194600F025B9704710B500E0521E92B2F2
S315080013B032B110F8013B11F8014BA342F6D001E017
S315080013C0002010BD181B40B210BD00000A0242EAF8
S315080013D011214840C0F30311484080EA003041011A
S315080013E0C9B20206D20E41EA0221484080B27047CD
S315080013F00A0A4840C0B208214308C00746BF034846
S3150800140058401846491EF7D1504070472083B8ED1A
S3150800141000206049415CFF2901D001207047401C2B
S315080014201028F6DB0020704712B583B00446206802
S3150800143000BA00903A20039901B17A2020740C2250
S31508001440211D04F11100FFF78FFF03220DF10101A1
S3150800145004F11D00FFF788FF00F03CF80398D0B1AF
S31508001460B0F57F4F05D200BA039002220DF10E01A6
S315080014700EE00FF278100088ADF80400039800BA61
S315080014800390022201A9204600F006F8042203A9C7
S31508001490204600F001F81FBDF8B504460D4616466D
S315080014A0002714E094F825000019017C7A5D514064
S315080014B0017494F82500401C84F82500C0B2102851
S315080014C004D300F007F8002084F825007F1CB742F3
S315080014D0E8D3F1BD2F4904F1100000F003B91FB598
S315080014E0044600A8102100F007F994F82500C0F179
S315080014F01000C11000EB11710911A0EB011200A92F
S315080015002046FFF7C9FF1FBD1FB50C4600AA011DDF
S31508001510002000F027F80020015D00AA825C5140F7
S315080015200155401C1028F7DB1FBD38B504460D468B
S31508001530102A07D12068216A94F8242002EB0111A9
S31508001540884201D0002032BD29462046FFF7DCFF3D
S31508001550102204F110012846FFF726FF401E80419D
S31508001560C00F32BD11B581B0144600BA01900220F1
S3150800157020700C22601CFFF7F7FE03220DF105010F
S3150800158004F10D00FFF7F0FE0249204600F0AAF824
S3150800159013BD0000F8080808F0B585B004460D46E6
S315080015A01646002100271DE031B900AA211D206A30
S315080015B0401CFFF7D7FF012104F120007A5D03796B
S315080015C00DF1000C13F80C305A407A550279521C6A
S315080015D0D2B2102A04D30022216A491C21620021B2
S315080015E002717F1CB742DFD305B0F0BDFFFE0000D5
S315080015F062F30F2262F31F42401810F0030308D06B
S31508001600C91A1FD3DB0748BF00F8012D28BF20F8E9
S31508001610022D130030B414461546103928BF20E9A8
S315080016203C00FAD8490728BF20E90C0048BF40F813
S31508001630042D890028BF20F8022D48BF00F8012D87
S3150800164030BC7047C91818BF00F8012DCB0728BF52
S3150800165000F8012D7047000038B504461B4D214699
S3150800166000F03DF8E860211D00F039F8A86004F1A3
S31508001670080100F034F8686004F10C0100F02FF856
S31508001680286031BDF8B50446114D80202860114EFA
S31508001690062030600720286030688007FCD50027C0
S315080016A004EB870100F01BF8A8627F1C042FF7D310
S315080016B030684007FCD500262A6B04EB860100F04B
S315080016C00BF8761C042EF7D3F1BD00003830004025
S315080016D00030004010A00040002000F010B80020A4
S315080016E000F01BB810B504460846FFF7B5FF2046BC
S315080016F0BDE81040C6E70000002200F023B810B588
S315080017000023002814BF1C46C3F10304E4B2625444
S31508001710120A5B1C042BF4D310BD30B54A788B78BB
S31508001720CC78097818B120461D460C4602E00846D2
S3150800173015461A4655EA002054EA022141EA0040B5
S3150800174030BD000000B500BF130096469446103918
S3150800175028BFA0E80C50FAD85FEA417C28BF0CC025
S3150800176048BF40F8042BC90728BF20F8022B48BFFA
S3150800177000F8012B00BD00002748018A40F6A77231
S31508001780914202BF418A4FF47F40014204D10229A7
S315080017908041C043C00F704700207047F8B5044623
S315080017A00D461C4E01203070FFF7E6FF18B94FF4BE
S315080017B00170FEF70FFD1848876A294644F48070C1
S315080017C0B847002131700FF2540618B9294644F477
S315080017D00070B847805DF2BD2DE9F04104468846A1
S315080017E05600FFF7C9FF18B94FF40170FEF7F2FC6F
S315080017F00948476A0023324641462046B8470FF251
S315080018001C0520B93346002241462046B847405DAC
S31508001810BDE8F081BC0C00200000080800020202A6
S315080018204B4B46474154343544423032314400002C
S31108001830EE08000000000001FFFF0000A9
S7050800006F83
