:020000040800F2
:10000000000400206F00000885000008850000083B
:10001000A70B090100000000030121510040000866
:10002000040A0300AB0F000861120008D0060008A4
:1000300000000000000000000000000000000000C0
:100040000000000000000000000000005E00000052
:10005000FFFFFFFF09480068202100EA010028B1E6
:100060000748016842685FEA010D10477047FFF7D3
:10007000F1FF00F013F800F045F800002C000040FC
:100080000040000806E000005FEA000D70474448A9
:10009000008870474FF4017000F09CB838B54FF2FB
:1000A0000F04404D00F0C2F828B140F2052028802E
:1000B0006C80012032BD3C480068C00613D56888BA
:1000C000A0421CD1288840F2022188421CBF40F285
:1000D0000621884213D040F2011188421CBF40F231
:1000E000111188420BD0314C208A40F6A72188425A
:1000F00005D12068FFF7C8FF6068804700BF002077
:1001000032BD000038B5044672B629480168490876
:100110004900016000F0DAF8234800680009C107CF
:1001200054BF2449244902E0CD2201F8012B234A7F
:100130009142F9D32249234A234B03E011F8015B92
:1001400002F8015B9A42F9D32049214A002301E0D9
:1001500001F8013B9142FBD340F20521114A53883B
:100160004FF20F05AB420BD113888B4206D0C0076C
:1001700006D5180A012818BF022801D1194601E046
:1001800004B90021064801804CF23C30508000F058
:1001900079F94FF40170BDE8324000F01BB800005F
:1001A000600F0020000000202C00004000400008EC
:1001B000FCED00E00000002098000020000400207A
:1001C000A41F000800040020380400203804002088
:1001D0006D0F00200D4930220A600D490A600D495B
:1001E0000A600D4910220A60010A08BF00020B498B
:1001F00008804FF20F004880BFF35F8F084800214E
:1002000001604160074808490160704730200040A4
:1002100030C8004030C0004010E000400000002026
:100220001C4000400CED00E00400FA05002070477F
:1002300080B500F051FA00F0A3FA38B10921152079
:1002400000F055FA0921162000F051FA012106208C
:1002500000F04DFA062000F07EFC0121072000F09E
:1002600046FA072000F06AFC1648016821F01001E8
:10027000016001BD052800D9704710B5DFE800F026
:100280001721030F1C17104C2088411E2180C0B974
:10029000072000F06DFC42F21070208010BD072096
:1002A00000F059FC0620BDE8104000F061BC0620BB
:1002B000BDE8104000F042BC0620BDE8104000F050
:1002C0004ABC10BD00BC0040620F002006E052484E
:1002D000016841F001010160012141605348512151
:1002E00001607047F8B5504C4C4D4FF6FF774D4EBE
:1002F000B088B84227D102237F224D480188301DA3
:1003000000F04CFCB088B84204BF0220B080A06965
:10031000800703D4A06940F00200A0610120707042
:10032000B08820600720286000206860A8603C48F2
:100330004FF000710160A069C00732D5E06980B359
:1003400048F69F403CE0A0698007E3D52868C003D9
:1003500048BF00F051F8707898BBA06810F0010019
:10036000A168B28803D10F2A08D2521C06E089077F
:1003700004D5F17811B1032A28BF521EF07092B251
:10038000022A38BF0222B2802068B1888842C5D1D3
:10039000A06900F00300032818BFFFF798FF0120B1
:1003A000F2BDA069C00701D5E06920B1A069C0070E
:1003B00004D4E06910B144F24F6001E042F227300A
:1003C00068600020F2BD80B51A48017829B9C0786C
:1003D00007281CBF0928032809D01748016841F4E1
:1003E0008071016003E040F2DC5000F037FCFFF761
:1003F00079FF0028F7D001BD0848002141608160E5
:10040000016821F00201016005484FF000710160B0
:1004100004480021417070471C40004010E000E09B
:1004200004ED00E00404002004400040008000408F
:100430009E1F000896070808384000400078704763
:1004400030B5DBB00446214636A800F025FC00207C
:1004500000904FF402638A4A36A901A800F0A5FD76
:100460000FF2602201A90FF2682000F0F9FE0546A4
:1004700000F039F91DB12146284600F05FFC2846FE
:100480005BB030BD80B5FFF79EFF00F01DFF00F0B0
:10049000F7FFFFF7CDFE01F017F801F0A3F840F2E7
:1004A0000120FFF797FE002002BDF8B504460F4675
:1004B0001546744E1D220FF2E411304601F0DCF9AE
:1004C0000A227149301D01F0D7F908237F226F48B5
:1004D000018806F10E0000F061FBB476522C1BD1AE
:1004E0003520307006220FF2D41106F12E0001F0F3
:1004F000C3F90120F07602237F226548018806F1C6
:100500001C0000F04BFB10237F226248018806F19B
:100510001E0000F043FB02E01D203070F776012D35
:1005200004D12046BDE8F24000F0E7BF3046BDE808
:10053000F24000F047BFF8B5574C601C00F0A9FF2F
:10054000112807D10A25082601F0D4F9400800F047
:1005500085FB03E015281BD10E2504264A4F0822EF
:100560002919B81C01F088F902223119384601F026
:1005700083F97878397801EB002080B200F0BBFE77
:100580000120B873022200215220BDE8F8408CE718
:10059000F1BD2DE9F04180463B4C002060733E4E9A
:1005A000304600F0C6FEC0073AD5701C00F071FF5F
:1005B000070035D0781CC5B204220FF2F601A81945
:1005C00001F073F960BB281D2073C0B2805D012863
:1005D0000DD003281CBF0428182811D0512808BFAB
:1005E000B8F1000F1CD1FFF7A6FF002019E045204D
:1005F0006073A07B90B1112F07D106F20A0008E0CA
:10060000B8F1000F0CD00120F2E7152F06D106F249
:100610000E000822A11C01F048F910B100206073FF
:100620000120BDE8F08138B50546174C607B10B954
:100630000120FFF7AEFF607B50B1207B1649415C83
:100640002970401C2073607B401E6073002032BD07
:10065000012032BD0C480021417381730020704796
:1006600080B50020FFF795FF38B90748007B0A499D
:10067000405C012801D1002002BD012002BD000024
:1006800008050020D4040020C4040020A21F000894
:100690009A1F0008981F0008380400200063CC004F
:1006A000FFFF0000000000000000FFFFFFFFFFFF52
:1006B000FFFF7C656D0100000000000000040A03DC
:1006C00051210000091F0008451F00083D040008D3
:1006D000F70E00082F0F00080E48012181604EF62A
:1006E000BE21416000E00C4801210160704710B557
:1006F00082080FF2280353F82220136800F0030049
:1007000080000F248440A34301FA00F018431060D6
:1007100010BD0000006000400860004000B00040D4
:1007200004B0004000B2004004B2004000B40040F9
:1007300004B40040DFF84C339860012018600020BA
:10074000186058680028FCD118691040C8407047EC
:10075000DFF8303398600120186000201860586876
:100760000028FCD1186990431140084380B2D8603A
:10077000022018600020186058680028FCD17047DB
:10078000DFF8040380787047DFF80003DFF8F81221
:100790008A780AB149780FE089566FF008029142D1
:1007A000B8BF302108DBC16D39B140F24A31C26DAA
:1007B000B1FBF2F189B2C91E01607047F8B5054678
:1007C000B14CB5F5004F18D102237F22B04800F09C
:1007D00046F8BDF80000000AFF2814BF00281820C2
:1007E0006070BDF800000006C00E10281CBF001D80
:1007F00000F0D5F8BDF80000C543E07808B100204E
:1008000005E0A089ADB26840C00701D50120E070C5
:10081000A58105F00106C5F340079E48016841F433
:10082000004101604FF440520FF20C3000EB4600E3
:100830004078010389B22020FFF78AFF304601F09B
:1008400069F84022B90100F041F92D06A80E00F028
:1008500001003843A070FFF797FF0020F2BD018828
:1008600000A800F09BB98848808970472DE9F04FB7
:1008700087B0894C20780B38C0B20090874D28781B
:1008800001280CBF0026012601F0A4F88448007856
:1008900048B914237F228348018801A800F07EF91B
:1008A000BDF8069002E0804890F808907F4F3868C5
:1008B00000F0020ADFF8F8B1DBF8000000F4E068AD
:1008C0007C484FF4E0610160002001F04BF93EB13B
:1008D00038684008400038600120287000F0BEF9F8
:1008E0002878012808D1386840F0010038600020DD
:1008F0002870642000F0B2F96F4D286820F4805011
:100900002860286840F40050286001F09DF90646F0
:1009100060880121009A914088436080CBF8008074
:1009200001F0EAF9504601F01DF901F096FA48F29B
:1009300060702860642000F091F9F0B201F05CF979
:100940005FFA89F001F096FA07B0BDE8F08F01F088
:1009500050BA38B50546A5F10B0401F0E9F8A5F148
:100960000B00C0B2102801D38A2032BD53488168E1
:10097000090702D40068C00701D58C2032BD464863
:1009800005704F4801680C2907D0A4B20FF240113E
:1009900031F82410C161FFF769FF002032BD2DE955
:1009A000F04186B006466FF02A00864246DB1423EB
:1009B0007F223C48FFF753FFBDF810004FF6FF7150
:1009C000884203D0400448BF012506D43F220021BD
:1009D000F020FFF7AFFE044600252B48394906F109
:1009E0002B02D2B22F2A1AD213220FF2241300E0C4
:1009F000521ED2B213F91270BE42F9DB03EB42066B
:100A000076780E6013F812100170002000268046E0
:100A10000327ADB14FF6BF72BDF8101029E0092EC3
:100A20000CDA325C0A60067014237F222648FFF736
:100A300016FF03200126B0462827EAE78B201DE099
:100A40004FF46052C10200F041F84FF4E06231020D
:100A500000F03CF880224FEAC81100F037F884F02B
:100A600020003C18A4B2402C28BF3F243F2284F031
:100A7000200100F02BF8FFF787FE002006B0BDE84C
:100A8000F0810000E81000401004002064100040D5
:100A90009C1F00081C1000400A04002029040020AC
:100AA000640F0020901F00080000002080200040FC
:100AB00000E100E080E100E0D01000406020004054
:100AC000AC100040C0100040921F0008A0203FE67C
:100AD000AA2129005523290000252800AA2627003D
:100AE00055282700002A2600AA2B2600552D250070
:100AF000002F2400AA3024005532230000342200A5
:100B0000AA3522005537210000392000AA3A2000DA
:100B1000D500E601EC02EF03F204F405F506F70751
:100B2000F808F909FA0AFB0BFC0DFD0FFE11FF1383
:100B300000160119021C031F00000103C10803294C
:100B400008D2C1104902124A012300F0070003FA3B
:100B500000F050507047C108032908D2C110490263
:100B60000C4A012300F0070003FA00F050507047D0
:100B7000C10803290BD2C110074A02EB41210A68C0
:100B8000012300F0070003FA00F0504008607047AE
:100B900014B0004010B000400CB0004030B583B03D
:100BA000044610467F2808BF0020B1F5004F1AD137
:100BB00008237F2240F6120100A8FFF7EFFF08226A
:100BC0000FF2380100A800F070FE30B908237F2230
:100BD00040F2A27100A8FFF7E1FF082200A9204619
:100BE00000F04AFE37BD1A46034D294300FB0311AE
:100BF000204600F041FE37BD00000808FFFFFFFF60
:100C0000FFFFFFFF10B582B0044600F022F800A8F5
:100C1000FFF7C4FF9DF801009DF80010FF2902BFF7
:100C2000FF280420002104B1801CC0B2082828BF7E
:100C30000720082928BF0721134A136823F460738B
:100C400043EAC01010601068C00851EAC00010608C
:100C500013BD02237F220D48018870470C490A68A2
:100C60000C4B1B68DB0758BF4008032809D34B6DAA
:100C700043F001034B650B689B1A1B031B0B83425C
:100C8000F9D370470000000018000040961F0008CC
:100C9000382000401C4000400170012242708270E8
:100CA00001290CBF8021402181800021C180018168
:100CB000204801600E218162016821F0100101606D
:100CC0000021416341627047F8B504460D4616465F
:100CD00019484FF0FF310160164FFE620020786224
:100CE000386840F001003860FFF7FDFC012C19D195
:100CF0006DB900F051FC78B9786AB042F4D3002E97
:100D0000F2D038684008400038601620F2BD28460E
:100D100000F049FC0028EFD13868400840003860F6
:100D20000020F2BD022C03D12846FFF77CFCF1E73E
:100D30000120F2BD00F0004000A8004038B5044694
:100D40000D4600F009F800F007F82A462146182061
:100D5000BDE83840FFF7A9BB2A4621461820FFF717
:100D6000A4BB30B583B00446002020814AF6B432DB
:100D700000A92078FFF7A8FF08B11C203EBD9DF810
:100D80000000032818BF182801D118203EBD0428F0
:100D900001D117203EBD012801D021203EBD0025F4
:100DA00000E06D1CEDB2A188091D8D420BDA40F206
:100DB000DD22281900F10A012078FFF785FF0028BD
:100DC000EFD026203EBD0025002006E00146EDB212
:100DD0002819007B01F054F86D1CA188EAB28A4200
:100DE000F4D3A27AE37A9B18FF2B01D022203EBDD8
:100DF0000B191D7BB5EB102F01D023203EBD5B7B73
:100E0000C0B2834201D024203EBDA078824207D0E8
:100E1000401EC0B2824201D127203EBD25203EBDEA
:100E2000881C20810220E08000203EBD38B50446A9
:100E30006078012804D023D3032855D018D31FE0AD
:100E40002078012811D13B25432000F056FB40F2C9
:100E5000DD2200212078FFF737FF30B12846451EFC
:100E6000C0B20028F0D11B2032BD0220607010E01B
:100E700000F0ACFB00F03AF8A078401CA07008E04D
:100E8000182032BD2278A078411EC9B20620FFF793
:100E90000CFB2046FFF765FF050018BF00F096FB2E
:100EA000272DEFD0A8060BD52278A1781520FFF7C3
:100EB000FCFA002DEDD10320FFF7DCF9002032BD54
:100EC000680603D4182D18BF1C2D07D12178284699
:100ED000FFF734FF04206070284632BD172DE8D19B
:100EE00000F004F803206070172032BD2278A1784A
:100EF0000620FFF7DABAF8B504460D461646002775
:100F000006E0E088411CE1800019807A78557F1C5A
:100F1000BFB2B74209D2E08821898842F1D3204686
:100F2000FFF784FF0028ECD0F2BD0020F2BD10B521
:100F300004462046FFF77AFF0028FAD010BD0000D3
:100F4000F8B504460D4616461F4607E03046A04752
:100F5000294600F0A7FF05467F1E761CBFB2002F72
:100F6000F4D12846F2BD38B50C46154605E00146D9
:100F700014F8010B00F096FF6D1EADB2002DF6D1F6
:100F800032BDF8B504460D4616461F463A46314670
:100F9000286823689847040005D13A463146E86836
:100FA000FFF7E1FFE8602046F2BD10B5029C8472B5
:100FB0000381426001604FF0FF31C1600021017484
:100FC00010BD2DE9F84F04468B461E469BF81B705A
:100FD000802F28BF8027D0689D49884250D1002E9D
:100FE0004CD0B06800904FF0FF384FF000090BEB89
:100FF000490A9AF848500FE0FF2D16D0FFF773FB0F
:101000004FF40063E80240F0006241460098FFF7A9
:1010100097FF8046681CC5B29AF84900A842EBDAEF
:1010200009F10109B9F1060FE1DBDBF844006FEAD1
:101030000801884224D1A06800BA7A08594673682A
:101040009847C8B9E06805BAA06802BA3B464FF0B5
:10105000FF31B068FFF774FFC04385420CD140F602
:10106000A720ABF81000A06800BA01220BF1100114
:1010700010307368984708B1422002E0172000E062
:101080004320BDE8F28F2DE9F84F80460D4691468A
:10109000D5F804A02889ADF8000005F1140606F182
:1010A0001007042352464046FFF76BFF002870D11B
:1010B000BAF8000040BA1FFA80FBBAF8020040BA42
:1010C00084B2E00748BF462063D4B4F5026FC8BFBE
:1010D0004E205EDC002C5BD05FEA0B000AD04FF69E
:1010E0000441BBEB010000F09B80FF3853D0FE3879
:1010F00051D0ABE0287C08B151204AE08D2C28BFAC
:101100004F2046D22346321D00F0A7F8002840D1D8
:10111000FA7E802A28BF802202F10C00844201BF9F
:10112000B08840BA00F47F40B0F5007F2CD1F08841
:1011300040BA4EF25031884202BF388A40F6A721A9
:10114000884202BF788A00F47F40B0F5807F1BD1CF
:10115000B06800BA3F49C969884215D14FF6FF709F
:10116000388206F110014FF0FF30FFF7FCFEF16806
:1011700009BAC943884204BF387E042804D1787E66
:101180000A2818BF062801D0452002E00120287453
:101190000020BDE8F28F287C002843D0042300F013
:1011A0005BF80028F5D1DAF8000006BA201F84B2F7
:1011B0002848C069864238BF4820EAD3A019796D13
:1011C000884228BF4920E4D24FF6035083450DD111
:1011D000B9F1000F0AD031460220D9F8002090471B
:1011E00020B14A20D5E7E01B84B2BE19002CCFD035
:1011F000BDF800008442B4BF274607463B4600F0D6
:101200002BF80028C5D1B9F1000FECD07A0851466F
:101210003046D9F8043098470028E4D04B20B8E78E
:10122000287C08B94120B4E7042C18BF4C20B0D169
:1012300004236A6800F011F80028AAD14B462A4618
:101240003946304601B0BDE8F04FBAE64420A0E789
:10125000E320BBDE0000000852462946404690E6E7
:1012600070B504460D4616462889C10701D480286A
:1012700003DA4F2070BDA87A78B932462946204655
:10128000FFF701FF0028F6D0172807D1286861680A
:101290008847172802D1002070BD502070BD000083
:1012A00070B504460D46687800260146305D00F0B2
:1012B000E7FD06F0070120FA01F1725D514031555A
:1012C000761C102EF1DB70BD80B5FEF7E0FE40F21B
:1012D000062188420CBF0120002060490870604848
:1012E00082888A8082794A70C07988700020BDE83F
:1012F000024000F08BBB5B49086070475A485B496D
:10130000486008604A6889324A608C30C8608860EA
:10131000C8688930C86056484FF6FF720260554869
:10132000026842F001020260102008630320086393
:1013300070472DE9F84F80464FF0000A4C4E376851
:1013400017F4105F02D0FFF7D9FF38E0474C17F0D1
:10135000600F28D0B80647BF256AD4F80090656AA8
:10136000D4F80890A8B209EB4000A0F1080B41485E
:101370000068800704D509F1010000F08AF890B1F7
:101380009BF800009BF8011001EB002000F4B9402D
:10139000B0F5804F07D16A0092B24946404600F04E
:1013A0006BFA4FF0010AB80603D501202063202014
:1013B00004E0780603D502202063402030605046C8
:1013C000BDE8F28F2DE9F04104462B4D286DC00792
:1013D00048BF8C2040D429480178E170491C017035
:1013E00020202862224E4FF4807070606C602C6068
:1013F00068687F3068600920A86700274FF6FF788B
:1014000004202862C6F8048000F074FA00F00F008F
:10141000C01CA8640D202865706810F0110FFBD067
:101420007068C007ECD5607880060FD5706810F042
:10143000820F04D130688004F8D5FFF75FFF706831
:10144000800703D47F1CBFB2042FD9D3C6F8048011
:10145000042F8041C043C00FBDE8F081640F00201D
:101460000000002090200040280D002000200040B7
:1014700000A0004084200040102000406A0F00209F
:1014800080B5022100A800F086FC009800F01EFA4A
:1014900001BD4178007800EB01204CF207010140CA
:1014A0004CF2030291420DD100F44461B1F5006F9A
:1014B00001D11120704700F44460B0F5446F01D1B0
:1014C000152070470020704780B53D486821416174
:1014D000002181610221816001210160092109202F
:1014E000FFF705F904210A20BDE80440FFF7FFB823
:1014F000344800684006FBD570473349CA68520734
:10150000FCD50860704710B5044603E014F8010BE1
:10151000FFF7F3FF20780028F8D110BD7CB500A9B3
:101520000FF2B80218CA18C1052104220A230CE0E0
:1015300080B290FBF3F403FB1405EDB2204600AC3F
:1015400005F130060E5505B10A46491E49B200297B
:10155000EED5D2B200A81018FFF7D5FF73BD10B5B5
:10156000044620090A282CBF37303030C0B2FFF7BC
:10157000C4FF04F00F000A282CBF37303030C0B24F
:10158000BDE81040B9E710B50446200AFFF7E7FFB1
:10159000E0B2BDE81040E2E70A48006810F002003F
:1015A00018BF0120704710B50446FFF7F5FF20B1C2
:1015B000054800682070002010BD012010BD00000B
:1015C00054C8004048C800403CC8004080B500A84E
:1015D000FFF7E9FF0028FAD001BD000030303030BD
:1015E000300000002DE9F84FFFF77DF8FFF7EEFF20
:1015F000FFF730F85E4C0020FEF73CFE5D4D5E4E7E
:101600000FF2641B0FF2F0180FF2E0190FF2CC1A70
:101610001EE00FF26810FFF776FF0C27708B384141
:1016200000F00F00FFF77AFF012FA4BF2E20FFF775
:1016300064FF3F1FF2D54DA0FFF765FFB6F84C00E1
:10164000FFF76CFF0FF25810FFF75DFFFFF7BEFFCB
:10165000FFF749F80220FEF70DFEFFF701F810BB77
:101660005046FFF750FF0220FEF7EAFE074660B93A
:101670000520FEF7FFFD4846FFF745FFFFF738FF5F
:101680000120FEF7F7FDBDE8F18F0420FEF7F2FD23
:101690004046FFF738FF3846FFF775FF5846FFF71B
:1016A00032FFFEF7D7FF2046441E18B9FEF7EFFCC5
:1016B000FEF790FD00A8FFF776FF0028C8D19DF83F
:1016C0000000FFF71AFF9DF800000A2818BF0D2838
:1016D0009FD0312804D03228D2D033282CD0B5E77F
:1016E0000FF22010FFF70FFF0120FEF7A9FE0746BB
:1016F0000FF22410FFF707FF380004D10520FEF792
:10170000B9FD4846A0E70420FEF7B4FD0FF21C1017
:10171000FFF7F9FEB80648BF0FF21C1005D4780693
:101720004CBF0FF22C100FF24410FFF7ECFE3846BE
:10173000FFF729FF584687E700275846FFF7E3FEE3
:10174000288A40F6A721884218BF0FF28000F2D104
:10175000781990F824007F1C20B1FFF7CEFEFFB26D
:10176000202FF5D3E6E700000D0A000020620000FC
:10177000403CF80300400008000000080D0A454DF9
:10178000333538312053657269616C2F4F544120D5
:10179000426F6F746C6F61646572207600000000A8
:1017A0000D0A312E2075706C6F61642065626C0DBE
:1017B0000A322E2072756E0D0A332E2065626C205F
:1017C000696E666F0D0A424C203E20002A2A206E68
:1017D0006F20617070202A2A0D0A00000D0A4F54F4
:1017E000412075706C6F616420000000636F6D7044
:1017F0006C6574650D0A00006572726F7220307836
:10180000000000000D0A626567696E2075706C6FDC
:1018100061640D0A000000000D0A53657269616C75
:101820002075706C6F6164200000000061626F724F
:101830007465640D0A0000000D0A584D6F64656DF3
:1018400020626C6F636B206572726F72203078005B
:101850000D0A646F776E6C6F61642066696C652039
:101860006572726F72203078000000000D0A657298
:10187000726F722030780000814212D21018401E20
:101880005118491E92B2002A1EBF11F8013900F802
:101890000139521EF6D1704711F8013B00F8013BA7
:1018A000521E92B2002AF7D1704710B500E0521EC6
:1018B00092B232B110F8013B11F8014BA342F6D0BD
:1018C00001E0002010BD181B40B210BD81B209B963
:1018D0004BF6EF610E4A1180000C08BF4FF6CE2088
:1018E000508070470288130448BF4A40510001806D
:1018F0001046704738B5064C62212046FFF7F2FFCC
:10190000054641F20B01A01CFFF7ECFF684032BD19
:1019100000040020F0B589B004460020FFF772F9FA
:101920000A237F222048018800A8FFF737F9002604
:101930004FF6FF750FF2880701E02A4616B94FF4FB
:101940007C4203E0022E08BF4EF23F0200A800F0E6
:1019500031F8761C052EF0D3012C03D114237F22FD
:10196000124802E014237F221148018803A8FFF7E0
:1019700015F900260FF250072A4608E02A46012EE4
:1019800008BF4FF6C07202D0082E08BF002203A87D
:1019900000F010F8761C0A2EF0D3012C04BF0120B1
:1019A000FFF730F909B0F0BD941F0008921F00083E
:1019B000901F000830F81610F05DFEF7C9BE000059
:1019C00010F0B0C0D0000000112030406070809056
:1019D000A0E0000010B584B00A237F220A480188E5
:1019E00000A8FFF7DBF84FF6FF74BDF80000A04237
:1019F00004BF4FF40170FEF7EDFB2246BDF8001066
:101A00001020FEF7A5FE1FBD941F0008F8B5044680
:101A1000FEF79DFFDFF8B00100210160DFF898516B
:101A20001521E960092101651F214160012101663D
:101A3000FEF719FFFEF7C2FE00F07FF900F042FA50
:101A400000F079F8DFF88401DFF88461DFF88411B1
:101A5000097819B902213170032101704FF6FE7126
:101A60006961DFF8741109882961696841F0D20160
:101A7000696090F90000FEF792FFDFF8387197F97E
:101A8000030000F07BF830780B30C0B2FEF761FF46
:101A900018B14FF40170FEF79DFB012C05D12868A9
:101AA000C0070FD500F022F80CE05CB92868C00729
:101AB00008D4286840F001002860C820FFF7CEF85D
:101AC00000207872DFF8F840F120206440F2F9102D
:101AD000E06300F011F92868C00706D54FF6FF70E3
:101AE000206036484FF4E0610160F1BDDFF8EC1092
:101AF0000A683048437A012B19D092B20A60314902
:101B00004FF4E0620A60DFF8D8100A6A5208520007
:101B10000A620A68520852000A600A6842F0020229
:101B20000A604A6A42F001024A620121417270472A
:101B30002048407A70472B482B494A780B7813EBA2
:101B400002220260CA788B7813EB022242604A7943
:101B50000B7913EB02228260CA79897911EB022199
:101B6000C1607047144900280A6814BF42F002029D
:101B700022F002020A601D490870704780B57F2874
:101B80000ED102237F221A48018800A8FFF706F829
:101B9000BDF80000C00554BFBDF800006FF04A005A
:101BA00040B200F19A018905090C124A11600149FD
:101BB000C87001BD200400208020004000E100E04A
:101BC00004A0004080E100E05C100040660F0020AF
:101BD000650F0020640F0020680F00201C100040DB
:101BE0006020004098200040580F0020340400205E
:101BF000A01F0008541000404FF4FE52810189B22A
:101C0000B020FEF7A5BD80B5374908B14FF0FF30D1
:101C10004860086000F021F906210920BDE8044071
:101C200000F015B938B50120FFF7EDFF044600209C
:101C3000FFF7E9FF05460120FFF7E5FF4042001BE3
:101C400000EB450000B232BD2DE9F04F83B0274CC8
:101C5000A06A019020680090254D2E68254F48F21B
:101C6000607038604CF24C00F8630220A0620120E2
:101C7000206040F24C484046FEF7F0FF0120E8604B
:101C800028600020FFF7B8FFFFF7CCFF82467F20D7
:101C9000FFF7B2FFFFF7C6FF8346504600F01EF97C
:101CA0008146AAEB0B0000F019F98246B6B22E600D
:101CB0000020E8600220206000A80088206001A8C1
:101CC0000088A0620020F8634046FEF7C7FFFE20B0
:101CD00000FB09F01FFA8AF1B0FBF1F080B2401C62
:101CE000C003000CBDE8FE8F3810004060200040AB
:101CF00028100040D0100040DFF8000110210163DF
:101D0000DFF8FC100A6842F001020A60DFF8F41004
:101D100041600160426889324260012202638A3177
:101D2000C1608160C1688931C16002210163DFF84F
:101D3000D8004FF6FF7101607047DFF8D00045F220
:101D40006401C1601E21416250210162C821C1614C
:101D50008165F021C16545F6900141668821816663
:101D60000621C16644F2066101604FF6FF714160D1
:101D7000DFF89C0048F2607101604FF4C15141608E
:101D8000DFF89000016841F004010160DFF888008D
:101D9000002141707047F0B589B004460D4600211E
:101DA000032000F03BF804AE1BE0002700F045F8EC
:101DB00026F8170000F041F800A921F817007F1C51
:101DC000082FF3DB04A8FFF76BFA0020208021889E
:101DD00036F8102051402180401C0828F7DB6D1E8A
:101DE000A41CEDB2002DE0D100F037F8012009B0BD
:101DF000F0BD0321022000F011B8000000200040D7
:101E000084200040440E002000A000404C10004000
:101E1000D0100040802000406B0F0020124A136C4D
:101E200023F008031364090341EAC01040F00100E5
:101E30000E4908600820106070470B4801680907C8
:101E4000FCD5082101600A48006880B2704780B55F
:101E5000FFF7E4FFBDE80140EFE7044801684908E7
:101E6000490001607047000018A000400470004065
:101E7000007000403F2201462020FEF769BC0000B0
:101E80000A0242EA11214840C0F30311484080EAA7
:101E900000304101C9B20206D20E41EA0221484097
:101EA00080B270470A0A4840C0B208214308C00700
:101EB00046BF034858401846491EF7D15040704766
:101EC0002083B8ED08237F22024801880248FEF7EC
:101ED00065BE00BFA21F0008580F0020002848BFA1
:101EE000404270472748018A40F6A772914202BFDC
:101EF000418A4FF47F40014204D102298041C0430E
:101F0000C00F704700207047F8B504460D461C4EC0
:101F100001203070FFF7E6FF18B94FF40170FEF7AB
:101F200059F91848876A294644F48070B847002157
:101F300031700FF2540618B9294644F40070B847BE
:101F4000805DF2BD2DE9F041044688465600FFF75A
:101F5000C9FF18B94FF40170FEF73CF90948476A08
:101F60000023324641462046B8470FF21C0520B9EF
:101F70003346002241462046B847405DBDE8F08127
:101F8000D304002000000808000202024B4B464721
:101F9000AA07BE07D207DC072A083A083C08EE0861
:101FA000F6080080EFBECEFA00000001FFFF0B0034
:101FB00000000000031800001316191C1F00000089
:101FC000008000000000007F010000FF0001000011
:101FD000000000000000000001000000FFFFFFFF04
:101FE000FFFFFFFFFFFFFFFFFFFFFFFFFFFFFFFF01
:101FF000FFFFFFFFFFFFFFFFFFFFFFFFFFFFFFFFF1
:020000040801F1
:020000040802F0
:020000040803EF
:020000040808EA
:020000040808EA
:00000001FF
