S02400006170702D626F6F746C6F616465722D6932632D6D6332346161313032352E7333371F
S31508000000000400206F00000885000008850000082D
S31508000010A70B090100000000020221510020000878
S31508000020040500002B0D000809100008FC0500084F
S315080000305D07000857080008A90800088D0700088A
S3150800004087070008910900088F0700085E0000006E
S31508000050FFFFFFFF09480068202100EA010028B1D8
S315080000600748016842685FEA010D10477047FFF7C5
S31508000070F1FF00F013F800F045F800002C000040EE
S315080000800020000806E000005FEA000D70474448BB
S31508000090008870474FF4017000F09CB838B54FF2ED
S315080000A00F04404D00F0C2F828B140F20520288020
S315080000B06C80012032BD3C480068C00613D56888AC
S315080000C0A0421CD1288840F2022188421CBF40F277
S315080000D00621884213D040F2011188421CBF40F223
S315080000E0111188420BD0314C208A40F6A72188424C
S315080000F005D12068FFF7C8FF6068804700BF002069
S3150800010032BD000038B5044672B629480168490868
S315080001104900016000F0D0F8234800680009C107CB
S3150800012054BF2449244902E0CD2201F8012B234A71
S315080001309142F9D32249234A234B03E011F8015B84
S3150800014002F8015B9A42F9D32049214A002301E0CB
S3150800015001F8013B9142FBD340F20521114A53882D
S315080001604FF20F05AB420BD113888B4206D0C0075E
S3150800017006D5180A012818BF022801D1194601E038
S3150800018004B90021064801804CF23C30508000F04A
S3150800019007FA4FF40170BDE8324000F01BB80000C2
S315080001A0B80C0020000000202C00004000200008A9
S315080001B0FCED00E00000002098000020000400206C
S315080001C02812000800040020080400200804002063
S315080001D0BD0C00200D4930220A600D490A600D4900
S315080001E00A600D4910220A60010A08BF00020B497D
S315080001F008804FF20F004880BFF35F8F0848002140
S315080002000160416007480849016070473020004096
S3150800021030C8004030C0004010D000400000002028
S315080002201C4000400CED00E00400FA050020704771
S3150800023080B500F0E7F90121062000F0EEF9062066
S3150800024000F01BFA0121072000F0E7F9072000F06B
S3150800025007FA1748016821F01001016001BD000086
S31508000260052800D9704710B5DFE800F01721030FFD
S315080002701C17104C2088411E2180C0B9072000F0A9
S3150800028009FA42F21070208010BD072000F0F5F937
S315080002900620BDE8104000F0FDB90620BDE8104074
S315080002A000F0DEB90620BDE8104000F0E6B910BD42
S315080002B000BC0040BA0C002006E04B48016841F03B
S315080002C001010160012141604C48512101607047DC
S315080002D0F8B5494C454D4FF6FF77464EB088B842BB
S315080002E027D102237F2246480188301D00F0E8F90D
S315080002F0B088B84204BF0220B080A069800703D442
S31508000300A06940F00200A06101207070B0882060EA
S315080003100720286000206860A86035484FF0007103
S315080003200160A069C00732D5E06980B348F69F40EE
S315080003303CE0A0698007E3D52868C00348BF00F001
S3150800034043F8707898BBA06810F00100A168B288DD
S3150800035003D10F2A08D2521C06E0890704D5F17882
S3150800036011B1032A28BF521EF07092B2022A38BF72
S315080003700222B2802068B1888842C5D1A06900F0FF
S315080003800300032818BFFFF798FF0120F2BDA069F4
S31508000390C00701D5E06920B1A069C00704D4E069A7
S315080003A010B144F24F6001E042F227306860002045
S315080003B0F2BD80B503E040F2DC5000F0B5F9FFF776
S315080003C087FF0028F7D001BD0848002141608160F9
S315080003D0016821F00201016005484FF000710160D3
S315080003E004480021417070471C40004010E000E0BE
S315080003F004ED00E0000400200440004000800040B6
S315080004002412000800787047002101608180C180AD
S3150800041001817047F8B504460D461646002710E0D8
S315080004202068803020600020E08080202081A0881D
S31508000430401CA080E088411CE1800019807A78552C
S315080004407F1CBFB2B7420CD2E08821898842F1D31B
S31508000450802204F10A01206800F0FDF90028DFD0A7
S31508000460F2BD0020F2BD0020704710B5044600F02A
S31508000470D0F82046BDE8104000F0B1BA2DE9F043A7
S31508000480A5B000F093FA00F0C4F800F0E7FA0121ED
S3150800049000A800F0EBFA404C04F1800500206860E3
S315080004A0A86000F070F900280FBFE8608168E9606D
S315080004B04088A4F8800000A800F09CFB070046D1FD
S315080004C0BDF80420BDF8060000A9401800F20A0687
S315080004D05FFA82F894F8800080070FD5E96869B159
S315080004E0686808EB00024B1E22EA030710B1A868E9
S315080004F0B84203D2384600F04BFAAF60424631465E
S31508000500686800F0D1F907000FD1424621466868AD
S3150800051000F0A1F9002000E0401C404505DA015D25
S31508000520825D9142F8D0832706E068684044686097
S31508000530002FC0D01B2FBED00420FFF791FE01214B
S31508000540384600F0DFFA384625B0BDE8F083172FA5
S31508000550F0D10020F8E770B5DAB0044636A8FFF700
S3150800056053FF012000904FF402630C4A36A901A8F4
S3150800057000F0DBFB0FF284050FF2740600F049F871
S31508000580002C14BF3246002201A9284600F03CFD83
S315080005905028F3D05AB070BD280C0020080400205B
S315080005A080B5FFF706FFFFF743FE00F0D7F818B14E
S315080005B04FF40170FFF70EFE00F02BF8FFF767FD0A
S315080005C040F2011188421CBF40F21111884207D03F
S315080005D040F2052188421CBF40F20321884201D11E
S315080005E0012000E0002000F02FFD002002BD0000E1
S315080005F08D110008C9110008050400081504000833
S31508000600670400080E48012181604EF6BE2141604C
S3150800061000E00C4801210160704710B582080FF20E
S31508000620280353F82220136800F0030080000F24E3
S315080006308440A34301FA00F01843106010BD00007F
S31508000640006000400860004000B0004004B0004070
S3150800065000B4004004B4004000B8004004B80040AC
S31508000660C108032908D2C1108902124A012300F0E1
S31508000670070003FA00F050507047C108032908D252
S31508000680C11089020C4A012300F0070003FA00F0A2
S3150800069050507047C10803290BD2C110074A02EB14
S315080006A081210A68012300F0070003FA00F0504090
S315080006B00860704714B0004010B000400CB000400D
S315080006C030B583B0044610467F2808BF0020B1F530
S315080006D0004F1AD108237F2240F6120100A8FFF71F
S315080006E0EFFF08220FF2380100A800F00AFD30B922
S315080006F008237F2240F2A27100A8FFF7E1FF082233
S3150800070000A9204600F0E4FC37BD1A46034D2943EC
S3150800071000FB0311204600F0DBFC37BD000004088F
S31508000720FFFFFFFFFFFFFFFF0A490A680A4B1B6826
S31508000730DB0758BF4008032809D34B6D43F0010374
S315080007404B650B689B1A1B031B0B8342F9D3704737
S3150800075000000000382000401C40004080B50D21F4
S315080007600120FFF75AFF0D210220FFF756FF8548A3
S315080007700E2141610121816100210160416003214F
S315080007808160002002BD0FF20C20704770470020E0
S315080007907047F8B50C461546010CC90041F0A00192
S315080007A0C9B2794E326942F004023261B268120760
S315080007B0FCD53160326942F002023261B2689207B2
S315080007C0FCD5B268D207EDD40204120E3260326943
S315080007D042F002023261B2689207FCD5C0B23060BC
S315080007E0306940F002003061B0688007FCD5306996
S315080007F040F004003061B0680007FCD541F0010004
S315080008003060306940F002003061B0688007FCD57E
S3150800081000270AE07061306940F001003061B06875
S315080008204007FCD5306838557F1CAF420ADAFFF717
S31508000830F0FE681E87427069B2BF40F001004008AA
S315080008404000E7E7306940F008003061B06800070B
S31508000850FCD50020F2BDF8B504460D4616464B48B1
S3150800086084423EBF37463919814201D38520F2BDFD
S3150800087020040ED0200C000400F58030814208D3F5
S3150800088020464742BFB204E0F61B3C197D19B6B2B2
S3150800089037463EB13A4629462046FFF77AFF0028F2
S315080008A0F2D0F2BD0020F2BD2DE9F8430446884691
S315080008B01646364884423ABF3119814285200ED2FF
S315080008C014F07F0F06D0E009C0018030814203D3BF
S315080008D0071B02E0812E04D237461EB90020BDE868
S315080008E0F2838027200CC00040F0A000C0B2264D3D
S315080008F0296941F004012961A9680907FCD528601E
S31508000900296941F002012961A9688907FCD5A96806
S31508000910C907EDD42004000E2860286940F00200BB
S315080009202861A8688007FCD5E0B22860286940F0ED
S3150800093002002861A8688007FCD54FF000090DE081
S31508000940FFF767FE19F808002860286940F00200DA
S315080009502861A8688007FCD509F101091FFA89F9F9
S31508000960BFB2B945ECD3286940F008002861A868E9
S315080009700007FCD5F61B3C19B844B6B2812EB0D296
S31508000980AAE700004CC000403CC00040010002003D
S315080009908820704702010000000000008000000067
S315080009A000000200181200080100000080B528485F
S315080009B06821416100218161022181600121016074
S315080009C009210920FFF729FE04210A20BDE8044071
S315080009D0FFF723BE1F4800684006FBD570471E492F
S315080009E0CA685207FCD50860704710B5044603E08C
S315080009F014F8010BFFF7F3FF20780028F8D110BD93
S31508000A0010B5044620090A282CBF37303030C0B24A
S31508000A10FFF7E5FF04F00F000A282CBF3730303007
S31508000A20C0B2BDE81040DAE70A48006810F00200D4
S31508000A3018BF0120704710B50446FFF7F5FF20B12F
S31508000A40054800682070002010BD012010BD000078
S31508000A5054C8004048C800403CC8004080B500A8BB
S31508000A60FFF7E9FF0028FAD001BD00000170012256
S31508000A704270827001290CBF8021402181800021AB
S31508000A80C18001811D4801600E218162016821F043
S31508000A90100101600021416341627047F8B50446C0
S31508000AA00D46164616484FF0FF310160134FFE6299
S31508000AB000207862386840F001003860FFF7A9FD29
S31508000AC0012C19D16DB9FFF7AFFF78B9786AB04232
S31508000AD0F4D3002EF2D0386840084000386016205B
S31508000AE0F2BD2846FFF7A7FF0028EFD1386840086F
S31508000AF0400038600020F2BD0120F2BD00E0004051
S31508000B0000A8004038B504460D4600F009F800F084
S31508000B1007F82A4621461820BDE83840FFF7A5BC45
S31508000B202A4621461820FFF7A0BC30B583B00446F4
S31508000B30002020814AF6B43200A92078FFF7AEFFDC
S31508000B4008B11C203EBD9DF80000032818BF1828D0
S31508000B5001D118203EBD042801D117203EBD012829
S31508000B6001D021203EBD002500E06D1CEDB2A18814
S31508000B70091D8D420BDA40F2DD22281900F10A011F
S31508000B802078FFF78BFF0028EFD026203EBD0025F2
S31508000B90002006E00146EDB22819007B00F0C2FAF3
S31508000BA06D1CA188EAB28A42F4D3A27AE37A9B182A
S31508000BB0FF2B01D022203EBD0B191D7BB5EB102F54
S31508000BC001D023203EBD5B7BC0B2834201D02420E6
S31508000BD03EBDA078824207D0401EC0B2824201D1F3
S31508000BE027203EBD25203EBD881C20810220E080AE
S31508000BF000203EBD38B504466078012804D023D3CA
S31508000C00032855D018D31FE02078012811D13B2599
S31508000C104320FFF7E4FE40F2DD2200212078FFF7AB
S31508000C203DFF30B12846451EC0B20028F0D11B2032
S31508000C3032BD0220607010E0FFF710FF00F03AF8AE
S31508000C40A078401CA07008E0182032BD2278A07851
S31508000C50411EC9B20620FFF708FC2046FFF765FFCC
S31508000C60050018BFFFF7FAFE272DEFD0A8060BD50B
S31508000C702278A1781520FFF7F8FB002DEDD1032087
S31508000C80FFF7EEFA002032BD680603D4182D18BF08
S31508000C901C2D07D121782846FFF734FF0420607001
S31508000CA0284632BD172DE8D100F004F803206070FD
S31508000CB0172032BD2278A1780620FFF7D6BB0000A0
S31508000CC0F8B504460D4616461F4607E03046A047C7
S31508000CD0294600F039FA05467F1E761CBFB2002F5A
S31508000CE0F4D12846F2BD38B50C46154605E001464E
S31508000CF014F8010B00F028FA6D1EADB2002DF6D1DE
S31508000D0032BDF8B504460D4616461F463A463146E4
S31508000D10286823689847040005D13A463146E868AA
S31508000D20FFF7E1FFE8602046F2BD10B5029C847229
S31508000D300381426001604FF0FF31C16000210174F8
S31508000D4010BD2DE9F84F04468B461E469BF81B70CE
S31508000D50802F28BF8027D068A649884250D1002E08
S31508000D604CD0B06800904FF0FF384FF000090BEBFD
S31508000D70490A9AF848500FE0FF2D16D0FFF749FCAC
S31508000D804FF40063E80240F0006241460098FFF71E
S31508000D9097FF8046681CC5B29AF84900A842EBDA64
S31508000DA009F10109B9F1060FE1DBDBF844006FEA46
S31508000DB00801884224D1A06800BA7A08594673689F
S31508000DC09847C8B9E06805BAA06802BA3B464FF02A
S31508000DD0FF31B068FFF774FFC04385420CD140F677
S31508000DE0A720ABF81000A06800BA01220BF1100189
S31508000DF010307368984708B1422002E0172000E0D7
S31508000E004320BDE8F28F2DE9F84F80460D469146FE
S31508000E10D5F804A02889ADF8000005F1140606F1F6
S31508000E201007042352464046FFF76BFF002824D1DB
S31508000E30BAF8000040BA1FFA80FBBAF8020040BAB6
S31508000E4084B2E00748BF462075D4B4F5026FC8BF20
S31508000E504E2070DC002C6DD05FEA0B000AD04FF6EE
S31508000E600441BBEB010000F0AD80FF3865D0FE38C9
S31508000E7063D0BDE0287C08B151205CE08D2C28BFEA
S31508000E804F2058D22346321D00F0BBF8002852D115
S31508000E90FA7E802A28BF802202F10C00844201BF14
S31508000EA0B08840BA00F47F40B0F5007F3ED1F088A4
S31508000EB040BA4EF25031884202BF388A40F6A7211E
S31508000EC0884202BF788A00F47F40B0F5807F2DD132
S31508000ED0B06800BA4849C969884227D14648008B94
S31508000EE040F2032188420BD1788AB0F5847F1DD35E
S31508000EF0F86D41051AD14149081AB0F5D03F15D801
S31508000F004FF6FF70388206F110014FF0FF30FFF7F9
S31508000F10EAFEF16809BAC943884204BF387E042844
S31508000F2004D1787E052818BF062801D0452002E09E
S31508000F30012028740020BDE8F28F287C002843D0C1
S31508000F40042300F05DF80028F5D1DAF8000006BAA7
S31508000F50201F84B22848C069864238BF4820EAD391
S31508000F60A019796D884228BF4920E4D24FF603506C
S31508000F7083450DD1B9F1000F0AD031460220D9F8C0
S31508000F800020904720B14A20D5E7E01B84B2BE195D
S31508000F90002CCFD0BDF800008442B4BF27460746D0
S31508000FA03B4600F02DF80028C5D1B9F1000FECD06A
S31508000FB07A0851463046D9F8043098470028E4D0D4
S31508000FC04B20B8E7287C08B94120B4E7042C18BFA1
S31508000FD04C20B0D104236A6800F013F80028AAD17F
S31508000FE04B462A463946304601B0BDE8F04FA8E6DA
S31508000FF04420A0E7E320BBDE0000000800E001086B
S315080010005246294640467CE670B504460D461646C5
S315080010102889C10701D4802803DA4F2070BDA87A31
S3150800102078B9324629462046FFF7EDFE0028F6D065
S31508001030172807D1286861688847172802D1002031
S3150800104070BD502070BD000010B504460020FFF7A3
S3150800105007F924BB0020FFF77EFA50B90120FFF7F5
S315080010607AFA30B90520FFF7FBF840F20120FFF7BE
S31508001070B1F80420FFF7F4F80120FFF7F1F840F281
S315080010800320BDE81040FFF7A5B80FF23400FFF7BC
S31508001090ACFCFFF79FFC40F20220FFF79BF8FFF736
S315080010A0EDF90400F1D00FF22000FFF79EFC204670
S315080010B0FFF7A6FC01A0FFF798FCF0E70D0A000071
S315080010C00D0A4F6B0D0A00000D0A4552522000000A
S315080010D0814212D21018401E5118491E92B2002A97
S315080010E01EBF11F8013900F80139521EF6D17047B2
S315080010F011F8013B00F8013B521E92B2002AF7D1C3
S31508001100704710B500E0521E92B232B110F8013B9A
S3150800111011F8014BA342F6D001E0002010BD181BC0
S3150800112040B210BD0A0242EA11214840C0F3031139
S31508001130484080EA00304101C9B20206D20E41EAAF
S315080011400221484080B270470A0A4840C0B20821C6
S315080011504308C00746BF034858401846491EF7D1FA
S31508001160504070472083B8ED2848018A40F6A77298
S31508001170914202BF418A4FF47F40014204D10229BD
S315080011808041C043C00F704700207047F8B5044639
S315080011900D461D4E01203070FFF7E6FF18B94FF4D3
S315080011A00170FFF717F81948876A294644F48070D2
S315080011B0B847002131700FF2580618B9294644F489
S315080011C00070B847805DF2BD2DE9F04104468846B7
S315080011D05600FFF7C9FF18B94FF40170FEF7FAFF7A
S315080011E00A48476A0023324641462046B8470FF266
S315080011F0200520B93346002241462046B847405DBF
S31508001200BDE8F08100000000BC0C002000000408C6
S31508001210000202024B4B46474D43323441413130BE
S3150800122032350000EE08000000000001FFFF000054
S7050800006F83
