S01500006170702D626F6F746C6F616465722E73333746
S31508000000000400206F00000885000008850000082D
S31508000010A70B090100000000010221510020000879
S31508000020040500007B0D000859100008FC050008AF
S31508000030830700080709000869090008F10700088E
S31508000040CD070008E1090008D30700085E00000094
S31508000050FFFFFFFF09480068202100EA010028B1D8
S315080000600748016842685FEA010D10477047FFF7C5
S31508000070F1FF00F013F800F045F800002C000040EE
S315080000800020000806E000005FEA000D70474448BB
S31508000090008870474FF4017000F09CB838B54FF2ED
S315080000A00F04404D00F0C2F828B140F20520288020
S315080000B06C80012032BD3C480068C00613D56888AC
S315080000C0A0421CD1288840F2022188421CBF40F277
S315080000D00621884213D040F2011188421CBF40F223
S315080000E0111188420BD0314C208A40F6A72188424C
S315080000F005D12068FFF7C8FF6068804700BF002069
S3150800010032BD000038B5044672B629480168490868
S315080001104900016000F0D0F8234800680009C107CB
S3150800012054BF2449244902E0CD2201F8012B234A71
S315080001309142F9D32249234A234B03E011F8015B84
S3150800014002F8015B9A42F9D32049214A002301E0CB
S3150800015001F8013B9142FBD340F20521114A53882D
S315080001604FF20F05AB420BD113888B4206D0C0075E
S3150800017006D5180A012818BF022801D1194601E038
S3150800018004B90021064801804CF23C30508000F04A
S3150800019007FA4FF40170BDE8324000F01BB80000C2
S315080001A0B80C0020000000202C00004000200008A9
S315080001B0FCED00E00000002098000020000400206C
S315080001C07812000800040020080400200804002013
S315080001D0BD0C00200D4930220A600D490A600D4900
S315080001E00A600D4910220A60010A08BF00020B497D
S315080001F008804FF20F004880BFF35F8F0848002140
S315080002000160416007480849016070473020004096
S3150800021030C8004030C0004010D000400000002028
S315080002201C4000400CED00E00400FA050020704771
S3150800023080B500F0E7F90121062000F0EEF9062066
S3150800024000F01BFA0121072000F0E7F9072000F06B
S3150800025007FA1748016821F01001016001BD000086
S31508000260052800D9704710B5DFE800F01721030FFD
S315080002701C17104C2088411E2180C0B9072000F0A9
S3150800028009FA42F21070208010BD072000F0F5F937
S315080002900620BDE8104000F0FDB90620BDE8104074
S315080002A000F0DEB90620BDE8104000F0E6B910BD42
S315080002B000BC0040BA0C002006E04B48016841F03B
S315080002C001010160012141604C48512101607047DC
S315080002D0F8B5494C454D4FF6FF77464EB088B842BB
S315080002E027D102237F2246480188301D00F0E8F90D
S315080002F0B088B84204BF0220B080A069800703D442
S31508000300A06940F00200A06101207070B0882060EA
S315080003100720286000206860A86035484FF0007103
S315080003200160A069C00732D5E06980B348F69F40EE
S315080003303CE0A0698007E3D52868C00348BF00F001
S3150800034043F8707898BBA06810F00100A168B288DD
S3150800035003D10F2A08D2521C06E0890704D5F17882
S3150800036011B1032A28BF521EF07092B2022A38BF72
S315080003700222B2802068B1888842C5D1A06900F0FF
S315080003800300032818BFFFF798FF0120F2BDA069F4
S31508000390C00701D5E06920B1A069C00704D4E069A7
S315080003A010B144F24F6001E042F227306860002045
S315080003B0F2BD80B503E040F2DC5000F0B5F9FFF776
S315080003C087FF0028F7D001BD0848002141608160F9
S315080003D0016821F00201016005484FF000710160D3
S315080003E004480021417070471C40004010E000E0BE
S315080003F004ED00E0000400200440004000800040B6
S315080004007412000800787047002101608180C1805D
S3150800041001817047F8B504460D461646002710E0D8
S315080004202068803020600020E08080202081A0881D
S31508000430401CA080E088411CE1800019807A78552C
S315080004407F1CBFB2B7420CD2E08821898842F1D31B
S31508000450802204F10A01206800F055FA0028DFD04E
S31508000460F2BD0020F2BD0020704710B5044600F02A
S31508000470D0F82046BDE8104000F0D9BA2DE9F0437F
S31508000480A5B000F0BBFA00F0C4F800F00FFB01219C
S3150800049000A800F013FB404C04F1800500206860BA
S315080004A0A86000F093F900280FBFE8608168E9604A
S315080004B04088A4F8800000A800F0C4FB070046D1D5
S315080004C0BDF80420BDF8060000A9401800F20A0687
S315080004D05FFA82F894F8800080070FD5E96869B159
S315080004E0686808EB00024B1E22EA030710B1A868E9
S315080004F0B84203D2384600F073FAAF604246314636
S31508000500686800F031FA07000FD14246214668684C
S3150800051000F0F9F9002000E0401C404505DA015DCD
S31508000520825D9142F8D0832706E068684044686097
S31508000530002FC0D01B2FBED00420FFF791FE01214B
S31508000540384600F007FB384625B0BDE8F083172F7C
S31508000550F0D10020F8E770B5DAB0044636A8FFF700
S3150800056053FF012000904FF402630C4A36A901A8F4
S3150800057000F003FC0FF284050FF2740600F049F848
S31508000580002C14BF3246002201A9284600F064FD5B
S315080005905028F3D05AB070BD280C0020080400205B
S315080005A080B5FFF706FFFFF743FE00F0EAF818B13B
S315080005B04FF40170FFF70EFE00F02BF8FFF767FD0A
S315080005C040F2011188421CBF40F21111884207D03F
S315080005D040F2052188421CBF40F20321884201D11E
S315080005E0012000E0002000F057FD002002BD0000B9
S315080005F0DD11000819120008050400081504000892
S31508000600670400080E48012181604EF6BE2141604C
S3150800061000E00C4801210160704710B582080FF20E
S31508000620280353F82220136800F0030080000F24E3
S315080006308440A34301FA00F01843106010BD00007F
S31508000640006000400860004000B0004004B0004070
S3150800065000B4004004B4004000B8004004B80040AC
S31508000660C108032908D2C1108902124A012300F0E1
S31508000670070003FA00F050507047C108032908D252
S31508000680C11089020C4A012300F0070003FA00F0A2
S3150800069050507047C10803290BD2C110074A02EB14
S315080006A081210A68012300F0070003FA00F0504090
S315080006B00860704714B0004010B000400CB000400D
S315080006C030B583B0044610467F2808BF0020B1F530
S315080006D0004F1AD108237F2240F6120100A8FFF71F
S315080006E0EFFF08220FF2380100A800F032FD30B9FA
S315080006F008237F2240F2A27100A8FFF7E1FF082233
S3150800070000A9204600F00CFD37BD1A46034D2943C3
S3150800071000FB0311204600F003FD37BD0000040866
S31508000720FFFFFFFFFFFFFFFF0A490A680A4B1B6826
S31508000730DB0758BF4008032809D34B6D43F0010374
S315080007404B650B689B1A1B031B0B8342F9D3704737
S3150800075000000000382000401C4000409B4908600B
S3150800076048680007FCD5086870479849FF20086064
S315080007704A681207FCD54A68920748BF0868C0B29B
S31508000780704710B5924C41F64910206091480021F7
S31508000790C16001614160102141600221016044F697
S315080007A02060FFF7C1FF606940F0080060619F2084
S315080007B0FFF7D4FFFFF7D9FF216941F0080121614E
S315080007C01F2801D1002010BD862010BD0FF214206D
S315080007D070470020704710B500F045F8D720FFF79E
S315080007E0BDFFFFF7C2FF216841F00801216010BD77
S315080007F080B5FFF7F0FF8028FBD301BDF8B50546A5
S315080008000E461746FFF7E7FF8028FBD300F02BF8C4
S31508000810D220FFF7A3FF6802000EFFF79FFF280A02
S315080008204006000EFFF79AFFE8B2FFF797FF00F0C1
S3150800083018F800F016F800F014F800F012F805E0C1
S31508000840FFF7E7FEFFF791FF06F8010B3846471E4C
S3150800085080B20028F4D1206840F00800206000200B
S31508000860F2BD00207AE75C4C606840F008006060E2
S3150800087070472DE9F843064688469146FFF7ABFFD1
S315080008808028FBD3300A4400F50B534FB9F5807F17
S3150800089017D2786840F0080078605320FFF75EFFAB
S315080008A0E8B2FFF75BFFE0B2FFF758FFF0B2FFF7D9
S315080008B055FF386840F008003860FFF78CFF80283D
S315080008C0FBD3786840F0080078608220FFF746FF7F
S315080008D0E8B2FFF743FFE0B2FFF740FFF0B203E0EC
S315080008E0FFF797FE18F8010BFFF738FF4846A0F107
S315080008F0010980B20028F3D1386840F00800386052
S315080009000020BDE8F2832DE9F84304460D46164655
S31508000910324884423ABF31198142852012D240F2C8
S3150800092001194FF48078200607D0200A000200F546
S315080009308070814203D3071B02E04E4504D2374636
S315080009401EB90020BDE8F2834746BAB229462046BA
S31508000950FFF754FF0028F5D1F61BB8B20444054446
S31508000960B6B24E45F0D2EAE72DE9F84304460D46FD
S3150800097016461A4884423ABF31198142852012D256
S3150800098040F201194FF48078200607D0200A0002A9
S3150800099000F58070814203D3071B02E04E4504D25E
S315080009A037461EB90020BDE8F2834746BAB2294643
S315080009B02046FFF75EFF0028F5D1F61BB8B20444BF
S315080009C00544B6B24E45F0D2EAE700003CC0004006
S315080009D000B0004054C0004010B0004001000400C0
S315080009E08820704702010000000000000001000096
S315080009F000000400681200080100000080B52848BD
S31508000A006821416100218161022181600121016023
S31508000A1009210920FFF701FE04210A20BDE8044048
S31508000A20FFF7FBBD1F4800684006FBD570471E4907
S31508000A30CA685207FCD50860704710B5044603E03B
S31508000A4014F8010BFFF7F3FF20780028F8D110BD42
S31508000A5010B5044620090A282CBF37303030C0B2FA
S31508000A60FFF7E5FF04F00F000A282CBF37303030B7
S31508000A70C0B2BDE81040DAE70A48006810F0020084
S31508000A8018BF0120704710B50446FFF7F5FF20B1DF
S31508000A90054800682070002010BD012010BD000028
S31508000AA054C8004048C800403CC8004080B500A86B
S31508000AB0FFF7E9FF0028FAD001BD00000170012206
S31508000AC04270827001290CBF80214021818000215B
S31508000AD0C18001811D4801600E218162016821F0F3
S31508000AE0100101600021416341627047F8B5044670
S31508000AF00D46164616484FF0FF310160134FFE6249
S31508000B0000207862386840F001003860FFF781FD00
S31508000B10012C19D16DB9FFF7AFFF78B9786AB042E1
S31508000B20F4D3002EF2D0386840084000386016200A
S31508000B30F2BD2846FFF7A7FF0028EFD1386840081E
S31508000B40400038600020F2BD0120F2BD00E0004000
S31508000B5000A8004038B504460D4600F009F800F034
S31508000B6007F82A4621461820BDE83840FFF77DBC1D
S31508000B702A4621461820FFF778BC30B583B00446CC
S31508000B80002020814AF6B43200A92078FFF7AEFF8C
S31508000B9008B11C203EBD9DF80000032818BF182880
S31508000BA001D118203EBD042801D117203EBD0128D9
S31508000BB001D021203EBD002500E06D1CEDB2A188C4
S31508000BC0091D8D420BDA40F2DD22281900F10A01CF
S31508000BD02078FFF78BFF0028EFD026203EBD0025A2
S31508000BE0002006E00146EDB22819007B00F0C2FAA3
S31508000BF06D1CA188EAB28A42F4D3A27AE37A9B18DA
S31508000C00FF2B01D022203EBD0B191D7BB5EB102F03
S31508000C1001D023203EBD5B7BC0B2834201D0242095
S31508000C203EBDA078824207D0401EC0B2824201D1A2
S31508000C3027203EBD25203EBD881C20810220E0805D
S31508000C4000203EBD38B504466078012804D023D379
S31508000C50032855D018D31FE02078012811D13B2549
S31508000C604320FFF7E4FE40F2DD2200212078FFF75B
S31508000C703DFF30B12846451EC0B20028F0D11B20E2
S31508000C8032BD0220607010E0FFF710FF00F03AF85E
S31508000C90A078401CA07008E0182032BD2278A07801
S31508000CA0411EC9B20620FFF7E0FB2046FFF765FFA5
S31508000CB0050018BFFFF7FAFE272DEFD0A8060BD5BB
S31508000CC02278A1781520FFF7D0FB002DEDD103205F
S31508000CD0FFF7C6FA002032BD680603D4182D18BFE0
S31508000CE01C2D07D121782846FFF734FF04206070B1
S31508000CF0284632BD172DE8D100F004F803206070AD
S31508000D00172032BD2278A1780620FFF7AEBB000077
S31508000D10F8B504460D4616461F4607E03046A04776
S31508000D20294600F039FA05467F1E761CBFB2002F09
S31508000D30F4D12846F2BD38B50C46154605E00146FD
S31508000D4014F8010B00F028FA6D1EADB2002DF6D18D
S31508000D5032BDF8B504460D4616461F463A46314694
S31508000D60286823689847040005D13A463146E8685A
S31508000D70FFF7E1FFE8602046F2BD10B5029C8472D9
S31508000D800381426001604FF0FF31C16000210174A8
S31508000D9010BD2DE9F84F04468B461E469BF81B707E
S31508000DA0802F28BF8027D068A649884250D1002EB8
S31508000DB04CD0B06800904FF0FF384FF000090BEBAD
S31508000DC0490A9AF848500FE0FF2D16D0FFF721FC84
S31508000DD04FF40063E80240F0006241460098FFF7CE
S31508000DE097FF8046681CC5B29AF84900A842EBDA14
S31508000DF009F10109B9F1060FE1DBDBF844006FEAF6
S31508000E000801884224D1A06800BA7A08594673684E
S31508000E109847C8B9E06805BAA06802BA3B464FF0D9
S31508000E20FF31B068FFF774FFC04385420CD140F626
S31508000E30A720ABF81000A06800BA01220BF1100138
S31508000E4010307368984708B1422002E0172000E086
S31508000E504320BDE8F28F2DE9F84F80460D469146AE
S31508000E60D5F804A02889ADF8000005F1140606F1A6
S31508000E701007042352464046FFF76BFF002824D18B
S31508000E80BAF8000040BA1FFA80FBBAF8020040BA66
S31508000E9084B2E00748BF462075D4B4F5026FC8BFD0
S31508000EA04E2070DC002C6DD05FEA0B000AD04FF69E
S31508000EB00441BBEB010000F0AD80FF3865D0FE3879
S31508000EC063D0BDE0287C08B151205CE08D2C28BF9A
S31508000ED04F2058D22346321D00F0BBF8002852D1C5
S31508000EE0FA7E802A28BF802202F10C00844201BFC4
S31508000EF0B08840BA00F47F40B0F5007F3ED1F08854
S31508000F0040BA4EF25031884202BF388A40F6A721CD
S31508000F10884202BF788A00F47F40B0F5807F2DD1E1
S31508000F20B06800BA4849C969884227D14648008B43
S31508000F3040F2032188420BD1788AB0F5847F1DD30D
S31508000F40F86D41051AD14149081AB0F5D03F15D8B0
S31508000F504FF6FF70388206F110014FF0FF30FFF7A9
S31508000F60EAFEF16809BAC943884204BF387E0428F4
S31508000F7004D1787E052818BF062801D0452002E04E
S31508000F80012028740020BDE8F28F287C002843D071
S31508000F90042300F05DF80028F5D1DAF8000006BA57
S31508000FA0201F84B22848C069864238BF4820EAD341
S31508000FB0A019796D884228BF4920E4D24FF603501C
S31508000FC083450DD1B9F1000F0AD031460220D9F870
S31508000FD00020904720B14A20D5E7E01B84B2BE190D
S31508000FE0002CCFD0BDF800008442B4BF2746074680
S31508000FF03B4600F02DF80028C5D1B9F1000FECD01A
S315080010007A0851463046D9F8043098470028E4D083
S315080010104B20B8E7287C08B94120B4E7042C18BF50
S315080010204C20B0D104236A6800F013F80028AAD12E
S315080010304B462A463946304601B0BDE8F04FA8E689
S315080010404420A0E7E320BBDE0000000800E001081A
S315080010505246294640467CE670B504460D46164675
S315080010602889C10701D4802803DA4F2070BDA87AE1
S3150800107078B9324629462046FFF7EDFE0028F6D015
S31508001080172807D1286861688847172802D10020E1
S3150800109070BD502070BD000010B504460020FFF753
S315080010A0DFF824BB0020FFF756FA50B90120FFF7F6
S315080010B052FA30B90520FFF7D3F840F20120FFF7BE
S315080010C089F80420FFF7CCF80120FFF7C9F840F2A9
S315080010D00320BDE81040FFF77DB80FF23400FFF794
S315080010E0ACFCFFF79FFC40F20220FFF773F8FFF70E
S315080010F0C5F90400F1D00FF22000FFF79EFC204648
S31508001100FFF7A6FC01A0FFF798FCF0E70D0A000020
S315080011100D0A4F6B0D0A00000D0A455252200000B9
S31508001120814212D21018401E5118491E92B2002A46
S315080011301EBF11F8013900F80139521EF6D1704761
S3150800114011F8013B00F8013B521E92B2002AF7D172
S31508001150704710B500E0521E92B232B110F8013B4A
S3150800116011F8014BA342F6D001E0002010BD181B70
S3150800117040B210BD0A0242EA11214840C0F30311E9
S31508001180484080EA00304101C9B20206D20E41EA5F
S315080011900221484080B270470A0A4840C0B2082176
S315080011A04308C00746BF034858401846491EF7D1AA
S315080011B0504070472083B8ED2848018A40F6A77248
S315080011C0914202BF418A4FF47F40014204D102296D
S315080011D08041C043C00F704700207047F8B50446E9
S315080011E00D461D4E01203070FFF7E6FF18B94FF483
S315080011F00170FEF7EFFF1948876A294644F48070A4
S31508001200B847002131700FF2580618B9294644F438
S315080012100070B847805DF2BD2DE9F0410446884666
S315080012205600FFF7C9FF18B94FF40170FEF7D2FF51
S315080012300A48476A0023324641462046B8470FF215
S31508001240200520B93346002241462046B847405D6E
S31508001250BDE8F08100000000BC0C00200000040876
S31508001260000202024B4B4647415434354442303261
S3150800127031440000EE08000000000001FFFF0000F6
S7050800006F83
