S01A0000657A73702D7370692D626F6F746C6F616465722E73333747
S31508000000000400206F00000885000008850000082D
S31508000010A70B090100000000040121510020000877
S3150800002004030000830A0008390D0008E4050008E7
S3150800003000000000000000000000000000000000B2
S315080000400000000000000000000000005E00000044
S31508000050FFFFFFFF09480068202100EA010028B1D8
S315080000600748016842685FEA010D10477047FFF7C5
S31508000070F1FF00F010F800F041F800002C000040F5
S315080000800020000803E000005FEA000D70474FF407
S31508000090017000F09BB838B54FF20F043F4D00F0E1
S315080000A0C1F828B140F2052028806C80012032BDB5
S315080000B03B480068C00613D56888A0421CD128882A
S315080000C040F2022188421CBF40F20621884213D022
S315080000D040F2011188421CBF40F2111188420BD030
S315080000E0304C208A40F6A721884205D12068FFF7C0
S315080000F0CBFF6068804700BF002032BD38B5044694
S3150800010072B62948016849084900016000F0EAF812
S31508000110234800680009C10754BF2449244902E05E
S31508000120CD2201F8012B234A9142F9D32249234AC9
S31508000130234B03E011F8015B02F8015B9A42F9D3FD
S315080001402049214A002301E001F8013B9142FBD3F3
S3150800015040F20521114A53884FF20F05AB420BD1E5
S3150800016013888B4206D0C00706D5180A012818BF7F
S31508000170022801D1194601E004B900210648018088
S315080001804CF23C30508000F077F94FF40170BDE82E
S31508000190324000F01BB80000880D00200000002047
S315080001A02C00004000200008FCED00E000000020C4
S315080001B09800002000040020E8120008000400202F
S315080001C00804002008040020970D00200D4930225D
S315080001D00A600D490A600D490A600D4910220A6035
S315080001E0010A08BF00020B4908804FF20F00488039
S315080001F0BFF35F8F0848002101604160074808493E
S31508000200016070473020004030C8004030C00040D0
S3150800021010D00040000000201C4000400CED00E01B
S315080002200400FA0510B5002408210E2000F0E9F9AB
S315080002302948402181600A2100BF491EFCD1C821F6
S315080002400268520601D4012401E0491EF8D10421AE
S315080002500E2000F0D6F9204610BD80B500F0C6F98C
S315080002600121062000F0CDF9062000F0FAF9012157
S31508000270072000F0C6F9072000F0E6F917480168DC
S3150800028021F01001016001BD052800D9704710B59D
S31508000290DFE800F01721030F1C17114C2088411EB8
S315080002A02180C0B9072000F0E9F942F210702080D9
S315080002B010BD072000F0D5F90620BDE8104000F073
S315080002C0DDB90620BDE8104000F0BEB90620BDE83D
S315080002D0104000F0C6B910BD08B4004000BC00408C
S315080002E0940D002006E04B48016841F001010160C9
S315080002F0012141604C48512101607047F8B5494CCD
S31508000300454D4FF6FF77464EB088B84227D10223AF
S315080003107F2246480188301D00F0C6F9B088B842E9
S3150800032004BF0220B080A069800703D4A06940F00A
S315080003300200A06101207070B08820600720286044
S3150800034000206860A86035484FF000710160A06918
S31508000350C00732D5E06980B348F69F403CE0A06903
S315080003608007E3D52868C00348BF00F043F87078D3
S3150800037098BBA06810F00100A168B28803D10F2AC3
S3150800038008D2521C06E0890704D5F17811B1032A70
S3150800039028BF521EF07092B2022A38BF0222B280DB
S315080003A02068B1888842C5D1A06900F003000328F7
S315080003B018BFFFF798FF0120F2BDA069C00701D555
S315080003C0E06920B1A069C00704D4E06910B144F21D
S315080003D04F6001E042F2273068600020F2BD80B528
S315080003E003E040F2DC5000F093F9FFF787FF00289E
S315080003F0F7D001BD0848002141608160016821F0FD
S315080004000201016005484FF00071016004480021AF
S31508000410417070471C40004010E000E004ED00E029
S31508000420000400200440004000800040E412000858
S315080004300078704730B5DBB00446214636A800F090
S3150800044081F9002000904FF40263514A36A901A8A9
S3150800045000F017FB0FF2801201A90FF2881000F0C6
S315080004606BFC054600F0C9F81DB12146284600F088
S31508000470B1F928465BB030BD80B5FFF7B0FFFFF78E
S31508000480ECFE00F079FC00F0B8F800F0A5FC0020BE
S31508000490FFF7FAFE07E01A2000F097FA012200217A
S315080004A0522000F023F800F0A8F80220FFF7ECFE2F
S315080004B000A800F063FC0028F5D19DF8000051283B
S315080004C0E9D03448002101700120FFF7B3FF20B9B5
S315080004D00520FFF7D9FE012000E00420FFF7D4FE2F
S315080004E040F20120FFF772FE002002BDF8B506466D
S315080004F00F461546284C1D220FF2B401204600F07F
S315080005006CFC0A2204F13401201D00F066FC082365
S315080005107F222248018804F10E0000F0C5F8A6766D
S31508000520522E1BD13520207006220FF2A40104F1A9
S315080005302E0000F052FC0120E07602237F221848A4
S31508000540018804F11C0000F0AFF810237F2215483B
S31508000550018804F11E0000F0A7F802E01D202070B3
S31508000560E776012D12D12078A0F11B05012000F0B5
S31508000570DAFC0D48FD2101704570EAB204F11A0152
S31508000580801C00F02AFC094801210170F1BD000019
S3150800059068050020930D002028050020E6120008B3
S315080005A0E2120008E012000898040020920D0020CC
S315080005B00063CC00FFFF0000000000000000FFFF02
S315080005C0FFFFFFFFFFFF7C656D01000000000000D4
S315080005D0000403005121000055120008911200087A
S315080005E03104000859090008910900080E4801213C
S315080005F081604EF6BE21416000E00C480121016091
S31508000600704710B582080FF2280353F822201368A2
S3150800061000F0030080000F248440A34301FA00F091
S315080006201843106010BD00000060004008600040DC
S3150800063000B0004004B0004000B4004004B40040DC
S3150800064000B8004004B80040C108032908D2C11008
S315080006508902124A012300F0070003FA00F05050FD
S315080006607047C108032908D2C11089020C4A012320
S3150800067000F0070003FA00F050507047C10803293C
S315080006800BD2C110074A02EB81210A68012300F048
S31508000690070003FA00F050400860704714B00040A5
S315080006A010B000400CB0004030B583B00446104688
S315080006B07F2808BF0020B1F5004F1AD108237F22F2
S315080006C040F6120100A8FFF7EFFF08220FF23801E3
S315080006D000A800F09BFB30B908237F2240F2A271E4
S315080006E000A8FFF7E1FF082200A9204600F075FBE5
S315080006F037BD1A46034D294300FB0311204600F077
S315080007006CFB37BD00000408FFFFFFFFFFFFFFFF7C
S315080007100A490A680A4B1B68DB0758BF40080328C2
S3150800072009D34B6D43F001034B650B689B1A1B03FA
S315080007301B0B8342F9D370470000000038200040A5
S315080007401C400040017001224270827001290CBFD2
S315080007508021402181800021C1800181A948016052
S315080007600E218162016821F01001016000214163B8
S3150800077041627047F8B504460D461646A2484FF042
S31508000780FF3101609F4FFE6200207862386840F0B2
S3150800079001003860FFF731FF012C19D16DB900F05F
S315080007A0FFFA78B9786AB042F4D3002EF2D03868E6
S315080007B04008400038601620F2BD284600F0DEFAF0
S315080007C00028EFD138684008400038600020F2BDA4
S315080007D00120F2BD80B50A4601461820FFF786FEBD
S315080007E0012000F0A0FBBDE80140F1E030B583B080
S315080007F00446002020814AF6B43200A92078FFF783
S31508000800B9FF08B11C203EBD9DF80000032818BF9B
S31508000810182801D118203EBD042801D117203EBD55
S31508000820012801D021203EBD002500E06D1CEDB257
S31508000830A188091D8D420BDA40F2DD22281900F144
S315080008400A012078FFF796FF0028EFD026203EBD44
S315080008500025002006E00146EDB22819007B00F0CD
S31508000860C5FC6D1CA188EAB28A42F4D3A27AE37A5F
S315080008709B18FF2B01D022203EBD0B191D7BB5EB23
S31508000880102F01D023203EBD5B7BC0B2834201D02E
S3150800089024203EBDA078824207D0401EC0B28242C4
S315080008A001D127203EBD25203EBD881C208102207F
S315080008B0E08000203EBD38B504466078012804D0A3
S315080008C00ED3032846D003D30AE00220607010E056
S315080008D000F082FA00F066F8A078401CA07008E0E4
S315080008E0182032BD2278A078411EC9B20620FFF72B
S315080008F0FDFD2046FFF77AFF05462078012804BF4C
S31508000900284600F062F80DB100F066FA272DE9D006
S31508000910A8060BD52278A1781520FFF7E7FD002D4C
S31508000920E7D10320FFF7B0FC002032BD680603D4E8
S31508000930182D18BF1C2D07D121782846FFF74AFF26
S3150800094004206070284632BD172DE8D100F02AF839
S3150800095003206070172032BDF8B504460D461646CA
S31508000960002706E0E088411CE1800019807A785566
S315080009707F1CBFB2B74209D2E08821898842F1D3E9
S315080009802046FFF798FF0028ECD0F2BD0020F2BD04
S3150800099010B50446FFF78FFF00F004F800F018F8CA
S315080009A0172010BD2278A1780620FFF79FBD80B5D5
S315080009B01649FD220A7001224A708870012000F04B
S315080009C0C7FB13480021017001BD00B91920EEE7E5
S315080009D010B582B00F4C207860B1002000F0B8FB4B
S315080009E00028F8D0002000F09EFA012000F0B0FBA5
S315080009F00020207040F2DD2200A90120FFF7BAFE90
S31508000A0013BD000000E0004000A800409804002044
S31508000A10910D0020920D0020F8B504460D461646A5
S31508000A201F4607E03046A047294600F0F1FB054679
S31508000A307F1E761CBFB2002FF4D12846F2BD38B50A
S31508000A400C46154605E0014614F8010B00F0E0FBDC
S31508000A506D1EADB2002DF6D132BDF8B504460D4671
S31508000A6016461F463A4631462868236898470400C2
S31508000A7005D13A463146E868FFF7E1FFE8602046C7
S31508000A80F2BD10B5029C84720381426001604FF08A
S31508000A90FF31C1600021017410BD2DE9F84F0446ED
S31508000AA08B461E469BF81B70802F28BF8027D06870
S31508000AB09D49884250D1002E4CD0B06800904FF026
S31508000AC0FF384FF000090BEB490A9AF848500FE037
S31508000AD0FF2D16D0FFF791FD4FF40063E80240F0B2
S31508000AE0006241460098FFF797FF8046681CC5B22A
S31508000AF09AF84900A842EBDA09F10109B9F1060F9B
S31508000B00E1DBDBF844006FEA0801884224D1A068DB
S31508000B1000BA7A08594673689847C8B9E06805BAAA
S31508000B20A06802BA3B464FF0FF31B068FFF774FF82
S31508000B30C04385420CD140F6A720ABF81000A06848
S31508000B4000BA01220BF1100110307368984708B1FA
S31508000B50422002E0172000E04320BDE8F28F2DE98D
S31508000B60F84F80460D469146D5F804A02889ADF879
S31508000B70000005F1140606F1100704235246404604
S31508000B80FFF76BFF002870D1BAF8000040BA1FFAC9
S31508000B9080FBBAF8020040BA84B2E00748BF462094
S31508000BA063D4B4F5026FC8BF4E205EDC002C5BD060
S31508000BB05FEA0B000AD04FF60441BBEB010000F0D8
S31508000BC09B80FF3853D0FE3851D0ABE0287C08B163
S31508000BD051204AE08D2C28BF4F2046D22346321D8D
S31508000BE000F0A7F8002840D1FA7E802A28BF802284
S31508000BF002F10C00844201BFB08840BA00F47F407D
S31508000C00B0F5007F2CD1F08840BA4EF250318842B8
S31508000C1002BF388A40F6A721884202BF788A00F4C4
S31508000C207F40B0F5807F1BD1B06800BA3F49C969DB
S31508000C30884215D14FF6FF70388206F110014FF041
S31508000C40FF30FFF7FCFEF16809BAC943884204BFC2
S31508000C50387E042804D1787E032818BF062801D0D8
S31508000C60452002E0012028740020BDE8F28F287C88
S31508000C70002843D0042300F05BF80028F5D1DAF801
S31508000C80000006BA201F84B22848C069864238BFC9
S31508000C904820EAD3A019796D884228BF4920E4D2B2
S31508000CA04FF6035083450DD1B9F1000F0AD03146EE
S31508000CB00220D9F80020904720B14A20D5E7E01B4A
S31508000CC084B2BE19002CCFD0BDF800008442B4BF50
S31508000CD0274607463B4600F02BF80028C5D1B9F150
S31508000CE0000FECD07A0851463046D9F804309847B8
S31508000CF00028E4D04B20B8E7287C08B94120B4E79F
S31508000D00042C18BF4C20B0D104236A6800F011F8EF
S31508000D100028AAD14B462A463946304601B0BDE8D6
S31508000D20F04FBAE64420A0E7E320BBDE0000000847
S31508000D3052462946404690E670B504460D46164684
S31508000D402889C10701D4802803DA4F2070BDA87A04
S31508000D5078B9324629462046FFF701FF0028F6D023
S31508000D60172807D1286861688847172802D1002004
S31508000D7070BD502070BD000000F090B810B5044654
S31508000D8000F00EF850B112488178124A891889780D
S31508000D9021708178491C8170002010BD012010BD8A
S31508000DA010B50B4C207888B900F0D2F978B1607884
S31508000DB040B1002000F0B7F8012000F0C9F9002082
S31508000DC0607010BD012020700020A070012010BDA9
S31508000DD0910D0020080400207047814212D2101895
S31508000DE0401E5118491E92B2002A1EBF11F8013939
S31508000DF000F80139521EF6D1704711F8013B00F888
S31508000E00013B521E92B2002AF7D1704710B500E096
S31508000E10521E92B232B110F8013B11F8014BA342AF
S31508000E20F6D001E0002010BD181B40B210BD00002E
S31508000E30DFF87403002141718171DFF87003016CDA
S31508000E40490849000164016C21F400710164DFF866
S31508000E50601310220A6320220A6300224A650A6682
S31508000E604A668A6502224A65D24A0A608D324A6013
S31508000E70D14A0A618D324A61D04A1268120709D5E9
S31508000E80026C42F001020264026C42F400720264CF
S31508000E9001220A634FF6FF710160704738B5C248F0
S31508000EA0002181700121C1700171002101700921A1
S31508000EB04170FFF7BDFFC24848F29441016008211E
S31508000EC00161C0484FF400530360BF4900220A6518
S31508000ED0BE4A546824F4706444F4006454604024A0
S31508000EE0146102240C60BA4C236040230B65136816
S31508000EF023F4704343F4804313604FF48043036044
S31508000F0000204865B348032505600420086023606F
S31508000F102020486504201061106820F4706040F4B1
S31508000F208070106031BD58B1AB480168490605D5D7
S31508000F30A2490968090744BF0421C160002000E0EE
S31508000F4001209949C870704797490A7922B9012240
S31508000F500A71087000204870704710B504460620CC
S31508000F60FFF772FB9D48102101600620FFF779FB09
S31508000F7090484078A72807BF8F4804700320FFF7DA
S31508000F80E3FF0120BDE81040E2E02DE9F843924C6A
S31508000F908A49854D2A7922B10A68120744BF042274
S31508000FA0E260AA7892B10420E06020684006FCD589
S31508000FB00420A0600020A870E87820B93220FFF746
S31508000FC0A7FB0420E0600020BDE8F283774E844F3B
S31508000FD0DFF8E48100281CBF687900283CD0062089
S31508000FE0FFF732FB287930B1002028710222294602
S31508000FF04046FFF7F2FEE87808B10420A06098F8AA
S315080010000000052804D2A72088F80200032010E073
S31508001010FE2818BFFD2808D198F801004044A721EA
S31508001020817098F80100C01C03E0A72088F8010029
S315080010300220A871A8794044401E3860012030601B
S315080010400420F861306C40F0010030640420E06050
S315080010500620FFF706FBB6E74FF40079B869C00724
S315080010601CD40868000719D5B86A8DF80000B86A54
S315080010708DF80000B86A8DF80000B86A8DF800008F
S3150800108001203060C6F80090306C40F001003064F2
S31508001090306C40F4007030640120F861F86810B9CB
S315080010A0306880058FD5012068710420A060414C06
S315080010B0306880051FD4F868022884D320780A2867
S315080010C006D00B2808D0FD2818BFFE2806D07AE7D8
S315080010D08220FFF742FF76E7C120FAE76078862884
S315080010E005D3FFF7A5FE0120FFF72EFF6BE7F9688A
S315080010F0C01C8142FAD30620FFF7A6FA306C4008D6
S3150800110040003064306C20F4007030641020F861C0
S31508001110C6F800900620FFF7A4FA287918B101202E
S3150800112000F016F84FE7607800198078A72803D0F2
S315080011300320FFF709FFF2E72078FE2803D10420F1
S31508001140FFF702FFEBE7FD2088F8000001203BE7E8
S3150800115070B50446144D234E14480168C90703D5D3
S3150800116004213160012169718168890703D502214B
S3150800117081600121A9708168490710D50421816021
S31508001180316019480068A97988421CBF0220FFF718
S31508001190DBFEFFF74DFEE87808B9042070602046AC
S315080011A0BDE87040F1E600008A0D00200CA800405A
S315080011B000C00040080400209804002008B0004041
S315080011C000B0004080E100E014A8004000B40040F0
S315080011D080E200E014BC004008B4004030C0004083
S315080011E014C0004010B4004028C000400A0242EA79
S315080011F011214840C0F30311484080EA00304101FC
S31508001200C9B20206D20E41EA0221484080B27047AE
S315080012100A0A4840C0B208214308C00746BF034827
S3150800122058401846491EF7D1504070472083B8EDFC
S315080012302848018A40F6A772914202BF418A4FF4B4
S315080012407F40014204D102298041C043C00F704744
S3150800125000207047F8B504460D461D4E0120307033
S31508001260FFF7E6FF18B94FF40170FEF7AFFF19480C
S31508001270876A294644F48070B847002131700FF216
S31508001280580618B9294644F40070B847805DF2BD7F
S315080012902DE9F041044688465600FFF7C9FF18B9FC
S315080012A04FF40170FEF792FF0A48476A0023324658
S315080012B041462046B8470FF2200520B9334600229A
S315080012C041462046B847405DBDE8F0810000000071
S315080012D0960D002000000408000202024B4B464708
S315080012E02A083A08EE08008000000001FFFF000007
S7050800006F83
