###############################################################################
#                                                                             #
# IAR ANSI C/C++ Compiler V6.40.1.53790/W32 for ARM     24/Sep/2014  08:21:50 #
# Copyright 1999-2012 IAR Systems AB.                                         #
#                                                                             #
#    Cpu mode     =  thumb                                                    #
#    Endian       =  little                                                   #
#    Source file  =  C:\Ember\EmberZNet5.1.2-GA\EM35x\app\framework\util\attr #
#                    ibute-size.c                                             #
#    Command line =  C:\Ember\EmberZNet5.1.2-GA\EM35x\app\framework\util\attr #
#                    ibute-size.c -D DEBUG -D "GENERATED_TOKEN_HEADER=\"app/b #
#                    uilder/darUNBsensorTmpAcceILLumUNB/darUNBsensorTmpAcceIL #
#                    LumUNB_tokens.h\"" -D "ZA_GENERATED_HEADER=\"app/builder #
#                    /darUNBsensorTmpAcceILLumUNB/darUNBsensorTmpAcceILLumUNB #
#                    .h\"" -D NULL_BTL -D "BOARD_HEADER=\"hal/micro/cortexm3/ #
#                    em35x/board/eznode.h\"" -D "PLATFORM_HEADER=\"hal/micro/ #
#                    cortexm3/compiler/iar.h\"" -D CORTEXM3 -D                #
#                    CORTEXM3_EM357 -D PHY_EM3XX -D                           #
#                    "APPLICATION_TOKEN_HEADER=\"app/framework/util/tokens.h\ #
#                    "" -D "CONFIGURATION_HEADER=\"app/framework/util/config. #
#                    h\"" -D "ATTRIBUTE_STORAGE_CONFIGURATION=\"app/builder/d #
#                    arUNBsensorTmpAcceILLumUNB/darUNBsensorTmpAcceILLumUNB_e #
#                    ndpoint_config.h\"" -D "__SOURCEFILE__=\"attribute-size. #
#                    c\"" -lC C:\Ember\EmberZNet5.1.2-GA\EM35x\build\darUNBse #
#                    nsorTmpAcceILLumUNB\ --diag_suppress Pa050 -o            #
#                    C:\Ember\EmberZNet5.1.2-GA\EM35x\build\darUNBsensorTmpAc #
#                    ceILLumUNB\ --debug --endian=little --cpu=Cortex-M3 -e   #
#                    --fpu=None --dlib_config "C:\Program Files (x86)\IAR     #
#                    Systems\Embedded Workbench 6.4\arm\INC\c\DLib_Config_Nor #
#                    mal.h" -I C:\Ember\EmberZNet5.1.2-GA\EM35x\app\framework #
#                    \util\ -I C:\Ember\EmberZNet5.1.2-GA\EM35x\app\builder\d #
#                    arUNBsensorTmpAcceILLumUNB\ -I                           #
#                    C:\Ember\EmberZNet5.1.2-GA\EM35x\app\builder\darUNBsenso #
#                    rTmpAcceILLumUNB\..\..\..\ -I                            #
#                    C:\Ember\EmberZNet5.1.2-GA\EM35x\app\builder\darUNBsenso #
#                    rTmpAcceILLumUNB\..\..\..\app\framework\include\ -I      #
#                    C:\Ember\EmberZNet5.1.2-GA\EM35x\app\builder\darUNBsenso #
#                    rTmpAcceILLumUNB\..\..\..\ -I                            #
#                    C:\Ember\EmberZNet5.1.2-GA\EM35x\app\builder\darUNBsenso #
#                    rTmpAcceILLumUNB\..\..\..\stack\ -I                      #
#                    C:\Ember\EmberZNet5.1.2-GA\EM35x\app\builder\darUNBsenso #
#                    rTmpAcceILLumUNB\..\..\..\hal\ -I                        #
#                    C:\Ember\EmberZNet5.1.2-GA\EM35x\app\builder\darUNBsenso #
#                    rTmpAcceILLumUNB\..\..\..\hal\..\ -Ohz --use_c++_inline  #
#    List file    =  C:\Ember\EmberZNet5.1.2-GA\EM35x\build\darUNBsensorTmpAc #
#                    ceILLumUNB\attribute-size.lst                            #
#    Object file  =  C:\Ember\EmberZNet5.1.2-GA\EM35x\build\darUNBsensorTmpAc #
#                    ceILLumUNB\attribute-size.o                              #
#                                                                             #
#                                                                             #
###############################################################################

C:\Ember\EmberZNet5.1.2-GA\EM35x\app\framework\util\attribute-size.c
      1          // *******************************************************************
      2          // * attribute-size.c
      3          // *
      4          // * Contains storage and function for retrieving attribute size.
      5          // *
      6          // * Copyright 2009 by Ember Corporation. All rights reserved.              *80*
      7          // *******************************************************************
      8          
      9          #include PLATFORM_HEADER
     10          
     11          #include "attribute-type.h"
     12          

   \                                 In section .text, align 4, keep-with-next
     13          static PGM int8u attributeSizes[] =
   \                     attributeSizes:
   \   00000000   0x20 0x01          DC8 32, 1, 48, 1, 16, 1, 24, 1, 33, 2, 27, 4, 41, 2, 34, 3, 240, 8, 226
   \              0x30 0x01    
   \              0x10 0x01    
   \              0x18 0x01    
   \              0x21 0x02    
   \              0x1B 0x04    
   \              0x29 0x02    
   \              0x22 0x03    
   \              0xF0 0x08    
   \              0xE2         
   \   00000013   0x04 0x2B          DC8 4, 43, 4, 35, 4, 8, 1, 241, 16, 25, 2, 40, 1, 224, 4, 49, 2, 38, 7
   \              0x04 0x23    
   \              0x04 0x08    
   \              0x01 0xF1    
   \              0x10 0x19    
   \              0x02 0x28    
   \              0x01 0xE0    
   \              0x04 0x31    
   \              0x02 0x26    
   \              0x07         
   \   00000026   0x2A 0x03          DC8 42, 3, 37, 6, 29, 6
   \              0x25 0x06    
   \              0x1D 0x06    
     14          {
     15          #include "attribute-size.h"
     16          };
     17          

   \                                 In section .text, align 2, keep-with-next
     18          int8u emberAfGetDataSize(int8u dataType) {
     19            int8u i;
     20            for (i = 0; i < sizeof(attributeSizes); i+=2) {
   \                     emberAfGetDataSize:
   \   00000000   0x2100             MOVS     R1,#+0
   \   00000002   0x.... 0x....      ADR.W    R2,attributeSizes
     21              if (attributeSizes[i] == dataType) {
   \                     ??emberAfGetDataSize_0:
   \   00000006   0x5C8B             LDRB     R3,[R1, R2]
   \   00000008   0x4283             CMP      R3,R0
   \   0000000A   0xD102             BNE.N    ??emberAfGetDataSize_1
     22                return attributeSizes[i + 1];
   \   0000000C   0x1888             ADDS     R0,R1,R2
   \   0000000E   0x7840             LDRB     R0,[R0, #+1]
   \   00000010   0x4770             BX       LR
     23              }
     24            }
   \                     ??emberAfGetDataSize_1:
   \   00000012   0x1C89             ADDS     R1,R1,#+2
   \   00000014   0x292C             CMP      R1,#+44
   \   00000016   0xD3F6             BCC.N    ??emberAfGetDataSize_0
     25          
     26            return 0;
   \   00000018   0x2000             MOVS     R0,#+0
   \   0000001A   0x4770             BX       LR               ;; return
     27          }
     28          

   Maximum stack usage in bytes:

   .cstack Function
   ------- --------
        0  emberAfGetDataSize


   Section sizes:

   Bytes  Function/Label
   -----  --------------
      44  attributeSizes
      28  emberAfGetDataSize

 
 72 bytes in section .text
 
 72 bytes of CODE memory

Errors: none
Warnings: none
