S0220000646172554E4273656E736F72546D7041636365494C4C756D554E422E733337D7
S31508000000301B0020A9DF010879BE01087BBE010864
S31508000010A70B0000000000000000FFFF54000008C6
S3150800002004030300000000000000000000000000B8
S3150800003000000000000000000000000000000000B2
S315080000400000000000000000000000005E00000044
S3150800005000000000301B0020A9DF010879BE010856
S315080000607BBE0108A70A080100010008040303ACC7
S3150800007021515E00000000000000000000000000A2
S315080000800000000000000000000000000000000062
S31508000090000000000000000000000000FFFFFFFF56
S315080000A0FFFFFFFFFFFFFFFF00E002080000000060
S315080000B000000000FFFFFFFFFFFFFFFFFFFFFFFF3E
S315080000C0FFFFFFFFFFFFFFFFFFFFFFFFFFFFFFFF32
S315080000D0FFFFFFFFF02F002000000000EA2F00209E
S315080000E0EA2F0020301B00209801020818E20108B8
S315080000F0D8130020400D002000000308003000201F
S31508000100301B0020A9DF010879BE01087BBE010863
S315080001107FBE01087DBE010881BE010874BF0108C3
S3150800012074BF010874BF010874BF010874BF0108D1
S3150800013083BE010874BF0108C9E10108B944000873
S3150800014061B9010874BF0108B952000874BF0108F3
S31508000150C70F000874BF010874BF010874BF0108FF
S315080001609D670008CD3B00088B3600084B6F0008DA
S3150800017074BF010874BF010853730008B1730008FF
S31508000180357C000874BF010874BF010875BF0108F3
S315080001900146382000F0D4BC13460A4601463820EA
S315080001A000F004BD0A460146382000F0B7BC70B519
S315080001B004460D4616462146382000F0C1FC0121AA
S315080001C0A940012E0CBF41EA000220EA0102D2B280
S315080001D021463820BDE8704000F0A0BC80B50D204F
S315080001E0FFF7D6FF2A2801D0002002BD012002BD54
S315080001F0CEE7000007281CD8DFE800F004070A0D40
S315080002001013161940F2E24113E040F6C41110E04B
S3150800021041F288310DE042F210710AE044F620619D
S3150800022007E0DFF83C1304E0DFF8381301E0DFF8F5
S3150800023038130846704780B5FFF7DCFF400000F525
S31508000240FA6002BD80B50020FFF7A2FFC0F3C00028
S3150800025002BD0246002171E080B50E20FFF798FF27
S3150800026000F0030002BD80B5FFF7F6FF8006000E1A
S3150800027008BF022002BD10B504460E20FFF788FF0E
S3150800028081088900042C04D0082C08BF41F002011B
S3150800029001E041F001010E202DE010B504462B20A7
S315080002A0FFF776FF00F0FC0044EA000141F0020087
S315080002B0012C06D007D3032C02D004D2014602E053
S315080002C0014641F0010115E010B504462B20FFF761
S315080002D05FFF00F0FC0044EA000141F01000012C29
S315080002E006D007D3032C02D004D2014602E0014609
S315080002F041F008012B20BDE8104053E780B500F017
S315080003000FF8C0F3C20002BD10B500F008F800F0FF
S31508000310C70004F0070140EAC1012A20EBE70446BA
S315080003202A2035E710B5FFF7FAFF00F03F0040EA4C
S315080003308411C9B22A20DEE7024601212A2036E7BF
S3150800034002460221FAE780B540212B20FFF72AFF53
S315080003500020FFF770FF00F50070800ABDE8024034
S3150800036000F04ABC024602212B2020E7024606215D
S3150800037011201CE77CB5FFF7D2FF10F002050CBF71
S3150800038006260326324600A90120FFF705FF0020AE
S31508000390032196FBF1F100AA01FB00210978090265
S315080003A024F810102A0006D100AA02EB400252785F
S315080003B0114324F8101034F91010091124F81010FC
S315080003C0401C0328E4DB73BD10B504461020FFF774
S315080003D0DFFE2070C00910BD30B587B004460D4653
S315080003E00FF2D41100F04BF80B2D1ED00E2D19D09C
S315080003F02A2D08D02B2D09D02C2D0AD02D2D0BD027
S315080004002E2D0CD014E00FF2182113E00FF27821EC
S3150800041010E00FF2DC210DE00FF23C310AE00FF29A
S31508000420A03107E00FF2004104E00FF2644101E059
S315080004300FF2C44100F023F804F0010005906008AB
S3150800044000F001000490A00800F001000390E00805
S3150800045000F001000290200900F0010001906009F7
S3150800046000F001000090A00900F00103E2090FF274
S31508000470F041012000F07EFC07B030BD3146012076
S3150800048000F078BC2DE9F04F85B080468B46FFF723
S31508000490EAFE06465A460FF23851012000F06AFC79
S315080004A032460FF24C51012000F064FCB8F90230D4
S315080004B0B8F90400B8F90020010103911901029165
S315080004C01101019100900FF24851012000F058FCEB
S315080004D000261EA71EA40FF27C090FF27C0A38F923
S315080004E01650002D03D56D42514600F040F8594686
S315080004F028B200F0B4FB02464946012000F040FC51
S31508000500594628B200F0B1FB0546B5F57A7F01D207
S3150800051000F017F8642D01D200F013F80A2D01D265
S3150800052000F00FF82A463946012000F029FC761C0F
S31508000530032ED4DB09A1012005B0BDE8F04F00F079
S3150800054019BC2146012000F01BBC000025642000D0
S315080005503000000025642E002D0000005D0000001C
S31508000560803801000071020000C4090029460120F4
S3150800057000F006BC10B50446600608D50FF2D8414F
S31508000580FFF7F5FFE00715D50FF2D4410DE004F0AB
S31508000590020040F00400042802D0062803D010BD4B
S315080005A00FF2CC4101E00FF2DC410120BDE810401A
S315080005B000F0E6BB10BD00002B2D2D2D2D2D2D2D69
S315080005C02D2D2D2D2D2B2D2D2D2D2D2D2D2D2D2D4F
S315080005D02B2D2D2D2D2D2D2D2D2D2D2D2D2D2B2D41
S315080005E02D2D2D2D2D2D2D2D2D2D2D2D2D2B2D2D2F
S315080005F02D2D2D2D2D2D2D2D2D2D2D2B2D2D2D2D1F
S315080006002D2D2D2D2D2D2D2D2D2B2D2D2D2D2D2B10
S315080006102D2D2D2D2D2D2D2D2D2D2D2D2B00000085
S315080006207C202041534C504452312020207C2020ED
S315080006302041534C445230207C2020202020445214
S315080006403220202020207C202020202020445231C7
S3150800065020202020207C20202020204452302020CA
S315080006602020207C2020204C4E4F49534520202016
S31508000670207C465F5244207C20202020414354564B
S31508000680202020207C0000007C202020202053549D
S3150800069020202020207C2020202052535420202057
S315080006A07C202020202020302020202020207C2074
S315080006B0202020534D4F445331202020207C2020D9
S315080006C02020534D4F4453302020207C20202020CA
S315080006D0534C504520202020207C4D4F4453317CDC
S315080006E0202020204D4F4453302020207C0000003D
S315080006F07C2020202020302020202020207C5741CC
S315080007004B455F5452414E537C2057414B455F4CF5
S315080007104E44505254207C202057414B455F50553B
S315080007204C534520207C202057414B455F46465F69
S315080007304D54207C2020202049504F4C202020203A
S31508000740207C20203020207C2020202050505F4F05
S31508000750442020207C0000007C494E545F454E5FB3
S3150800076041534C50207C202020202030202020205F
S315080007707C494E545F454E5F5452414E53207C4946
S315080007804E545F454E5F4C4E44505254207C494E61
S31508000790545F454E5F50554C5345207C494E545F37
S315080007A0454E5F46465F4D54207C20203020207CF5
S315080007B0494E545F454E5F44524459207C00000020
S315080007C07C494E545F4346475F41534C507C20203A
S315080007D020202030202020207C494E545F43464765
S315080007E05F5452414E537C494E545F4346475F4CD3
S315080007F04E445052547C494E545F4346475F5055C9
S315080008004C53457C494E545F4346475F46465F4DC9
S31508000810547C20203020207C494E545F4346475F55
S31508000820445244597C0000007C202020202030209F
S3150800083020202020207C202020202030202020203E
S315080008407C202020202020302020202020207C20D2
S315080008502020204850465F4F55542020207C2020D9
S3150800086020202020302020202020207C202020200E
S315080008702020302020202020207C20465331207C38
S315080008802020202020465330202020207C000000F5
S315080008907C2020202020302020202020207C202082
S315080008A020202030202020207C20202020202030BE
S315080008B02020202020207C202020202020203020BE
S315080008C020202020207C20202020202030202020AE
S315080008D02020207C2020202020203020202020209E
S315080008E0207C534C4545507C202020202057414BE6
S315080008F0452020207C0000007C2020205A59585F83
S315080009004F572020207C202020205A5F4F57202038
S315080009107C2020202020595F4F57202020207C2033
S3150800092020202020585F4F5720202020207C202080
S31508000930205A59585F4452202020207C202020200D
S315080009405A5F445220202020207C595F4452207C44
S3150800095020202020585F4452202020207C000000C0
S315080009607C202020202025642020202020207C2078
S31508000970202020202564202020207C2020202020C4
S315080009802025642020202020207C202020202020B4
S315080009902025642020202020207C202020202020A4
S315080009A025642020202020207C202020202020258F
S315080009B0642020202020207C2020256420207C20E4
S315080009C02020202020256420202020207C000000D4
S315080009D05363616C652070726F7669646564206222
S315080009E07920757365723A20B125644700000000C6
S315080009F05363616C6520726561642066726F6D2051
S31508000A006465766963653A20B1256447000000008D
S31508000A105B582C20592C205A5D3A20446563203DAA
S31508000A20205B25642C2025642C2025645D3B20480A
S31508000A306578203D205B30782532782C2030782563
S31508000A4032782C2030782532785D3B205265616CEF
S31508000A50203D205B0000000020466C61742E0000DB
S31508000A60205570736964652D446F776E2E000000FB
S31508000A704C616E6473636170652052696768742E91
S31508000A80000000004C616E647363617065204C65FC
S31508000A9066742E001D490028086812BF40F0010040
S31508000AA040084000086070471948816841F0040111
S31508000AB003E01748816841F0080181600168090769
S31508000AC0FCD5704713490860086940F002000861C0
S31508000AD088688007FCD5704780B5FFF7DBFF0D48AF
S31508000AE0016941F00101016181684907FCD5006887
S31508000AF0C0B202BD0848032181600E21416101216F
S31508000B0081610021016041607047000050C80040C3
S31508000B1044C800403CC800404CC8004070B500F0CE
S31508000B200BF800F041F800F03DF83046FFE7FFF714
S31508000B30C9FFBDE87040BCE704460D461646B3E754
S31508000B4038B504460D46FFF7AFFF00F02DF800F064
S31508000B5029F8FFF7A9FF00F022F80020FFF7BCFFED
S31508000B600446FFF7A6FF204632BD38B504460D46B3
S31508000B70FFF79AFF00F018F800F014F8FFF794FF53
S31508000B8000F00DF80120FFF7A7FF04460020FFF745
S31508000B90A3FF0546FFF78DFF45EA042032BD44F062
S31508000BA001008FE728468DE720468BE7F8B500F069
S31508000BB01DF8FFF7F9FFFFF7F5FFFFF775FFFFF7DA
S31508000BC0EEFF002404E00120FFF786FFA055641C11
S31508000BD0E4B2781E8442F6DB0020FFF77DFFB919E0
S31508000BE001F8010CFFE7BDE8F14062E704460D464F
S31508000BF016461F4658E7000080B200F0B1B980B526
S31508000C00009002E000A800F0E5F900980028F9D164
S31508000C1001BD001132214843001D400300147047EE
S31508000C20002848BF404280B2001100F00F000A2990
S31508000C300AD00DD30C2901D003D309E041F288313B
S31508000C4003E04FF4FA7100E032214843C0087047C8
S31508000C5000EB80004003000C704700127047C1F398
S31508000C608101C1F10A01084170470122C1F38101DE
S31508000C70C1F10A0102FA01F1020444BFC043401C53
S31508000C8000B24A1E104041F2883250434908B0FB70
S31508000C90F1F080B2704770B50C46B0FBF4F104FB76
S31508000CA0110542F2107190FBF1F20CA1012000F03F
S31508000CB067F80BA608E00A20B4FBF0F4A54203D2B5
S31508000CC03146012000F05CF80B2CF4D22A4605A127
S31508000CD00120BDE8704000F053B8000025642E00DE
S31508000CE03000000025640000010A4FF6FF729042AA
S31508000CF007D0022901D3002070473F4A895C084083
S31508000D0000D001207047020A022A00D3704710B5A6
S31508000D10394BD45C002914BF204324EA0000D05480
S31508000D2010BDC108012200F0070002FA00F000EB2E
S31508000D30012080B27047F8B504460D4616461F4690
S31508000D40FFF7D2FF58B13A463146002000F0F1FAD3
S31508000D501DB126A1002000F0FEFA28480480F1BD46
S31508000D6080B5FFF7C1FF20B10020BDE8024000F0C2
S31508000D7050BB01BD0CB480B502AB0A46012104E0A4
S31508000D800CB480B502AB0A460021FFF7D4FF01BCBC
S31508000D905DF80CFB2DE9F04182B000240FF27C05CA
S31508000DA0DFF85C8012A713A6E0B2FFF7BAFFFFF7D9
S31508000DB09BFF002814BF30463846009058F8243068
S31508000DC022462946002000F0CEFA002000F021FB3A
S31508000DD0641C0B2CE8DBBDE8F3810222FF2101E04D
S31508000DE002220021044800F0B2BB00000D0A0000F0
S31508000DF06E6F0000594553008C1D0020A82F002057
S31508000E005C1D002080B5FFF78CFF012103E080B54B
S31508000E10FFF787FF0021BDE8044074E75B25645DA2
S31508000E20202570203A2025700000000010B5464C99
S31508000E30002000F010FC40F68C218842206834BF60
S31508000E4040F0080020F00800206010BD10B582B000
S31508000E50044600F05FF800A800F02EFC9DF801009B
S31508000E609DF80010FF2902BFFF280420002104B1C5
S31508000E70801CC0B2082828BF0720082928BF0721D8
S31508000E80324A136823F4607343EAC010106010688E
S31508000E90C00851EAC000106013BD00B583B0022334
S31508000EA07F222B48018800A800F006FCBDF8000048
S31508000EB04FF6FF7188420EBF4FF4E1600A2190FB9E
S31508000EC0F1F0ADF8000000F019FDC0071FD500F0DD
S31508000ED021F801A800F0F0FB9DF80500FF2808BFDF
S31508000EE00420811CC9B20829A8BF0721C1F12F0215
S31508000EF0BDF80030C0F12F0002EBD272521000FB91
S31508000F000320C1F12F01B0FBF1F0ADF80000BDF8E8
S31508000F1000000EBD02237F220E48018870470E4945
S31508000F200A680E4B1B68DB0758BF4008032809D31D
S31508000F304B6D43F001034B650B689B1A1B031B0B98
S31508000F408342F9D37047000000BC004018000040F7
S31508000F5048FD010846FD0108382000401C400040B5
S31508000F6010B5040004D110BD4FF47A70FFF7D7FF0F
S31508000F702046441E80B20028F6D110BD70470000F6
S31508000F8080B500F008F880B202BD80B500F003F81D
S31508000F900002000C02BD10B500F0E6FE30490A68F2
S31508000FA0496841EA024400F0E5FE2E48017831B16D
S31508000FB02D4909688C4202D12C48406810BD002191
S31508000FC00170204610BD2A480721016027480121E3
S31508000FD0017070472DE9F84304460025206810B9CA
S31508000FE000F0CCFE2CE000F0BFFE00F02CF82068E4
S31508000FF010F1010F1CBF401C2060FFF7CCFF814693
S315080010001C482168494489B2416021684944090C51
S315080010100160164E3570164F02203860386400F0AD
S3150800102017F8012001F0C8F93D64307838B98525EC
S31508001030FFF7B1FF2168081A4844206000E02560E0
S315080010402846BDE8F28380460B48102101607047A8
S315080010500A4810210160404600F08CBE00000000DE
S3150800106010600040E02B0020E82B0020CC2C00204C
S3150800107014A000401860004080E100E000E100E0B4
S3150800108070B51346101802E0A4192C705B1EDBB26B
S315080010904BB101F00F060909451E28460A2E34BF32
S315080010A030243724F0E7101870BD2DE9F04F87B0CB
S315080010B08046894614469B4601AD002701A88DF84F
S315080010C000001BE05BF804AB04224FEA1A412846ED
S315080010D0FFF7D6FF04221FFA8AF1FFF7D1FF05466C
S315080010E005A8854209D39DF800002E1A00F096F847
S315080010F0002831D1F719FFB201AD641C9DF8000034
S315080011002E1A2078002807D0252802D005F8010BCA
S31508001110E6E714F8010F002876D02528F6D03228FD
S3150800112018BF34285FD0582857D063280CD06428B5
S3150800113018BF6C2825D0702818BF732807D07528C3
S315080011401FD0782849D0CBE75BF8040BDEE75BF8BD
S3150800115004AB00F063F800285CD1F719FFB201ADC3
S31508001160002600E0761CF6B216F80A000028F9D127
S31508001170324651464846C04700284BD1F719FFB2B8
S31508001180AEE75BF8040B0021002803D52D21297052
S3150800119001214042002300224FF0000C02E0801B90
S315080011A00CF1010C0FF2FC2656F82260B042F6D27A
S315080011B043EA0C06F6B2002E05D0C9B20CF130038C
S315080011C04B55491C0123521C092AE5DBC9B23030AC
S315080011D04855481CC0B2451982E75BF8041B022231
S315080011E0C9B2284679E714F8010F78281CBF582891
S315080011F0641EF1D114F8010C32287FF463AF5BF852
S31508001200041B042289B2ECE700F008F810B9F019BB
S31508001210C0B200E0002007B0BDE8F08FF2B201A925
S31508001220484640472DE9FC4E0446894692469B4669
S31508001230012C18BF022C2BD0032C18BF042C27D046
S3150800124026D20FF24820205C012821D1DFF8285247
S3150800125005EB8406F76800F087FD0021B980398020
S31508001260798000F087FDF66900F07EFD0021B180E7
S3150800127031807180615500F07DFD01F00FF95B4604
S3150800128052464946204602B0BDE8F04E01F09CB8E9
S315080012902120BDE8F68E2DE9F04188460446DFF8A0
S315080012A0D85105EB8401CE690FF2E011615C09B9EA
S315080012B0012035E005EB4407615D61B1B9887288A4
S315080012C0914208D100F050FD665D0021615500F09D
S315080012D051FD304624E001F0D4F8B088F8B100F0AA
S315080012E043FD71888919897988F800107188491C25
S315080012F00FF2A41232F8142000F014F87180B188A5
S31508001300491EB18000F036FD605D30B1B8884FF6F1
S31508001310FF71884204BF3088B880002000E026208C
S31508001320BDE8F08191FBF2F302FB1311704751A15E
S3150800133011E010B500240FF25413C35C012B08D139
S3150800134013460A4601460FF23900FFF7AEFE00B90A
S315080013500124204610BD0CB480B502AAFFF7E9FFA8
S3150800136002BC5DF80CFB0CB438B5044604AAFFF7BA
S31508001370E0FF05462046FFF7DAFF284676E000003C
S315080013802DE9F84F80468B46164647460FF2FC0075
S31508001390385C01283AD1384800EB8700C468002534
S315080013A00FF2FC090FF2DC0A17E000F0DDFCA18859
S315080013B001B90125218809191BF8012B8A71218891
S315080013C0491C0FF2CC0232F81720FFF7ABFF218039
S315080013D0A188491CA18000F0CDFC3046461EC0B24B
S315080013E078B1A0883AF817108842DED31DB1404676
S315080013F000F0EDFF002517F809000028F1D122209A
S3150800140005E0404600F0E3FF002000E00120BDE8CB
S31508001410F28F80B50FF27402825C012A06D1164A51
S3150800142002EB8001C9688A88002AFCD100F0F1FF26
S31508001430002002BD00000CB438B504460D4600F085
S31508001440DCFF04AB2A4621460C48FFF72EFE0FF2B6
S315080014503C01615C012908D1074901EB8400C06899
S31508001460808810B1204600F0B2FF002032BC5DF83B
S315080014700CFB00000D0A0000B41D0020FD23000827
S315080014807047000080000000000000000100000016
S31508001490800000000000000080000000000000003E
S315080014A00100000000CA9A3B00E1F5058096980005
S315080014B040420F00A086010010270000E803000044
S315080014C0640000000A000000814233D21018401E52
S315080014D05118491E10E0121F11F8013900F8013998
S315080014E011F8013900F8013911F8013900F8013904
S315080014F011F8013900F8013992B2042AEBD292B2F6
S31508001500002A1EBF11F8013900F80139521EF6D11A
S315080015107047121F11F8013B00F8013B11F8013B17
S3150800152000F8013B11F8013B00F8013B11F8013BBB
S3150800153000F8013B92B2042AEBD292B2002A1EBFEF
S3150800154011F8013B00F8013B521EF6D17047130013
S3150800155003D00A46194600F0A7BF704710B500E049
S31508001560521E92B232B110F8013B11F8014BA34258
S31508001570F6D00FE0002010BD10B500E0521E92B262
S3150800158032B110F8013B11F8014BA342F6D001E045
S31508001590002010BD181B40B210BD000070B50546EE
S315080015A00E4600F0B5FF3D4C206C20F00800206484
S315080015B000F0B0FF00F0D8FB310341EAC51141F055
S315080015C00101374A116008212160BDE8704000F02A
S315080015D0D1BB2DE9F041334C334D304E25E000F0B8
S315080015E097FF324804210160306C40F008003064EF
S315080015F02F68286840084000286000F08DFFD4F85E
S315080016000080206820F04000206000F08DFFC4F8BC
S3150800161000802F6000F080FF306C20F008003064F6
S3150800162023480421016000F075FF30680007D6D50D
S31508001630082030601F48006880B2BDE8F08180B598
S31508001640FFF7ACFFBDE80140C3E715480168490844
S31508001650490001607047F8B50746FFF71EFC0446C7
S3150800166039460320FFF7EBFF054639460120FFF709
S31508001670E6FF064639460020FFF7E1FF08490A68F3
S31508001680520852000A60401B0004711BB0FBF1F0BF
S3150800169060434000000CF2BD0000000018A00040A6
S315080016A0047000400080004094ED00E000E100E096
S315080016B080E200E00070004030B583B00446104672
S315080016C07F2808BF0020B1F5004F1AD108237F22D2
S315080016D040F6120100A8FFF7EFFF08220FF2C40137
S315080016E000A8FFF73BFF30B908237F2240F2A2711A
S315080016F000A8FFF7E1FF082200A92046FFF7E4FE4D
S3150800170037BD1A461F4D294300FB03112046FFF734
S31508001710DBFE37BD2DE9FC440C461546194941EA5E
S3150800172000060FF2740AC00702D5622100F030F8ED
S31508001730E80702D5632100F02BF81348864204D344
S31508001740A819401E1149884202D3642100F020F8E6
S31508001750002706E0B85DFF2802D06B2100F018F8D4
S315080017607F1CAF42F6D36A082146304600F02BFFAD
S3150800177028B171215046BDE8FC4400F06BBFBDE8B6
S31508001780F384000000000408000804080010040898
S31508001790504600F05FBF00006D66672D746F6B657D
S315080017A06E2E6300FFFFFFFFFFFFFFFFDFF8DC344D
S315080017B033F810001040C840704730B5DFF8D03411
S315080017C00FF27C5434F810409C60DFF8C04434F8BB
S315080017D01050954311402943D96002221A6000220D
S315080017E01A6024F8101058680028FCD130BDDFF8BC
S315080017F0A404DFF8A4148A780AB149780FE0895658
S315080018006FF008029142B8BF302108DBC16D39B1CB
S3150800181040F24A31C26DB1FBF2F189B2C91E0160CC
S315080018207047E0B50A237F22DFF8700400F062F8FB
S315080018304FF6FF72BDF806100D20FFF7BEFF07BD75
S31508001840F8B50546DFF85044B5F5004F19D102231F
S315080018507F22DFF84C0400F04DF8BDF80000000ABE
S31508001860FF2814BF002818206070BDF80000000685
S31508001870C00E10281CBF001D00F095F9BDF8000029
S31508001880C543E07808B1002005E0A089ADB26840FC
S31508001890C00701D50120E070A58105F00106C5F352
S315080018A04007DFF80004016841F4004101604FF485
S315080018B040520FF2B04000EB46004078010389B26F
S315080018C00220FFF77AFF304601F060FC4022B9019A
S315080018D000F000FA2D06A80E00F001003843A070AB
S315080018E0FFF785FFE07818B1FFF79BFF0020E0704F
S315080018F00020F2BD018800A8FFF7DEBEDFF89803D6
S31508001900808970472DE9F04F87B0DFF89C53287817
S3150800191004900B38C0B203900423039A0B2100A845
S3150800192001F0F9FC9DF800008DF80A009DF8010009
S315080019308DF809009DF802008DF808009DF803004F
S315080019408DF80500D94E3078012804D16878471EED
S31508001950BF41FF0F00E0012701F066FF80469DF9B1
S315080019600200A8F10A0408F10A0A5045B6BF8442E3
S315080019704FF0010B4FF0000B012003998840ADF89A
S3150800198006009DF80100000604D4A888BDF80610D4
S31508001990084201D04FF0010B01F0C4FF9DF8030087
S315080019A000060AD4E888BDF80610084205D19DF954
S315080019B000005045B8BF844202DB4FF0010901E040
S315080019C04FF000094BEA070059EA000000F09B8037
S315080019D0B748006800F002008DF80400DFF8D4A2CA
S315080019E0DAF8000000F4E0600590B3484FF4E061CF
S315080019F00160002002F07FFB02F082FDAF4CA7B128
S31508001A00687850B1AA48006840084000A8490860AC
S31508001A1001203070FFF783FA07E0206840F4005091
S31508001A202060206820F480502060307801280CD18E
S31508001A3002F072FE9E48006840F001009C4908606A
S31508001A40002030706420FFF76AFA2FB1687818B959
S31508001A500498C0B202F023FF687838B1206820F4F1
S31508001A6080502060206840F400502060BDF80600D1
S31508001A70C643BBF1000F08D002F0FEFF8DF8010047
S31508001A808DF80280A8883040A880B9F1000F08D0E8
S31508001A9003F099F88DF803008DF80080E888304047
S31508001AA0E8809DF900009DF90A10884202BF9DF85A
S31508001AB001009DF8091088420BD19DF902009DF995
S31508001AC00810884202BF9DF803009DF80510884259
S31508001AD006D0042300AA0399C9B20B2001F02DFCF5
S31508001AE00598CAF8000001F05FFC9DF8040002F0B2
S31508001AF002FBFFF7AAFD687828B148F260702060FB
S31508001B006420FFF70CFA9DF8010002F01FFF9DF80C
S31508001B10030003F053F807B0BDE8F08F80B501F075
S31508001B207FFEBDE80140EDE601F07ABE70B50646D7
S31508001B30A6F10B0402F042FA0546A6F10B00C0B264
S31508001B40102801D38A2070BD5D488168090702D430
S31508001B500068C00701D58C2070BD534806705949E6
S31508001B600A680C2A0ED0A4B20FF26C1232F824209E
S31508001B7090F908008018C861FFF7C4FE012D08BF58
S31508001B8002F0B0F9002070BD10B5044601F048FE19
S31508001B902046BDE81040C9E74348007870473E48EC
S31508001BA090F9000070472DE9F04186B006466FF0BF
S31508001BB02A00864246DB14237F224348FFF79AFE13
S31508001BC0BDF810004FF6FF71884203D0400448BFA5
S31508001BD0012506D43F2200211020FFF7E7FD044621
S31508001BE000252D48394906F12B02D2B22F2A1AD2DE
S31508001BF013220FF2241300E0521ED2B213F9127008
S31508001C00BE42F9DB03EB420676780E6013F8121033
S31508001C1001700020002680460327ADB14FF6BF723B
S31508001C20BDF8101029E0092E0CDA325C0A6006703D
S31508001C3014237F222648FFF75DFE03200126B046BF
S31508001C402827EAE78B201DE04FF46052C10200F016
S31508001C5041F84FF4E062310200F03CF880224FEA86
S31508001C60C81100F037F884F020003C18A4B2402CC4
S31508001C7028BF3F243F2284F0200100F02BF8FFF70D
S31508001C80B6FD002006B0BDE8F0810000A82C0020B3
S31508001C90E8100040641000405C1E002044FD010866
S31508001CA052FD01081C100040521E0020F51E00209F
S31508001CB08020004000E100E080E100E0D010004014
S31508001CC060200040AC10004040FD0108C0100040F4
S31508001CD042FD01080B2070E5AA2129005523290099
S31508001CE000252800AA26270055282700002A2600AE
S31508001CF0AA2B2600552D2500002F2400AA302400E3
S31508001D005532230000342200AA3522005537210017
S31508001D1000392000AA3A2000D500E601EC02EF03BC
S31508001D20F204F405F506F707F808F909FA0AFB0BB1
S31508001D30FC0DFD0FFE11FF1300160119021C031FEF
S31508001D4010001100200030004000410050006000E3
S31508001D50700080009000A000B000C000D000E00035
S31508001D60F000000000000103EFF31180602181F309
S31508001D701188704780F3118870470000002181F3AD
S31508001D80118870472DE9F14F9AB0DFF8DC45606895
S31508001D9018909DF86800072808BF032002D0082875
S31508001DA002D102208DF86800DFF8C05528686968F6
S31508001DB040EA0120A96840EA0140009068684007A7
S31508001DC003D5E06940F00200E0612868400703D5C2
S31508001DD0E06940F00400E0614FF0010A00982969C3
S31508001DE00AFA01F1084203D0E06940F00800E06110
S31508001DF0DFF8707500207860DFF874859DF8680054
S31508001E00012800F05282C0F0788203281ED005D33C
S31508001E10042840F072820020606017E0D8F840007D
S31508001E20C00703D5E06940F04000E061D8F84000FB
S31508001E30400703D5E06940F02000E061D8F840008B
S31508001E40800703D5E06940F01000E061FFF78CFFDA
S31508001E5002F09AFF8DF85C004FF0000BD8F84000AE
S31508001E601690D8F844001590DFF80895D9F84C0074
S31508001E701490D9F850001390D9F854001290D9F854
S31508001E8058001190DFF8F00400681090DFF8E804B5
S31508001E9040680F90DFF8E00440690E90DFF8D80438
S31508001EA0406A0D90DFF8D46430680C9070680B9027
S31508001EB0B0680A90F06809903069089070690790D0
S31508001EC0B0690690F0690590B06B0490DFF8B0042D
S31508001ED00068DFF8B0144968039102212160DFF831
S31508001EE0A8140968DFF8A424126841EA0221DFF879
S31508001EF0A024126841EA024102914FF0FF31616263
S31508001F00DFF890140A687968D20408D56A68D20797
S31508001F1005D5E269D20744BFD34641F4807100F083
S31508001F20FBF9920408D56A68520605D5E269D20714
S31508001F3044BFD34641F4804100F0EEF952040AD575
S31508001F4000F0E4F907D0E269D20704D5D346EA6877
S31508001F500AFA02F2114300F0DFF9120410D5009ACA
S31508001F602B690AFA03F31A420AD0E269D20702D4A5
S31508001F70E269120704D5D3462A690AFA02F211431E
S31508001F8000F0CAF9D20305D5E269120644BFD34662
S31508001F9041F00061796000216A68D20748BF4FF4B2
S31508001FA080516A68520648BF41F4005100F0AEF904
S31508001FB018BF41F480412B690AFA03F31A4218BF85
S31508001FC041F40041E269D20605D4E269920602D4D8
S31508001FD0E269520601D541F01001E269120648BFCE
S31508001FE041F4803108400190A52002F0C4FEC4F8EF
S31508001FF03CA0E069A16B11B1616A0142FAD0616A3D
S31508002000014200F0EF800020E063D346786840F094
S315080020108040786000F07CFA0720C8F800000F209E
S31508002020C9F8000002F0EEFE189860601698C8F825
S3150800203040001598C8F844001498C9F84C0013983D
S31508002040C9F850001298C9F854001198C9F85800F0
S31508002050C948109901600F9941600E9941610D991F
S3150800206041620C9830600B9870600A98B0600998C5
S31508002070F06008983061079870610698B061059815
S31508002080F0610498B063BE4801990160BD480399A0
S315080020904160C1484FF0FF310160BB480268BB4848
S315080020A00068BB490968636AE6693340D5F810C019
S315080020B07E68DDF808E042EA002040EA014080EA4E
S315080020C00E0000990840590801F0010140EA8120F4
S315080020D0990801F0010140EA8100D90801F00101DF
S315080020E001FA0CF1084303F47C7140EA01503043CD
S315080020F07860FFF739FE00F00DFA002020609DF8A1
S315080021005C0008B102F02CFE78689D490968C9038D
S3150800211003D5010144BF20212162D8F84010890760
S3150800212004D5C10144BF0221C8F80C10D8F84010E4
S31508002130490704D5810144BF0421C8F80C10D8F812
S315080021404010C90703D5410148BFC8F80CA0D9F803
S315080021504C1011F0E00F05D0C10503D58D494FF499
S3150800216080520A60D9F8501011F0E00F05D04104EA
S3150800217003D588494FF400520A60D9F8541011F073
S31508002180E00F1EBFE9680AFA01F1084203D0814947
S315080021904FF480420A60D9F8581011F0E00F1EBFBC
S315080021A029690AFA01F1084203D07A494FF4004234
S315080021B00A60BBF1000F70D17849096809056CD52A
S315080021C06168890769D59DF86810042965D06C4946
S315080021D00968C90642D56F490968C9063ED587F810
S315080021E000A05AE0BBF1000F7FF410AF6248806987
S315080021F040084000604988616248C06840F00400B1
S315080022006049C860664880F800A04FF20F01654A29
S31508002210138840F2072C634504BF53888B4203D1C9
S315080022204CF23C335380D346564B1B6843F08053DD
S31508002230DFF850C1CCF800300378002BFCD1BBF195
S31508002240000F1CBF51804FF0000B54484068000433
S31508002250B860524989680843B860DDE64FF47A7178
S3150800226000223A70504A536D43F001035365424BBE
S315080022709B69DB0758BF4FF4FA711368474C6468CB
S31508002280464DAD6845EA0444BD68AC4205D11468BC
S31508002290E41A2403240B8C42F0D340F00040786003
S315080022A01BB0BDE8F04FFFF769BD02F06DFD0446AF
S315080022B0A52002F060FD00F02BF9FFF75FFD3B4D0E
S315080022C02E68286840084000286000F025F9384F35
S315080022D0D7F80080386820F04000386000F024F90C
S315080022E0C7F800802E6000F017F90CB102F038FD2F
S315080022F01BB0BDE8F04F00F00DB940F222410FF2D5
S31508002300C0001BB0BDE8F04F00F0A4B9009AEB6816
S315080023100AFA03F31A4270471E4A12687047134AAC
S31508002320CBB21360C1F307235360C1F30741916031
S31508002330204900230B601368002B04BF5368002B49
S3150800234001D192681AB10A6842F001020A600A6865
S3150800235042F400720A600A6842F080020A6011E5D7
S3150800236000000000E02B00200400004008BC0040EC
S3150800237014A0004014A8004004400040005000404B
S3150800238000E100E004ED00E008B0004008B40040B9
S3150800239008B8004000E200E080E200E00C6000407F
S315080023A0F02C0020000000203820004094ED00E0CA
S315080023B000800040200000404FF41861AFE700009D
S315080023C0736C6565702E630000B12120704700B1FB
S315080023D0704710B52B480468608828B14FF4B97166
S315080023E00FF2BC0000F036F9A188C9B2A01D02F0B0
S315080023F06CFD0020A080208010BD704780B50B467C
S31508002400114620B9184602F060FD002002BD2120C1
S3150800241002BD02F0ACBCF0B51B4B1C681C4A128806
S315080024201A4D0FE02688361910F8017BB7712688F1
S31508002430761C2F8896FBF7FC07FB1C662680A68869
S31508002440761CA6800E46711EF6B2CEB1A688571E19
S31508002450BE42E7DB18680F490F4B1C7824B9008881
S31508002460088023201870F0BD09880180232119707F
S31508002470418803888B423ABF511A5918591A8180E4
S31508002480F0BD7047C01D0020D01D0020981400081C
S31508002490C4F90108B81D0020B41D002070470000CB
S315080024A0756172742E63000062F30F2262F31F4295
S315080024B0401810F0030308D0C91A1FD3DB0748BF1A
S315080024C000F8012D28BF20F8022D130030B4144659
S315080024D01546103928BF20E93C00FAD8490728BF15
S315080024E020E90C0048BF40F8042D890028BF20F8D1
S315080024F0022D48BF00F8012D30BC7047C91818BF17
S3150800250000F8012DCB0728BF00F8012D7047000001
S3150800251072B6704762B67047BFF35F8FBFF34F8FCF
S31508002520BFF36F8F7047000000BF30BF00BF704712
S315080025304148018A40F6A772914202BF418A4FF488
S315080025407F40014204D102298041C043C00F704731
S31508002550002070472DE9F84F82468846FFF704FCAD
S315080025600446364D2F682868400840002860FFF763
S31508002570D3FFDFF8C0B001208BF80000FFF7D8FFC3
S3150800258020B9FF210FF2B80000F064F82A48D0F805
S31508002590289041464AF48070C84706462F60FFF7E0
S315080025A0BBFF2046FFF7E6FB00208BF800000FF282
S315080025B098040EB1305D04E041464AF40070C847FD
S315080025C0005DBDE8F28F2DE9F84F804689464FEA4F
S315080025D0420AFFF7C9FB0546184E376830684008B7
S315080025E040003060FFF798FFFFF7A2FF28B94FF4C5
S315080025F0A1710FF24C0000F02DF80F48D0F824B066
S315080026000023524649464046D84704463760FFF7F6
S3150800261083FF2846FFF7AEFB0FF22C050CB1605D71
S3150800262005E05346002249464046D847405DBDE886
S31508002630F28F0000D92F00200000040894ED00E076
S31508002640666C6173682E6300000202024B4B4647B4
S3150800265042DE704738B504460D4602F088FBFFF7A0
S3150800266083FB2946204602F023FC2B4622460FF21E
S3150800267078510020FEF7DFFE29462046BDE83440A3
S31508002680E6E72DE9F0414FF42065DFF83C65371D94
S31508002690DFF8380501687965016AB965DFF830152C
S315080026A00968F965416A3966816A7966C16AB966EF
S315080026B0016BF966806B386797F8340040074CBFA2
S315080026C0FC6BBC6BA04602F076FE3865DFF8041595
S315080026D0DFF80425DFF80435A646704522D273458F
S315080026E020D354F818EFC7F840E054F804EFC7F8B9
S315080026F044E07C6DE405E40D062C17D13C6CA64637
S31508002700964513D38E4511D224884DF6426E7445EC
S315080027100CD106F18C04756865607D68A56040F289
S31508002720017503E000243C647C648046001D9842E1
S3150800273004D2D0F800E0BEF1CD3FF7D0181AB8643D
S315080027400020F864844606EB8004C4F878C0401C70
S315080027500628F8D3002004E0C0B206EB800CCCF8BB
S31508002760784043452BD353F8044D9442F9D38C4211
S31508002770F7D25FEAC47CF4D54FF0000C06EB8C0E5A
S31508002780DEF878E0A64504D00CF1010CBCF1060F82
S31508002790F4DBBCF1060FE4D1002814BF401E052067
S315080027A0DAE77C6F4FF0000C06EB8C01CA6F8A677C
S315080027B00CF1010CBCF1050FF6DBC6F88C4001469E
S315080027C0481EC9B20029ECD1786DC005C00D022893
S315080027D00AD0032816D0042817D0052818D00628AA
S315080027E019D00C281DD01FE0DFF8F403016889070B
S315080027F048BF40F602151CD40068C00719D540F238
S31508002800025516E040F6012513E040F6022510E0D1
S3150800281040F603250DE0B5F5206F0AD140F60425EC
S3150800282007E040F6052504E018B1242838BF40F62D
S3150800283007252846BDE8F0812DE9F04F85B080468A
S31508002840DFF88453A86B410707D50FF2B03103911F
S315080028502E6C2F6D0024A14607E00FF2A8310391D4
S31508002860EE6BEF6C6C6DDFF8749300074CBF0FF2DC
S315080028709C320FF2A032B9EB040A07D064204FEA63
S315080028805A0100FB0710B0FBFAFB01E04FF0000B02
S315080028900296CDF804900094039B0FF280314046CF
S315080028A0FEF761FD1FFA8AF00190039800901FFA5F
S315080028B08BF3BAB20FF294314046FEF754FD95F801
S315080028C03800400708D4AAF19800874204D10FF2CD
S315080028D0B8314046FEF747FD4E4501D2A64205D21D
S315080028E0039A0FF2D0314046FEF73DFD4046FEF70B
S315080028F090FD286EF8B10FF2DC314046FEF72BFD4D
S315080029000026ACA70FF28074286E0121B140084258
S315080029101EBF54F826201078002803D039464046B2
S31508002920FEF719FD761C112EEEDB404605B0BDE814
S31508002930F04FFEF7FCBC0FF2CC31404605B0BDE8BF
S31508002940F04FFEF710BD2DE9F84F04469E4F07F1EC
S3150800295044050FF2B45A0FF2CC590FF2B4680126A7
S315080029600FF2284B02F089FD40F20151401A16D0A9
S31508002970401E17D040F2FF11401A35D04FF440716F
S31508002980401A39D0401E52D0401E73D0401E00F067
S31508002990B280401E00F0CB80401E06D0C5E00FF284
S315080029A07C3141E00FF2B431C3E0E86C012806D06F
S315080029B0032807D0042807D0052808D00AE00FF214
S315080029C0E83608E07CA606E00FF2E43603E00FF2EC
S315080029D0E83600E079A60FF2E83100F0B9F82B6D79
S315080029E032460FF2044103E02B6DEA6C0FF21041F8
S315080029F02046FEF7B8FC93E00FF2204100F0A8F855
S31508002A0095F82400800703D50FF2284100F0A0F8B6
S31508002A10686A400003D50FF2584100F099F8686AD1
S31508002A2000287DD50FF27C4100F092F878E00FF28D
S31508002A30B04100F08DF895F8200010F0030F01D092
S31508002A4000F081F895F82000000603D5EA6A514699
S31508002A5000F07BF8002700F071F81EBF58F8272011
S31508002A601078002802D0494600F06FF87F1C082F1E
S31508002A70F1DB55E00FF2B44100F06AF800F063F8B4
S31508002A80286A400503D50FF2BC4100F061F8286AB0
S31508002A90000403D5EA6A514600F057F8082700F003
S31508002AA04DF81EBF58F827201078002802D049464E
S31508002AB000F04BF87F1C102FF1DB95F8200000067C
S31508002AC003D10FF2C84100F043F801270FF2EC4991
S31508002AD00FF2A458286B06FA07F108421EBF58F8E9
S31508002AE027201078002802D0494600F02EF87F1CCF
S31508002AF0042FEFDB14E00FF2CC4100F029F800F0C8
S31508002B0022F8102700F01AF81EBF58F82720107868
S31508002B10002802D0494600F018F87F1C1A2FF1DB6E
S31508002B202046BDE8F24FFEF774BCBDE8F18F0FF200
S31508002B30B04100F00DF800F006F8F1E7286A06FA49
S31508002B4007F1084270477A6C59462046FEF70BBCD7
S31508002B502046FEF708BC2DE9F0478046DFF884A03A
S31508002B600FF26856002516A716A40FF2984906E034
S31508002B704046FEF7F0FB4046FEF74BFC6D1C3078EE
S31508002B80A8B15AF8043B324649464046FEF7E3FBED
S31508002B9016F8010B0028FBD1307800281EBFEDB2CD
S31508002BA005F00300032814BF21463946E0E7BDE8CF
S31508002BB0F087000020257000414443003F3F000095
S31508002BC00D0A00002C2000000000002004ED00E0A3
S31508002BD000E300E018E2010890010008301B00201D
S31508002BE01CA00040040000200D0A5B4153534552C7
S31508002BF0543A25703A25645D0D0A000070726F63B9
S31508002C00657373006D61696E000000005468726533
S31508002C106164000048616E646C6572002570206D01
S31508002C206F6465207573696E6720257020737461FB
S31508002C30636B202825347820746F20253478292C56
S31508002C40205350203D202534780000002575206249
S31508002C50797465732075736564202825752525297B
S31508002C6020696E20257020737461636B20286F7548
S31508002C7074206F6620257520627974657320746FD9
S31508002C8074616C2900000000537461636B205F6DEA
S31508002C9061795F2068617665207573656420757053
S31508002CA020746F203130302525206F6620746F74AC
S31508002CB0616C2E005350206973206F7574736964B4
S31508002CC06520257020737461636B2072616E676579
S31508002CD021000000496E7465727275707473206104
S31508002CE0637469766520286F72207072652D656D2C
S31508002CF07074656420616E6420737461636B6564C7
S31508002D00293A00004E6F20696E7465727275707488
S31508002D107320616374697665000000005265736507
S31508002D20742063617573653A205761746368646FCC
S31508002D306720657870697265642C206E6F207265ED
S31508002D406C6961626C6520657874726120696E666B
S31508002D506F726D6174696F6E00000000526573656D
S31508002D60742063617573653A205761746368646F8C
S31508002D706720636175676874207769746820656E73
S31508002D8068616E63656420696E666F00496E737468
S31508002D9072756374696F6E20616464726573733AE1
S31508002DA02025347800000000534331205278000073
S31508002DB04D41432052780000534332205278000098
S31508002DC052657365742063617573653A20444D4195
S31508002DD02070726F74656374696F6E2076696F6CA4
S31508002DE06174696F6E000000444D413A2025702CCD
S31508002DF020616464726573733A2025347800000094
S31508002E0052657365742063617573653A20417373FF
S31508002E106572742025703A25640000005265736552
S31508002E20742063617573653A20486172642046614F
S31508002E30756C7400484653522E5645435454424CBA
S31508002E403A206572726F722072656164696E6720D6
S31508002E50766563746F72207461626C6520666F7242
S31508002E6020616E20657863657074696F6E00000076
S31508002E70484653522E464F524345443A20636F6E96
S31508002E80666967757261626C65206661756C742027
S31508002E90636F756C64206E6F742061637469766104
S31508002EA074650000484653522E44454255474556D8
S31508002EB0543A206661756C742072656C6174656439
S31508002EC020746F206465627567202D20652E672E35
S31508002ED02C20657865637574656420424B505400F0
S31508002EE052657365742063617573653A204D656D27
S31508002EF06F7279204D616E6167656D656E742046E7
S31508002F0061756C7400000000496C6C6567616C2023
S31508002F1061636365737320616464726573733A20D1
S31508002F2025347800434653522E2570005265736542
S31508002F30742063617573653A20427573204661751E
S31508002F406C74000041646472657373206973206F42
S31508002F506620616E20696E737472756374696F6E2C
S31508002F6020616674657220627573206661756C747B
S31508002F70206F636375727265642C206E6F7420749B
S31508002F8068652063617573652E00000043465352D9
S31508002F902E286E6F6E6529206C6F6164206F722013
S31508002FA073746F726520617420616E20696C6C653C
S31508002FB067616C206164647265737300414653529D
S31508002FC02E25700052657365742063617573653AC2
S31508002FD0205573616765204661756C7400000000B2
S31508002FE052657365742063617573653A204465623A
S31508002FF07567204D6F6E69746F72204661756C74C3
S31508003000000000002570203D2025347800000000CF
S3150800301030F2010870F20108A8F20108ACF20108C2
S31508003020F0F20108A8F20108A8F201082CF3010839
S315080030305CF301088CF30108B0F30108D8F3010822
S3150800304018F40108A8F20108A8F2010854F40108C6
S3150800305084F40108BCF40108F8F4010828F501080D
S31508003060A8F20108A8F20108A8F20108A8F20108C6
S3150800307060F5010890F50108A8F20108D0F50108E5
S3150800308014F6010854F6010890F6010898F60108A6
S31508003090A0F60108ACF60108B8F60108C4F601085E
S315080030A0C8F60108CCF60108D8F60108E4F60108C6
S315080030B0ECF60108F4F60108F8F6010800F701082D
S315080030C008F7010810F7010818F7010852300052EE
S315080030D03100523200523300523400523500523613
S315080030E000523700523800523900523130005231FE
S315080030F0310052313200523133284C5229004D5397
S3150800310050005053500050430078505352004D53CE
S3150800311050207573656400505350207573656400BC
S3150800312043535441434B20626F74746F6D00494397
S31508003130535200534843535200494E545F41435437
S3150800314049564500434653520048465352004446A2
S315080031505352004D4D41522F42464152004146536B
S3150800316052005265743000526574310052657432EB
S315080031700052657433005265743400526574350024
S31508003180446174300044617431000000F0B589B0C0
S3150800319004460020FDF75AFE0A237F2225480188A7
S315080031A000A8FEF789FA4FF6FF75BDF80200A84297
S315080031B004D1DC210FF29400FFF74CFA00260FF237
S315080031C0A40701E02A4616B94FF47C4203E0022E12
S315080031D008BF4EF23F0200A800F032F8761C052E12
S315080031E0F0D3012C03D114237F22134802E01423C1
S315080031F07F221248018803A8FEF75EFA00260FF21E
S315080032006C072A4608E02A46012E08BF4FF6C07208
S3150800321002D0082E08BF002203A800F011F8761C79
S315080032200A2EF0D3012C04BF0120FDF70FFE09B0CA
S31508003230F0BD000044FD010842FD010840FD0108FB
S3150800324030F81610F05DFEF7B8BA0000616E616CD2
S315080032506F6775652D63656C6C2D626961732E6386
S315080032600000000000100C0D0E000000010203040F
S315080032700708090A0B0F000030B583B0002401A81F
S315080032800FF218110A680260DFF808510120287049
S31508003290002002F003F930B1002002F0FFF810B167
S315080032A02C7049203EBD02237F22DFF8EC000188FE
S315080032B00DF1020000F02FF802237F22002100A85A
S315080032C000F029F8204601A931F81010BDF80220AF
S315080032D0914208BF0124401C0228F4D3002CBDF8F3
S315080032E0000004D0B0F57F7F09D100203EBDB0F5BF
S315080032F07F7F14BF04200620002129703EBD0120CF
S3150800330002F0CCF8002002F0C9F80028EDD0002021
S3150800331028704A203EBD10B5B1F5807F08D2DFF887
S315080033207440247844B1C9B2BDE8104002F0DCBB51
S31508003330BDE81040FEF7C0B910BD2DE9F0410546BD
S315080033400E46174698460FF25800B5F5807F12D2FA
S31508003350104C2178A1B1617811B1C221FFF77AF931
S3150800336001206070434632463946E8B202F019FD3C
S315080033700020607004E0CD21BDE8F041FFF76AB98E
S31508003380BDE8F08103490978002918BF02F018BE84
S3150800339070470000CC2F00204EFD0108FE01FD02FB
S315080033A0746F6B656E2E630010B5DFF81845102034
S315080033B02063FEF7D9FCDFF810150A6842F001020F
S315080033C00A60FEF7D7FCDFF80405606020606168D4
S315080033D089316160012121638A30E060A060E0687C
S315080033E08930E06002202063DFF8E4044FF6FF71BD
S315080033F0016010BDDFF8DC0445F26401C1601E21DE
S31508003400416250210162C821C1618165F021C1650F
S3150800341045F690014166882181660621C16644F217
S31508003420066101604FF6FF714160DFF8AC04007871
S3150800343038B1DFF8A80448F2607101604FF4C15151
S315080034404160DFF89C04016841F004010160DFF87F
S3150800345094040021417070472DE9F84F0446DFF8BF
S3150800346088148A2202FB0012121D0092521C5378FD
S31508003470127802EB03221FFA82FB0BF440424FF04C
S3150800348000094FF0010A0BF440630425B3F5006FF9
S3150800349008BF082503D0B3F5406F08BF0E251300F3
S315080034A004D05FEA4B635CBFAB1CDDB2DFF83C348B
S315080034B01B784B705FEA8B6374D5DFF83464736EE0
S315080034C01B066FD54718009828184FF40068B2F500
S315080034D0404F07D102F027FE5FEA000927D005F121
S315080034E008000EE0B2F5004F21D140780099695CDA
S315080034F001EB002080B202F021FEFF280CD1CA465B
S31508003500A81CC0B241080BF00702032A0FD1002CF1
S3150800351014BF7268326815E0DFF8D813096831F805
S3150800352010004FF4FE61084218BFD146E8D10020CA
S31508003530B870F06DC00635D5B06C002C08BF4FF4D6
S31508003540806828E08A42F2D3002C14BF7268326879
S315080035504B1C9A42F8D30099405C0428E7D1BAF18B
S31508003560000F02D10020B87004E00020B870B9F14D
S31508003570000FDED0F06DC0060AD4B06C0CB94FF45B
S31508003580806810EA080F03D0706C40F00100706480
S315080035900120B87006E010EA080F03D0706C4008E6
S315080035A040007064BDE8F18F2DE9FC4E0446DFF853
S315080035B038B38A2000FB04B0071DDFF83453002C0B
S315080035C00CBF286868684600C0B2052805D24FF4C3
S315080035D0F6710FF24830FFF73DF85FFA86F909EB06
S315080035E00700A0F108063078717801EB00201FFA71
S315080035F080FA9BF80100307002F041FE7070BE4EF2
S31508003600F06B20F48050F063686ED4B930684005DA
S315080036101CD41AF4E45F0FD100F06AFD10B15FEA1A
S315080036204A4009D53878802806D204EB0B00827800
S315080036304946384602F0A0FE002C0CBF01200220A5
S3150800364020E0012CE5D130680005E2D5AB480178C9
S3150800365081B100210170AA4801681AF4E45F02D01A
S315080036600022402004E07878000900F001028F204B
S3150800367002F0FDFF002C0CBF4FF480604FF4006091
S315080036803060D9E72861BDE8F38E2DE9F84F904CF4
S315080036902068216C01EA0005954EDFF868A2DFF87C
S315080036A05C82DFF84492984F1AE040B14878C00629
S315080036B005D40022924801688F2002F0D8FF280618
S315080036C005D503F02BF825F0800580202060E80555
S315080036D006D503F023F825F480754FF48070206032
S315080036E0002D68D0280706D50020FFF7B5FE25F07F
S315080036F0080508202060E80606D50120FFF7ACFE7D
S3150800370025F010051020206005F06000602803D120
S31508003710B06CC0050AD401E0A80605D525F0200539
S3150800372020202060002006E0680606D525F0400522
S31508003730402020600120FFF737FFE80410D525F464
S3150800374080554FF480502060D7F800B008203860C4
S315080037507868000548BF00F01BF91FFA8BF038603F
S31508003760E807ACD56D086D000120206099F80000C7
S315080037700028A4D000F034FC0128A0D198F8000055
S3150800378000289CD09AF80000042898D1F0684008D0
S3150800379000F001008A2101FB0091091D002814BFD1
S315080037A07268326812B92268D204F7D5002814BFA5
S315080037B07068306879E700202060BDE8F18F5348CB
S315080037C000687047F0B589B004460D46002103200D
S315080037D0FDF7E4FE04AE1BE00027FDF7FAFE26F827
S315080037E01700FDF7F6FE00A921F817007F1C082F21
S315080037F0F3DB04A803F04CF800202080218836F873
S31508003800102051402180401C0828F7DB6D1EA41C9F
S31508003810EDB2002DE0D1FDF718FF012009B0F0BD8B
S3150800382003210220FDF7BABEF8B529244FF6FF7525
S31508003830FDF7CFFE281A90FBF4F000F13A06344F54
S315080038403878B8B903210320FDF7A8FE02237F22A2
S315080038503048018800A8FDF72FFFFDF7BAFEBDF82E
S315080038600010401880B2281A90FBF4F025307870C2
S3150800387001203870FDF7E9FE7878301A40B2F2BDBB
S3150800388080B503210220FDF789FEBDE80140CBE79C
S3150800389070B500242048007890B9FFF7F1FF054677
S315080038A0104E707848B13078401B40B203F001F8EA
S315080038B00B2805DB3570012402E035700120707095
S315080038C0204670BD0020004084200040F02D0020D6
S315080038D000A000404C100040531E0020D0100040AD
S315080038E080200040E42F0020EC2D0020521E0020EE
S315080038F0202000404C1C002004A00040E81E0020A8
S31508003900001F0020F31E0020B82000403820004089
S31508003910E22F00204CFD0108F51E00207068792E64
S315080039206300000010B584B00A237F220B48018883
S3150800393000A8FDF7C1FE4FF6FF74BDF80000A042CF
S3150800394004D14E210FF21800FEF784FE2246BDF878
S3150800395000100020FDF731FF1FBD000044FD0108DF
S31508003960616E616C6F6775652D66696C7465722E1C
S3150800397063000000DFF8E407417A39B1017A0129CA
S3150800398004BFC07A042801D101207047002070477F
S31508003990DFF8CC07016821F480510160DFF8BC0725
S315080039A0017881B100210170DFF8B8170A6852085A
S315080039B052000A600A6842F001020A600022816920
S315080039C0402002F054BE70470FF62801405C70474D
S315080039D0010603D54FF67F710840C0007047800185
S315080039E0B0FBF1F080B2FF2888BFFF20C0F1FF00CE
S315080039F0C0B2704738B5DFF86407817A012901D16A
S31508003A00002032BDDFF86447617871B1E178807BC8
S31508003A104518ADB22079854228BF054602F062FFF7
S31508003A200121A940491E084000E0002061790818D4
S31508003A30C0B232BD2DE9F0470446C00703D540F2AF
S31508003A406F1100F04BFADFF82857286DC00748BFFA
S31508003A508C2000F19180DFF8046700203073307005
S31508003A60DFF808773878A0B12078122818BF0C2814
S31508003A700BD1617801F00701032902BF001910F87C
S31508003A80020C042804BF01203073A86F40F001001F
S31508003A9002E0A86F40084000A867707BDFF8D4866C
S31508003AA0DFF8D496797899B10021B173296D41F080
S31508003AB004012965012807D14FF6FF70C9F80000EF
S31508003AC04FF40070C8F80000FFF794FF82460CE038
S31508003AD0296D21F0040129654FF0000A012804D157
S31508003AE000F03DFA6420FDF71AFAA86F20F00800E6
S31508003AF0A8671420E864C5F848A0787830B1707BC8
S31508003B00002801BFA86C00280120A864B8790028FD
S31508003B10286D14BF40F0080020F008002865FFF75C
S31508003B2029FF28B1D9F8400040F00800C9F840003C
S31508003B30202028626C602C6068687F3068600420EA
S31508003B4028624FF4E064DFF83406046006E002F009
S31508003B50D9FE18B1FEF712F9FEF706F9DFF82006C6
S31508003B60006800F003000328F1D0C8F80040286D6B
S31508003B7040F0010028650020BDE8F08710B504462E
S31508003B80FFF71DFE201A0003000B3338DFF8F41583
S31508003B9088421AD2DFF8F00502210160DFF8EC1539
S31508003BA0A2B24A60220C02F00F020A60016C41F0D0
S31508003BB002010164DFF8D8450020207002E00120E8
S31508003BC0FEF7E0F820780028F9D010BD2DE9F84F67
S31508003BD0DFF8C0657068716C08401FFA80F8C6F88F
S31508003BE00480DFF88C75DFF874556878002840F093
S31508003BF0D180DFF8A445DFF874955FEAC8704CD524
S31508003C00D7F800A0386C796C41EA0041A96199F8A7
S31508003C10000000283DD09AF80100800639D5012019
S31508003C2028704FF480503060306C40F48050306417
S31508003C30FFF7A0FE88B31920FDF771F9DFF85CB528
S31508003C404FF44040CBF82800DBF800000090E06E07
S31508003C5040F40050E066E06E40F48050E066A869E3
S31508003C609AF800104901B8310818FFF787FFE06E87
S31508003C7080098001E066E06E00A909880843E066CD
S31508003C800020CBF8280048F26070E066A88A206019
S31508003C9003E00022002002F0EAFC5FEA08600CD587
S31508003CA0287830B1002028700022A969402002F047
S31508003CB0DEFC306C20F4805030645FEA486008D53A
S31508003CC0687830B9FFF77BFD00220146892002F0AB
S31508003CD0CEFC5FEAC8604FD5287ADFF898A4012899
S31508003CE004BF697B01291ED100F016FD386F40F02C
S31508003CF00100386700206873FFF756FB0A20FDF7B6
S31508003D000EF94FF000084FF6FF7070604FF4E06050
S31508003D10CAF800000920B8660120B864B86F40F0F8
S31508003D200800B86718E0A97B491CA97399F802200E
S31508003D30C9B2914215D2012808BF00F0D3F8B86F6E
S31508003D4020F00800B8671420B866FFF753FEB86479
S31508003D504FF40070CAF80000386D40F0010038656D
S31508003D600AE0012808BF00F0BDF8FFF728FD002289
S31508003D7001468D2002F07BFC5FEA08700AD5FFF742
S31508003D80F9FD38B12068A88201202060706C20F007
S31508003D90080070645FEA88600AD52020386268786F
S31508003DA030B9FFF70CFD00220146882002F05FFCBF
S31508003DB0687820B118F4407F04BF0120A870BDE8D8
S31508003DC0F18F70B582B00446FDF7AEFEDFF8D0037A
S31508003DD000210160DFF88C531521E960092101658E
S31508003DE01F21416001210166FDF788FDFDF728FDC9
S31508003DF0FFF700FB02F08EFD00F040F9DFF85C6388
S31508003E00308A00F068F9708A00F06DF9FDF7ACFFAA
S31508003E10696841F040016960FDF7ACFF707900F010
S31508003E2002F9B07900F00FF9307900F03EF9DFF8C1
S31508003E30740390F90000FDF7B6FEF07800F05BF920
S31508003E4096F9070000F063F902237F22DFF858038A
S31508003E50018800A8FDF730FCBDF80000C0054CBF7E
S31508003E600020BDF80000DFF844130870DFF84003AF
S31508003E700078FDF75BFE18B14FF4607100F02EF87C
S31508003E80012C05D12868C00711D500F02BF80EE0E3
S31508003E906CB92868C0070AD400F03EFC286840F0D0
S31508003EA001002860C820FDF73AF800207073DFF893
S31508003EB0C842F120206440F2F910E063FFF774FA73
S31508003EC02868C00707D54FF6FF702060DFF8A40200
S31508003ED04FF4E061016000F013FB73BD0FF204308C
S31508003EE0FEF7B8BB70B5DFF8CC522E68DFF86C4227
S31508003EF0607B012832D0FDF737FF48F2D0012960F0
S31508003F006A68520509D548F222022A606A68D2050B
S31508003F10F5D529606A685207F1D4B6B22E60DFF883
S31508003F205C124FF4E0620A60DFF88C120A6A5208E3
S31508003F3052000A620A68520852000A600A6842F089
S31508003F4002020A604A6A42F001024A62012161736A
S31508003F50FDF710FFBDE8704000F0ADBB70BD70B551
S31508003F607E4C607B48B300F0D7FBFDF7FDFE0546A7
S31508003F70DFF84802012101607B4E306D40F00100F8
S31508003F80306500206073FFF70FFA20203060306B31
S31508003F9040F002003063F06D40F00800F0652846F6
S31508003FA0FDF7E8FE0A20FCF7BAFF73484FF6FF71E3
S31508003FB0016070484FF4E061016070BD6748407B5E
S31508003FC0704710B5654C607B18B140F27141FFF738
S31508003FD085FF207A18B1FFF785FF207A607310BD38
S31508003FE05E48007A704780B5022801D3012002BDD9
S31508003FF05A490872487B012804D1087A20B9FFF784
S31508004000AEFF01E0FFF7DDFF002002BD6C48006847
S31508004010800200149A386FF07F0201B29142B8BF4D
S31508004020104640B2704710B50446FDF79DFE654937
S31508004030002C0A6814BF42F0120222F012020A602B
S3150800404046494C7140E038B50446FDF78DFE0546F5
S3150800405000F0E5FB40B95B48002C016814BF41F04D
S31508004060800121F0800101603C4884712846BDE842
S315080040703240FDF77FBE3948807970475248534928
S315080040804A780B7813EB02220260CA788B7813EB16
S31508004090022242604A790B7913EB02228260CA79BE
S315080040A0897911EB0221C160704710B50446FDF706
S315080040B05BFE4449002C0A6814BF42F0200222F035
S315080040C020020A6025490C71BDE81040FDF752BE72
S315080040D02248008A7047214908823D49086070478E
S315080040E01E48408A70471D4948823A490860704709
S315080040F03948007870471B4900280A6814BF42F0FF
S31508004100020222F002020A601449C870704738B5E4
S3150800411004467F2C0ED102237F223048018800A84E
S31508004120FDF7CAFABDF80000C00554BFBDF8004047
S315080041306FF04A04FDF718FE054600F070FB30B92B
S3150800414064B204F19A008005000C2549086003480A
S31508004150C4712846FDF70EFE31BD0000E81E00209A
S3150800416040A000408020004030200040481E00202B
S315080041701020004000E100E004A0004080E100E0DB
S31508004180A8200040CDFF070008A0004040200040BE
S31508004190DC2F002000A0004064100040E41000401E
S315080041A05C1000405C1E002056FD01085A1E0020C7
S315080041B0521E00201C1000406020004028100040BD
S315080041C00C1000408420004098200040A02C0020BD
S315080041D09420004090200040041F00205AFD01084A
S315080041E0541000407068792D636F6D6D6F6E2E6385
S315080041F000000000FEFEF7F7C8C80100DFF86403F8
S315080042005121016070472DE9F04104461E2C3CBF40
S31508004210BDE8F041FCF783BEDFF84C030168C90727
S3150800422004D5416811B11826641F11E00168C90751
S3150800423004D5416811B90C260A3C09E00168C9078A
S3150800424004D4406810B10C260F3C01E00626143C45
S31508004250FDF78AFD8046FEF75BF9DFF810030721B4
S315080042600160002141608160DFF804134FF000729D
S315080042700A60A4B204FB06F1491E4160DFF8F44265
S3150800428026682068400840002060FEF745F9DFF8F8
S31508004290D4723D68386820F040003860FEF744F96B
S315080042A03D602660FEF738F9FEF734F94046BDE86A
S315080042B0F041FDF75FBD2DE9F0410024DFF8B85263
S315080042C02C60DFF8B86234604FF4A040706041F2A9
S315080042D09A084046FFF797FF686844F69041081A1F
S315080042E000B24FF4487190FBF1F000F30300306020
S315080042F04046FFF788FF08274046FFF784FF6868AF
S3150800430004197F1EF8D1DFF87802211DC908B0FB11
S31508004310F1F080B27060BDE8F08138B56FF00F0437
S31508004320DFF860520120A8602C608020FFF76BFF41
S31508004330E868FF2802D8641C102CF5DB31BD9248CA
S31508004340016841F00101016090480421016090482C
S315080043500160704770B58448016841F00101016049
S3150800436001214160FDF700FD0446824D00F09DF8ED
S315080043707C48512101602E60FEF7CEF82046BDE844
S315080043807040FDF7F7BC70B5824D2889824C4FF610
S31508004390FF76B04229D102237F228048018805F1A1
S315080043A00800FDF789F92889B04204BF0220288150
S315080043B0A069800703D4A06940F00200A06101202B
S315080043C068702889206069480721016000214160DA
S315080043D0816067494FF000720A60A169C9072DD547
S315080043E0E16959B348F69F4137E0A1698907E2D5E3
S315080043F0697899BBA16811F00101A26803D10F2859
S3150800440009D2401C06E0920705D52A791AB1032875
S3150800441001D3401E28812971288902283CBF022021
S315080044202881206829898842C9D1A06900F003003B
S31508004430032818BFFFF78EFF012070BDA169C907C1
S3150800444001D5E16921B1A169C90704D4E16911B1AE
S3150800445044F24F6101E042F227314160002070BD0D
S315080044602DE9F8433F4C434DFDF77EFC8046FEF7A9
S315080044704FF8FFF788FF5FEA00090CD100F015F83E
S315080044802768206820F040002060FEF74DF8276076
S315080044902E60FEF741F8FEF73DF84046FDF76AFC48
S315080044A0B9F1000FE0D0BDE8F1832E68286840080E
S315080044B040002860FEF730B82C4800214160816032
S315080044C0016821F00201016029484FF0007101607E
S315080044D0304800214170817801290BD130490122E9
S315080044E00A6030490968C90748BF032106D4022172
S315080044F0817024E78178042901D1052181707047EC
S315080045002DE9F843234C207838B3E078F0B124E05D
S31508004510FDF72AFC8046FDF7FBFFA078052810D09A
S31508004520144E00F041F80F4DD5F80090286820F099
S3150800453040002860FDF7F8FFC5F800903760FDF7E2
S31508004540EBFFFDF7E7FF4046FDF714FCA0780528CA
S31508004550DED100206070FFF783FF00202070BDE8E1
S31508004560F1830000008000401C40004010E000E09D
S3150800457004ED00E094ED00E0104000400C0000401F
S315080045800060E3160840004058A0004080E200E0C2
S3150800459000E100E0B81E00200440004054FD010878
S315080045A018A000400C4000403768306840084000BA
S315080045B03060FDF7B1BF000038B5FFF7E4FE002014
S315080045C0FCF744FC6B4C206840F00800206000F0C3
S315080045D0C7FBFCF72BFC00F02BF88D78DD600D8906
S315080045E005604D89456000F01AF8206820F0100033
S315080045F02060FCF77FFA02F0D6FAFDF74FFF02F0CB
S3150800460053FEFCF777FAFFF72BFFFFF786FEBDE8A8
S31508004610314000F0C0BB40F2016000F02DBE888931
S315080046201060C8895060088A1860488A586042E055
S31508004630514852490A78C260514A4B78D360514B67
S315080046407047F0B50B684D4C246A0F25960005FA9D
S3150800465006F6344212D0002606EB820724FA07F73C
S31508004660FF0708D5B70005FA07F7BB4330F812C0AD
S3150800467007EA0C073B43761C042EEDDB0B60F0BD06
S31508004680F0B50B683D4C246AFF25D600B5402C4290
S315080046900FD0002505EBC20624FA06F6F60705D55F
S315080046A00126AE40B343175C3E4033436D1C082DCC
S315080046B0F0DB0B60F0BD10B5304C206A002827D01F
S315080046C000223149201DFFF7DBFF01222F49201D5B
S315080046D0FFF7D6FF02222E49201DFFF7D1FF002241
S315080046E0254900F016F801222A4900F012F802229C
S315080046F0234900F00EF80322274900F00AF804229D
S31508004700204900F006F80522244904F114004AE07D
S3150800471010BD04F1140094E710B5184C206A00285F
S3150800472027D0002218492046FFF7AAFF0122174979
S315080047302046FFF7A5FF022215492046FFF7A0FFEE
S3150800474000220D4900F02CF80122124900F028F841
S3150800475002220B4900F024F803220F4900F020F842
S315080047600422084900F01CF805220C4904F1080047
S3150800477019E010BD00BC004000B00040F41C002049
S3150800478000B4004000B800400CB000400CB4004033
S315080047900CB8004004B0004004B4004004B800401F
S315080047A004F108004DE7BDE810404AE70320FEF78C
S315080047B0E9BD80B500F05DFE0FF2680101EB8000EF
S315080047C002BD80B500F059FEC1B20004000E0FF21A
S315080047D0800252F8200000EB810002BD10B500F0FF
S315080047E048FE044600F049FEC0B208B9012C07D1BC
S315080047F0072C11D8DFE804F004100608080A0C0E86
S31508004800002010BD092010BD022010BD032010BDD8
S315080048100B2010BD062010BD44F0800010BD0020FE
S3150800482070470000554E4B004649420042544C0022
S3150800483045585400505752005744470020535700D4
S31508004840435253004653480042414400464C5400E4
S3150800485010F8010814F801086CF801088CF801082A
S3150800486094F80108A0F80108ACF80108B8F801089E
S31508004870C0F80108CCF80108DCF801082A490A68DA
S31508004880920992010A600A681043086027484FF4A3
S3150800489000410160002101606420FCF740BB2DE95E
S315080048A0F0478046224DD5F80090286840F400402D
S315080048B028601D4F386820F4805038601D4C2078D9
S315080048C068B11D48A178627800EB820212F82A2C9A
S315080048D0891A00EB880010F82A0C461802E02026F0
S315080048E001202070B0B2FFF7C9FF0FF2500A02E0AC
S315080048F0B0B2FFF7C3FF386B042805D0386B400702
S3150800490054BF761E761CF3E7F86A38B184F801803E
S31508004910A6701FFA89F02860BDE8F08740F22111D9
S315080049205046FDF797FEE6E7D01000401810004005
S315080049301C100040E72F0020D81C0008616E616C2F
S315080049406F6775652D76636F2E6300004FF4FE5210
S31508004950810189B20C20FCF730BF2DE9F84F8A4C4B
S31508004960A568ADB200264FF00A080127B9462068A7
S315080049701FFA80FAFCF769FEB0202063DFF80CB254
S31508004980DBF800000120FCF7CAFAB9F1000F11D0D4
S31508004990AAF10300874202DAF81C87B213E05746E9
S315080049A00AF50040206006210920FCF7F7FD4FF0C4
S315080049B000090BE0DBF80000000707D5042FA6BFA7
S315080049C0F81E87B2002707F5004020601A2EA8BFF8
S315080049D06FF0090804DA16F1190FB8BF4FF00A0884
S315080049E0464436B27019A060DBF800000007C9D546
S315080049F0012FC7DAB9F1000FC4D1A560C4F800A029
S31508004A000820CBF800006248006880B2BDE8F28F43
S31508004A1010B560494FF0FF325A4B1C7864B1002834
S31508004A2019BF4A605C48486041F211100860D9888D
S31508004A309888BDE8104090E7002819BF4A600A60C8
S31508004A4048600860FCF701FE06210920BDE8104011
S31508004A50FCF7F5BD38B50120FFF7DAFF044600205C
S31508004A60FFF7D6FF05460120FFF7D2FF4042001B9D
S31508004A7000EB450000B232BD2DE9F04F83B0474C3C
S31508004A80A06AADF804002068ADF80200444D286815
S31508004A90ADF800003B4E307858B14FF6FF72002152
S31508004AA00820FCF783FE8046C022C0210820FCF7B8
S31508004AB084FE3C4F3C48007810B148F2607038607C
S31508004AC0708840F4404040F04C00F8630220A06231
S31508004AD00120206040F24C40FCF721FA0120E860F2
S31508004AE028600020B0804020F080307800B1202077
S31508004AF0FFF72CFFFFF7AEFF83464020B0807F20EC
S31508004B00F080FFF723FFFFF7A5FF00F04FF8FE211F
S31508004B1001FB00FAABEB090B307850B1484601F0BF
S31508004B20C8FE00F043F880B20AEB8911B1FBF0F039
S31508004B3004E000F03CF880B2BAFBF0F080B2401C0A
S31508004B404FEAC039BDF8000028600020E86002205E
S31508004B502060BDF802002060BDF80400A0620020B5
S31508004B60F863307830B14FF6FF721FFA88F10820E3
S31508004B70FCF723FE40F24C40FCF7D1F94FEA194006
S31508004B80BDE8FE8F4E1F0020C010004018A0004050
S31508004B900070004038100040EEEEFFFF6020004035
S31508004BA028100040D0100040531E00208146584669
S31508004BB001F07FBE3F22410089B201E03F22014653
S31508004BC00220FCF7FABD2DE9F04F93B0564CE06C85
S31508004BD0ADF808002068ADF80600544DE86AADF84F
S31508004BE004004FF6FF7200210120FCF7DFFDADF847
S31508004BF002004FF6FF7200210B20FCF7D7FDADF837
S31508004C0000004FF40040206000202861686148F2E7
S31508004C10020000F08DF84CF68C30E06448F2F000A3
S31508004C20E8624FF4805211460120FCF7C6FD4FF6A4
S31508004C30FF7200210B20FCF7C0FD06210620FCF7B9
S31508004C40FEFC804600F087F883464CF69C30E0640C
S31508004C500020FFF7AFFF06210846FCF79FFC002659
S31508004C60B0B2FFF7A7FF06210620FCF797FCFCF772
S31508004C70B0FC03A921F81600761C202EF0DBFCF701
S31508004C80A8FC1020FFF796FF00F065F8A0EB0B00D4
S31508004C90BDF82C10A1EB0801404301FB01094FF0B8
S31508004CA0100A112700F050F800F055F800F045F802
S31508004CB005DB81461FFA87FA7F1C202FF2DB504658
S31508004CC010280ED10F2700F03FF800F044F800F046
S31508004CD034F806DB81461FFA87FA781E07B2002FDA
S31508004CE0F1D5BDF80800E064BDF806002060BDF8FF
S31508004CF00400E8624FF6FF72BDF802100120FCF7C7
S31508004D005CFD4FF6FF72BDF800100B20FCF755FD51
S31508004D1001202861002000F00BF84FEA4A00C0B2D3
S31508004D2013B0BDE8F08F0000C01000401810004016
S31508004D30286040F24C40FCF7F2B8A0EB0B00404369
S31508004D4006FB06004845704703A830F81700A0EB95
S31508004D500806B8B22EE706210720FCF770BC00004B
S31508004D602048012181604EF6BE21416000E01E48C0
S31508004D70012101607047A52805D11A484DF6AD6195
S31508004D8041600221016070471648006810F0010072
S31508004D9018BF0120704780B51448102101601448D7
S31508004DA000781449144A58B103280CBF0020012082
S31508004DB0106040F6510008600020FCF7D1F806E0C4
S31508004DC0022010604FF400600860FFF774FA0B4881
S31508004DD007210160002101640948102101600020B3
S31508004DE002BD0000006000400860004080E100E06D
S31508004DF0C62F00200C6000400800004014A00040A8
S31508004E0000E100E0174838B50446FCF7ADFF054653
S31508004E10154800210160082154F8042B826054F8D3
S31508004E20042BC260491EF7D101210160FDF774FB0E
S31508004E302846BDE83240FCF79DBF0B4800210160BB
S31508004E40FDF76ABB10B50446FCF78EFF05496209F3
S31508004E50520142F014020A62044A4A62BDE810404E
S31508004E60FCF788BF181D002094ED00E009000B1020
S31508004E7070B5DFF8B00302F0ECFD0446FF2C16D03F
S31508004E80DFF8A4030068205C851EE9B2204602F01C
S31508004E9075FD0646E9B2204602F07AFC2146304600
S31508004EA000F05FF92046BDE8704002F022BB70BDF5
S31508004EB003460A46A6A10420FFE70CB480B502AA59
S31508004EC000F08BF801BC5DF80CFB21B103460A46DD
S31508004ED0A0A11120F1E7704700B587B0FFF77EFC67
S31508004EE0002105912121049151210391002102916C
S31508004EF00191DFF838130091002302460FF248317A
S31508004F000120FFF7DAFFCA488179039101880291E7
S31508004F104179019101790091C37882780FF2343191
S31508004F204220FFF7CAFF07B000BD2DE9F04104464D
S31508004F3015468E09B6010FF22C370FF2203802E01B
S31508004F40FFF7BBFF4036B54208D3312C334632460D
S31508004F5007BF4146312039462046F1E7BDE8F081D2
S31508004F60B449087070470EB430B50446B1480078A5
S31508004F7020B302F0D7FD08B3FCF782FA012002F04D
S31508004F804CFA0546FF2D19D002F03CFA022102F030
S31508004F90CFFD0146284602F03BFA03AB22462946D6
S31508004FA0A548FCF782F830B1284602F03AFE10B15F
S31508004FB0042000F00BF8284602F09BFA30BC5DF896
S31508004FC010FB0C2200219D48FCF7C1BA9B4931F819
S31508004FD01020521C21F8102070472DE9F04F85B09B
S31508004FE005460C46904600269248007890B9002D52
S31508004FF018BF012D0ED0042D18BF052D0AD0312D4E
S3150800500018BF332D06D0372D1EBF3B2D4FF6FF7028
S3150800501085421FD102F086FDE0B1012002F0FDF9BC
S315080050208246BAF1FF0F15D0002102F0F1F92946A0
S3150800503001A802F07DFD05469CB900F08DF830B94F
S31508005040504602F0EEFD10B10420FFF7BFFF5046B0
S3150800505002F04FFA05B0BDE8F08F8DF8042001255F
S31508005060641C20780028E8D0A0F13001C9B20A29CA
S3150800507005D20A2101FB0600A0F13006F0E700F090
S315080050806BF80028E3D10025227801A8422A0ED021
S31508005090442A1AD0462A25D0572A0DD0622A3AD051
S315080050A0662A2AD06C2A25D0702A26D0D5E758F841
S315080050B0040B8DF80400D2E758F8041B8DF8041089
S315080050C00904090E41700225CAE758F8041B8DF831
S315080050D004100A0A42700A0C8270080E8DF807003E
S315080050E00425BDE758F8041B504602F011FB0028BA
S315080050F0B6D0ACE758F8046BB2E7012358F8041B9E
S31508005100662A08BF0223F2B2504602F0E1FA0028E6
S3150800511008BF0026ECE7444800681AF8009058F8DB
S31508005120041BCFB2FF2F9BD017F800B00BEB090179
S31508005130C9B2504602F02CFB002888D1CDF800B041
S3150800514000233A464946504602F03CFC88E70000F0
S31508005150574600006C7000002A4601A9504602F026
S31508005160D5BAF0B585B005460C4612280AD03028BF
S3150800517018BF362841D03A281AD04FF6FE71884211
S3150800518035D04DE028480068255C2D4E08E02046BD
S3150800519002F038F93946FDF73EF9203D3068245CBF
S315080051A0FF2C3DD0EDB2212D2CBF20272F46EEE750
S315080051B002F009FE0446FEF793FF0546FCF7EFFCEE
S315080051C00646FCF7E9FC0746FEF782FF024604940A
S315080051D0164803901B4800680088029001950096BF
S315080051E03B460FF288013B20FFF767FE18E0204692
S315080051F005B0BDE8F04002F068BE0221204602F084
S31508005200BDFB06460021204602F0B8FB0146302DBC
S315080052100CBF31203720324605B0BDE8F04084E6A1
S3150800522005B0F0BD7C1E0020301C0020A02C0020FC
S315080052302CFD0108D82F00200D770008DC2C002053
S31508005240381C0020802C00204242387042424242DC
S31508005250574242004242424257420000573634669D
S3150800526000000000573634700000000057424257CD
S31508005270573870420000000010B50446FCF774FD6C
S315080052804E48302101604E4801604E4801604E4844
S3150800529010210160200A08BF24024C4804804FF2FE
S315080052A00F014180BFF35F8F4948002101604160CB
S315080052B048484949016010BD10B5484C2068C006E9
S315080052C00BD5424846490A68C0F894204968C0F890
S315080052D0901040F60620FFF7CFFF2068C00708D5D4
S315080052E0404803210170206C4008400020640120DA
S315080052F020602068000703D5206C20F00800206491
S3150800530010BD80B5002000F009F830B9F5210FF27C
S31508005310E800BDE80440FDF79DB901BD2DE9FC4450
S31508005320314C4142226889184A1C02F01F020028A3
S315080053305ABF504245185518A5F11F062B48A842D2
S3150800534024BF2B48864203D3EFF30880854201D356
S3150800535000202EE0FCF708FD82462648006810F07B
S31508005360010718BFFFF769FD206801468D4207D27D
S315080053702068CD2100F8011920608542F8D307E09E
S315080053801F38CD2201E000F8012B8142FBD22560AF
S315080053903046FFF757FDE22001E006F8010BB5425B
S315080053A0FBD20FB1FFF72EFD5046FCF7E3FC206851
S315080053B02038BDE8F6840C48006870473020004065
S315080053C030C8004030C0004010D000400000002027
S315080053D01C4000400CED00E00400FA0518A000404F
S315080053E030500040BA1E0020801E0020D81300202E
S315080053F0400D002094ED00E06D6963726F2D696EB3
S315080054007465726E616C2E630000000030B51C482E
S3150800541001680020002201249440CBB2234212D016
S315080054200FF2680030F812004CF23C314FF20F02CE
S31508005430144B062811D1588890420AD11888020AB6
S315080054400B2A06D207E0521C082AE4D30E49088024
S3150800545030BD4FF4C0605980F8E740F20724A042F7
S3150800546001BF5D8895421A88A242EFD1598020462D
S31508005470ECE705480088000A70470348008870472B
S315080054802C00004000000020522C002001040204D9
S315080054900103010506000702030901092DE9F94779
S315080054A088B01A22FF2101A8FCF751F8DFF8C4904A
S315080054B07422FF214846FCF74AF834254FF01A0AA9
S315080054C000270FF2C4082C48385C411C01EBD17147
S315080054D04C102A497E5CFF2803D16F214046FDF710
S315080054E0B9F87F2E03D370214046FDF7B3F8244858
S315080054F0385C00B11934601C00FB06F4A2B22148DE
S3150800550030F817100FF29000FFF72DFD6519012EE0
S315080055101CBF29F817A0B2447F1C1A2FD3DB40F210
S315080055201C44A54234BF12A30FF2C0031A200090F0
S315080055302246A9B20FF27C00FFF715FDA5420ED34D
S31508005540FFF715FCFCF710FC23462A460FF2A801C4
S315080055500020FBF770FF9B214046FDF77BF801A969
S315080055609DF8200000F025F90AB0BDE8F087000094
S315080055706F6B00006C2B00204CFA010868FA0108D2
S3150800558030FA0108FCF9010873696D2D65657072BA
S315080055906F6D2E630000000043726561746F723A86
S315080055A02030782532582C20576F7264733A20259C
S315080055B0640A000053696D454520646174613A20A8
S315080055C0256420776F726473206F66202564206DCA
S315080055D0617820282570292C20746F6B656E436FBF
S315080055E0756E743A2025640A00000000544F4F2057
S315080055F04C415247450000000D0A4552524F523A57
S315080056002053696D4545206461746120746F6F206D
S315080056106C617267652E2020436F6D70696C696EC8
S3150800562067207769746820256420776F7264732011
S31508005630636F6E73756D65642E20204D61782061E9
S315080056406C6C6F7765642069732025642E0D0A00DB
S3150800565010B5DFF8643ADFF8644A2488001B03EBC8
S315080056604000002304E030F8134021F813405B1C87
S315080056709342F8DB002010BD2DE9F04182B00446C4
S315080056800D4616460027DFF8308A01E0B81CC7B277
S31508005690B7421ADA78194078795D01EB0020ADF83F
S315080056A00000012200A907EBD77004EB6000DFF8C1
S315080056B00C3A1B88C01A08EB4000FCF784FF002848
S315080056C0E4D002F010FC002000E00120BDE8F681DD
S315080056D0F8B504460E46154600270DE000F019F801
S315080056E0761C04EB4700BDF80010090A4170BDF8A6
S315080056F0000004F817007F1CB7EB550FEEDBE80730
S3150800570006D500F006F82819BDF8001000F8011CA7
S31508005710F1BD012200A9B0B29AE7DFF89C19DFF8BB
S315080057209C291288801A01EB40010220FCF712BF5F
S31508005730DFF88C19415CDFF88C29825CDFF8883940
S31508005740C05C10B102F5997292B241EAC21080B2F9
S31508005750704710B5DFF8743903EB4002DFF860498B
S31508005760005D012801D1104610BD1088081803EB0A
S31508005770400010BD38B50C46DFF854190D782A4696
S315080057802146FFF765FF208800281CBF4FF6FF71EA
S3150800579088420AD0012000E0401CC0B2A84206D2C6
S315080057A034F8101022889142F6D0002032BD01202C
S315080057B032BD2DE9F04F9DB089460446DFF81479CD
S315080057C0002038707880DFF810090088ADF80000EE
S315080057D008A9FFF7CFFF824601207870DFF8FC089A
S315080057E00588DFF8FC08B0F80080BDF80060DFF82F
S315080057F0CC080088ADF8040083460AA9FFF7BAFF6B
S31508005800D0B1BAF1000F43D04FF6FE70BDF82010A4
S31508005810814204D1BDF82800012806D10FE00129EC
S3150800582004BFBDF82810814232D0BDF82000BDF86B
S31508005830281088422CD202E0BAF1000F27D00020A7
S3150800584078703046CDF808B00795CDF81480DFF8A3
S31508005850801809788DF806100818ADF8100000F0C1
S315080058605DFABDF81000FFF7F3FEDFF87808008848
S315080058700690BDF80200000B4FF6FF789DF806105B
S31508005880884218BF0F2800D114B3002515E001245B
S3150800589078780128D5D158460296CDF81C8005950A
S315080058A0D5E7069805FB00F4BDF8040000F028FCCF
S315080058B0BDF8000000F024FC6D1C9DF8060085422A
S315080058C0EFDB012038704D2002F00DFB0025FBE0D0
S315080058D0BDF8105000F022FA2846FFF7B9FE6E1CF4
S315080058E0BDF80200C043C0B2ADF80200DFF8F80701
S315080058F00588BDF80200A84218BF01244FF0000A27
S315080059001FE0401CC1B2A94217D2C0B28346DFF8D5
S31508005910DC1731F81B10BDF80E209142F1D1FFF7C4
S3150800592007FF4FF680710840BDF80C104FF68072DD
S315080059301140884208BF0BF809A00AF101001FFAB6
S3150800594080FABDF80200824507DA022203A9B0B23E
S31508005950FFF77EFEB61C0020D4E7002100E0491CB4
S31508005960A94219DA11F809008842F8D0012413E08F
S315080059702AF81160012201A9BDF8103003EB400096
S31508005980401C00F0D0FABDF80400C0F3C710401C54
S3150800599000EBD07006EB6006DFF830A7B6B20598C4
S315080059A0864213DA012200A93046FFF751FEBDF8F8
S315080059B0000040450AD0761C000ABDF8001001F028
S315080059C07F02BDF80210884202DB012400252BE085
S315080059D0002100E0491CA942CCDA11F809308342BB
S315080059E0F8D1C9B2FF29C5D07F2A0CBF4FF0000CE9
S315080059F09446DFF8CC36CB5C9C4509DABDF800C086
S31508005A00CCF3C01CDFF8C0E611F80EE0F44501D06F
S31508005A100124AFE7012BABD07F2A08BF00223AF852
S31508005A2011105118A4E76D1CDFF8C40600888542DA
S31508005A3004DA3AF815004045F5D101247E80B5B25E
S31508005A40059885420ADA012200A92846FFF700FED2
S31508005A506E1CBDF800004045F1D034E7002CFCD19F
S31508005A6001220CA9029800F05EFABDF83000404504
S31508005A700DD105E0401C80B2202813D32034A4B2EF
S31508005A800799029A891A8C4205DB01203870002092
S31508005A901DB0BDE8F08FA51820220CA9A8B2FFF703
S31508005AA0D7FD00200CA931F810104145E2D0A8B264
S31508005AB0FFF733FE203CA4B2E0E70298069905FBFF
S31508005AC0010000F01EFB6D1C9DF806008542F4DB04
S31508005AD001203870414600F043F818B100F022F969
S31508005AE00028D4D10120D3E72DE9F84504460D4610
S31508005AF016469A4631462846FFF72BFEB0F8008030
S31508005B00DFF8C075DFF8E01509888D420AD27F2EC6
S31508005B1008BF0026DFF8A805285C864202DAE85D99
S31508005B20824503D040F2864100F0F9F9DFF898057E
S31508005B30285C68B14146284600F028FAE95D012943
S31508005B4008BF20700AD0022914BF2060208005E013
S31508005B50524641462046BDE8F845B9E5BDE8F18517
S31508005B602DE9F34F83B0DFF854050488DFF86405A0
S31508005B70407800281ABFDFF8600500882046DFF85D
S31508005B80501509780D18ADB2DFF85C050088ADF838
S31508005B900800C043C0B200EB013000F55060ADF814
S31508005BA0020000F0CAF92B1B00F0C3F96E1CB6B24E
S31508005BB0002832D10025DFF8347510E0E8B2FFF787
S31508005BC0B7FDADF8040037F81500ADF80600022257
S31508005BD000F0ACF9002820D1B61CB6B26D1CBDF891
S31508005BE008008542EADB002500E06D1CBDF80800C8
S31508005BF0854280F28E804FF0000A1AE000F08EF897
S31508005C001FFA89F0FFF724FD09F1010900F095F95B
S31508005C10BB191B1B00F08DF9002874D17F1CFFB23D
S31508005C205F45EBDBDFF8CC04285C8619B6B20AF1CF
S31508005C30010ADFF88C0415F800B05FFA8AFADA452B
S31508005C40D3D25146E8B2FFF784FD8046B8F80090F3
S31508005C50DFF874042F5CF80140EA0520ADF800006F
S31508005C60BBF1010FBDF800000CBF40F07F004AEA07
S31508005C700000ADF80000DFF84004311B00EB4100DE
S31508005C80711C89B201914FF6FF7189451EBFBDF897
S31508005C900010BDF81020914218D19DF80C1000296B
S31508005CA0C5D0012200A9FCF78EFC019E58BBA8F8B6
S31508005CB00060DFF810042A5CDFF83C0450F8251071
S31508005CC0B0B2FFF7D9FC0028ACD11FE0DFF8F41317
S31508005CD0695C491C01EBD171C9054FEA116B0122B8
S31508005CE000A9FCF770FC019E68B9A8F80060002FAF
S31508005CF095D04946E8B200F049F901905A4600F0B5
S31508005D0015F900288ED002F0EEF8002005B0BDE89F
S31508005D10F08FDFF8C00346800120F7E701220DF176
S31508005D20020170472DE9F04182B0DFF8AC0306881E
S31508005D30DFF888030488DFF89C536878002812BFC8
S31508005D40204630462646012200A9FFF781FCBDF809
S31508005D50000001280CBF4FF6FE70401EADF800008B
S31508005D60DFF86C030778DFF850833846471E70B1B2
S31508005D70012200A9BFB2B819001B08EB4000FCF7C6
S31508005D8022FC0028F1D002F0AEF8002007E069787E
S31508005D90481E8041C00F6870002028700120BDE8A9
S31508005DA0F6812DE9FE4F83460C4617469A46002093
S31508005DB08DF80400012539465846FFF7CAFC814686
S31508005DC05E46C94909888B450AD27F2F08BF002736
S31508005DD0BB48305C874203DABA48305C824503D058
S31508005DE040F2A95100F09BF8BA4F787820B1BB4829
S31508005DF0B0F80080B14803E0B948B0F80080B6486A
S31508005E000088397849B97988081ABC4909888842C6
S31508005E10B4BF4320442002F066F8B9F80010AA4837
S31508005E20305C78B1584600F0B1F8BAF1010F08BFF6
S31508005E30217804D0BAF1020F0CBF2188216881426B
S31508005E406BD02BE002914FF0000B23E0012200A952
S31508005E5002980BEBDB7300EB630000F064F80BEBC6
S31508005E60040040781BF8041001EB002080B2AAF168
S31508005E7001018B4505D1C0B2BDF80010C9B2ADF815
S31508005E800010BDF80010884218BF00250BF102006B
S31508005E905FFA80FBD345D9DB002D3ED1FFF73EFFE5
S31508005EA0B9F80000401E00F03EF89248355C788844
S31508005EB0A8F10101491B814200DB60B9387808B9AD
S31508005EC045201CE0BDF802100020FFF749FE20B36C
S31508005ED001208DF804007888401C78807949725C26
S31508005EE0214680B2FFF7C8FBB8B100F026F87B88D8
S31508005EF05B1E724C24881B1B00F01BF810B101F0C6
S31508005F00F2FF0AE09DF8040010B1FFF70BFF20B17D
S31508005F107888A9F8000028187880BDE8F78F0FF26E
S31508005F20E810FCF797BB80B2FFF792BB01A962485D
S31508005F30331B00EB4300FCF746BB01220DF10201BF
S31508005F405D48704770B582B00446002519260122BF
S31508005F5000A9A0B2FFF77CFB641CBDF8000048B19D
S31508005F604FF47F41401A02D0FF3806D007E0681C7C
S31508005F7040B276BDAD1C761EE9D168B276BDBDF8D5
S31508005F800000C0B200B96D1CE843F1E738B50C460D
S31508005F90002100914B49455C2A46214600A8FFF797
S31508005FA097FB681C00EBD07004EB600080B2FFF72B
S31508005FB0C9FF002848BFC043009940B2401832BD07
S31508005FC0F0B583B004462546404830F81560464982
S31508005FD009888C4202D23C48285C18B940F2A9616B
S31508005FE0FFF79DFF37482D5C681C00EBD07006EB69
S31508005FF06007B8B2FFF7A6FF322814D2C1074CBF14
S3150800600000214FF47F41ADF80410012201A92A4B63
S31508006010BFB207EB6000294F3F88C01B03EB400067
S31508006020FCF7D1FA60B131462046FFF7AFFF009082
S31508006030401C00902B467F2200A92046FFF7B1FEA0
S31508006040F7BDF8B5234C2078002832D11B480588BF
S31508006050607800281ABF204806882E461C4807780C
S315080060603846471E02281DD3012200A9FFB2B819D7
S31508006070FFF759FFBDF800000028F1D0194800883D
S3150800608007FB006000F03DF80020ADF80000012293
S3150800609000A90948BB195B1BFFF74BFF48B101F084
S315080060A022FFF1BD3046FFF738FBFFB20FB90120DA
S315080060B02070F1BD0000000000E00208D0F90108D8
S315080060C068FA01084CFA010830FA01086C2B00201E
S315080060D0CCF90108B02F0020D4F90108D2F901083B
S315080060E0D6F90108CEF90108DAF90108FCF9010820
S315080060F0DCF90108E0F9010850FC0108D8F90108A3
S31508006100201880B2FFF709BB73696D2D656570723B
S315080061106F6D2D696E7465726E616C2E630000007A
S315080061207047012070470020704700207047002004
S31508006130704700207047704770477047F8B50600EB
S315080061400C4C276814D0FBF70FFE0B4D29782268F4
S3150800615022F8116037F8021BB142FBD1FBF70AFEA1
S31508006160B81E2168401AC0052978000E884200D159
S31508006170FF20F2BD441C0020481C002010B56848CA
S315080061800068684C2060606048220021FBF7DFF950
S315080061902068002181722068C17220680B21017372
S315080061A020680321417320684FF6FE71C1814FF6BE
S315080061B0FF71018200F096FB2168087600F092FBD9
S315080061C02168487600F08EFB216888762068564953
S315080061D00978C17620685549096881625449097861
S315080061E080F82C10206853490968016310BD10B562
S315080061F0FBF7D2FC4B4C6168097B884203D0084602
S31508006200FBF7C2FC50B9FBF7CAFC0146606890F977
S315080062100D00814204D0FBF7C6FC08B1012010BD71
S315080062206068C089FDF757FF6068008AFDF75BFF65
S315080062306068807A012818BF0020FDF736FF002025
S3150800624010BD10B53C4C0020207002F06EF80028F6
S315080062501CBFBDE81040FFF7CABF2046BDE8104086
S3150800626002F092B8002070470020704770477047C8
S3150800627000207047012070477047002070470020B3
S31508006280704770477047002070470020704780B5F8
S31508006290002000F023F828B1002000F013F808B118
S315080062A0002002BDFF2002BD80B5002000F00AF8DC
S315080062B030B11C480068807A032801D2002002BD4C
S315080062C0FF2002BD17480068C07A02281CBF1128A3
S315080062D0432801D101207047002070471148006803
S315080062E0817A04298041C00F704710B5040004D094
S315080062F0D3210FF26800FCF7ADF948200849096870
S3150800630000FB041007494860BDE810406FE70548E0
S315080063104068C089704703484068008A7047000093
S31508006320641C0020802C00209E1C00206C1C002071
S31508006330701C0020741C0020702C00207047002060
S3150800634070470020704702F070B97047704701F037
S31508006350B7BD02F0C7BC02F043BE0000656D6265BA
S31508006360722D6D756C74692D6E6574776F726B2DF1
S31508006370737475622E63000070B504460D461646A2
S31508006380FDF779FE38B16078002E14BF40F0200082
S3150800639000F0DF0060702946204601F02DF9FF283D
S315080063A022D09C4C014604F10C0001F03DFB2088EC
S315080063B0401C2080618880B281420BD2A088401C94
S315080063C0A08004F10C0001F044FB01F092F820884B
S315080063D0401E2080608821888842F2D38E48007843
S315080063E0BDE8704002F0D1B870BD2DE9F04E86B018
S315080063F0044600208DF80500FBF7B6FC854D298874
S31508006400491E2980FBF7B6FC204600F0FBFF90F8F2
S31508006410009090F801A00020009008237F480068AB
S31508006420205CA0F10802D2B2214602A801F0FEF8CB
S3150800643002AE7078FFF725FF7948007898B1A8680A
S3150800644000280FD0F078FDF7C3FA4946FDF7C7FADA
S31508006450024696F9020000F166035BB249462046F9
S3150800646000F0BCF894E00AF0070002282DD0FF20BF
S315080064708DF80400204600F0C5FF00F1010B5846D0
S3150800648002F0A1FE0546A9EB0500801E47B2002FC3
S3150800649006D5204601F02DF8FFF7F4FE002081E02E
S315080064A001A9584603F024F8002874D10AF0070019
S315080064B001280BD105EB0B019DF8040004F06EFAD8
S315080064C020B99DF8040001F014F864E09DF8040072
S315080064D05249096810F801A05249096844544F48BE
S315080064E00068205C00F12001C9B29DF8040000F0A4
S315080064F08FFF9DF8040002F02EFE00F00C00042821
S315080065001CBFEF19002578B280B200906B1C9BB2B5
S31508006510224651469DF8040001F054FA07EB0A0199
S31508006520C9B29DF8040001F033F970783E4909783C
S31508006530884204D3BD210FF2F800FCF78BF89DF8CA
S31508006540040002F003FE8004800C717840EA813171
S3150800655089B29DF8040002F0FBFDF078FDF738FAE1
S315080065604946FDF73CFA0246032100F01EF8B078CA
S3150800657000F16602D2B2042100F017F89DF808204F
S31508006580052100F012F89DF80440204602F053F960
S3150800659001208DF80500204600F0ABFFFFF772FEDC
S315080065A09DF8050006B0BDE8F08E9DF8040002F0DF
S315080065B0ABBD10B5174CA18829B1C9B21D20FFF78C
S315080065C0CAFE0020A08004F10C0001F042FAFF2860
S315080065D003D0FFF70AFF0028F5D010BD30B5A1B0EB
S315080065E014461D46002200924B1CDBB2014601A848
S315080065F001F01CF8FFF740FE2A46214601A8054B84
S315080066009B689847FFF73EFE21B030BD074801F06A
S3150800661047BA00002C1F0020D72F0020301C00206E
S31508006620E91E0020381C0020681C0020381F0020A6
S315080066306D61632D726563656976652E630000007A
S3150800664038B504460D46012004F044FA6048002D8A
S3150800665012BF00210178491C01705E4844705E48EB
S31508006660FDF7E8F90020BDE8324004F033BA10B56A
S31508006670144600283AD0402823D0882818BF8928ED
S315080066803BD08D282ED08F2841D154480078042835
S315080066900DD144B152480221017040F60620BDE8EA
S315080066A0104004F01FBAFDF78CFC31202BE00120C6
S315080066B0FEF78CFCFDF785FC002C0CBF3120002072
S315080066C021E0434801784078814204D20021012024
S315080066D0BDE81040B4E70020FEF778FCFDF771FC32
S315080066E0402010E00020FEF771FC0BE00120FEF7C9
S315080066F06DFCFDF766FC002005E00020FEF766FC51
S31508006700FDF75FFC8D20BDE8104002F03AB8CC21B9
S315080067100FF2E400BDE81040FBF79CBF3048007854
S31508006720022800D0704780B52E480078042807D084
S315080067300C280ED12C480078022818BF7C2808D1CE
S3150800674004F0EBF9FDF73DFC0020BDE8024002F03D
S3150800675018B801BD38B50024FBF706FB05462048E6
S31508006760007810B9FDF794F804462846FBF702FBB3
S31508006770002C1CBFBDE8314001F0B3BB31BD80B56C
S31508006780FFF7E8FF14211948BDE8044001F00EBEE2
S3150800679040F205110FF26000FBF75CBF38B5144CE8
S315080067A02068216C01EA0005ADB2A80706D5206C61
S315080067B020F0020020640F4801210170680705D502
S315080067C0206C20F00400206401F099FC256031BD9E
S315080067D03D1F0020481E0020042D0020F31E002027
S315080067E0F82C0020E01E0020E11E0020842F002047
S315080067F008A00040DC2F00206D61632D656D3235E1
S31508006800302E630038B504461B4D214600F03DF88E
S31508006810E860211D00F039F8A86004F1080100F0CD
S3150800682034F8686004F10C0100F02FF8286031BDD7
S315080068307047F8B50446114D80202860104E062092
S3150800684030600720286030688007FCD5002704EBF5
S31508006850870100F01AF8A8627F1C042FF7D3306866
S315080068604007FCD500262A6B04EB860100F00AF8DF
S31508006870761C042EF7D3F1BD3830004000300040B6
S3150800688010A00040002004F05BB9002004F066B9AF
S3150800689070B504460D46FBF767FA06462846FFF725
S315080068A0B1FF2046FFF7C5FF3046BDE87040FBF74D
S315080068B061BA002848BF40427047000081B209B952
S315080068C04BF6EF610E4A1180000C08BF4FF6CE203A
S315080068D0508070470288130448BF4A40510001801F
S315080068E01046704738B5064C62212046FFF7F2FF7E
S315080068F0054641F20B01A01CFFF7ECFF684032BDCC
S315080069008E1D0020EFF3118060288041C043C00F20
S315080069107047000008237F22024801880248FAF7D8
S31508006920CBBE00BF5CFD0108A02C0020DFF868067E
S31508006930002101604FF400414160DFF86006002144
S3150800694041707047DFF8540640787047DFF84C0608
S31508006950B0F918007047DFF84406B0F91A00704716
S31508006960DFF83806B0F914007047DFF83006B0F9DA
S3150800697016007047DFF82406B0F90C007047DFF8F8
S315080069801C06B0F912007047DFF81006B0F91C00B3
S315080069907047DFF80806B0F910007047DFF8F00511
S315080069A00068C0F34230704780B5FFF7F7FFC01D97
S315080069B000B202BDDFF8D8050068400702D5DFF847
S315080069C0E0057047DFF8DC05704710B5FFF7F2FF02
S315080069D00446FFF7E3FF401D44FA00F010BDDFF858
S315080069E0C8251060C804C00C5060704754E210B542
S315080069F00C4602237F22DFF8B4150988FCF78BFCC6
S31508006A0000F091F92046BDE81040FCF784BC2DE95A
S31508006A10F8434FF0FF35DFF88445A06A002876D0A2
S31508006A200025DFF88C6547F6FF780FF2CC5100F0A9
S31508006A3081F900270FF2F829A06A30F917205519AD
S31508006A40494600F0DEF9A06A30F917008642B8BF59
S31508006A5006464045B8BF80467F1CB7F5027FEBD394
S31508006A60CBA100F06AF9A6EB080632B20FF2B851CC
S31508006A7000F0C7F9B0B200F063F942F21076314679
S31508006A80FAF709F90FF2B45100F057F94FF4027802
S31508006A90B5FBF8F080B200F053F905460027B94671
S31508006AA0A06A30F8190000F04BF9401BA16A21F8DA
S31508006AB0190000B200FB007709F10109B9F5027F58
S31508006AC0EED3B7FBF8F000F07FFA05462A460FF238
S31508006AD0745100F096F931462846FAF7DCF80FF2B9
S31508006AE0B45100F02AF94FF4FA60684340F22911CC
S31508006AF0B0FBF1F52A460FF2A85100F082F93146AB
S31508006B002846FAF7C8F80FF2E85100F016F90020FF
S31508006B102071E16A080003D0A8B2BDE8F44308472B
S31508006B20BDE8F18338B5044600202080DFF86054BC
S31508006B302869C00702D4D01F082801D3002032BD17
S31508006B4000F0DEF8D01F400340F0040040EAC10020
S31508006B50286000F0DCF8FFF749FF20802868400825
S31508006B6040002860012032BD10B582B00E2289216E
S31508006B700DF10200FFF7D6FF04460E22B92100A840
S31508006B80FFF7D0FF04420DD0FFF7D0FEDFF80C0464
S31508006B90BDF802108183BDF80010828B891A018224
S31508006BA00121417013BD3EB5DFF8E45300F0A8F8A3
S31508006BB0DFF8E84304F13400606204F24440A0625E
S31508006BC0FFF7B4FE0E22892100F09FF838B1BDF810
S31508006BD00800A0832083207840F0100020700E2241
S31508006BE0B92100F092F838B1BDF808002082A081DA
S31508006BF0207840F0010020700E22A92100F085F8C7
S31508006C0030B1BDF80800A082207840F0040020705A
S31508006C100E22882100F079F830B1BDF808006083AB
S31508006C20207840F0200020700E22A82100F06DF890
S31508006C3030B1BDF80800E082207840F008002070E6
S31508006C400E22B82100F061F838B1BDF80800E081DD
S31508006C506082207840F00200207002237F22D34809
S31508006C60018804F12000FCF756FB207840F040002C
S31508006C70207000F058F804F13000FCF74CFB20783F
S31508006C8040F080002070FAF708F9E08300F03FF83A
S31508006C90FFF76AFF00F034F8607860B3B4F91C2097
S31508006CA0B4F910000190009013460FF24C410120F0
S31508006CB0FAF760F80FF2644100F03CF8A08B00F098
S31508006CC03FF800F099F8B0A100F034F80FF25441FB
S31508006CD000F030F8208A00F033F800F08FF8ABA106
S31508006CE000F02BF8B4F91E301A460FF24041012085
S31508006CF0FAF740F837BD0FF2584100F01EF837BDD5
S31508006D002868400840002860704702A80AE7A94892
S31508006D104FF4006101609F4801210160286840F036
S31508006D2001002860704702237F22A3480188704724
S31508006D30256420000120FAF723B80120FAF71AB8CB
S31508006D4038B50446954D687808B9FFF70DFF687899
S31508006D50D8B1B5F9100028B94FF4A0710FF22C403C
S31508006D60FBF778FCB5F91000B5F91C10611A00EBB1
S31508006D70D072521002EB014191FBF0F4FAF78DF84C
S31508006D80604300EB8000001432BD894832BD000024
S31508006D900000000038B500240E22292100A8FFF7BC
S31508006DA0C1FE18B3BDF900200FF2F03100F029F842
S31508006DB0BDF80000FFF7C4FFADF8000000F01CF8AE
S31508006DC0BDF9000040F2D951484340F2022190FB38
S31508006DD0F1F40FF2DC31FFF7ADFF29462046F9F74B
S31508006DE05AFF0FF2D831FFF7A8FF03E00FF2D431AC
S31508006DF0FFF7A0FF204632BD42F210752946F9F783
S31508006E004ABF0120F9F7BCBF38B50C4615460E2215
S31508006E10B821FFF787FE0E2298212046FFF782FE4B
S31508006E200E22B8212846BDE838407BE670B584B006
S31508006E300446FFF799FE00F066F8554DAB686A6898
S31508006E400FF2C8310120F9F795FFAB686A680FF2AF
S31508006E50D8310120F9F78EFF48F2A42028604F4860
S31508006E60C46200F024F8FFF7B0FD0446FFF7A2FD60
S31508006E700546FFF793FD0646FFF790FD4FF40271AE
S31508006E80029101940095F31D1BB202460FF2B03130
S31508006E900120F9F76FFF7FBD48484FF6FF71016083
S31508006EA00168C907FCD54648006800B2704738B57E
S31508006EB03A48416A00F1340291421CBF00F244424A
S31508006EC0914203D000F13401416282623B4C0021B9
S31508006ED021642F4DE96841F01001E9604FF4027111
S31508006EE0406AFFF77CFD286840F00100286004200E
S31508006EF020640120E8604FF6FF70206031484FF4A7
S31508006F000061016031BD10B582B000F01AF80E229A
S31508006F10A9210DF10200FFF705FE1F4C4FF00050A6
S31508006F20BDF90210BDF90020891A90FBF1F06060E6
S31508006F3000F007F8BDF90000C0F560404000206089
S31508006F4013BD0E22892100A8ECE51C4801684907F3
S31508006F5003D44FF6FF710160704716484FF400617D
S31508006F6001600B4801684908490001600B498A6AB3
S31508006F704B6A8B624A62002242604FF4004282608A
S31508006F80081D01F001BA0000560000002056000056
S31508006F9004D0004050A8004008D00040C820002077
S31508006FA040420F00808D5B0018D0004048FD010864
S31508006FB00080FFFF80E100E04AFD010810A80040BC
S31508006FC000D0004000E100E000214FF0804200E0E0
S31508006FD092089042FCD34AB15318984203D3401AF8
S31508006FE0801A01EB420149089208F4E7814238BF4A
S31508006FF0491C0846704700002D412D204144432076
S315080070004D6561737572656D656E743A2043616C82
S3150800701063756C6174696E6720524D532056616CB6
S315080070207565202D412D0000567070203D20256481
S3150800703020616463756E69747320280020766F6C0E
S31508007040747329002D562D20414443204D656173E4
S315080070507572656D656E743A496E7465726E616CAB
S315080070606C79206265666F726520636F6E766572ED
S3150800707073696F6E20746F2066756C6C207363611C
S315080070806C6520416D707320283078253478292C5A
S315080070902000000020766F6C7473202D562D00009A
S315080070A02D412D20414443204D6561737572656DF0
S315080070B0656E743A496E7465726E616C6C7920619E
S315080070C06674657220636F6E76657273696F6E207B
S315080070D0746F2066756C6C207363616C6520416DF6
S315080070E0707320283078253478292C200000000079
S315080070F02041202D412D00006E5653533D20256416
S3150800710020283078253278292C206E5644443D2094
S315080071102564202830782532782900006E56535386
S315080071203D2000006E5644443D20000068616C20F6
S31508007130496E7465726E616C204E56726567323D93
S31508007140202564206D5628307825327829000000DD
S3150800715041444320636F756C64206E6F74206265CA
S315080071602063616C69627261746564212121212141
S3150800717021212121212121212121212121212121F1
S31508007180212121212121212121210000656C65630E
S315080071907453656E736F722E6300000042617474D7
S315080071A06572793A2030782534783A200000000054
S315080071B020766F6C7473203D3E20000020766F6C3D
S315080071C074732E00426174746572793A20302076A1
S315080071D06F6C74732E2056414C554520434F554CC1
S315080071E044204E4F542042452052454144204652A1
S315080071F04F4D20444556494345212121212121212E
S315080072002121212121212121212120004F464653D8
S3150800721045543A2030782532782C204741494E3A51
S3150800722020307825327800004F46465345543A2098
S3150800723025643B204741494E3A2025643B0000001F
S31508007240414443506572696F643A2025642C204195
S315080072504443206269742064657074683A20256422
S3150800726020626974732C2041444320436C6F636B1E
S315080072703A20256420487A2C204144432053616DE6
S31508007280706C696E67206672657175656E63792CB8
S3150800729020256420487A2C204275666665725369F3
S315080072A07A653A20256400002DE9F843394C002018
S315080072B06065DFF8E4804FF48045C8F80050042084
S315080072C02060E560354F0B20386000206065606DF2
S315080072D040F060006065324E0B2000F028F83070F0
S315080072E00020A0654FF40049C8F8009008202060E7
S315080072F0C4F80C90072078600020A065A06D40F0C7
S315080073006000A065072000F012F870702548056037
S31508007310C0F80090BDE8F1832149072803D00B285F
S3150800732003D10878704748787047002070470728C7
S3150800733005D00B280BD11C480068C00802E01B4882
S315080073400068C00900F0010080F0010070470020C5
S31508007350704710B50F484FF48041C16004210160A1
S315080073600B20FFF7E4FF01460D4C22788A4218BF2E
S3150800737021700DD1501E8041C00F207021780B203E
S3150800738003F0AAFF2178481E8041C00F207021789B
S315080073900B2033E014A8004080E100E014BC004054
S315080073A0B72F002000E100E008B4004008B0004014
S315080073B010B506484FF40041C16008210160072056
S315080073C0FFF7B5FF0146024C04E000BF14A80040D1
S315080073D0B72F002062788A4218BF61700DD1501EFF
S315080073E08041C00F60706178072003F075FF6178EF
S315080073F0481E8041C00F607061780720BDE81040C4
S3150800740003F06ABFDFF87816096801EB4010704789
S31508007410DFF870261268815470472DE9F0410400A0
S3150800742035D0FAF7A1FCDFF86016DFF86056DFF80A
S315080074306026FF231678FE2E1DD100261670DFF86B
S31508007440546637782F700027DFF84CC609E007F135
S31508007450010E07F808E0DCF8008007F808305FFA44
S315080074608EF796F800E0D1F800807745EFDB0EEB53
S31508007470080606F8013C2E78A6420AD2FAF77AFCE4
S315080074800520FDF7A3FD00211B20FEF764FFFF2062
S315080074901FE0361B2E701578DFF800761678D7F8B9
S315080074A000C04FF0010E06F80CE0D1F800C016F83F
S315080074B00CE082F800E0641EE4B2002CEED106F877
S315080074C00C30DFF8C015096800226A54FAF752FC36
S315080074D02846BDE8F08110B50446FAF745FCDFF802
S315080074E0BC150968625C521C6254BDE81040FAF784
S315080074F041BC2DE9F041044600F032F80546FAF79A
S3150800750033FCDFF88C25DFF88435DFF87C65DFF897
S315080075108C8511E03168615C002704F80E701F78CD
S315080075207F1C1F70D6F800E0177804F80E701470E8
S31508007530FF2904D12C46FF25FF2C01D10CE00C466F
S31508007540D8F80010675C7F1E6754D8F800E014F876
S315080075500E107F273942DDD0BDE8F041FAF70ABCA4
S3150800756080B5DFF838150968415C090603D5FFF7C9
S3150800757049FF007802BDFF2002BDBCB504460D4692
S31508007580FFF7EEFFFF2818BFFFF7B3FFDFF80C750C
S31508007590FF2D04D13868215C01F07F0106E02846FA
S315080075A0FFF799FF3868215C41F080012154204695
S315080075B0FFF728FF0570B3BD0EB430B504460120A9
S315080075C0FFF72BFF0546FFF71DFFFF2D08BFFF201E
S315080075D00FD0DFF8B01409686C5403A9002204E040
S315080075E051F8043B00F8013B521CD3B2A342F7D32F
S315080075F0284630BC5DF810FB70B582B004460D46CF
S3150800760005F11F0000F032F90646FF2E0DD0DFF80F
S315080076107404006835543CB1012000902B460022C2
S315080076203146204600F002F8304676BDF2B582B003
S31508007630054616461F46089C0846DFF8481409689A
S31508007640405CB919884203DA4FF4B07100F0D4F8F7
S315080076505FB1314602A800F0D3F800943B460246D3
S315080076609DF80810284600F001F8F7BD2DE9F84303
S315080076700546894616461F46DFF80C84089C0BE02B
S315080076804A5D0A54491CB142FADBBF1B7519D8F882
S31508007690000019F800900026FFB2BFB14846FFF770
S315080076A0B1FE3018F1192029B2BF3E46C6F12006B0
S315080076B0F6B2324624B901462846F9F705FFE4E74B
S315080076C0012C08BF2946F8D00021DCE7BDE8F18384
S315080076D02DE9F04182B00446884616001F46DFF8B9
S315080076E0A4030068255C0ED07119C9B2204600F0C3
S315080076F04FF808B1182007E0009733462A46214676
S315080077004046FFF793FF0020BDE8F6810123DFE737
S315080077100A4600E0521C1378002BFBD10223521AAA
S31508007720D2B2D5E7F8B5044601F11F00C5042D0EFF
S3150800773002F11F00C004000E05B9012500B9012099
S31508007740854223D0DFF84063854210DA401BC0B279
S31508007750FFF763FE0746FF2F01D10020F2BD691E21
S31508007760C9B2204600F026F8316847540EE08A422E
S315080077700CD2411EC9B2204600F01CF804463068F7
S31508007780205CFFF7B6FE3068FF2121540120F2BDC8
S3150800779070B504460D46DFF8EC622A463068215C6F
S315080077A02046FFF7BFFF18B130682554002070BD8A
S315080077B0182070BD04E0491EDFF8CC221268805CF0
S315080077C0C9B20029F7D1704711B581B00C46DFF868
S315080077D0B4120968405C844203D34FF4F47100F094
S315080077E00BF8214601A800F00BF804469DF80400A2
S315080077F0FFF708FE201816BD0FF2B420FAF72ABFC5
S3150800780038B504460D46E904090E2078FFF7D2FF7D
S31508007810207005F01F0032BD80B5FFF7D5FF007850
S3150800782002BD10B51446FFF7CFFF047010BDF0B5C2
S3150800783083B00446DFF84C522868265CFF2C03D137
S315080078404FF40271FFF7D8FF06F11F0000F00EF89B
S315080078500746FF2F09D028683E5400960023224683
S315080078600021384600F0AEF83846FEBD0004400D4B
S31508007870C0B2D2E5F8B504460D4616460120FFF714
S31508007880CCFD0746FFF7BEFDFF2F01D1FF20F2BD55
S3150800789033462A462021201800F00EF8794909684F
S315080078A0201878543846F2BD0CB480B502AAFFF702
S315080078B0E1FF02BC5DF80CFB2DE9F0478046164651
S315080078C09946C24600250C460AE03A465046F9F75C
S315080078D0FBFDBA44E819401EC5B2681CC5B2761C41
S315080078E0A5423CDA3078002839D0312818BF32282A
S315080078F00ED159F8041B0AF8011B3228EDD1681C71
S31508007900C5B2AC42A4BF08120AF8010BE5DA26E0B4
S31508007910342811D159F8040B291D8C421FDB0AF8AB
S31508007920010B010A0AF8011B010C0AF8011B000EDB
S315080079300AF8010BE81CCFE759F8041BA0F133023B
S31508007940072A38BF303806D3A0F14102072A34BFC8
S31508007950373859F8040BC7B27819A042B5DBAAEB39
S315080079600800C0B2BDE8F0874178007800EB012036
S3150800797080B270470170090A4170704770B500F00F
S3150800798016F800F005F8007800EB062080B270BD06
S3150800799006782946204617E700B583B08DF80420F7
S315080079A0120A8DF8052001220092022304E00446FB
S315080079B00D46691CC9B207E70A46014601A8FFF742
S315080079C035FE07BD2DE9F5411F46089CA4B24CB308
S315080079D0254689B200A8FFF713FF0646B9B201A8E3
S315080079E0FFF70EFF07463046B84238BF3846C0F1A3
S315080079F02000C0B2A842B8BF05469DF80400FFF7AC
S31508007A0001FD80469DF80000FFF7FCFC2A4607EBBF
S31508007A1008013018F9F758FD641BA919EF19A4B223
S31508007A20002CD5D1BDE8F38170B504460D46FAF7AA
S31508007A309BF9194A12682378FF2B08BFAD5403D067
S31508007A409B181E78AE541D702570BDE87040FAF775
S31508007A5091B938B50446FAF787F92178FF22FF2944
S31508007A6008BFFF2507D00C4B1B68CD5C8D420EBFA7
S31508007A702270EA5CCA54FAF77DF9284632BD00003E
S31508007A802C1C0020301C0020381C0020291C00203B
S31508007A90401E0020281C00203C1C0020341C00200E
S31508007AA00078FF2801D101207047002070470000A8
S31508007AB07061636B65742D6275666665722E630008
S31508007AC080B591480021416041708170A5210170FF
S31508007AD00120FDF745FAFDF774FA00F002F80020D8
S31508007AE002BD8C48016841F0807101608A48012115
S31508007AF001601721C1608948022101608848002178
S31508007B000160884888490160884901220A607F49DE
S31508007B10874A0A6040F20141016586484FF4803180
S31508007B20016070477A48006800B10120C0B270470A
S31508007B30D12202704170090A81707F490A78C270A1
S31508007B40501C0870042070472DE9F14F82B0009050
S31508007B507A490968405C441DE4B20025F9F710FA31
S31508007B6001904FF6FF79FFF7DDFFB8B956E0A91E79
S31508007B70C9B29DF80800FFF74FFE0746494603F0CD
S31508007B80F9FC81465546F9B2F00001FA00F040EAE0
S31508007B900808761C042E16D3CBF80080EDB2A54251
S31508007BA034DAF9F7EDF90199401A40F2F51180B285
S31508007BB088422BD24FF0604BDBF800000128EDD14C
S31508007BC04FF000080026EDB215B95B270125DAE764
S31508007BD0012D05D1009859490968475C0225D2E765
S31508007BE005F1010AE11E8D4208BF4F46CAD0A11E03
S31508007BF08D4208BF4FEA1927C4D0611E8D4208BFBF
S31508007C005D27BFD0A542B2D10027BCE74FF4C870A4
S31508007C10F9F785F9A54208BF002000D00120BDE884
S31508007C20FE8F46490968415C042928BFFFF78CBFC7
S31508007C30012070472DE9F047334D6E78002E60D04D
S31508007C40F9F79EF9804631460020FFF7D5FC044631
S31508007C50A146FF2C02D10020687052E02027202E72
S31508007C6098BF3746FFF7CEFB6860AF70DFF8D0A045
S31508007C7012E0A87880B9F01B6870C6B266B1DAF867
S31508007C80000019F800902027202E98BF374648464E
S31508007C90FFF7B8FB6860AF70687840B1F9F770F91C
S31508007CA0A0EB080040F2F51180B28842E1D3002E1D
S31508007CB004BF687800281CD1A878D0B91F48006886
S31508007CC0205C851EE9B22046FFF758FE122808D127
S31508007CD0E9B22046FFF75CFD21461220FDF741FA7E
S31508007CE00AE021461748FFF79FFE2046FFF7F3FBF9
S31508007CF002E000206870A8702046BDE8F047FFF74C
S31508007D00F8BBBDE8F0870000F02F0020800E00E0E9
S31508007D10100004E0FCED00E0040004E0F00004E0DC
S31508007D20040304E0B00F00E055CEACC5000E00E039
S31508007D300D00010000E100E0E62F0020301C0020C5
S31508007D40381C00207C1E00205948006800887047AF
S31508007D5057480068801C704755480068C07E7047C1
S31508007D6038B5534D2968C872524C5349022814D164
S31508007D702868807A04283CBF084600F005FB286876
S31508007D80807A03283CBF204600F0FEFA286840693E
S31508007D90C00054BF9024BC2405E000200870207061
S31508007DA000F051FC9124204603F005FC50B9234607
S31508007DB013223EA10320FDF780F82046BDE8324095
S31508007DC0FEF7C7BA31BD3A480068C07A00F00F001E
S31508007DD0704737480068C07A00F00F00022801D1C2
S31508007DE0012070470020704738B50446304DFFF72C
S31508007DF0F0FF28B92868C07A032801D0932032BD3D
S31508007E0003F018FD20812868407BA0722868007B53
S31508007E10E072204604F098FF0020207304F1140154
S31508007E2004F1100005F043F8E081002032BD10B5DA
S31508007E30002300E05B1CDBB28B4205D210F8014B35
S31508007E409442F7D0002010BD012010BD80B508214E
S31508007E50FBF7B8FC08B1002002BDA52002BD30B56D
S31508007E60531E002404E0DBB25D5C25545B1E641CD3
S31508007E70E4B29442F7D330BD0D480068C07A0128B1
S31508007E801CBF3128332801D10120704700207047D4
S31508007E9010B50446F9F787FE10B9054909684C7309
S31508007EA010BD03480068007B70470000424200008E
S31508007EB0802C00208C2D0020842D002070477047D0
S31508007EC070477047704770477047704770477047EC
S31508007ED0002070477047704770477047704700200A
S31508007EE07047F9F71BBE38B5044643282FD04428F7
S31508007EF00ED0452806D0462818BF47280CD04D284E
S31508007F0025D01CE0FEF79DF8FEF79BF8FEF799F8DA
S31508007F10BDE83140FEF795B80E4D2878B8B901206E
S31508007F2028700020FDF7BAFA472C0CBF40F601006E
S31508007F3040F60200FDF7A0F90020287031BD40F296
S31508007F40D3210FF21400BDE83440FAF783BB31BDE4
S31508007F5000000000C22F0020656D6265722D636FF8
S31508007F606E66696775726174696F6E2E63000000CC
S31508007F7010B5DFF8C403006898B9F9F7F5FE0446AA
S31508007F80DFF8B8030178002918BF052904D10321B1
S31508007F9000F8041B00F0F8F92046BDE81040F9F790
S31508007FA0E9BE10BD2DE9F047DFF8944394F8008048
S31508007FB0DFF888530020287129780FF2A030DFF8FF
S31508007FC0787341B93C6814B99621FAF743FB002047
S31508007FD03860A04791E003291CBF9C21FAF73AFBB9
S31508007FE0FF262670B8F1FF0F0CD0404601F0B8F80E
S31508007FF0FEF747F9404600F010FC4046FFF779FACD
S31508008000FEF740F900F024FB002865D00127207808
S3150800801001F0A6F88046FEF734F9DFF828932078B1
S3150800802001F099F800F00C000C2816D1207801F020
S3150800803083F8824601F0C7F810F80A0099F800108C
S31508008040052902D1062808D106E001291CBF032903
S31508008050082902D1072800D10027207801F07BF8EB
S3150800806000F00C00082804BF99F8000008281FD063
S31508008070F7B14046FEF739F9D0B141212078FEF72D
S3150800808058F818B94121207802F07AF92078FFF7D4
S3150800809030FA2670F9F768FE044603202870281D72
S315080080A000F072F92046F9F765FEFEF7CAF80FE008
S315080080B0207800F081F80646F9F756FE04460120B6
S315080080C0287001213046FEF7BBFA2046F9F752FE22
S315080080D0BDE8F047FEF7D6B8F9F746FE0446002095
S315080080E02870386810B1281D00F04EF92046F9F7B7
S315080080F041FEBDE8F047FEF7A4B8BDE8F08780B5B5
S315080081008E480178012904D0022906D004290BD00B
S3150800811010E0BDE80140FEF73BBBFBF752FF3120FC
S31508008120BDE8024000F02DBB05210170BDE8014005
S3150800813005F0B0B94FF4A2710FF22020BDE8044053
S31508008140FAF788BA38B5F9F70FFE04467B4D287852
S31508008150052803D040F2531100F02AF800202870B1
S315080081607548006810B1281D00F00EF92046BDE8D4
S315080081703240F9F7FFBD70B50446F9F7F5FD054637
S315080081806E4E3078002818BF052803D04FF4B0711A
S3150800819000F00EF8042030704FF6FF7084421CBFC2
S315080081A0204602F09FFC2846BDE87040F9F7E2BD7C
S315080081B00FF2A810FAF74EBA2DE9FE4F804600F0E6
S315080081C0B0FF8DF80500604F386818F800009DF874
S315080081D00510401A8DF80400404600F0BCFF00F078
S315080081E00C0004280CBF012500254046FFF7B8F906
S315080081F08346BBF1FF0F0EBF002738681BF80070D7
S31508008200524C661CDFF84891FF2089F800000DB330
S31508008210404600F0B2FF064648F6410A4FF6FF70A0
S31508008220864218BF48F6610AFEF775F80146201D12
S31508008230FFF7A0FB3146A01DFFF79CFBFEF767F88A
S31508008240014604F10800FFF795FB04F20A0604F25A
S315080082500A000290002000909DF804309DF8052041
S3150800826041463046FFF7E2F99DF80400861947B102
S31508008270002000903B46002259463046FFF7D6F9C3
S31508008280BE196DB1404600F057FF4078800726D5E5
S3150800829042460298311AC9B201F0BDFB86191EE0A2
S315080082A0A078617801EB002080B2410B01F0010152
S315080082B081F001054DF6FF7101EA000A0AF0070090
S315080082C0032805D1601C00F07EFF0019407804E001
S315080082D01C480078082802D1072089F80000404683
S315080082E0FDF725FF08B14AF0100A1FFA8AF1601C4B
S315080082F0FFF740FB1AF0070F04D116480178491C0E
S31508008300017004E014480068017E491C0176E1709A
S31508008310301B401C2070301B7F2803DB40F2BF1146
S31508008320FFF746FF2846BDE8FE8F04480178481E39
S315080083308041C00F70470000DC1E0020F82C00208A
S31508008340CD1E0020941E0020301C0020042D002085
S31508008350F31E0020CC1E0020802C00206D61632EA9
S315080083606300000038B544784568F9F7FDFC0C2130
S3150800837061438B4A8B585B1BB3F1004F98BF8D50F6
S31508008380BDE83240F9F7F6BC10B50446F8F703FE27
S315080083906060042020702046BDE81040E2E738B54A
S315080083A000F011F828186060012007E038B500F0E1
S315080083B00AF805EB102000026060022020702046B3
S315080083C0BDE83240CEE704460D46F8F7E4BD38B5B9
S315080083D0FFF7F9FF05EB1040000460600320EDE7A6
S315080083E010B50446207860B1042806D0F8F7D3FD06
S315080083F06168421AB2F1004F01D8002010BD081A70
S3150800840010BD4FF0FF3010BD70B50446F8F7C3FD38
S315080084100546F9F7A9FC06466FF00041606800F0CA
S315080084202CF8401920603046BDE87040F9F7A2BC28
S3150800843070B504460D461646F8F7ADFD002156B14F
S31508008440FF22327007E0121AAA4202D2154606B176
S315080084503170491C083422680AB9284670BD137859
S31508008460002BF6D0042B04D05268831AB3F1004FC0
S31508008470E9D806B13170002070BD0022D8E738B5BA
S315080084800446F8F788FD05460BE0017841B1042952
S3150800849004D04168691AB1F1004F01D8616888476C
S315080084A0083420680028F0D131BD10B50C213C4AAB
S315080084B001FB0024F8F76FFD2168401AB0F1004F60
S315080084C006D86068FFF7DBFF2046BDE810409BE74B
S315080084D010BD70B50446334D68783349097888422B
S315080084E005D34FF484710FF2C400FAF7B3F86E7827
S315080084F0701C68700C202A4900FB06104460012194
S31508008500017200E04E7054F8081B0029FAD1FFF7F3
S315080085107BFF304670BDF8B505464FF0FF3000903A
S31508008520204C207840B3FEF7EDF928B940F239110E
S315080085300FF27800FAF78EF8F8F72DFD0C21184A95
S3150800854001FB052300251D72002305E0009EB542A8
S3150800855088BF354600955B1C6578DBB2AB420FD207
S3150800856001FB03263568471BB7F1004F04D92D1ABE
S31508008570367A0EB9002DE9D1F9F700FC0020F2BDD4
S3150800858000A8F8F727FD0120F2BD0C21044A01FBDB
S3150800859000200121017270470249087070470000E7
S315080085A01C290020D02F002020F701086576656E6B
S315080085B0742D636F6E74726F6C2E6300F8B5044683
S315080085C00D46DFF8D0030078002802BFDFF8C8633D
S315080085D03069002827D1DFF8C40300780A2818BFB5
S315080085E0022D20D1F9F7C0FB0746F278082A18D2DF
S315080085F0012D02D19019047206E006F1080106F170
S315080086000900F8F761FF3472F078401CF0703846BC
S31508008610F9F7B0FB2046FEF75EFFFFF7A9FC01203D
S31508008620F2BDF9F7A7FB0020F2BD80B5FDF786FE7F
S31508008630DFF86403017929B901210171BDE8014018
S31508008640FFF796BC01BDDFF85003002101717047A2
S3150800865038B5DFF840030078002839D1F9F784FBEC
S315080086600546DFF83443E07870B1217A6170421E1E
S31508008670E270D2B204F1090104F10800F8F724FF08
S315080086802846F9F777FB21E02846F9F773FB2069B6
S31508008690F0B92079022802D004F0E6FF607060780D
S315080086A0FF2810D1207998B1FDF749FEFDF7E9FDBD
S315080086B005F0B3F96070FF2803D0FDF742FE00B954
S315080086C02071FDF7DFFD6078FF2801D0012032BD5B
S315080086D0002032BD2DE9F04104460D46FDF72CFD7C
S315080086E0AD4E00203071F9F73FFB8046306920B166
S315080086F04046F9F73FFB002013E0A9480078052813
S3150800870008BFFFF71FFD00F00EF8070008BF346129
S315080087104046F9F72FFB1FB105B1A047012000E03D
S315080087200220BDE8F08110B5F9F71EFB9A49CA7810
S315080087309B4B1B781A430979114305D19949097846
S315080087404C1EA441E40F00E00024F9F713FB204671
S3150800875010BD10B59248002101708F4CFF20607043
S315080087602161FEF7BFF820708E48002101708E48FF
S31508008770017014218D48FFF719FEBDE81040FDF77A
S31508008780CFBC2DE9F0410446DFF81882844E884FA5
S31508008790814D6878FF2808D13878FE2817D04FF41D
S315080087A0B3710FF21820F9F755FF3878811F0129A0
S315080087B00DD805213170214604F0D5FE08B900F020
S315080087C013F86878FEF795FEFF20687002E0AC7033
S315080087D000F00AF83878042804D02879012804BF5C
S315080087E002202871BDE8F081032030704046FFF76B
S315080087F0CBBD10B5684C617881420DD10846FEF7AD
S3150800880078FEF9F7B1FAFF2161706949FE220A700C
S31508008810BDE81040F9F7AEBA10BD38B504465E4D4E
S31508008820A978FDF786FC28B9A9782046BDE8344022
S3150800883001F0A6BD31BD2DE9F8430446FF2C05D14C
S3150800884040F2B7110FF27410F9F704FF0320FCF792
S31508008850BDFB584D204600F07EFC00F00C00287049
S31508008860FF206870204600F076FC00F00C0008280F
S315080088705FD028780C285CD1204600F05DFC0746BE
S31508008880FFF772F8804608F44C46384600F09BFC21
S31508008890C05D68704FF6FF794FF4406018EA000F24
S315080088A006D0F81CFFF760F8484508BF46F04006B2
S315080088B008F44060B0F5006F06D1781DFFF754F84C
S315080088C0484508BF46F010064CF65000697801295D
S315080088D018D0022919D0042908D0062927D0072933
S315080088E027D008291AD07C2912D051E0B0B2B0F5A9
S315080088F0484F18BFB6F5084F4AD12046FDF715FC74
S31508008900002812E0B6F5484F0FE0B6F54C4F0CE0DC
S31508008910B1B2B1F54C4F0CD0864206E04CF6404059
S31508008920864235D11D480078052831D101E08642B6
S315080089302ED1204600F00AFC0646204600F00BFC25
S3150800894000F00C00082816D0B00614D54FF6DF70D4
S3150800895000EA0601204600F0FBFB204600F0E1FB9A
S315080089600646204600F0E8FB00F02DFC8119C9B246
S315080089702046FEF70DFF2146281DFFF755F820462D
S31508008980FEF7A9FD0C480078BDE8F243FFF7FDBDE8
S31508008990BDE8F183E91E0020CC1E0020941E0020AD
S315080089A0F82C0020FC2C00209C1E0020842F002080
S315080089B0F31E0020E01E0020D72F00206D61632DD6
S315080089C0617262697465722E630000007CB5FCF7FB
S315080089D050FD0446FCF751FD0546FBF7EDFDF9F79A
S315080089E0CDF90022002101A805F026F900B173BDD2
S315080089F002F0EAFD06460123002208210020F8F7C6
S31508008A0011FCFBF7D6FE034622460FF20C51012055
S31508008A10F8F7B0F9FBF7D5FE03462A460FF21051D0
S31508008A200120F8F7A7F90124FCF723FD04FA00F062
S31508008A3040F2A17108420AD0DFF850442078F9F7CD
S31508008A40FBFE2078F9F77FFF2078FAF784F800F024
S31508008A50EBFA66B133460FF20C520FF2F4410120DD
S31508008A60F8F788F9AA210FF20450F9F7F3FD05F093
S31508008A70EDF802F087F805F01BF905F0C9F805F0DE
S31508008A8063FE0221022006F085FA0024DFF800546E
S31508008A90E0B205F0E0F815F81400012808BF06F062
S31508008AA081FA00A804F03AF958B915F814009DF8A7
S31508008AB00010814203D0022908BF012801D102F023
S31508008AC053FB05F0D6F8641C012CE1DB06F096FA98
S31508008AD0DFF8C00341F202010180DFF8BC0352212E
S31508008AE00180DFF8B80301804FF40040F8F7A8FECC
S31508008AF0CEA40FF2884501E005F0BDF8FCF737F97A
S31508008B0002F09DFD05F048FEF8F7BAFC06F052FEA5
S31508008B100021002006F0A5FA0028EDD02A462146B5
S31508008B204FF6FF70F8F72CF9E6E710237F22DFF8F7
S31508008B3070130988F8F7C0BD02F074BE02F07ABE59
S31508008B4007F0A1BA38B507F0CEFB0446002528463B
S31508008B5007F063FCA04201D1284632BD6D1CEDB278
S31508008B60022DF4D3FF2032BD38B5044605F078F857
S31508008B70050016D14FF4A85322460FF21C41402097
S31508008B80F8F7F8F84FF4A851204607F047FE0546CF
S31508008B902A460FF210414020F8F7ECF805F069F87C
S31508008BA0284632BD7FB500F0A7F802F03BFE38B183
S31508008BB06088B0F5006F03D1601D05F030F813E04A
S31508008BC0204605F03DF8050014D1002600A93046D8
S31508008BD007F0A2FF002804BF9DF80000002805D171
S31508008BE02146304607F0A3FF054603E0761CF6B299
S31508008BF0052EEBD305F03DF8284604B070BD38B510
S31508008C0000F07AF8204605F01DF805000AD120463E
S31508008C1007F0D3FF05462B4622460FF29431402033
S31508008C20F8F7A8F805F025F8284632BD10B5044629
S31508008C30FDF71AFB9B4901EB0411097B814208D118
S31508008C40204605F073F820B12046BDE8104005F02F
S31508008C5036BBFF2010BD70B504460D4605F02DFB4A
S31508008C600646FF2E07D0FDF7FFFA8E4901EB0611DF
S31508008C700A7B824201D0002070BD488828808888F7
S31508008C806880887928710121204605F01CFB6871E7
S31508008C900021204605F017FBA871012070BD2DE9BB
S31508008CA0F04105460E46904605F007FB07464FF687
S31508008CB0FF74FF2F13D0FDF7D7FA7A4901EB071196
S31508008CC0097B81420BD10EB9012202E0012E06D1A1
S31508008CD000224146284605F01AFB00B104882046C2
S31508008CE0BDE8F08110B500F007F8204602F0D4F987
S31508008CF0BDE8104004F0BDBF044604F0AFBF38B568
S31508008D000C4669490968455CAA420AD200922B4674
S31508008D100FF250220FF2B0210220F8F72BF80020AC
S31508008D2032BD002100912B46002201462046FEF75F
S31508008D307DFC284632BD70B598B004460D461646E9
S31508008D4004F08CFF522203A93046FFF7D8FF06002D
S31508008D5011D00DF1090007F0BFFA02A807F0BEFA14
S31508008D6003A8019000969DF908309DF80920294628
S31508008D70204602F0C2F804F07CFF18B070BD2DE959
S31508008D80F04198B005460E4690461F461E9C04F0D4
S31508008D9065FF522203A93846FFF7B1FF48B102978B
S31508008DA003A901910090234642463146284602F01F
S31508008DB0E5F804F05EFF18B0BDE8F0812DE9F04152
S31508008DC004460D46904619460698079FFEF714FC7A
S31508008DD00646FF2E08BF182022D03E7020460228DD
S31508008DE004D9C01E08D0401E0DD014E033464246B2
S31508008DF0294606F0DBFE0CE033460C220C214046E1
S31508008E0006F055FF05E033460C224146284606F093
S31508008E1029FF044600E002243046FEF76AFB204696
S31508008E20BDE8F08108222149F8F74EBB25703E00BF
S31508008E3010B50C4603F072FF20B92046BDE8104075
S31508008E40FEF7D2BF10BD05207047002070470520E9
S31508008E5070470420704780B53E221549F8F734FB61
S31508008E60BDE8014000F0E0B81248007870474B2092
S31508008E70704700B583B01048D0E90023CDE9002338
S31508008E80DDE9000102F0DCF907BD0000B52F00207E
S31508008E904E1B0020381E00203C1E00203E1E0020CF
S31508008EA050FD0108941F0020301C0020A02C002033
S31508008EB058200020291C00202CFD010810B582B07E
S31508008EC0FFF71AFF0DF1010007F006FA00A807F0F0
S31508008ED005FA9DF900209DF80110204608F07FF854
S31508008EE004F0C7FE13BD38B504460D4604F0B6FEB9
S31508008EF02946204608F03DF808E038B504460D46F0
S31508008F0004F0ACFE2946204608F0BBF8BDE831401F
S31508008F1004F0AFBE70470000526573657420696E31
S31508008F20666F3A20307825782028257029000000B9
S31508008F30457874656E646564205265736574206946
S31508008F406E666F3A20307825325820282570290019
S31508008F502570656D626572496E697420307825786A
S31508008F60000000004552524F523A200061662D6DAE
S31508008F7061696E2D736F632E63000000646172551C
S31508008F804E4273656E736F72546D704163636549C3
S31508008F904C4C756D554E420073656E6420257820DD
S31508008FA025327800646F6E653A2025782E00000019
S31508008FB064656C6574652062696E64696E673A20DB
S31508008FC0257820257800000025706D736720746F5A
S31508008FD06F2062696720282564203E2025642900C1
S31508008FE038B50246334B33F812404FF6FF75AC429C
S31508008FF01CBF641C23F81240032818BF052803D198
S315080090001C890A191A810CE0092818BF0B2803D1F4
S315080090109C8A0A199A8204E01D2802D15C8F0A19D3
S315080090205A87BDE834400CE080B53E22002121482D
S31508009030F8F78DFA222200211F48BDE80840F8F704
S3150800904086BAF8B504460D4600260FF28000315C54
S31508009050A14204D0761CF6B2112EF8D3FF26FDF7EE
S3150800906003F9074615480078874204DBA5210FF265
S315080090705000F9F7EFFAFF2E1BD022200E4900FB0D
S31508009080071030F816104FF6FF7291421CBF491CA4
S3150800909020F81610032C18BF052C03D1018969186E
S315080090A00181F1BD092C18BF0B2C02D1818A6918E0
S315080090B08182F1BD5820002098200020681C0020DD
S315080090C0636F756E746572732E6300000001020388
S315080090D00405060708090A0B151618191A000000D0
S315080090E010B50C46FEF78EF92018BDE81040FEF7BD
S315080090F03BBC38B50C461546FEF784F929462018B8
S31508009100BDE83440FEF736BC38B50C461546FEF7C2
S3150800911079F9255431BD10B50C46FEF773F9205C74
S3150800912010BD80B500F017F800F00C00042801D136
S31508009130082002BD062002BD38B50446FEF762F9CE
S3150800914005462046FFF7EDFF401932BD0121C7E766
S315080091500A460121CDE780B5FEF754F9407802BDED
S3150800916080B5FFF7F3FF800B02BD80B5FEF74AF91D
S31508009170417841F01001417001BD10B50446FFF772
S31508009180EAFF00F00C00042804D05E210FF27C10E0
S31508009190F9F760FA06212046BDE81040A0E738B581
S315080091A004460D46FFF7D7FF00F00C00042804D04C
S315080091B064210FF25810F9F74DFA2A46062120467F
S315080091C0BDE8384095E780B5FEF7CEFB01468A1222
S315080091D042EAA20000F00F000FF24013C05C4B07F2
S315080091E000D408B9FF2002BD490605D412F00301D0
S315080091F01CBF12F03001801CC0B202BD10B5044677
S31508009200FFF7A9FF00F00C00042802D14FF4006014
S3150800921010BD06212046FFF763FF00F4406010BD2D
S3150800922038B50446FEF7EEF805462046FFF793FFE5
S3150800923000F00C0004280CBF06200B20401932BD94
S3150800924080B5FFF7EDFF33E010B50446FFF783FF5F
S3150800925000F00C00042802D14FF4004010BD06218E
S315080092602046FFF73DFF00F4404010BD70B50446A8
S31508009270FEF7C8F805462046FFF76DFF00F00C001C
S31508009280042801D1A81D70BDA81DFFF79CFF06463E
S315080092902046FFF7D9FFB0F5004F0CBF0220082083
S315080092A0404271194018801D70BD80B5FFF7DEFF7A
S315080092B0BDE80240FEF758BBF8B504460D4616460B
S315080092C00120FEF7AAF80746FF2F1ED0FCF7D5FFA8
S315080092D0A104890C41EA803189B23846FFF738FF84
S315080092E03846FFF71EFF01463846FEF791F8314625
S315080092F03846FEF742F942F20C002040042803D112
S3150800930029463846FFF74BFF3846F2BD7061636B56
S3150800931065742D6865616465722E63000300070D28
S31508009320000000000700090F0D000F15F8B50446E8
S315080093300025E01CFEF718FB0646601DFEF714FB29
S3150800934004464FF6FF77BE4208BF012504D002F057
S3150800935071FA864208BF0225BC4208BF45F00405DB
S3150800936005D002F05FFA844208BF45F00805284692
S31508009370F2BD2DE9F0410646FEF7F6FA07464FF626
S31508009380CF7000EA07083046FFF7D0FF0025AC4C3F
S3150800939048F641018F4208BF052808D1F01DFEF79F
S315080093A0E3FA6188884214BF0225062512E04CF6C6
S315080093B0010080451ABF4CF601408045012509D0B9
S315080093C0FCF75AFF3046FEF78AFD0646FCF75AFFB9
S315080093D006B1082520782840BDE8F0812DE9F04F30
S315080093E083B080468B46002500265846FEF7BCFA11
S315080093F082462F464FF00309924C2068002804BF86
S31508009400606800285CD04FF440611AEA010F0BD05F
S315080094100BF10300FEF7A8FA4FF6FF7188420CBF5E
S31508009420022701274FF0050947F0080001905FEA77
S315080094304A6017D44FF440411AEA010F16D00AF4CD
S315080094404060B0F5406F0CBF082002204844C0B207
S315080094505844FEF789FA009002F0ECF9009989B2AF
S31508009460814201D1019F01E047F004070AF4404018
S31508009470B0F5004F04BF47F0800087B20AF4406099
S31508009480B0F5006F0BD109EB0B00FEF76DFA8246BB
S3150800949002F0C8F982450AD147F0100707E0B0F58F
S315080094A0406F04D147F0200701E0002615B960682F
S315080094B0014600E0216839B96D1CEDB2022DF4D3DE
S315080094C0FF20BDE8FE8F761CF6B231F8162013048D
S315080094D0F2D4BBB29342F6D1B8F1000F05D081425F
S315080094E00CBF8020102088F800003046E9E700000D
S315080094F02DE9F04781468846FEF736FA054605F017
S31508009500070605F4406A05F008074846FFF70EFF08
S3150800951004464FF6F77005404B48007808280BD8E4
S31508009520DFE800F07E0B7E0B0B080A0A0500012E09
S3150800953076D101E0032E73D10FB1310070D1434FBC
S315080095403EB1022E03D023D3032E4AD068E03B2037
S3150800955073E00A2801D1A00762D5B5F5004F18BFF8
S31508009560B5F5404F5CD1E80648BF46F08006A80628
S3150800957048BF46F4805606F00C00042852D109F17B
S315080095800700FEF7F1F9FF22014646F004004CE019
S315080095904FF6CF7000EA05064846FFF7EAFE20B9FF
S315080095A04946FFF71BFFFF2801D00826DBE748F6E8
S315080095B04100864234D10A2C18BF062C30D16007E8
S315080095C00DD5FEF706FC18B13868807A042827D22C
S315080095D01F480078022823D040F60406C3E704266D
S315080095E0C1E714F0030005D102F024F94FF6FF7124
S315080095F0884215D10C26BAF1000F0DD0BAF5006FC6
S31508009600B1D0BAF5406F0BD10822124909F105000D
S31508009610F7F7A4FF20B9A6E73868807A0128A2D010
S315080096203A200AE0FF2200213046FFF745FEFF28D0
S315080096300EBF182088F800000020BDE8F08700005B
S31508009640561F0020A02F0020941E0020802C0020EA
S31508009650F82C0020A02C002038B5DFF8E80B0021F4
S31508009660017007F05AFD07F056FE07F037FF07F0BE
S31508009670AEFF07F0EEFF0024DFF8CC5B09E02046DA
S31508009680FCF7FFFD08F00BF808F00EFBFCF7FAFDF7
S31508009690641C2878E4B28442F1D331BDDFF8DC0CCF
S315080096A00068C07A11281CBF4328412801D101202F
S315080096B070470020704710B50446FFF73DFD801C33
S315080096C0FEF752F94FF6F8718842204624BFBDE8E6
S315080096D0104000F006B800F05FF8401E8041C00F49
S315080096E010BD2DE9F041044607F0E1FD002839D107
S315080096F0DFF8880C00684FF6FF75817A032905D3D1
S315080097000188A9422ED02046FFF749FD00220221F2
S31508009710204607F07BFE28B32046FFF70DFD0646D8
S31508009720F77902F07FF8804602F07CF8424639461F
S3150800973007F0CBFD20B996210FF24820F8F78AFFEB
S31508009740B01CFEF711F9A84204BF204603F04AFFF1
S3150800975030780321084203D10121204601F063F93C
S31508009760012000E00020BDE8F08138B50446DFF8A6
S31508009770C00C0068205C851AEDB2681A80B20090A9
S3150800978053189BB222462046FEF71CF92946204666
S31508009790BDE83440FDF7FCBF2DE9FE4F82460025A3
S315080097A00195FFF7C9FC0646301DFEF7DDF80746AA
S315080097B0B01CFEF7D9F88046307800F0C000029059
S315080097C03846FCF7BBFC8DF80200FF2814BF4FF0A3
S315080097D00109A94630780321084208D102F022F887
S315080097E0874202D05FEA090402D0012400E000247F
S315080097F0B079002875D002F015F880450BD102F033
S3150800980011F8834600225946504600F0C2F800284F
S3150800981067D00020B3E000F08BFC817A032928BFCB
S31508009820B0F800B0EED2404607F0E3FE20B9504645
S31508009830FFF78CFC400514D5C34670784007E1D580
S31508009840504608F092FD01F055F8401C4200D2B28D
S3150800985029465046FFF789FF707800F0FB007070C4
S31508009860D0E7707840071CD5504608F07EFD01F019
S3150800987041F806466F1CF9B201F03EF8002E18BFF3
S31508009880FF2806D10022F9B25046FDF7CAFFC346A3
S31508009890B8E705EB4000811CC9B25046FEF76EF8E2
S315080098A0AFE701AA00A9404607F041FC8346DCB1B0
S315080098B00298802804D0402816D19DF8000098B157
S315080098C0307800F03F003070384607F092FE10B945
S315080098D001F0A8FF07463A460021404607F07EFCFD
S315080098E000284BD001204AE00198002839D007F01B
S315080098F017FC8DF801000198007900F030000290FD
S315080099009DF80100FF2804D1FB210FF27800F8F733
S31508009910A1FE34B30298C0B2102813D00298C0B280
S3150800992020281ED1B9F1000F07D09DF802109DF826
S31508009930010007F003FCA0B904E0019800790C21A6
S3150800994008420ED0F3795A464146384607F048FC95
S315080099500198007900F0F30040F0040001990871BD
S3150800996001259DF8000028B10121404608F0BEF8FF
S3150800997020B1C346002D8BD0302244E70220BDE833
S31508009980FE8F00006E6574776F726B2E63000000A1
S315080099900022F8B504460D461646FFF7CDFB0078BB
S315080099A000F02DF90CBF0127002729462046FFF7AE
S315080099B0F6FB01F037FF854215D0284607F017FE5B
S315080099C040B93246DFF8A80C01782046BDE8F840D1
S315080099D007F01CBD6FB901F025FF00232246294672
S315080099E006F069FB28B10121204601F01CF8012088
S315080099F0F2BD2046FFF7AAFB400505D50021204603
S31508009A00BDE8F440FEF7DABD2046FCF78AFB401EA7
S31508009A108041C00FF2BD2DE9F0410446884616463E
S31508009A20304608F06BFD07463046FFF77AFB3E1ACC
S31508009A30F6B23719A8EB060292B2394607F10E00BC
S31508009A40F7F742FD28203870DFF83059286890F873
S31508009A502000787308F041F90246791C012001F0CC
S31508009A606FF80822DFF80C1C781DF7F72DFD28681B
S31508009A7090F8200009F067FC3346002208F10E0131
S31508009A80C9B2204608F079FB1220BDE8F0812DE91D
S31508009A90F04F85B081460D4608F030FD064648462B
S31508009AA0FFF76BFB82464846FFF73BFB074606F186
S31508009AB00E0189B2484608F070FC002852D00020F2
S31508009AC000900E233246494601A8FDF7AFFD0DF179
S31508009AD00501012001F042F883469DF811809DF8A2
S31508009AE0040028283ED10822DFF8881B0DF109005A
S31508009AF0F7F734FDB0B3DFF8744B404609F023FCA2
S31508009B0060B9206890F82000A8EB0000C0B2802851
S31508009B100DDA0021002002F087F908E00120009004
S31508009B20002332463946484608F05CFBD0B1484621
S31508009B3008F0FFFB51460DF1090009F0FDFC064649
S31508009B40FE2E0FD0FF2E3AD1504607F000FE0646ED
S31508009B50DFF8287BFF2E0BD00DF1090107F0EAFF8D
S31508009B60387860B300211920FCF7F5FB0020D8E20D
S31508009B7000F044F80AD1484608F0C0FC01464846B9
S31508009B80FDF74AFE082801D10120F0E738780028B9
S31508009B90E8D1206890F82D1090F82C00814205D362
S31508009BA000F0CBFA4FF6F8718842DBD20DF10901C5
S31508009BB0504607F01AFF504607F0C9FD06462068CA
S31508009BC090F82000804505D04146012009F0C8F9E3
S31508009BD00028C7D0206890F82000804503D1304679
S31508009BE009F019FD28B95946304609F08EFC0028B7
S31508009BF0BDD05946304609F098FCC5E7287800F0EC
S31508009C0003000128704738B5DFF8740AFDF721FF0D
S31508009C100446FF2C18D0DFF8F05C0321FFF77BFA27
S31508009C20287004212046FFF776FA6870012000F0B4
S31508009C3051FF204600F009F82046FDF75AFC00209F
S31508009C40BDE8324000F046BF31BD38B50446FFF7DF
S31508009C5082FA00F00C052046FFF782FAFCF711FBA2
S31508009C602046FFF778FA00F00C0008282BD10622C8
S31508009C7000212046FFF779FD2046FDF7C3FBFFF7D5
S31508009C8078FB8DF801008DF802409DF8010048B96F
S31508009C902046FDF7B7FB01460DF10100FFF79EFBD5
S31508009CA08DF800009DF80100802804D100A801F075
S31508009CB07EFC00284DD1FCF7DFFA00A8FEF703F971
S31508009CC0FCF7E0FA45E0042D204612D1FFF73EFAEC
S31508009CD0000519D402200021FCF73DFB0C2D15D1F7
S31508009CE02146012009F0CBFD98B3204602F01BFB64
S31508009CF02FE0FFF783FAB0F5006FEBD12046FFF7A8
S31508009D009FFA00F099FBE5D10020E4E7280003D18B
S31508009D10204602F0B3FC1CE0042D1AD1DFF84C09EA
S31508009D200568E87A02280CD0FFF7B8FC48B9E87A43
S31508009D30332818BF312804D0012804BFA87A05287B
S31508009D4007D12146022009F09AFD10B1204600F0FD
S31508009D5003F8FCF797FA31BD2DE9F04F85B0804638
S31508009D60FFF7EAF900F0E0F9ADF80400281DFDF761
S31508009D70FBFD00F0E1F98346284608F0DEFB039078
S31508009D80FFF73CFF0CBF01240024687800F00201AD
S31508009D9000914FF6F8718B45B641F143CE0F04900A
S31508009DA0404608F0ABFB8246287800F03C010829BB
S31508009DB068D1DFF87C16096818F801108A4561D25F
S31508009DC014B9032108425DD10098C0B258B1DFF832
S31508009DD09C080068C07E002854D029464046FFF7F4
S31508009DE056FE00284ED02CB14146032009F047FD07
S31508009DF0002847D051464046FDF70EFD0746009815
S31508009E00C0B2C8B9DFF864080068C07EA0B101F026
S31508009E1009FD834536D124B1062F0DD0072F31D140
S31508009E200AE007F00300012806D0524629464046B4
S31508009E3000F08EFD002825D0DFF830080068C17ACA
S31508009E40022949D10099C9B211B9C07E002843D167
S31508009E50BDF8040009F0A6FE002813D1BDF80400D9
S31508009E60009001F0DFFC0099814210D100F047FD17
S31508009E7009D301F0D7FC0D22014600F059F90088F4
S31508009E8009F0C8FE4DE1012009F0A2FD49E1BDF83F
S31508009E90040007F0AEFB70B901F0CCFC4FF6FF7179
S31508009EA0884208D0DFF8B00B00780A2804BFBDF84E
S31508009EB0040007F0D9FB01220399484609F0B5FDCD
S31508009EC00028E3D1284608F02BFB01460022584615
S31508009ED009F0ABFD0028D9D14FF6FC70834506D1B1
S31508009EE0DFF888070068807A0328CFD209E04FF6A2
S31508009EF0FD70834505D1DFF874070068807A042869
S31508009F00C4D2A87908B1401EA871687840072CD534
S31508009F100020029002AA0DF10101484607F007F950
S31508009F20029810B307F0FCF88DF800005846FCF7C5
S31508009F3005F90299097901F03003102B1CBF01F0CD
S31508009F400C02082A03D0029A01F0F3011171029952
S31508009F50097901F03301202907D1FF2805D001220C
S31508009F6001469DF8000007F0E8F8BDF80400FCF784
S31508009F70E5F8FF2804D0DFF8E41A096800224254FD
S31508009F80049800F00100304367D1E979484607F0A4
S31508009F904DFB01F015FB08B1039820B1BDF804107C
S31508009FA0484600F0B2F901F03DFC584555D05846F0
S31508009FB007F01FFB20B124B1012F08BF00225CD097
S31508009FC064B9584607F013FB40B100234246594688
S31508009FD0484606F070F8002840F09F80DFF8800AAF
S31508009FE0007840B9484607F004FB20B9584607F000
S31508009FF000FB002830D0D4B1052F18D101F012FC8F
S3150800A0008DF8000001F00EFC000A8DF8010002220E
S3150800A01000A94046FDF77AFB00281DD10AF1010187
S3150800A020C9B24046FDF7D0FB0178491C0170687833
S3150800A03040070AD5404608F098F9411CC9B240467F
S3150800A040FDF7C2FB0178491E01704046FFF7A4FBE5
S3150800A05000211C20FCF77FF963E0002C4FD0781E06
S3150800A06009285ED8DFE800F005050E1319333C42CF
S3150800A0704646022F0CBF012200225146404607F0F1
S3150800A080A7F84EE05146404609F0F8FD49E0524629
S3150800A0904146484609F025FF43E00AF10101C9B2E5
S3150800A0A04046FDF7B9FB0546DFF8B8490398206036
S3150800A0B0FCF7E2F80AF10200C0B2009043462A46CD
S3150800A0C021684846FDF703FFFCF7DCF829E0CDF8E0
S3150800A0D000A02B4642460021012001F0AFFF20E0F8
S3150800A0E052464146012002F077F81AE0404607F04A
S3150800A0F079F816E0404602F012FF96B109E0049896
S3150800A100C00705D5287A00F00300012809D100E028
S3150800A1101EB1404600F014F803E00021404600F066
S3150800A12082FC05B0BDE8F08F05464046FFF725B826
S3150800A130DFF83805006870478146A81CFDF714BC8F
S3150800A1402DE9F84F8046FEF7F7FFFFF7EDFF0446C7
S3150800A150281DFDF709FCFFF7EFFF834695F807A0D2
S3150800A160204607F046FA07462946404600F06EF8AC
S3150800A1700646022E63D022465146484607F063F843
S3150800A18000285CD101F04EFB814558D0DFF8D8088D
S3150800A190007860B9012E06D001F012FA18B12846E7
S3150800A1A008F0CBF918B12146484600F0AEF8224629
S3150800A1B05146484607F089F8002840D028780321F8
S3150800A1C0084203D10021404600F02DFCA879B0B31F
S3150800A1D0DFF898040068807A032830D26878C007C8
S3150800A1E015D52C7A584606F051FA40B104F0E0002D
S3150800A1F0E11001F01C01084340F0010006E004F0FC
S3150800A2001C001C2803D0052819DB201F28724FF6CE
S3150800A210FF7529464046FEF7C2FF0FB1002203E04C
S3150800A220FCF760FB00F03F020221404607F0EEF81B
S3150800A230AB4504D14046BDE8F24F03F0D3B9BDE8BB
S3150800A240F18F00001C1E0020681C0020F0B587B0A6
S3150800A250044608780321084254D12146042009F00F
S3150800A2600EFB00284FD0204608F048F9014600F0BA
S3150800A2706CFB0321084245D1204608F03FF9054604
S3150800A280294600F062FB05A90FF2FC7248CA48C1CC
S3150800A2900321084236D10020009005236A1CD2B259
S3150800A2A0214603A8FDF7C2F9052203A905A8F7F771
S3150800A2B063F938BB204608F0A4F90546A91C00F046
S3150800A2C043FB0646691C00F03FFB00EB062605F13A
S3150800A2D00B0100F039FB0746002000900823EA1C12
S3150800A2E0D2B2214601A8FDF7A1F92046FEF745FF9F
S3150800A2F03A46B1B201F061F9012201A9B0B209F0FA
S3150800A30094FB00E0002007B0F0BD38B504460D46C2
S3150800A31007F06FF9002818BFAC4206D02046FBF7B5
S3150800A3200DFFBDE8324007F06BB931BD10B51922F3
S3150800A33040A10320FAF7C1FDCC4C2068C17A022956
S3150800A34018BF032901D0932010BD807A032802D3B1
S3150800A35001F02FF908B1702010BD09F0CFFE206872
S3150800A360C07A032805D10021012001F05DFD0120F6
S3150800A37010BDFEF75AF9002010BD0000802C002001
S3150800A3802DE9F04180460D4600260DB9012602E06A
S3150800A390312D08BF0025FEF7DEFE00F00C00082868
S3150800A3A010D1DFF8C86686F80080FBF765FF4046DF
S3150800A3B0FDF7D6F82946FDF787FDFBF763FFFF2073
S3150800A3C0307032E0DFF8A8764046FEF7C4FE0C216E
S3150800A3D0084205D139780120BDE8F041FBF7BBBF3B
S3150800A3E003244046FEF70AFFB0F5006F07D1404642
S3150800A3F0FEF726FF00F020F808BF012401D005B1BA
S3150800A400052439782046FBF7A6FF2946404603F07F
S3150800A41059F950B92946404607F077F828B932461F
S3150800A42029464046BDE8F0410AE0BDE8F081000053
S3150800A430301C0020420000004FF6FF71884270472A
S3150800A4402DE9FC4706460D461446884FFEF783FE5F
S3150800A45000F00C000C2830465BD1FEF76DFE8246F4
S3150800A460FEF7B1FE50444FF0FF09DFF80086017889
S3150800A470012906D0022912D0042924D07C2939D0F2
S3150800A480ECE04DB99AF804009AF8031001EB0020A5
S3150800A49080B201F0D3F9E1E002F0BBF8DEE0002D6E
S3150800A4A004BFC178002908D131468278407800EB8C
S3150800A4B0022080B208F043FC92E00AF10501002070
S3150800A4C007F08AF892E03868C07A0228E6D11DB902
S3150800A4D009F0A9FE04B931252B46222266A10320DC
S3150800A4E0FAF7EBFC88F80060FBF7C6FE284609F089
S3150800A4F004FF09E088F80060FBF7BEFE3046FDF76A
S3150800A5002FF82946FDF7DEFCFBF7BCFE88F800901D
S3150800A510A4E0FEF711FE0446201DFDF725FA804645
S3150800A520A01CFDF721FA81464FF6F87AD1450AD2E2
S3150800A5303868B0F84410491CA0F844101DB14430DE
S3150800A5404188491C4180207800F00301012950D137
S3150800A550304607F0D3FF01463046FDF75DF904287B
S3150800A56002D0072804D079E0304609F0A5FD75E049
S3150800A570204607F0D5FF002870D00146002007F0D6
S3150800A5802BF88146304607F0B9FF002100910323D6
S3150800A590421CD2B2314601A8FDF748F8002D02BF89
S3150800A5A03868C07A022820D101A88178E9B94078AC
S3150800A5B09DF8041001EB0025B9F1FF0F0DD0DFF867
S3150800A5C0B404006830F819104FF6FF32114020F82D
S3150800A5D01910A9B2484607F012F8A8B206F0A4FD69
S3150800A5E000211020FBF7B7FE38E0484607F008F8C8
S3150800A5F034E00321084231D101F014F9804504D032
S3150800A6003046FEF7A3FDC00606D5002D0CBF002177
S3150800A610662130460AF013F905B3D1451ED2607893
S3150800A62010F0040506D1484606F084FD060002D05F
S3150800A630012600E00026484606F0D9FF08B10622A2
S3150800A64007E00DB10B2204E016B90222494608E0DC
S3150800A6500C222EB94946404609F0DCFABDE8F387D4
S3150800A6604146002EF7D0C846F5E70000802C0020AA
S3150800A670C81E0020A02C002042420000DF2F002028
S3150800A680E41E00202DE9F04F85B0044694F800A09A
S3150800A6905046FEF751FD0746381DFDF765F9ADF83A
S3150800A6A00000B81CFDF760F98146504607F026FF02
S3150800A6B08046414600F020F98DF802003878FFF709
S3150800A6C09EFA0CBF9DF80250FF25F6F759FCA188A3
S3150800A6D0461AB6B25046FEF743FDFBF7D2FD01F027
S3150800A6E0A1F8BDF8001088420CBF4FF0010B4FF0DF
S3150800A6F0000B084609F056FA002840F0E88048465C
S3150800A70009F050FA28B1484606F073FF002800F011
S3150800A710DE8000F0F4F821D3062D18BF042D62D090
S3150800A72042463946504600F013F9B8B9FEF7B6FF67
S3150800A73020B19DF80200FFF762FA0FD0FDF749FB3A
S3150800A74000284DD001F06EF80146381DFDF712F9C4
S3150800A750FFF7EEFC01885046FEF721FD012D42D198
S3150800A7605046FEF70AFDFFF767FE3CD1002300F0CE
S3150800A770BCF806005DD072799DF80D00824207D2BA
S3150800A78008F10501C9B25046FDF74BF800F0A7F8E5
S3150800A790FCF7A8F87E2190FBF1F201FB120000F508
S3150800A7A0807060809DF80E001821084213D06078EA
S3150800A7B00F21084208BFBBF1000F0CD1FBF75CFD67
S3150800A7C0384607F0BAFE72790146BDF80000FDF773
S3150800A7D081FBFBF757FDFBF755FD9DF80F007DE064
S3150800A7E02820608077E04FF6F870814502D27878A5
S3150800A7F0C00720D500F083F81DD240F6B93086424E
S3150800A80065DAFCF76FF800F03F00C0F5FA70608073
S3150800A8106078000957D0BBF1000F54D1F979BDF81B
S3150800A820000006F006FD00281EBF80884FF6FF715F
S3150800A83088424CD047E0022D25D1012300F055F877
S3150800A840054600F0EFFF0146BDF80A00814202D036
S3150800A85006F0CFFE60B3002D39D06B880122414641
S3150800A860504606F0B6FCFFF763FC417E491C41766C
S3150800A870F971BDF806006988884201D000F02FF802
S3150800A8804FF4C8701EE0032D12D1BBF1000F0FD094
S3150800A89008F10101C9B200F02FF80C2808D107F019
S3150800A8A0BBF9FFF7C9FD03D001465046FEF777FC12
S3150800A8B0607800090BD1FB2E09DAFCF713F800F0D3
S3150800A8C01F0010306080FBF7DDFC012006E0607891
S3150800A8D000F0F0006070FBF7D5FC002021E46078FA
S3150800A8E000F0F000801C6070704701AA414650468F
S3150800A8F006F071BC054629465046FCF78DBF5E48F2
S3150800A9000068807A03287047DA2F002070B504465D
S3150800A910FEF712FC0546204607F0F0FD014600F05A
S3150800A92014F806462046FEF728FC4FF6F8718842CA
S3150800A93006D2287800F00300012808BF022E01D1AC
S3150800A940012070BD002070BDC9B22046FCF764BF67
S3150800A950F8B5044615460846FDF706F820F40070D3
S3150800A96041F20801884217D144480068205C401B20
S3150800A970072811D300260FF218177119FFF7E4FFFD
S3150800A980F15D814203D0022E08BF002804D1761C4F
S3150800A990072EF2D30120F2BD0020F2BD2DE9F041C9
S3150800A9A080460C46FEF7D7FB00F00C0008282FD08F
S3150800A9B0201DFCF7D9FF0546E679FFF7B6FB0746E3
S3150800A9C04046FEF7C3FB00060ED52B480068817A81
S3150800A9D0042909D3C17A022906D100884FF6FF71E6
S3150800A9E0884218BFFBF7AFFCA01CFCF7BDFF4FF66B
S3150800A9F0F871884202D26078C0070BD52078032107
S3150800AA00084205D13A463146284606F01CFC05E0C0
S3150800AA10012006E03146284606F0F4FD401E804136
S3150800AA20C00FBDE8F08110B5044641B1FF220321ED
S3150800AA30FEF76AFB002204212046FEF765FB214645
S3150800AA400F48FCF7F1FF2046FCF745FD0D48007856
S3150800AA50BDE81040FDF799BD941E0020501C00204B
S3150800AA60401C0020902C00201A2F0020501E002089
S3150800AA703D1F00204C1C0020802C0020301C00208C
S3150800AA80C41E0020D72F002000130000000000007D
S3150800AA9000FF01400EC0FF00C108032908D2C110FB
S3150800AAA089020A4A012300F0070003FA00F0505011
S3150800AAB07047C108032908D2C1108902044A012334
S3150800AAC000F0070003FA00F05050704714B0004039
S3150800AAD010B0004000281CBF0D20FFF7DDBF0D2079
S3150800AAE0E7E7000038B5002814BF04011024F7F77B
S3150800AAF03BF90546F8F763FE20180F4982B24A600B
S3150800AB00000C08600D4C042020602846F7F732F93F
S3150800AB10206C40F00400206431BD80B5F7F724F9B5
S3150800AB2006490A6C22F004020A6404220A60BDE897
S3150800AB300240F7F71FB900004820004008A000406F
S3150800AB4010B50023002814BF1C46C3F10304E4B261
S3150800AB506254120A5B1C042BF4D310BD30B54A7834
S3150800AB608B78CC78097818B120461D460C4602E049
S3150800AB70084615461A4655EA002054EA022141EAD3
S3150800AB80004030BD0020DFF84017FF2301EBC0026C
S3150800AB901371002241F83020401C0328F6DB704769
S3150800ABA02DE9FB4E83B014461D46032D05D30E9F93
S3150800ABB03878400706D5052D01D201206EE097F8B2
S3150800ABC0049001E097F802900026DFF8FCB60BEB3C
S3150800ABD0C6000079FF2804D0701CC6B2032EF6D32F
S3150800ABE0FF261098109018B1FF2E08BFB42055D034
S3150800ABF0207903F062FB8246BAF1FF0F08BFA32053
S3150800AC004CD0207903F02CF8002847D1DFF8BC0691
S3150800AC1000EB0A1043882380608800909DF83C204A
S3150800AC200021484603F0E6FF18B1E08840F020000E
S3150800AC30E08000F036F803F0E9FFA8421BD3FF20B6
S3150800AC408DF8080002A801900097EBB200F029F8E9
S3150800AC50FEF7B4F80746109878B177B99DF808005A
S3150800AC60FF2815D00BEBC6009DF808100171109847
S3150800AC704BF836000CE074270DE0BA2F07D1A079FF
S3150800AC80C00608D50027012009F0E5FF00E017B93E
S3150800AC90112009F0F7FF02F0ECFF384606B0BDE8D0
S3150800ACA0F08E2246BDF810109DF80C00704710B5BE
S3150800ACB084B0069C088100F013F803200CE010B558
S3150800ACC082B000240094FFF7F2FF16BD10B584B0D9
S3150800ACD0069C00F005F80420FFF762FF04B010BDDB
S3150800ACE0029401240194009313460A4601467047CC
S3150800ACF010B582B000240094FFF7E8FF16BD2DE9D1
S3150800AD00F04385B004468846164699460C9D0D9F25
S3150800AD10022C0BD100A95FFA88F005F0FDFE78B980
S3150800AD209DF8010030719DF80400707102970020AB
S3150800AD30019000954B46324641462046FFF730FFC4
S3150800AD4005B0BDE8F08330B583B0069C00250195B3
S3150800AD500094FFF7D4FF3EBD2DE9F04188B00446C4
S3150800AD60884616461F46002503A9284605F0D4FE40
S3150800AD70F8B99DF80C10012902BF9DF80D1022792B
S3150800AD80914202BFBDF80E10628891420DD19DF81E
S3150800AD9010006071029700200190009643462246F3
S3150800ADA029460220FFF7FCFE18B9691CCDB2052D0D
S3150800ADB0DAD308B0BDE8F08180B50346DFF81005A0
S3150800ADC0008839B90FF21C520FF21051BDE8005035
S3150800ADD0F5F7D6BF00910FF224520FF21051F5F78E
S3150800ADE0CFFF01BD7CB504460D4600F0BAFE064607
S3150800ADF0334622460FF20C510220F5F7BBFF7EB907
S3150800AE0075B101A8002101608DF805400320009066
S3150800AE1001AB002236214FF6FC7005F073FD06469D
S3150800AE20304676BD2DE9F04104460D4616461F46C6
S3150800AE30288808B100205EE06A88B2F5004F2CBF6A
S3150800AE40737800230FF2D4414020F5F793FF688802
S3150800AE5048F201080FF2EC4148F20402904208BF9A
S3150800AE600FF2F4422CD048F20602904208D10FF2B3
S3150800AE70F0424020F5F784FF32790FF2EC411FE0EB
S3150800AE8048F22001884203D172780FF2EC4117E0AC
S3150800AE90132806D17078B17810EB01220FF2005111
S3150800AEA00EE0404505D10FF210514020F5F762FF3C
S3150800AEB009E048F20501884205D132790FF21451AA
S3150800AEC04020F5F757FF3B4632462946204602F012
S3150800AED09BFE002802BF688848F22101884203D1F8
S3150800AEE07178204602F09DFE6888404524BF0820F8
S3150800AEF009F0DFFE0120BDE8F0812DE9F04788B0B2
S3150800AF0081460E469246984605F0EDF905468DF8B7
S3150800AF1008900396119F0497109CADF81440ADF85D
S3150800AF2016508DF818A08DF81980FDF709FE8DF8D2
S3150800AF301A00FDF707FE8DF81B00FBF793F98DF84D
S3150800AF401C0002A802F05EFEA8B9A3B23A46314632
S3150800AF5028460AF0EAF870B9A3B23A4631462846B6
S3150800AF60FFF760FF38B901900095A3B23A46494603
S3150800AF70304603F0DBFC08B0BDE8F0872DE9FC4756
S3150800AF808046894617461D000A9C0B9E32D00FF252
S3150800AF90C8420FF2B8410220F5F7F2FE3B880BB91A
S3150800AFA0C2A20AE040F20910834208BFC0A204D038
S3150800AFB0B3F5827F0CBFBFA2BFA2A4B20194788862
S3150800AFC000900FF234410220F5F7DAFE388870B1A6
S3150800AFD0032C0CD33078C0074CBF0FF260420FF237
S3150800AFE06442B3780FF240410220F5F7C9FEB3A1D7
S3150800AFF000F048F80022B4490C9801EBC2031B790B
S3150800B000834202D151F832A005E0521CD2B2032A7B
S3150800B010F3D34FF0000A002201EBC20393F804C0F1
S3150800B020844505D1FF201871002041F8320002E05E
S3150800B030521C032AF0DB2946404602F0FFFD002D8C
S3150800B04004BF3888002806D17888B0F5004F3CBF81
S3150800B050082009F017FE012009F02BFE3078C007FA
S3150800B06003D500F012F802F09BFE5FEA0A0002D050
S3150800B07000F00BF8D04700F008F802F0C7FDBDE86D
S3150800B080F38700000220F5F775BE01950096A3B276
S3150800B0903A46494640467047F0B583B004460FF233
S3150800B0A0D0350FF2D43690380CD0401E3CD0C01E96
S3150800B0B03AD0801E38D0801E36D01338042833D9AB
S3150800B0C0113842D10020ADF804000AF05DF90746B0
S3150800B0D0FDF732FD421E9241D20F2FB1002A14BF4E
S3150800B0E0B8883889ADF8040001A9002002F0A7FD48
S3150800B0F0BDF8040007F0F8FBFDF71EFD0090334687
S3150800B1002A460FF25C310220F5F734FEBC2C06D134
S3150800B1100FF27031FFF7B6FF02F086FD01E00AF084
S3150800B120E8F902F07FFD10E0912C04D133462A4657
S3150800B1300FF2703104E00FF284332A460FF27031B1
S3150800B1400220F5F717FE03F038FB20460AF0DEFA70
S3150800B15020460AF003FC20460AF06CFE18B10FF2EE
S3150800B1606431FFF78FFFF7BD80B50FF288300068AE
S3150800B170009000A800F005FE02BD30B583B00C466D
S3150800B1800123082200A904F099F90546082200A916
S3150800B1902046FCF764FE28463EBD38B504460D46F3
S3150800B1A002F05CFD294620460AF0E0F9BDE8314088
S3150800B1B002F05FBD70B504460D46164602F04EFD18
S3150800B1C03246294620460AF0F9F9BDE8704002F0F1
S3150800B1D050BD10B5044602F041FD20460AF045FA76
S3150800B1E0BDE8104002F045BD7020704710B582B02A
S3150800B1F004460BF015FC20890090E37A0FF214320E
S3150800B2000FF2F4210120F5F7B5FD32480068007801
S3150800B210012808BF02202146BDE81C4000F0C3BC37
S3150800B22010B50446FDF781FC0020015DFF2904BF27
S3150800B23000210155401C1028F7DB0020207410BDA2
S3150800B24033B581B0002000240FF2F82108E011F888
S3150800B25030309DF80A50AB4208BF5468401CC0B253
S3150800B26001EBC0025368002BF1D19DF8080000904D
S3150800B2709DF807309DF806200FF2A0210220F5F769
S3150800B2807FFD9DF809201AB10DA10220F5F778FD7A
S3150800B29004B90CA4BDF8043022460FF29821022006
S3150800B2A003B0BDE83040F5F765BD00005A444F00CD
S3150800B2B053450000484100003F3F000000000000E1
S3150800B2C02E2564003F3F3F007C1F0020941F00206E
S3150800B2D0A82F0020E42900200AF075BE25703A2020
S3150800B2E025700000537563636573730025703A20F3
S3150800B2F025703A2030782578000000004572726F74
S3150800B30072000000704A6F696E20666F72202564AD
S3150800B310207365633A2030782578000052583A2021
S3150800B3205A444F2C20636F6D6D616E64203078250A
S3150800B33032782C207374617475733A2030782558E6
S3150800B3400000000052583A20257020446573632097
S3150800B350526573700000000053696D706C650000DB
S3150800B3604D617463680000002C204D617463686544
S3150800B370733A20256400000052583A20456E64202E
S3150800B3806465762062696E6420726573706F6E7389
S3150800B390652C207374617475733D25780000000070
S3150800B3A044657669636520416E6E6F756E63653AAE
S3150800B3B0203078253278000052583A2049454545CC
S3150800B3C0204164647265737320526573706F6E737F
S3150800B3D06500000052583A20416374697665204535
S3150800B3E05020526573706F6E73652C20436F756EAF
S3150800B3F0743A20256400000050726F66696C653ADD
S3150800B40020257020283078253258292C20436C7541
S3150800B410737465723A2030782532582C20256420BA
S3150800B42062797465732C0000205A434C20257020DD
S3150800B430436D642049443A2025640000436C7573C3
S3150800B44074657200476C6F62616C000025707478D1
S3150800B4502025782C200000004552524F523A2000F1
S3150800B4602570257055502030782532580000000088
S3150800B470454D4245525F00004E4554574F524B5F6B
S3150800B4800000000054727573742043656E7465720B
S3150800B4902045554920686173206368616E67656455
S3150800B4A02E00000025702570444F574E00000000FE
S3150800B4B025704A4F494E2570000000005F464149F5
S3150800B4C04C45440054686520617070206672616D51
S3150800B4D065776F726B2069732068616E646C696E3C
S3150800B4E0672074686520737461636B207374617474
S3150800B4F075732E00000000002570696E67206F6E58
S3150800B5002063682025642C2070616E496420307899
S3150800B510253258004A6F696E000000007374616333
S3150800B5206B207665722E205B25642E25642E256495
S3150800B53000000000202570206275696C642025646F
S3150800B5405D0000000000000018E20108210000006C
S3150800B55024E20108220000002CE201082300000072
S3150800B56034E20108AA0000003CE20108FF000000DE
S3150800B570000000000A0242EA11214840C0F3031104
S3150800B580484080EA00304101C9B20206D20E41EABB
S3150800B5900221484080B270477047B5207047401C6A
S3150800B5A0C0B27047012070470020704770470020DE
S3150800B5B07047002070470020704770470120704789
S3150800B5C0012070477047000080B5DFF87C020178DB
S3150800B5D0002904BF4079802801D0B02002BDFCF7BD
S3150800B5E06DFCFCF76DFAF7F747FE38BBF9F7DEF89E
S3150800B5F00BF046FADFF85402007808B105F0CAFBEA
S3150800B60004F084FEF9F768FC0FF27C20FCF761FF72
S3150800B610DFF83C120870FAF7B1FDFDF79AF8FEF765
S3150800B6201BF80BF036FAFFF7CDFF0120F8F7C9FB38
S3150800B630F021DFF82002FCF7B9FE002002BD2DE953
S3150800B640F04705F015FE05F077FDFAF7DFFF08B9B4
S3150800B650FAF7AFFFDFF800824046FCF721FA08B98F
S3150800B660FEF7D1FADFF8F4914846FCF719FA08B95B
S3150800B67004F047FB08F0C6FDFAF75FFDDFF8D06176
S3150800B6803078FCF712FF0BF011FA00270024744DEE
S3150800B690DFF8D0A10AE02046FAF7F3FD2868807A99
S3150800B6A0042828BF0127FAF7EDFD641C9AF8000064
S3150800B6B0E4B28442EFD3002F1EBF6B4800780028FF
S3150800B6C005D000F02EF8102808BF08F013FF6748C9
S3150800B6D0FCF7E6F908B9F9F7CBFB0BF0DFF9F6F753
S3150800B6E043FB0746FAF792FF68B14046FCF7D8F9DC
S3150800B6F048B14846FCF7D4F928B10BF0CDF910B19A
S3150800B7003078FCF708FF3846F6F734FBFAF7B2FD4F
S3150800B71018B94FF4C17100F035F8F5F72FFCBDE8FC
S3150800B720F08738B5FCF7FFFF28B105F0B5FE441ED3
S3150800B730A441E40F00E00124F8F740FC00280CBF00
S3150800B74004250025FAF762FF48B14348FCF7A8F933
S3150800B75028B14248FCF7A4F908B1002000E002200D
S3150800B7604349097801B120213F4A127802B11022D3
S3150800B770404B1B7803B140232C4320430843104316
S3150800B780184332BD0FF2F000F6F764BF38B5044629
S3150800B79033480068807A03280BD2204605F020FF3C
S3150800B7A04FF6FF75A84204BF204605F0A3FFA8423E
S3150800B7B004D12046BDE8324004F091BE32BD70B5D2
S3150800B7C004460D464FF6F870844201D3012070BD39
S3150800B7D0234E3CB93068007D800703D428460BF019
S3150800B7E01CFCA8B9306801888C4205D10822811C46
S3150800B7F02846F5F769FE0BE0807A03280AD2204628
S3150800B80007F03AFEFF2805D0294607F058FE08B18A
S3150800B810002070BD2946204604F0A2FE401E804145
S3150800B820C00F70BD0E480068C08970470C4909688A
S3150800B830C88170470A480068008A7047084909683D
S3150800B8400882704700000000960704087A1E002048
S3150800B850D72F00207C2F0020E41E0020C41E0020C5
S3150800B860802C0020681C0020881E00207C1E0020DA
S3150800B8701C1E0020042F00207A69676265652D73F7
S3150800B8807461636B2E630000E42D002037610008A5
S3150800B890FC2C0020A57F00089C1E002095D30008DC
S3150800B8A0A02D0020C9150108441F00203BD600081A
S3150800B8B01C1E002067C500082C1E002021C6000893
S3150800B8C0881E0020F1440108982C00209BBB000824
S3150800B8D0701E00205D3D01080C1F00203DD00008A9
S3150800B8E0102F002081B30108842D0020771B010842
S3150800B8F08C2D0020EB110108DC2D002097A50108EE
S3150800B900942D00201D730108E82C0020F17201080F
S3150800B910241F0020B16D0108042F002099B50008E6
S3150800B920702C002043620008842F00207F670008DF
S3150800B9307C2F002001E20108782C00204B630008C8
S3150800B9400000000000000000DFF8F82B12788242A1
S3150800B9500AD019B1012A03D1022805D00020704760
S3150800B960022A08BF0128F9D101207047DFF8D81B41
S3150800B9700875704710B5DFF8D44B2068C07A1128CF
S3150800B98004D0B4210FF20C00F6F764FE20684121BA
S3150800B990C17210BD6173736F63696174696F6E2ECE
S3150800B9A06300000080B50220FAF762FCFAF769FC2A
S3150800B9B0DFF8940BDFF8941B0968897A042903D306
S3150800B9C0C17C491DC17404E04FF47A711830FCF744
S3150800B9D0E6FC00F039BE10B5DFF86C4B0020607449
S3150800B9E02078FF2803D0FBF784FDFF20207010BDC8
S3150800B9F038B504460D46FBF705FD007C00F0070147
S3150800BA00400800F0380000EB410000F11102DFF8B1
S3150800BA100C0C0068205CD2B282420ADA831ADBB2C6
S3150800BA200F2B88BF0F230020009021462846FBF7DE
S3150800BA30FDFD31BDDFF8140B0068C07A33281CBF42
S3150800BA404328532801D101207047002070471FB5AD
S3150800BA50FDF724FEF8B1DFF8F04A00A92078FFF7D1
S3150800BA60C7FF0020207661790DF1030001F086F802
S3150800BA70FFF7B1FF00F010F800F01BFA007DC007D1
S3150800BA8002D50BF04DFC08B90BF08CFE0BF047FC09
S3150800BA90012001F0A0F91FBD10B500F00AFA817A5D
S3150800BAA0032906D300884FF6FF71884208BF032092
S3150800BAB008D0FCF749F90446FCF74AF9214604F090
S3150800BAC0BAFF0220FCF74CF901F0EAF9BDE810408C
S3150800BAD000F0BEBD38B5DFF8704A2075FFF77BFF6A
S3150800BAE000214FF6FF7001F045F9DFF8605A286823
S3150800BAF0C17A032918BF00291CD0332918BF432946
S3150800BB0012D101F0E1F82868817A032906D30321C6
S3150800BB10C172207DBDE83240FAF71BBC207DFAF7DA
S3150800BB2018FCBDE83140B7E72121C172BDE83140B4
S3150800BB3008F07FB931BD10B500F0BBF90021C1721C
S3150800BB404FF6FE70FFF772FE4FF6FF70FFF776FEB0
S3150800BB50DFF8F44901F0B8F8207DBDE81040FAF79F
S3150800BB60F8BB1CB504462346182201F0AFF8DFF8E7
S3150800BB70080B0021017114B1FF2C02D101210170BB
S3150800BB8007E0012100F8041BA100491C89B2FCF753
S3150800BB900DFC00F05DFD002016BDDFF8DC0A002173
S3150800BBA001710020DDE730B589B004460D466869A5
S3150800BBB00790287C0690E8890590287B0490E87A07
S3150800BBC0039095F90A00029028890190009523466A
S3150800BBD016220FF2581100F069F9287B00280CBFCD
S3150800BBE04FF6FE70FFF71EFE2B4622460146012041
S3150800BBF009B0BDE830402DE9F04180460F461646AB
S3150800BC001C46DFF848592868C07A00284BD1701EB0
S3150800BC10C0B2052847D2DFF8580A00780A2842D168
S3150800BC20FAF731FB00283ED1FAF72FFB08B1042EAC
S3150800BC3039D3207B032816D14FF6FE70874214D1DC
S3150800BC40012E08BF002710D0022E2CD1FFF7EAFDDF
S3150800BC504FF6FC71884202D2FFF7E4FD01E007F0D7
S3150800BC608FFE074601E0012E1DD0B8F1000F0CD05B
S3150800BC70207B03280CBF01210021012E0CBF0120C7
S3150800BC80002006F063FE00284DD12146384600F014
S3150800BC902FFF002847D1FAF7F0FAFAF71FFB20B171
S3150800BCA0FAF7F3FA08B170203DE02868C07ADFF8A1
S3150800BCB0987833281EBF532800207875304600F040
S3150800BCC0FBFEDFF8B069307820B1FAF7DEFA08B97A
S3150800BCD005F097FC207B032803D12046BDE8F041F8
S3150800BCE02AE00822214607F10800F5F7EDFB207B3C
S3150800BCF0032828BF00203874FFF76DFE9420387596
S3150800BD00387C00280CBF012031202968C872002021
S3150800BD10B874727800F082F8032001F063FA10B163
S3150800BD2029680022CA72BDE8F081000042423870D4
S3150800BD30574242425742440010B5044600220821A1
S3150800BD40FCF775F808B1012010BDFFF76BFD00225E
S3150800BD504FF6FF7100F0F5FE217C204600F00EFF3D
S3150800BD606269E189207C01F0CCF8DFF8E007006819
S3150800BD70807A012808BF07F01EFBFFF78DFE00201A
S3150800BD8010BD38B50100DFF8C04704D0022204F11F
S3150800BD902000F5F799FBDFF8B4572868C07A002821
S3150800BDA002BFDFF8CC0800780A2801D0702032BD1F
S3150800BDB000A800F0B3FF08B1932032BD9DF800300B
S3150800BDC0142200F083FF00F025FF30BB9DF8000029
S3150800BDD000F072FE2868807A012818BF022805D06C
S3150800BDE003280ED3002000F0D1FF50B100F029FF40
S3150800BDF02868807A032828BF08F015FAFFF74CFE52
S3150800BE000AE028681321C1720020A074052200F0F8
S3150800BE1005F8052001F0E6F9002032BD0120296861
S3150800BE20097B00FA01F17047FF222DE9FC4104461F
S3150800BE300D46904600F03DF8817A012925D0C07A52
S3150800BE40022818BF032820D1DFF828084278294697
S3150800BE50032001F0C7F9070018D13320FBF780FF4C
S3150800BE60FFF7B9FDDFF8E066FFF7E4FCF080002C89
S3150800BE7014BF02200120307406F1080000F064FFA8
S3150800BE800020B07486F8158000E0702701970095A9
S3150800BE9023462C220FF20C0100F008F83846BDE8BC
S3150800BEA0F681000042424442000000000320F9F7F0
S3150800BEB004B8DFF898060068704738B50446FBF7FB
S3150800BEC0A1FA05462046FDF72CF944192046FBF74A
S3150800BED04BFD4FF6FF5101402046BDE83440FBF7C5
S3150800BEE049BD70B584B0FFF79DFC0646DFF8584695
S3150800BEF00B212078FDF7F4F8002100F03BFFDFF86E
S3150800BF004C56FBF7B9FF58B11EB14FF6F87086428A
S3150800BF1006D307F035FD0646286800888642F8D01D
S3150800BF203046FFF783FC09212078FDF7D9F8FFF79B
S3150800BF3085FC2E68B07A052813D100F010FF8DF81D
S3150800BF400800207C00280CBF4FF4804244F201020E
S3150800BF500120009002AB4FF48061308803F0F6FDB3
S3150800BF600BE006208DF8080000F0F9FE8DF80900B0
S3150800BF7000F0F2FA308806F0A2FA0646FF2E08BF4D
S3150800BF80002014D0286801883046FDF708F9207C7F
S3150800BF9002281CBF3046FFF790FF002200213046DA
S3150800BFA005F034FA04463046FBF7A3FA204604B0F7
S3150800BFB070BD2DE9F04186B0884616461F460C9C92
S3150800BFC00D9D38B94046FAF7B9F802AA03A905F053
S3150800BFD00CFB03A807218DF808108DF80960310AB3
S3150800BFE08DF80A108DF80B4001900120009004236B
S3150800BFF002AA0121404606F062FA0446FF2C1AD02E
S3150800C0004146FDF7CCF817B92046FFF756FF0DB99C
S3150800C010204610E0404605F0EAFA18B12046FAF73D
S3150800C02080F804E000220021204605F0EFF92046BA
S3150800C030FBF75FFAFF2006B0BDE8F0812DE9F64F61
S3150800C04083B004461E460E9D00274FF6FF7856B16C
S3150800C0504FF0010B304606F070FA814670784008BA
S3150800C06000F0010A05E0BB461046FDF7FFF88146D9
S3150800C070BA46DFF8D8040068807A032880F0A580DD
S3150800C080691CC9B29DF81000FBF7C6FB054605F00A
S3150800C090020002909DF80C0018B9280658BF45F012
S3150800C0A08005FFF706FFC07A022804D1DFF8C80525
S3150800C0B00078204301D1022721E09DF80C0030B119
S3150800C0C0B4F1010868EB08084FEAD87800E0B846EA
S3150800C0D0BBF1000F03D0301DFBF746FC01E04FF61D
S3150800C0E0FF700121009143462A460146484605F05D
S3150800C0F075FA80464FF6FF70804508BF0127DEB106
S3150800C1001CB94FF6FF70804504D1301DFBF72CFC97
S3150800C110014600E0414601200190009753464246F9
S3150800C1204846FFF746FF0298C0B250B94FF6FF716E
S3150800C130484605F039FC04E03A464146484601F0CF
S3150800C140DBFC002F41D10298C0B2F0B14946404607
S3150800C15005F04BFC0E2101FB00F7DFF8F013096828
S3150800C160896A79184A7942F040024A7105F070FCEA
S3150800C170DFF8D8030068806A381841796A064CBF28
S3150800C18041F0800101F07F014171F6B1DFF8A86C3A
S3150800C1909DF810003070FFF745FB0FF2340C690666
S3150800C1A048BF0CF1010CBAF1000F18BF0CF1020CD4
S3150800C1B002D10CB90CF1040C4B46424601469CF8D8
S3150800C1C000000BF0CFFBFF20307005B0BDE8F08F04
S3150800C1D003070004010500002DE9FE4F04468846C2
S3150800C1E016464046FCF7A8FF8146D74D297C01B183
S3150800C1F001218DF80510D54F3868807A05280CBFBF
S3150800C200012000208DF8040044B1484606F095F94F
S3150800C2108246484606F084F9834605E04046FDF71F
S3150800C22025F88246DFF814BC002000900423324625
S3150800C230414602A8FBF7FAF90DF10900FBF794FB52
S3150800C24080469DF80B60CCB10822DFF8F01B5846F3
S3150800C250F5F784F9002862D13868C07A022808BF41
S3150800C260002E0BD14046FFF7E1FA0BF09BFA992313
S3150800C27000F02BFD9920FAF76CF850E0FBF7FCFD6F
S3150800C28000284CD09DF805009DF80410084301D0FD
S3150800C29014B944E0002C42D11EB19420FFF71AFCD1
S3150800C2A03DE051463868008805F09FFB05F0D0FB55
S3150800C2B0524638680188404600F043FC3868C17A1F
S3150800C2C0012916BF312911214321C1720220F9F72C
S3150800C2D0CEFF40F6B83105F11800FCF760F807F014
S3150800C2E0A2FF0020E8743868C17E21B905F118005C
S3150800C2F0FCF74AF811E034B199F80110890702D51C
S3150800C300FFF7A5FB09E0807A042806D3052105F185
S3150800C3101800FCF744F80620E874AD202875F9F7EC
S3150800C32090FFBDE8F78F2DE9F04784B00446FCF787
S3150800C33003FF0546FCF747FF064606EB05092046B8
S3150800C340FCF7EFFE3518EDB22046FCF78FFF0646E0
S3150800C35005F1030A7D4F4FF6FF7899F8000001288A
S3150800C3600ED0022814D0042800F0C080062815D064
S3150800C370072866D0082822D07C2800F08080DFE0D5
S3150800C38000950023224600210846FFF757FED7E00E
S3150800C3902A4621460020FFF71FFFD1E0304605F068
S3150800C3A01FF9404503D00146304601F056FB386870
S3150800C3B0C07A022802D13046FBF78EFDC0E0691C20
S3150800C3C000F0C6F881465FFA8AF100F0C2F88246A4
S3150800C3D0A91D00F0BDF805464545EFD007F023FF37
S3150800C3E03868C07A132808D100F02BFC2046FCF7E1
S3150800C3F03DFF0146504605F0F8FA3868C07A02282B
S3150800C40018BF13281DD12846FFF710FA4846FFF72C
S3150800C41015FA0021002000F0B1FB3146504600F025
S3150800C420A9FC4948C078DFF81C1A087000F010F912
S3150800C4303868C17A132903D12321C17200F057FF46
S3150800C4407EE03868C07A022802BF8A4C2079002824
S3150800C45076D1FAF747FA0546012021568840C0EBFF
S3150800C4600016B6B20020F9F702FF95FBF6F006FBB8
S3150800C4701050411C89B2201DFBF791FF60E099F826
S3150800C4800100652804BF99F802006D2858D1634851
S3150800C4900068205C5FFA8AF5854251D20822314647
S3150800C4A001A8F5F711F800AB00222946204605F049
S3150800C4B0F5FE002844D19DF80000FF2840D0DFF89B
S3150800C4C0885901202870DFF870693470F9F7D4FEAE
S3150800C4D09DF8001001A8FBF7F4FCF9F7D3FEFF203E
S3150800C4E03070002028709DF8000027E02046FCF7F1
S3150800C4F0DCFE0546DFF854090078FE2809D32046F5
S3150800C500FCF724FE000B00F001012846FBF7DEFCD1
S3150800C51016E00FF680100088ADF8080000F01CF849
S3150800C520284605F0CCFF0446FF2C09D02946FCF71F
S3150800C53036FE00212046FCF741F82046FAF7D9FFD7
S3150800C540BDE8FF879D1C0020041E0020802C0020CB
S3150800C550C9B22046FBF712BA0020019000900223C8
S3150800C56002AA0121704738B50220F9F781FEF9F7CA
S3150800C57088FEDFF8DC4800202076DFF85C56FDF7F9
S3150800C5808DF828B12868C07E10B9FFF760FA3AE03E
S3150800C590FDF784F810B9FBF76FFC48B1E07C38B1B9
S3150800C5A000F032F8E07C401EE074FCF73EF82AE022
S3150800C5B02868C07A132809D0FBF75EFC30B92868CA
S3150800C5C0C07A11281CBF4328412803D1207DFFF7D4
S3150800C5D081FA18E0022818BF032803D0002818BFDC
S3150800C5E0212810D10024DFF86C5808E02046F9F716
S3150800C5F048FE002000F0EFFBF9F744FE641C28789B
S3150800C600E4B28442F2D35BE3C82104F11800FBF7D5
S3150800C610C6BEDFF83C080021C1747047301C0020F4
S3150800C62080B50020F9F724FEF9F72BFE1148002102
S3150800C6300171DFF8A4050068C17A022904D1807A5D
S3150800C640032838BF01F077FABDE80140F9F71ABEAA
S3150800C65080B5F9F729FEFF2804D00748007810B1FD
S3150800C660012000E00020DFF8F017087001BD000087
S3150800C670941E0020281E0020942C00202DE9F04F3F
S3150800C6808BB00446DFF8D4070068255C2046FAF725
S3150800C690B9FE0646B01DFBF767F9814606F10900A3
S3150800C6A0FBF762F9834606F10B00FBF75DF9ADF877
S3150800C6B00A0006F10D00FBF757F98046C60B03A9D9
S3150800C6C02046FFF795F99DF80E00C0F3C30A9DF8BA
S3150800C6D00D0000F00F008DF80800202DACBF9DF866
S3150800C6E01A700027DFF8F0040068C07A022811D112
S3150800C6F0FFF7A0F883450DD100A800F025FB1C2DF7
S3150800C70006DB08220DF10F0100A8F4F727FF08B190
S3150800C71000F029FDB9F5004F02BF28F4404040F665
S3150800C720FF71884245D11C2DC0F2BA80002208212B
S3150800C7300DF10F00FBF77BFB00283AD1DFF8200745
S3150800C7400078012831D19DF80800019000965B46D3
S3150800C75027220FF24471FFF7A9FB05212046FCF7B3
S3150800C760DAFC8DF81E00ADF81CB08DF81F609DF838
S3150800C77008008DF828008DF8297008220DF10F01A0
S3150800C78008A8F4F7A1FEFFF794FBC07ADFF8A856CD
S3150800C79001281CBF33282C70F9F76EFD07A8FCF793
S3150800C7A08DFBFF202870F9F76DFDDFF8A456A87CED
S3150800C7B0002875D1FBF760FB002871D0012068744A
S3150800C7C00022082105F10800FBF731FB10B1E888C3
S3150800C7D0834508D008220DF10F0105F10800F4F78A
S3150800C7E0BDFE00285CD13EB9DFF8EC030068C07ACC
S3150800C7F0312818BF332853D101219DF80800FFF7C7
S3150800C800A3F800284CD09DF80C00002802BF9DF81C
S3150800C8100D000009022843D1DFF8BC030068817ABD
S3150800C8209DF80E20022902D1500709D438E01206D5
S3150800C83006D405291EBF0088BDF80A1088422FD1E4
S3150800C840DFF82066DFF820B62878FF2812D0687946
S3150800C85087420BD195F902009BF90010884209DB43
S3150800C8601ED168783178884204D319E0381AC0B2E4
S3150800C870812815D2FFF7AFF82C702046FAF72BFE61
S3150800C880307868709BF80000A87050460F2834BFAF
S3150800C8900AF101000F20E8709DF8080028716F71F1
S3150800C8A00BB0BDE8F08F2DE9FF41064688461746CE
S3150800C8B0DFF89C450120A074FEF776FE002811D10A
S3150800C8C0012E18BF002E0ED1009743462622AAA194
S3150800C8D0FFF7ECFAF9F7D0FC39464046FCF703FBBC
S3150800C8E0F9F7D0FC93E0BC4D2868C07A23280BD111
S3150800C8F0FBF72AFA0446FBF72BFA214604F09BF8C5
S3150800C9000220FBF72DFA82E0002FFCD121281CBF5C
S3150800C9100428532802D107F08CFA78E0FBF7ACFA22
S3150800C920002856D02678FF2E05D1607C00280CBF3B
S3150800C930AB20942060E02868807A03288941C9439F
S3150800C940C90F2079FFF700F808B9982054E0F7F7DF
S3150800C95006FB05213046FCF7DEFB29680873F9F764
S3150800C96070FC207C40BB2868807A052824D000F01B
S3150800C970F6F9804609213046FCF7B2FB07460B213B
S3150800C9803046FCF7ADFB4246394601F09AF8B8B98D
S3150800C990942020750220F9F76AFC2868C17A0129D3
S3150800C9A006D0312918BF33290CD1807A042809D337
S3150800C9B0FFF72AFE03200AE0FFF793FA0028E7D1DB
S3150800C9C0942019E04FF41671FFF71FFE0020E0745B
S3150800C9D01DE02868C07A132814D100F013F9BDF8B1
S3150800C9E00000FEF72BFF00F02CF92868817A03294E
S3150800C9F005D33321C1729620FFF76CF807E0FFF7DD
S3150800CA004BF804E0022E04BF40460AF03DF94FF405
S3150800CA10006004F0DFFD10B904F046FD08B1FBF72D
S3150800CA20A7FABDE8FF811FB5044600208DF800006F
S3150800CA30DFF83804007840F020008DF801000DF189
S3150800CA40030000F081F90322FF210DF10B00F4F732
S3150800CA507EFD00F040FA8DF80E00DFF8F00300784E
S3150800CA60FE2828BF0020DFF808140978091ADFF81D
S3150800CA7004241278DFF800341B789B1A9042B4BF5E
S3150800CA80101A0020DFF8BC231278D20042F0040204
S3150800CA90DBB2C0B2C018C9B28842B8BF42F0800241
S3150800CAA08DF802200F2200A92046FAF72FFE401E15
S3150800CAB08041C00F04B010BD38B50446DFF8BC533A
S3150800CAC02868817AA14203D084722046F9F73EFC91
S3150800CAD01CB12868807A042805D3F9F7D8FBFF2803
S3150800CAE008BF012000D00020BDE83240F7F77BBA26
S3150800CAF038B504460D46E87A0B38C0B2102801D37B
S3150800CB008A2032BD95F90A00FBF7C2F908B18B20D5
S3150800CB1032BD31480168EA7A0A730068A97A417316
S3150800CB202046FEF783FE4FF6FE7084420CBF4FF692
S3150800CB30FF702889FEF782FEC5482989C180002032
S3150800CB4032BD38B50C461546FEF770FE06F0ECFE0B
S3150800CB502946204600F00EF9BD480178FF2918BF7E
S3150800CB60C07806D11C480068807A01280CBF0020CE
S3150800CB700120B449087031BD424242007FB50446DF
S3150800CB800E4600F03FF8144D9CB1BD4A00213046D0
S3150800CB9000F0B7F9B54800788DF804002868807A5F
S3150800CBA08DF805000822214602A8F4F78DFC0AF044
S3150800CBB0E6F92868017B8DF80310407B8DF80200A2
S3150800CBC0FEF738FEADF80000FEF72CFEADF80600BD
S3150800CBD000F01AF87FBD0000802C00201FB504461F
S3150800CBE000F010F81CB100208DF8050007E0FEF7EC
S3150800CBF019FEADF80600FEF71DFEADF8000000F0C0
S3150800CC0003F81FBD00A833E01023072200A900205F
S3150800CC1008F0F2BB00B58BB0FFF7F4FFBDF80000D3
S3150800CC20ADF818009DF803008DF81B009DF802006A
S3150800CC308DF81A0004A9BDF80600FFF759FF0BB0D6
S3150800CC4000BD1FB5012000F0A1F804460AF0A2F9BC
S3150800CC50FFF7D8FF1CB900224FF6FF7103E0FFF774
S3150800CC6028F9821C0188BDF80600FFF76AFF1FBD78
S3150800CC70102307220146012008F0BEBB38B506205E
S3150800CC80F9F7F6FA0446F9F7FCFA7C4D28687D4967
S3150800CC9009780173F9F7F3FAA04208BFF9F7A7FA7A
S3150800CCA000210020FFF76AFF9B2300F00EF89B2067
S3150800CCB0F9F74FFB28680021A0F84410A0F84610A1
S3150800CCC0BDE83140F9F7DEBA237D13225CA10320C3
S3150800CCD0F8F7F3B880B5A0F10B01C9B2102901D352
S3150800CCE08A2002BD65490968C97A022918BF03293D
S3150800CCF001D0702002BD634908700620F9F7B7FA1B
S3150800CD0000216148FBF7E6FC20B1012808BFFFF7C0
S3150800CD10B5FF01E0A12002BD002002BD1FB50446F3
S3150800CD2000A8FFF7A5FF9DF8050038B1062805D22B
S3150800CD304E4909789DF80420914201D0932001E0DC
S3150800CD402070002004B010BD1FB5044600A8FFF7E8
S3150800CD508FFF082202A92046F4F7B6FB1FBD4B48F1
S3150800CD60007800B1402045490968897A484A895CB3
S3150800CD7008437047414A1368188019B90822981C55
S3150800CD80F4F7E5BB0822981CF4F79EBB10B584B0EF
S3150800CD9004462F4890F82000C00711D50A230A2216
S3150800CDA000A9012008F028FBBDF808004FF6FF711E
S3150800CDB0884205D00822FF2100A8FBF738F808B1F9
S3150800CDC0002006E024B100A9BDF80800FFF7D2FF4D
S3150800CDD0012004B010BD70B584B004461C4D95F80A
S3150800CDE02000C0070CD5254E306801884FF6FF7223
S3150800CDF0914207D100220821801CFBF718F808B1D8
S3150800CE00002017E044B10220F9F731FA782105F13C
S3150800CE101800FBF7CBFA0CE030680188ADF808106B
S3150800CE200822811C00A8F4F74FFB0A230A22FFF701
S3150800CE30EDFE012004B070BD501E0020A02C00207D
S3150800CE4042420000E02F0020882C0020BF2F00203F
S3150800CE50041E0020681C0020E12F0020301C002042
S3150800CE60941E0020DA2F0020DB2F00209D1C0020B6
S3150800CE709F1C0020D52F0020D42F0020802C0020B6
S3150800CE8000F8FF07D32F00207DCC000860FD0108BD
S3150800CE9038FD0108046000004257424200000000C5
S3150800CEA0CC48002101714FF6FF718181704730B57A
S3150800CEB083B004460D460823092200A9012008F07C
S3150800CEC09BFA14B19DF8060020700DB100982860F1
S3150800CED0BDF804003EBD80B5002100A8FFF7E7FFB6
S3150800CEE09DF8000002BD10B582B0044600A90020D6
S3150800CEF0FFF7DDFF009A0146204600F002F82046BB
S3150800CF0016BD00B583B08DF80600ADF80410009282
S3150800CF100823092200A9002008F06EFA07BD2DE9AA
S3150800CF20F04385B0814605F0E9FA0646AA48006846
S3150800CF3019F80050002000900A233246494602A8F4
S3150800CF40FAF774FB0A369DF8080009280CBF012772
S3150800CF5000279DF80900E021084266D100A8FFF7DE
S3150800CF60F3FE08220DF10A0100A8F4F7F7FA0028E3
S3150800CF705BD1002F4CD000F017F9002855D0954FFB
S3150800CF80B8894FF6FF7840451CBF4FF6FE718842B8
S3150800CF904BD13878001D387090490978491E8900A8
S3150800CFA0C0B2814241DA00203870F9F79BFCB8819B
S3150800CFB0344607E021464846FAF7E0FCB989884234
S3150800CFC0F3D0A41CE4B2681E8442F3DBB8890028B7
S3150800CFD018BF4045E9D0FEF72DFCB9898142E4D057
S3150800CFE0FFF779FF401CC0B2FFF77DFF0146BA89FB
S3150800CFF00A2000F051F840B14FF47A71381DFBF75A
S3150800D000CEF90A20F9F733F90FE0A7F80C800CE0FF
S3150800D010F1B24846FAF700FCFFF765FF711CC9B282
S3150800D0204846FAF7ABFC00F080F805B0BDE8F08397
S3150800D0306848017809B1491E0170704738B5654CD2
S3150800D040002020710A20F9F713F9F9F71AF964484C
S3150800D0500068C07A022818BF032819D1A0894FF69C
S3150800D060FF754FF6FE7188420CBFA581A8420FD006
S3150800D070FEF7E4FBA58100210020FFF77FFD9A2338
S3150800D080132253A10320F7F718FF9A20F9F761F93D
S3150800D090BDE83140F9F7F6B82DE9F04786B0054600
S3150800D0A00C4691460026092D0CBF012700270021B2
S3150800D0B00846FFF7FCFE80468DF8085002AD0120B1
S3150800D0C068700DF10A00FFF73FFE0DF1120A17B955
S3150800D0D0AC720DF1130A49465046FAF74BFC0AF1B1
S3150800D0E002000FB94FF6FF780196009602A9431A77
S3150800D0F0DBB202AA6421404605F0E1F90446FF2C9A
S3150800D1000FD03FB100F050F820B12046FFF707FFD7
S3150800D110012603E02046FCF7CEFA06462046FAF733
S3150800D120E8F9304606B0BDE8F08738B504464FF64C
S3150800D130FF75AC4216D0FEF77DFB844212D0254817
S3150800D1408189A9421CBF4FF6FE7291420AD1848199
S3150800D1504FF47A71001DFBF722F90A20BDE8324028
S3150800D160F9F785B831BD1E480068807A042800D3CF
S3150800D170704738B5174CA0894FF6FF71884212D10F
S3150800D180FEF758FB0546F021201DFBF70FF90A208C
S3150800D190F9F76DF84FF6FE70A0812A46002109209E
S3150800D1A0BDE8384078E731BD10B50D480068807A8B
S3150800D1B004280AD2FEF736FB044600210020FFF7B2
S3150800D1C076FE844201D1012010BD002010BD00006A
S3150800D1D042420000081F0020301C0020A71C002027
S3150800D1E0802C0020F0B583B004460F4615460195FD
S3150800D1F00097234624220FF2DC310320F7F75DFE61
S3150800D200DFF8C46330780A2801D03D20FEBD0F2D13
S3150800D21001D33320FEBD092C01D33420FEBDDFF82F
S3150800D220AC033840B84201D03520FEBD37B90120DD
S3150800D230DFF89C130968097B00FA01F7002C18BF70
S3150800D240022C0CD120210020FAF7D6F9B071FF285C
S3150800D25001D11820FEBDFAF7D5F8F06130623470B6
S3150800D260B570B761002070700820F9F700F8012141
S3150800D2700FF21500FBF72EFA30780A2801D10120A3
S3150800D280FEBD0020FEBD000038B50820F8F7F0FF07
S3150800D2900446F8F7F6FF2046F9F727F80020F8F7CE
S3150800D2A0E5FFC94CFAF7FDFD2071FEF7C3FA2082A7
S3150800D2B0F6F796FE607120784FF6FF75062808D1B6
S3150800D2C00120F6F790FE072020702846FAF753FF4C
S3150800D2D00CE0082805D02846FEF7B0FA2846F6F7E7
S3150800D2E002FF0020F6F77FFE00F054F84EE038B54E
S3150800D2F0F4F73AFD0446B44D28780A2818BF0928D9
S3150800D30004D12046BDE83240F4F734BD072808BFEB
S3150800D310FAF7F5FE28786870092028702046F4F791
S3150800D32029FD01210FF20900BDE83440FBF7D2B907
S3150800D33038B5A54C2078092802D0DF2100F0A6F8D8
S3150800D3400820F8F795FFF8F79CFF208AFEF776FA8B
S3150800D3509F480068217901736079F6F744FE012039
S3150800D360F8F784FFF8F76DFF002020720A20207076
S3150800D370A579FF20A071002229466078FFF793FA65
S3150800D380FF2D1CBF2846FAF7B4F800BFBDE83140A8
S3150800D390F8F778BF70B582B08B4C00202072082051
S3150800D3A0F8F766FFF8F76DFF20780A2803D140F2F0
S3150800D3B00B1100F06BF82078E0B917E0401CE0612B
S3150800D3C010F9015DE069401CE06110F8016D0095F7
S3150800D3D0334628227BA10320F7F76FFDF8F74CFFA9
S3150800D3E029463046FBF789FDF8F74CFFE069216AC4
S3150800D3F08842E3D3607801251B2820D2FEF7D2F8AD
S3150800D40058B16078A16905FA00F2114205D1401CAD
S3150800D4106070C0B21B28F4D311E0F4F7BDFB0146D7
S3150800D4206078884202D0F4F7AFFB40B96078FEF71F
S3150800D430B6F860700020E07000F064F810B3207849
S3150800D440052818BF012803D0032818BF08280ED1BD
S3150800D4500B26A06905FA06F1084204D036223146A1
S3150800D4602078FFF720FA761C1B2EF2D308E0022854
S3150800D47006D1206AE169411AC9B2A079FAF788F992
S3150800D480FFF735FFBDE87340F8F7FCBE0FF24C1006
S3150800D490F5F7E0B838B54C4C2078092804BFBDE844
S3150800D4A03140FAF74FBE6169002818BF02281ED11D
S3150800D4B099B9206A401C2062E17900F8011D20789C
S3150800D4C028B9256A681C2062F4F766FB287004F1FF
S3150800D4D00800BDE83240FAF757BF0825F6F796FD6B
S3150800D4E094F907108142B8BF0146E17103E00029AB
S3150800D4F0EDD04FF470752846FAF73DFE6069401E78
S3150800D500606131BD80B53048012182789140491C5F
S3150800D51041610278092A20D8DFE802F011091109C9
S3150800D52017051F1F0D1CBDE8014000F056BABDE8DF
S3150800D530014000F05CBABDE80140FEF72EB86FF076
S3150800D5407F02C2717822514341610020FAF713FE27
S3150800D550002002BDFAF7F6FD03E04FF4CD71FFF7A0
S3150800D56095FF012002BD10B5174C2278052A11D166
S3150800D570062816D120206061A9B9F4F70DFBA16928
S3150800D580012202FA00F021EA0000A0610020FAF761
S3150800D590F2FD15E0012A14BF032A0728ECD0082A51
S3150800D5A0EAD0002010BDE078401CE070C0B2032825
S3150800D5B002D2FFF7A7FF18B104F10800FAF7E4FE54
S3150800D5C0012010BD42424200941E002000F8FF07C9
S3150800D5D0802C002042424442000000007363616EC2
S3150800D5E02E63000038B5044601214FF4807003F01D
S3150800D5F0EFFFC0B1974D2878FF2807D06878C00795
S3150800D60048BF00F002F92878F9F773FF2C7000205C
S3150800D61068702046F9F75FFF8F480188281DBDE826
S3150800D6203440FAF7BCBE31BD8A494A7842F0010255
S3150800D63008B142F002024A70704710B5854C20784E
S3150800D640FF280ED000214FF4807003F0C1FF6078E8
S3150800D650C00748BF00F0D9F82078F9F74AFFFF203D
S3150800D66020700020207110BDF8B50025784E7B4F3C
S3150800D67000E06D1C3878EDB2854217D22C4630682A
S3150800D68030F814100805F4D5284600F059F8FF2894
S3150800D690EFD0316831F814204FF2FF731A4021F8A1
S3150800D6A014206F49096800226254F2BD69480021B6
S3150800D6B0818103F019FF0446FF2C18BFF9F70BFF09
S3150800D6C02046F2BD2DE9F04104460D46614EB78964
S3150800D6D00020B0818FB32046FBF790FDB0F5006FB0
S3150800D6E02BD12046FBF7ACFD8046F8F727FDFF282F
S3150800D6F023D035B15649096831F810203A4321F844
S3150800D7001020402F13D0B7F5807F16D13078844289
S3150800D71011D14FF6FF7188450DD0FBF740FD4FF448
S3150800D720827003F057FF30B9FFF787FF03E015B99A
S3150800D73021460AF05CFB012000E00020BDE8F081EC
S3150800D7402DE9F04383B081460F46FF254C464548F0
S3150800D750006830F81480F8F79AFD4349097888423A
S3150800D76050D2F8F78EFD3B4EB8050FD478051CD578
S3150800D77006F006F902460020019000900123414672
S3150800D780FEF717FC05464FF480602EE04FF6FF7251
S3150800D79041460E2006F05CFA0546FF2D30D041467C
S3150800D7A0FBF7FDFC4FF4007021E03078FF280BD022
S3150800D7B0F90509D54146FBF7F2FC3078F9F78BFEF7
S3150800D7C035784FF4807010E0780606D50021484673
S3150800D7D00AF00FFB0546402007E0380610D5012160
S3150800D7E048460AF006FB05468020FF2D08D0B08182
S3150800D7F01749096831F8142022EA000021F81400B4
S3150800D800F8F740FD2846BDE8FE837FB5114C207821
S3150800D810F9F7A6FE05462078FBF78EFC801CFAF77A
S3150800D820A3F8064601A9207804F0F7FEF8F724FDC8
S3150800D830607880074CBF0020662000902B4601AA1E
S3150800D84031460420FBF79BFAF8F71CFD7FBD000064
S3150800D8504C1C0020401F0020A21C0020481C002051
S3150800D860501C0020441C0020681C0020F0B587B01E
S3150800D8700C9FDDF834E00E9E0F9D109C8DF8142049
S3150800D880120A8DF81520049403950296CDF804E043
S3150800D890BFB2009705AA41F4006100F002F807B08C
S3150800D8A0F0BD2DE9F54F81B00C461D460F9A04F4DC
S3150800D8B0404804F4406AFF2807BF012608200026CE
S3150800D8C00C200021FBF7F8FC8146BAF5006F0CBF67
S3150800D8D002270827B9F1FF0F5AD0F9F793FD8346B7
S3150800D8E04846FBF729FC0EB944F0030400F8014B3F
S3150800D8F0210A00F8011B461CBAF1000F04D006F8ED
S3150800D900015B280A06F8010B3A4602993046F3F7F6
S3150800D910DBFDBD195FEA080008D0600606D4BDF82D
S3150800D920300005F8010B001205F8010BB8F5004F99
S3150800D93003D0B8F5404F0AD00FE0FDF773FF05F89E
S3150800D940010BFDF76FFF000A05F8010B05E0082239
S3150800D9509E492846F3F7B8FD0835A5EB0B01C9B271
S3150800D9604846F9F755FD9DF80400FF2826D0012200
S3150800D97001A94846F9F7CAFE38B90D9979B19DF853
S3150800D98038204846F9F7C2FE48B14846F9F7B1FDCE
S3150800D9909DF8040004280CBFFF2018201BE09DF802
S3150800D9A00400042808BF484615D0022806D1484670
S3150800D9B0F8F7B7FB441EA441E40F05E09DF84010B4
S3150800D9C04846FAF7FBFD04464846F9F792FD002C4F
S3150800D9D00CBF39200020BDE8FE8F00B585B000F0E9
S3150800D9E012F800931A464FF44041062007E000B5A6
S3150800D9F085B000F008F800901A4600210720FFF7C6
S3150800DA0035FF05B000BD4FF6FF7302200490FF20D6
S3150800DA100390002002900190704710B586B0FDF77C
S3150800DA2009FF0446FDF7FEFE4FF6FE71884234BF35
S3150800DA3048F260014CF2600101200490FF20039037
S3150800DA4000200290019000902346614800680288F1
S3150800DA500420FFF70BFF06B010BD30B587B00446AB
S3150800DA600D46FDF7E7FE8DF81400FDF7E3FE000A04
S3150800DA708DF81500FDF7D6FE8DF81600FDF7D2FED7
S3150800DA80000A8DF81700FAF70CFA8DF818008DF8C9
S3150800DA901950280A8DF81A00FDF7CCFE01210491C9
S3150800DAA0FF2103910721029105A9019100904FF6E4
S3150800DAB0FF7322464FF44C410820FFF7F2FE07B0E9
S3150800DAC030BD34B586B004460D460021FFF752F93D
S3150800DAD001200490FF2003900120029006A80190DF
S3150800DAE04FF6FF7000902B4622464CF62001012087
S3150800DAF0FFF7BCFE07B030BD10B586B004468DF8FA
S3150800DB001410080A8DF815008DF81620FDF792FEF8
S3150800DB1000210491FF2103910321029105A9019196
S3150800DB2000210091034622464CF660410220FFF789
S3150800DB30B8FE06B010BD70B584B0FF2200210020E3
S3150800DB40FBF7BAFB044640F6FF76FF2C3CD020488C
S3150800DB500068807A012808BF44F6FF761D480078D9
S3150800DB6008B146F4004600208DF8000000AD80207C
S3150800DB706870FDF75FFE8DF80300FDF75BFE000A8F
S3150800DB808DF80400FDF74EFE8DF80500FDF74AFEF8
S3150800DB90000A8DF80600FF208DF80700300A287263
S3150800DBA000208DF80900A8720B2200A92046F9F773
S3150800DBB0ADFD2046FEF737FF18B101212046FAF7DA
S3150800DBC0FDFC2046F9F795FC7FBD0000A02C00203F
S3150800DBD0802C0020E12F002000207047002070478D
S3150800DBE000207047002070470020704700207047CB
S3150800DBF000207047002070470020704701207047BA
S3150800DC007047704700207047002070470020704713
S3150800DC107047704700207047704700207047B5204E
S3150800DC2070477047B52070477047704700207047A7
S3150800DC30B52070470020704700207047704770472E
S3150800DC400020704700207047002070470C480D4997
S3150800DC5001600020704700B17020704700207047AF
S3150800DC6080B500F013F8FF2801D1A32002BD0020DB
S3150800DC7002BD00207047704700BF03480078704710
S3150800DC80E42900204E1B0020941F002080B500F0D8
S3150800DC9014FBFF2818BF002002BD00210170704741
S3150800DCA0007800B10120704701F0B6BDFAF77EBBD7
S3150800DCB01FB50FF664000088ADF8060003A80FF636
S3150800DCC05C010A68026002A800210160ADF8041030
S3150800DCD00091DFF88406022180F8201000210FF653
S3150800DCE06C120B010DF106040C5D1C541B1803ACD9
S3150800DCF034F811405C8002AC34F811409C8001ACC9
S3150800DD000C5D9C710DF102040C5D02EBC4049C6071
S3150800DD1000AC0C5D1C7301245C73491C0229E0DB12
S3150800DD201FBDDFF8340690F820007047DFF8281684
S3150800DD3001EB0010407B00F001007047412818BF36
S3150800DD40422803D0432818BF442801D10120704730
S3150800DD5000207047412818BF422801D1012070478A
S3150800DD6000207047432818BF442801D10120704776
S3150800DD7000207047F8B5044615461E46069A00F078
S3150800DD8010FA60B1042100F067FB070007D02046AF
S3150800DD90FFF766FF324629462046B84793E0F1BDAD
S3150800DDA02DE9FC478046894617001D460B9C1CBF7B
S3150800DDB00A9E002E1DD0E5B1307800074CBF4022E0
S3150800DDC080227988387900F0ECF990B1082100F0C2
S3150800DDD043FB824668B13879FFF742FF0194009603
S3150800DDE02B463A4649464046D047BDE8F347FFF733
S3150800DDF040BFBDE8F387F8B5054616461A4600F053
S3150800DE00D0F9D8B1069CA4B25CB9022100F024FB73
S3150800DE10040013D02846FFF723FF31462846A047BB
S3150800DE200BE0102100F018FB070007D02846FFF783
S3150800DE3017FF224631462846B84744E0F1BD2DE98A
S3150800DE40F04782B0814690461A460A9E0B9C0C9D66
S3150800DE500D9F00F0A6F908B9862015E04FF0000AD4
S3150800DE60B6B286B9202100F0F7FA06000BD048466C
S3150800DE70FFF7F6FE00972B46224641464846B0472E
S3150800DE808246FFF7F6FE5046BDE8F687F8B5044623
S3150800DE90A5682078FFF7E4FE002610E0142029681C
S3150800DEA000FB06173988207807F069FE01213846F5
S3150800DEB000F0D2FA01001CBF20788847761C287922
S3150800DEC0F6B28642EAD3BDE8F140FFF7D2BE38B5CE
S3150800DED00024DFF8845404E005EB0410FFF7D6FFAE
S3150800DEE0641C95F82000E4B28442F5D331BD30B500
S3150800DEF085B0089C002501958DF80800ADF80A1034
S3150800DF008DF80C30ADF80E20ADF8104000950023C2
S3150800DF102A4601A902A800F057F8019805B030BDB5
S3150800DF2010B5002301E05B1C001D9BB28B4204D296
S3150800DF3004889442F7D1408810BD002010BD02889D
S3150800DF40B2F57C4F28BF00F00BB80FF2E050081A64
S3150800DF500C2190FBF1F292B200210FF2FC60DFE790
S3150800DF600FF27061401A142190FBF1F292B200216F
S3150800DF700FF2E060D4E710B50C460188628891423A
S3150800DF800DD1027B23791A4209D0B1F57C4F04D30F
S3150800DF90FFF7E6FF2189884201D1012010BD002044
S3150800DFA010BD10B514460A88E3889A420AD1028839
S3150800DFB0B2F57C4F04D2FFF7C2FF2189884201D10E
S3150800DFC0012010BD002010BD2DE9FE4F82B0044689
S3150800DFD00025AA46DFF880B304E0C0884519ADB22B
S3150800DFE00AF1010A9BF820005FFA8AFA824580F056
S3150800DFF0B1804FEA0A1101EB0B0011F80B102278D9
S3150800E00091428068E9D100905046FFF78FFE0028BC
S3150800E010E6D0002704E0B8F80A004519ADB27F1C1F
S3150800E02000980079FFB28742DAD21420009909686D
S3150800E03000FB071821464046FFF79DFF0028EAD057
S3150800E0404FF0000908E030793021084202D1F07813
S3150800E0504519ADB209F10109B8F808001FFA89F99E
S3150800E0608145DCD20C20D8F8041000FB091622469C
S3150800E07031464046FFF795FF0028E4D0029800B1E4
S3150800E08006603079810611D50FF2A041002206E01C
S3150800E0900B799B0602D5CB789A1892B20C31B1420D
S3150800E0A0F6D302EB0B0101F2220A03E005EB0B01A2
S3150800E0B001F1240A0E9D1DB1039FDFF8A09206E028
S3150800E0C00399002944D057468A46DFF89492C00639
S3150800E0D00BD531464046FFF732FF034603980090BA
S3150800E0E0324661882078C84735E096F80280BDF840
S3150800E0F0100000280CBFF47804464046FFF72AFEB5
S3150800E10030B1621ED2B23946504600F0ACFD1FE06F
S3150800E1104046FFF727FE30B1A21E92B23946504656
S3150800E12000F0B6FD14E03DB9BDF8100020B1F17855
S3150800E130884238BF89200ED3002F224604D10021F9
S3150800E1405046F3F704FA03E039465046F3F7BCF9AC
S3150800E150002000E086207BE130B5002403E01D7B2B
S3150800E1602D0613D4641C0379E4B29C4210D21423FE
S3150800E170056803FB04531D888D42F3D132B1802A0A
S3150800E180EDD0402AEED11D7B6D06EBD5184630BD85
S3150800E190002030BD80B5402200F003F800B1012010
S3150800E1A002BD38B50C46154600F087F8FF2801D1A0
S3150800E1B0002032BD2A462146674B03EB00108068D3
S3150800E1C0BDE83840C8E74022FFE72DE9F843044692
S3150800E1D0884691460025FFF7E4FF08B9FF2017E0B7
S3150800E1E000265D4F02E04019C5B2761C97F820005C
S3150800E1F0F6B286420BD23001C05DA04207D04A462D
S3150800E2004146FFF7CEFF0028EDD00120EBE7284670
S3150800E210BDE8F28330B500224F4B00E0521C93F85C
S3150800E2202040D2B2A2420AD21401E55C8542F5D159
S3150800E23019B1E418647BE407F0D5104630BDFF2019
S3150800E24030BD80B50021FFF7E5FFFF281CBFBDE8FC
S3150800E2500240FFF76BBD002002BD70B504460E46AE
S3150800E2600021FFF7D7FFFF2801D1002070BD3A49EA
S3150800E27001EB0015687B00F00101002E14BF40F089
S3150800E28001000020687396EA010F14D076B128467B
S3150800E290FFF7FCFD0FE01421006801FB0600017B77
S3150800E2A0CA090188204601F0EDFA761CA8680179AA
S3150800E2B0F6B28E42EFD3012070BD0121AAE7000114
S3150800E2C02549405C704738B50C46FFF7F6FF01460E
S3150800E2D00020FF291FBF204A02EB01118968002987
S3150800E2E014D0002203E01B0648BF2846521C0B79AF
S3150800E2F0D2B29A4209D214230D6803FB02531B7B40
S3150800E300451C002CEFD05B06EEE7C0B232BD70B5F7
S3150800E3100C461546FFF7D1FF0021FF281AD00E4AF2
S3150800E32002EB0012002301E0491C5B1C9068067989
S3150800E330DBB2B3420ED21426006806FB0300067B46
S3150800E34015B1760602D4F0E73606EED5C9B2A14273
S3150800E350EAD170BD002070BD941F0020D559010870
S3150800E360EF5901080021FFE72DE9F04F85B0044673
S3150800E370F7F778FF8346002600E0761C0C4890F8ED
S3150800E3802000F6B2864263D2FF2C05D02046FFF75E
S3150800E39094FF0646FF2E5BD0054800EB0617FF2CB8
S3150800E3A002D1387B5845E8D14FF0000804E000BF99
S3150800E3B0941F002008F10108B86801795FFA88F807
S3150800E3C0884543D21421006801FB08094FF0000A6A
S3150800E3D008E0012000900023002101A8FFF7F4FDC2
S3150800E3E00AF1010AB9F808001FFA8AFA8245E1D249
S3150800E3F00C20D9F8041000FB0A152879C006EFD4BA
S3150800E40038788DF80400B9F80000ADF806002879C8
S3150800E41040064CBF802040208DF808002888ADF8BB
S3150800E4200A0029464846FFF78AFDADF80C00E87849
S3150800E4302979490704D5AA680328CAD31268C8E700
S3150800E440032834BF05F10802AA68C2E7FF2C94D056
S3150800E45005B0BDE8F08F704718B501220023047B8C
S3150800E4600C4205D1002012BD144218BF5B1C520095
S3150800E470D2B28A42F8D3DBB2006950F8230012BD43
S3150800E4802DE9FC470A46002701210028507D07D0C0
S3150800E49010B94FF0020C09E0012805D18C4605E0B9
S3150800E4A010B94FF0080C01E04FF0040CBE460FF20D
S3150800E4B070080A9880B20B9CDDF83090DDF834A01D
S3150800E4C038F82E60BDF80050AE421CD108EB8E0518
S3150800E4D0EE7816EA0C0F16D0AE784E4513D3EE78C2
S3150800E4E0F606D67B01D50EB90DE066B9BA4501D058
S3150800E4F0874201DB00210BE0AE78FE542688761CA5
S3150800E50026807F1CBFB20EF1010EBEF1030FD7DBCA
S3150800E5100846BDE8F6870000010200000401040170
S3150800E52003000002030000080300010800002001A0
S3150800E5302000000001000000070030012000000054
S3150800E5400000000000002102010000000000000099
S3150800E5500000210210000000000000000100210256
S3150800E5600000000000000000020021020000000078
S3150800E5700000000000002902100000000000000052
S3150800E5800100290200000000000000000200290224
S3150800E5900000000000000000030021021000000037
S3150800E5A00000000000002902100000000000000022
S3150800E5B001002902100000000000000002002902E4
S3150800E5C010000000000000000300210210000000F7
S3150800E5D000000000000000002CE500080200000012
S3150800E5E040000000000000000100000044E50008AB
S3150800E5F000000000400000000000000003000000CA
S3150800E60044E50008010002004300000040E201085A
S3150800E6100004000050E50008030004004000000064
S3150800E620000000000204000074E50008040004006D
S3150800E6304300000048E2010800FE0000A4E50008C7
S3150800E640040000004000000000000000D4E50008B7
S3150800E65006000A00000000000000000080B505F072
S3150800E6600BFE09F0C8FBF2F78BFCDFF8DC170A880B
S3150800E670821A92B2C92A28BF088001BD80B5FFF761
S3150800E6801CFEFF2805D0022803D2DFF8C017405C1D
S3150800E69002BD002002BD00B583B00221009101AB86
S3150800E6A00022032109F0FFFB20B9BDF8040010B1D0
S3150800E6B0012000E00020C0B20EBD30B50023052AB7
S3150800E6C001D3002030BD002406E0151B2D1815F8CF
S3150800E6D0015C05EB0323641CE4B29442F5D38B4238
S3150800E6E001D2C81A30BD581A30BD10B50168DFF816
S3150800E6F060270B8813804B8853804979117101680C
S3150800E700097951714FF48A51D1800168897989064E
S3150800E71044BF4FF48B51D180DFF83847A17882691E
S3150800E7203AB9C088DFF83027108001F0FD00A070E4
S3150800E73010BD41F00201A17016228169201DF2F771
S3150800E740C3FE0020207110BD80B50020FFF783FAB4
S3150800E750FF20FFF707FEFFF78CFAFFF7E2FA0246FB
S3150800E7600121DFF8E806F2F7F2FEDFF8E436DFF813
S3150800E770EC265221DFF8E80609F090FF01F00FF8C1
S3150800E78006F0E8FE09F0FAFF0AF092FC06F068FACD
S3150800E790BDE80140FFF79BBB70B500240FF2E87592
S3150800E7A001E0B047641CE4B255F82460300003D099
S3150800E7B006F04EFA0128F4D170BD80B5FDF73AF996
S3150800E7C020B9F9F700FB08B90AF06BFAFFF72CFA3B
S3150800E7D0BDE80140FFF729BA10B500224FF6FF71D0
S3150800E7E00FF24C7300E0521C92B233F832408C425E
S3150800E7F003D08442F7D1104610BD084610BD38B57F
S3150800E8000446FFF7E9FF0146DFF8585628884FF611
S3150800E810FF72914203D122460FF2606106E00FF2C1
S3150800E820107202EBC1014A680FF26861F2F7A8FAA2
S3150800E8302888BDE83240F2F793BA10B582B004468C
S3150800E840DFF82406007800283BD0FFF7E3F90246F4
S3150800E8500FF248610220F2F793FA20684188009186
S3150800E8604379A2890FF23C610220F2F789FA022065
S3150800E870F2F73AFA18B120684088FFF7C0FFE07B44
S3150800E88028B1228A0FF23C610220F2F779FAE07C7D
S3150800E8900090A37CA06802780FF234610220F2F798
S3150800E8A06FFA207D0123A1890A1A92B2A16841183C
S3150800E8B002200AF063FCADA10220BDE81C40F2F775
S3150800E8C059BA13BD10B5044620684079FFF7F5FC20
S3150800E8D0FF281DD0DFF8941501EB0010017B227F7D
S3150800E8E0914215D1408822681188884206D04FF691
S3150800E8F0FF7399420CD1B0F5004F09D2207902284E
S3150800E90018BF032806D111895079FFF78FF908B97E
S3150800E910002010BDA07B002820461CBFBDE8104083
S3150800E9200AF0C8BCBDE810400AF02ABDF0B589B0A7
S3150800E9300E4617461A460E990024DFF81855032A7C
S3150800E94004D33B785B0709D5052A07D20FF2B452E0
S3150800E9500FF29C510220F2F70DFA9AE001908DF819
S3150800E9600860ADF80A100397ADF81020387800F063
S3150800E97001008DF81200387800F004008DF81300B5
S3150800E9803878C00800F001008DF8190001208DF8CC
S3150800E99018009DF8130058B1012138460BF00EF8FF
S3150800E9A0ADF814009DF81800801C8DF8180001E0D9
S3150800E9B0ADF814009DF81800C15D8DF81610401CBE
S3150800E9C08DF81800C0B2C15D8DF81710401C8DF87F
S3150800E9D018000F9F0797F7F745FC8DF8200001A848
S3150800E9E0E8619DF81600287001A8FFF726FF01A820
S3150800E9F0FFF77BFE01A807F009FBF0B9FFB9042E63
S3150800EA0018BF052E03D0022E18BF032E01D10122EE
S3150800EA1000E00022019840880090019803880121AF
S3150800EA209DF8170000F0E6F860B101988079800635
S3150800EA3008D4012101A800F0DBF8012429E0387D7B
S3150800EA40800726D501984079FF281ED10026DFF8D1
S3150800EA500074FFF766F9F6B286421AD23046FFF717
S3150800EA6065F980B101A8FFF740FE3046FFF727FC9D
S3150800EA70019948713046FFF722FC387101A8FFF763
S3150800EA8021FF00B10124761CE3E701A8FFF71AFF6E
S3150800EA9004460AF043FF16220021281DF2F757FD07
S3150800EAA00020E861204609B0F0BDDFF8C40301780C
S3150800EAB0491C017001F07F007047DFF898138A78C7
S3150800EAC0002814BF42F0010002F0FE00887070476B
S3150800EAD07CB5DFF88043A378D90701D5002076BD39
S3150800EAE06278DFF86C13012A03D1CA8842F0400223
S3150800EAF005E0022A04D1CA884FF6BF752A40CA80A3
S3150800EB002578DFF85C23167876074CBFD5705570E4
S3150800EB10DFF848532D889B0708D52946201DFFF79F
S3150800EB2087F8A17801F0FD01A17076BDDFF82833DA
S3150800EB301C884FF6FC739C4208D2019000922B4623
S3150800EB400A4621460020FCF7DAF876BD00901346FF
S3150800EB502A462046FCF7BAF876BD0020B8E70A46EA
S3150800EB600146DFF8F002C06904E000005D0000001D
S3150800EB700021F4E770B504460D46164620790028AC
S3150800EB8018BF01280AD1A0680078C00600D52DB1A3
S3150800EB90A07B002804BFE07C0B2801D1002070BDB3
S3150800EBA0DFF8B80200210180607D00280CBF08202C
S3150800EBB00020E17B11B90AF0C7FE06E040F0040028
S3150800EBC00AF0C2FE208A0AF0C8FEA07C0AF0BCFE43
S3150800EBD00B200AF0B9FEE07C0AF0B6FE28460AF0D9
S3150800EBE0B3FE2046FFF781FD3046BDE870406FE76B
S3150800EBF00022BFE738B51D46049C03460A46A1B263
S3150800EC002846FFF717F800B1012032BD38B54FF690
S3150800EC10FD735224D288950648BF4924550544BF3A
S3150800EC20083CE4B2150544BF083CE4B2120444BFEC
S3150800EC30A41EE4B238B102280BD006D3032804BFB9
S3150800EC40641EE4B209E00B4607E0C8B201F0E5FB32
S3150800EC5002E0C8B201F05BFF03461846FEF7F4FF70
S3150800EC60201AC0B232BD70B504460D00164602D150
S3150800EC700020207070BD28460AF0ACFE864288BF88
S3150800EC8006463246691C601CF2F71EFC267070BDEB
S3150800EC9070B504460D00164603D10020607020703A
S3150800ECA070BD28460AF09BFE864288BF0646324655
S3150800ECB0A91CA01CF2F708FC2670300A607070BD0B
S3150800ECC030B5002300E05B1C93420FDA541EE41AA9
S3150800ECD000280CBF0025255C645CAC4201DA0120E3
S3150800ECE030BDA542EFDA4FF0FF3030BD002030BD11
S3150800ECF000210FF2802201E0891CC9B28B5C834295
S3150800ED00FAD3881840787047A0F12801C9B20829B3
S3150800ED108041C00F7047FEF77DBFFEF77DBFF0B597
S3150800ED20544BB0FBF3F203FB12004FF46163B0FBE4
S3150800ED30F3F40C710C7963433C24C51AB5FBF4F55E
S3150800ED404D714D7904FB0533C01A88714FF4FA608A
S3150800ED50088001208870C870012600254FF4C87005
S3150800ED6064230FF2042401E000266D1C95422FD27D
S3150800ED708F7826B1022F08BF4FF01D0C03D007EB82
S3150800ED80040C1CF801CC91F803E0F44503BF7F1C82
S3150800ED908F7001270EF10107CF708F780D2FE4D100
S3150800EDA00E88771C0F8001268E7003263742DBD12A
S3150800EDB0BFB297FBF3F603FB16763EB997FBF0F660
S3150800EDC000FB1676761EB641F60FCEE70126CCE78F
S3150800EDD0F0BD10B588B0044605A9FFF7A0FF049456
S3150800EDE09DF81A0003909DF8190002909DF81800E6
S3150800EDF00190BDF8140000909DF817309DF8162074
S3150800EE000FF2081117480088F1F7B4FF08B010BDD3
S3150800EE10F8B5044615466A26022C13D2164FE05D4D
S3150800EE2078B9204601F07EFA060007D14FF6FD7044
S3150800EE30854203D02946204601F0B5FA0120E0555F
S3150800EE4000E076263046F2BDAE2F0020AA2F00201D
S3150800EE5084290020E01D0020802900208229002026
S3150800EE6090290020A82F00204C1B0020941F00206A
S3150800EE70001E002080510100AC2F002028556E6B23
S3150800EE806E6F776E20636C75732E205B3078253233
S3150800EE90785D290028257029000000000D0A5425F0
S3150800EEA034783A005258206C656E2025642C20650B
S3150800EEB0702025782C20636C75732030782532787D
S3150800EEC020000000206D666749642025327800001E
S3150800EED02046432025782073657120257820636DA8
S3150800EEE064202578207061796C6F61645B0000008E
S3150800EEF02570525820706B7420746F6F2073686F7A
S3150800EF00727421004552524F523A200055544320FC
S3150800EF1074696D653A2025642F25642F256420259C
S3150800EF20643A25643A2564202825347829000000A7
S3150800EF3000000000B8FC010801000000C0FC010840
S3150800EF4003000000D4FC010800040000E0FC0108EE
S3150800EF5002040000F8FC010800FE000010FD01088C
S3150800EF60FFFF0000000000001F1C1F1E1F1E1F1FA2
S3150800EF701E1F1E1F07021F012F0037013F005701E2
S3150800EF80DF02E700FF020000D95D01085DE6000820
S3150800EF9000000000024A50701170002090707047FF
S3150800EFA0C92F002080B506F0EFF908B9012002BD87
S3150800EFB0807A1049087006F0E7F90028F6D0C07A7A
S3150800EFC00D4908700A4800210170002002BD38B5B5
S3150800EFD01C46074B1D78002A1CBF022A042A00D1AA
S3150800EFE00325009513462246FEF713FE284632BD32
S3150800EFF0B62F0020BD2F00209C1C0020DFF8A80695
S3150800F0000021017080F8721080F8651080F8711080
S3150800F01080F87310FF2180F87410002180F87510AD
S3150800F02081677047612828BF572107D2412828BF22
S3150800F030372103D23A2834BF30210021401AC0B202
S3150800F0407047DFF86416401890F8661090F8650067
S3150800F050CFE1DFF85416401890F865004018401CB8
S3150800F06070472DE9F84F80460F460024DFF83C9696
S3150800F070DFF8346601E089F80000B8F1000F09D11D
S3150800F08000A9F8B2F2F707F970B1262818BF0120CF
S3150800F09079D101E0FFB217B92046BDE8F28F18F81A
S3150800F0A0010B8DF800007F1E99F800000D2804BF9B
S3150800F0B09DF800000A28DED09DF8000089F80000B7
S3150800F0C09DF800000D2805D101240025222807D126
S3150800F0D0012006E00A28F7D000242028F5D10125CA
S3150800F0E00020317831B1022923D019D304294ED012
S3150800F0F023D3C2E714B100F0D1F8BEE7002DBCD186
S3150800F10038B10220307096F87250642D57D1062017
S3150800F11039E09DF800007B2814BF01200320F1E7A1
S3150800F12055EA0400EFD096F871000B2839D1032070
S3150800F13029E00028F7D12CBBE5E796F874A0BAF1C8
S3150800F140FF0F14BF4FF0010B4FF0000B9DF80000A6
S3150800F1507D2803D1BBF1000F14D1E4E7FFF762FF66
S3150800F16010280DD2BBF1000F07D000EB0A108DF85E
S3150800F1700000FF2086F87400C5E786F874007CE76F
S3150800F180002DFCD1052086F8730004203070002C71
S3150800F19006D096F8730008B100F03AFAFFF72EFF8A
S3150800F1A06BE7401C86F87100C0B2801996F8721099
S3150800F1B080F8651000203070002CF1D09BE730787D
S3150800F1C0012805D19DF8000000F01AF88DF8000016
S3150800F1D0A8199DF80010417096F87200401C86F830
S3150800F1E072004AE782684068030008BF0A6003D0D5
S3150800F1F012786E2A02D108600120704700207047F5
S3150800F200A0F14101C9B21A293CBF2030C0B27047EB
S3150800F210DFF8941491F875201018C0B2401890F8C9
S3150800F22065004018407870472DE9F84F05460E46A8
S3150800F230002470B2FFF70DFF80463046FFF701FF46
S3150800F240824600260BE019F8010BFFF7D9FF834623
S3150800F25017F8010BFFF7D4FF834503D00C352F6849
S3150800F260B7B1C146A9EB080050450CBF01210021E2
S3150800F2703878421E924111EAD27F01D028460BE027
S3150800F28051EAD270DFD0002C0CBF2C460126E5E7E8
S3150800F290002E14BF00202046BDE8F28F2DE9F84362
S3150800F2A0DFF80C0400900024DFF8FC9399F871004D
S3150800F2B068B3DFF800040078C0071BD50026B6A798
S3150800F2C010E070B2FFF7C5FE05463046FFF7B9FEF7
S3150800F2D0024629460020F2F753F839462046F2F747
S3150800F2E03AF8761C99F87100F6B28642E9D3C7A1B6
S3150800F2F000F070F921460098FFF796FF009009F292
S3150800F300710640B90220B070B07800F081F9FFF7B5
S3150800F31075FEBDE8F183C9F87800641C3079401C95
S3150800F320307100A90098FFF75DFF28B199F87100C0
S3150800F330E4B28442DED352E00098806800783F2821
S3150800F3404FD00027B8460FE00720B07000988068B5
S3150800F350381840782A281CBF7F1CFFB2B0780028CE
S3150800F3603FD1641C08F10108009880683D5C99F853
S3150800F3707110E4B28C422CD25FFA88F0FFF748FF8E
S3150800F380290024D0B5F162011BD0113902D0891E9B
S3150800F3900229D9D8752D08BFFF2509D0762D08BFB3
S3150800F3A04FF6FF7504D0732D0CBF7F254FF0FF3540
S3150800F3B001215FFA88F000F01FF88542C6D20420C2
S3150800F3C0C3E7222818BF7B28C0D00520BDE7032045
S3150800F3D0BBE7002D1EBF381840782A2801D0032025
S3150800F3E091E7B07800288FD1009840680AF002FBB0
S3150800F3F08DE7081AC0B270472DE9F0478846DFF84E
S3150800F400A89299F875100818C0B200EB090191F88E
S3150800F410651049444E1CFFF714FE82460024A14895
S3150800F4200578002706E09CB9012F18BF022F0FD1D7
S3150800F43010257F1C574517DAB85DB8F1000F03D0C1
S3150800F440002F08BF2D28F4D0782818BF5828EAD0EE
S3150800F450FFF7E8FDA842B8BF05FB0404E9DB052071
S3150800F46089F87300002000E02046BDE8F0870021F7
S3150800F470C2E738B50446FFF7CBFE2D280CBF012599
S3150800F480002529462046FFF7B7FF0DB100B24042D6
S3150800F49000B232BD70B50C46834991F875100D1847
S3150800F4A0C6432CB1E8B2FFF7CCFDB0EBD67020709E
S3150800F4B068B2FFF7CEFD10EBD67070BDF8B50C46F6
S3150800F4C016461F4600A9FFF7E5FF05469DF800000A
S3150800F4D0864298BF30468DF80000002F1ABF9DF867
S3150800F4E00000361A0026F6B2324600212046F2F708
S3150800F4F02EF89DF8002029463019F1F7E5FF9DF80A
S3150800F5000000F2BDF8B504460D46AE682A685DA14E
S3150800F5100020F1F720FF5CA7686818B95BA1F1F72E
S3150800F5201AFF2CE01CB92AE000F054F8761C307853
S3150800F53010B3752808BF0FF28411F5D0762808BFD6
S3150800F5400FF28411F0D0772808BF0FF28811EBD09C
S3150800F550732808BF0FF28811E6D0622808BF0FF299
S3150800F5608C11E1D06E2808BF0FF28C11DCD02A2846
S3150800F5700CBF47A147A1D7E73946F1F7F4FE0020AB
S3150800F580F1F747FF39460020F1F7EDFE0020BDE808
S3150800F590F240F1F73EBF00002000000010B582B02F
S3150800F5A0044621460120FFF7ADFF00A92046FFF7D4
S3150800F5B019FE50B913BD38A100F00CF800990020C7
S3150800F5C0FFF7A0FF00980C3000900098006800280C
S3150800F5D0F1D113BD0020F1F7BEBE80B50FF22011A0
S3150800F5E0FFF7F8FF0020BDE80240F1F712BF10B59B
S3150800F5F02F4CFFF7F2FF04E021460020FFF782FFB9
S3150800F6000C3420680028F7D110BD00000D0A000050
S3150800F6102DE9F843284951F820200FF2241100203B
S3150800F620F1F799FE204CA06F002804BFBDE8F1430E
S3150800F630FFF7DDBFFFF7D1FF002518A60FF2600917
S3150800F64010E017F8082049460020F1F784FE7F1CD1
S3150800F6502846FFF7F6FCFFB28742F2D33146FFF79A
S3150800F660B9FF6D1CEDB294F87500401E854205DAA7
S3150800F67068B2FFF7EEFC80460027E9E7A06FBDE811
S3150800F680F2438BE725700000000000002E2E2E00A6
S3150800F690202A0000203F0000202000002000000053
S3150800F6A025630000581B0020DC1F0020B92F00200E
S3150800F6B00CEE0108BA2F00205C1B0020203C696E66
S3150800F6C07438753E00000000203C696E743136754A
S3150800F6D03E000000203C696E743332753E0000001F
S3150800F6E0203C696E7438733E00000000203C737439
S3150800F6F072696E673E000000202E2E2E0000000064
S3150800F70055736167653A0D0A3C696E743E3A203155
S3150800F7103233206F72203078314142430D0A3C73F0
S3150800F7207472696E673E3A2022666F6F22206F7286
S3150800F730207B30412031422032437D0D0A0D0A00DC
S3150800F74025700D0A0000000080B50020FEF783FA38
S3150800F7502B480021017004F0BBFD1CE080B5002099
S3150800F760FEF779FA27480021017006F0D5F812E06D
S3150800F77080B50120FEF774FA2348002101700120A4
S3150800F78007E080B50220FEF76BFA204800210170D9
S3150800F79002200AF0F8FBBDE80140FEF76ABA80B518
S3150800F7A00120F8F7F9FE0FF2F400F8F792FE18496F
S3150800F7B0087001BD80B505F04BFA012805D014483C
S3150800F7C00078BDE80240F8F770BE01BD70B50024A8
S3150800F7D0104D00E0641CE3B22E88B3420ED2E4B2A8
S3150800F7E00C2303FB045313F8046F864201BF5E889B
S3150800F7F08E421E799642EDD1184670BD002070BD26
S3150800F8006C1F0020741F00205C1F0020641F00204E
S3150800F810B42F0020301B002080B519B9F8F7B4FDC5
S3150800F820002002BD43F6FF73994203D289B2F8F766
S3150800F830B6FDF5E70A0A9A4203D291B2F8F7B6FD81
S3150800F840EEE74FF47042B1FBF2F1994203D289B266
S3150800F850F8F7BDFDE4E7022002BDF8B505461E46E9
S3150800F860069CFFF7B3FF07000AD02846FEF7E9FC17
S3150800F87030B13146B868FFF7CFFF08B97C71F2BDE1
S3150800F8800220F2BD80B5FFF7A1FF20B180680021F4
S3150800F8900170002002BD022002BD0000582B002086
S3150800F8A0CB4F01085C1F002071F70008641F002079
S3150800F8B083F700087029002041B40108EC290020CC
S3150800F8C029560108042A00207F8701086C1F00209A
S3150800F8D049F70008741F00205DF70008101C002077
S3150800F8E0EB5E0108001C0020995E0108081C002038
S3150800F8F0ED5D0108CC2000200F6A0008000000001A
S3150800F900000000002DE9FC4F89B005468846ADF891
S3150800F9100480002002900998C08806464FF0000926
S3150800F9200027149CDDF854A0BAF1000F0AD1F1069D
S3150800F93008D500949DF82830099A4146284607F0CC
S3150800F940AEF800E1710548BF4FF48059310548BF4C
S3150800F95049F40069B10548BF49F0800903D4F105A7
S3150800F96048BF49F04009C346072D65D8DFE805F0CA
S3150800F970052B163A3A04053A02279DF82800009006
S3150800F980029BBDF8042049F40271204602F014FDDA
S3150800F9908146B9F1FF0F51D11820D4E005A95FFAC5
S3150800F9A088F001F0B9F808220DF1190103A8F1F75A
S3150800F9B08BFD03A80290DFF80808006830F81B00E2
S3150800F9C0ADF80400D9E703A95FFA88F000F017FD3F
S3150800F9D003A802900C20DFF8EC17096800FB0B104F
S3150800F9E00088EDE7BDF804104FF6F872914223D36C
S3150800F9F04FF4026108421FD1DFF8CC070068C07ACD
S3150800FA00022818BF912018D1FF2C0ED000F00DFB4C
S3150800FA10032D0CBF01210021401ADFF8B017096831
S3150800FA20615C8842B8BF742007DB032D0CBF0C2726
S3150800FA30082729F4C079A0E7012084E0DFF89007B9
S3150800FA4040884FF6FF71884214D04846F9F774FB90
S3150800FA508346DFF87C0741880BF10400F7F78AFF35
S3150800FA60DFF86C0700788BF80700DFF864074FF6B5
S3150800FA70FF714180099A3946484602F054FE08B992
S3150800FA8018275CE0DFF840070068C07E48B1B0067A
S3150800FA9007D50123029A002148460AF08FFC070081
S3150800FAA04DD1FF2C15D04846F9F73BFBDFF8181760
S3150800FAB00968C97E01B11221DFF81027126874306F
S3150800FAC0A35C19F80220D21889188842B8BF74278F
S3150800FAD035DBB00407D54846F9F738FB40F48061B2
S3150800FAE04846F9F735FB062D12BF072D4846F9F7A4
S3150800FAF03CFBBAF1000F08D0BDF804104846F9F7E8
S3150800FB004EFB8AF8009000201DE0E81E022801D965
S3150800FB10001F07D14846F9F7CEFD00280CBFA127DC
S3150800FB2000270CE0B00444BF4FF6BF7006403346CA
S3150800FB305FFA88F22946484604F038FC07464846E4
S3150800FB40F7F7D7FC38460BB0BDE8F08FF0B587B0AD
S3150800FB5004460E46174618460C99F7F74DFD054616
S3150800FB60FF2D21D0FF208DF810008DF81100ADF87B
S3150800FB700E704CF20E00ADF80C00ADF812600020C5
S3150800FB80ADF8140002A801900095FF2303AA2146A8
S3150800FB900020FFF7B7FE04462846F7F7AAFC002C14
S3150800FBA00CBF9DF80800FF2007B0F0BD2DE9F04313
S3150800FBB085B004460D4616461F46A846F0880490AA
S3150800FBC0707903903079029070880190308800909F
S3150800FBD0434608220FF2306100F066F8DFF8E805C0
S3150800FBE00068C07A022818BF912019D1FF2F09D0C2
S3150800FBF000F01BFADFF8D4150968795C884238BF2B
S3150800FC0074200DD37CB94FF6F870854228D20020AF
S3150800FC1001900097FF23324629462046FFF772FED9
S3150800FC2005B0BDE8F0834FF6FE79022C0CD1DFF85B
S3150800FC30A4050078854213D2DFF88405006830F8F9
S3150800FC4018004845E3D30BE0012C09D1DFF88805F5
S3150800FC500078854204D2E8B200F0DFFB4845D6D3E7
S3150800FC600120DDE7F0B587B004460D4616461F4667
S3150800FC700596E88804906879039028790290688840
S3150800FC80019028880090234609220FF2845100F03B
S3150800FC900BF800200190009733462A462146042097
S3150800FCA0FFF730FE07B0F0BD0320F5F706B970B5CB
S3150800FCB088B004460D461E4606920595E0880490CF
S3150800FCC060790390207902906088019020880090DE
S3150800FCD0238906220FF24451FFF7E6FFDFF8FC04FA
S3150800FCE00078002814BF4FF6FF714FF6FD7100200B
S3150800FCF0019000962B4622460320FFF703FE08B024
S3150800FD0070BD10B5DFF8D804F7F7A3FE0446FF2C3C
S3150800FD100DD02146042003F0B2FD18B1012120467A
S3150800FD2000F006F82046BDE81040F7F7E2BB10BD24
S3150800FD302DE9FE4F82460D46F9F7FEF90646B01C38
S3150800FD40F7F712FE8346504602F0D8FB01465046A6
S3150800FD50F7F762FD804608F003095046F9F700FAFE
S3150800FD60F6F78FFADFF87C44301DF7F7FDFD2080A3
S3150800FD70DFF87474FBF756FD834512D04FF6F8701A
S3150800FD8083450ED27078C0070BD4584601F02FFC75
S3150800FD90002869D0012352465946208800F08BF97D
S3150800FDA062E000A9504602F038FC00A838603046E8
S3150800FDB002F0C3FBDFF83414086003215046F9F754
S3150800FDC0AAF9DFF82C14087004215046F9F7A3F9AC
S3150800FDD0DFF8201408704DB39DF80600800625D577
S3150800FDE0DFF8E453FBF71EFD40B12868007D800765
S3150800FDF004D4B9F1010F08BF102000D0002040F04C
S3150800FE0008030022002150460AF0D8FA70B108F01B
S3150800FE100300012802BF2868C07A112839D107F0E3
S3150800FE20DAF9B0BBAF20FBF7A1FD32E018F003000A
S3150800FE3003D0022805D009D316E0504600F02DF865
S3150800FE4012E05146404604F0E0FA0DE0FBF7EAFC02
S3150800FE502188814208D05146052003F010FD18B1CB
S3150800FE602188504602F093FDFBF7DCFC218881428D
S3150800FE700DD1504602F042FB01465046F7F7CCFC3E
S3150800FE800C21084203D10021504604F0D8FC00207A
S3150800FE903860F6F7F7F9BDE8F78F2DE9F84F804691
S3150800FEA0F9F74AF9054695F801B0A81CF7F75CFD7D
S3150800FEB04FF6F8718842B641F643F60FFBF7B2FCE7
S3150800FEC0DFF82093B9F8001081420CBF0124002402
S3150800FED0DFF814733868B0F802A00BF0010050EA96
S3150800FEE0060B14BF062008200021F6F734FA3868F6
S3150800FEF00188002904BF407900282DD1B9F80000EF
S3150800FF00BAF5004F04DB5246414607F094FB23E05E
S3150800FF10DFF8E41202220A7033460022414607F04F
S3150800FF2001FA38688079400603D5FF21504600F06B
S3150800FF3085F8BAF1130F0FD03868C08840040BD47F
S3150800FF40AD480078AD490978CA0701D5022803D01B
S3150800FF5089075CD501285AD1386800884CF20E0109
S3150800FF6088421AD144F20106B24518BFBAF5804F45
S3150800FF7010D1404602F045FB0146B2450CBF0120B0
S3150800FF800020491EC9B200912B4642460121FCF7C2
S3150800FF9055F83CE0404607F029FF3868817901F0BA
S3150800FFA00C010C290DD1008900F070FB78B3002CE8
S3150800FFB014BF0325022538680189002000F01DFEBC
S3150800FFC014E001790091437900220021B9F8000074
S3150800FFD000F040FE3968897901F00C01082904D13E
S3150800FFE0002C0CBF0425052500E00025844908706F
S3150800FFF0BBF1000F02D1BAF1380F01D1012200E09E
S31508010000002229464046BDE8F84F00F00DB9BDE883
S31508010010F18F10B5044600F008F8610548BF0838A5
S31508010020210548BF0838C0B210BD5620664909687F
S31508010030C97E01B144200E30C0B2704770B586B092
S3150801004005460C46684E0C22316802A8F1F73CFABF
S31508010050306801798DF80D1041798DF80C10ADF8DD
S315080100600A50C0884FF6BF710840ADF80E0000204F
S3150801007001900094FF2302AA5A4801880520FFF738
S3150801008041FC06B070BD5F48007808B9FF2070478B
S315080100905B480078704780B50A460C21084208D1AA
S315080100A09079400605D5FF215088FFF7C7FF012043
S315080100B002BD002002BD2DE9F34F85B090461D46CD
S315080100C0404602F01BFA01464046F7F7A5FB834670
S315080100D003201BEA000F6ED1434F38680490414C48
S315080100E02088ADF80C004FF0000900A9404602F03F
S315080100F094FA00A83860BDF8140020809DF8050020
S31508010100002804BFBDF80000002837D14046F9F79A
S3150801011013F8801CF7F728FC4FF6F87188426AEB4A
S315080101200A0A6FEA0A004FEAD07A002D14BF02259F
S3150801013001250126F6B2B54236D353463246414623
S31508010140BDF8140007F0EEF88146B9F1010F04BFB6
S31508010150022D012E10D11E48BDF8181041801A48EB
S315080101600068417E491C4176A1F180001849087052
S3150801017000A95846FFF78FFF761CDBE7BDF800009C
S315080101804CF20E01884204BFBDF8020001280BD1CA
S3150801019045B14146BDF8180007F02AFE00A95846A0
S315080101A0FFF779FF4FF0010904983860BDF80C0094
S315080101B02080484600E0002007B0BDE8F08F000027
S315080101C07C1C0020881C0020802C0020301C00206C
S315080101D0421E0020781C0020841C0020C12F00200C
S315080101E0C41E00208A2C00208C2C0020902C002074
S315080101F0DA2F0020DB2F0020D62F0020BE2F00206B
S31508010200D22F0020882C00204257575742425700C8
S315080102104257575742425742000000004257574239
S315080102204242574242000000F0B589B006460D46E3
S315080102301746314CA16829B1082206A8F1F744F9F5
S3150801024006A8A06037B9FBF7EDFA6188814218BFA5
S31508010250012700D10027304602F0D3F905AB3A460B
S315080102600146304602F01AF8A0BB6068C1880491BD
S3150801027041790391017902914188019100880090A1
S315080102802B4611220FF27C010320F4F716FE0120FA
S315080102902070F5F7F1FF9DF8142061682846F8F7F4
S315080102A04AFDF5F7EFFF9DF81400FF2818BFF7F789
S315080102B020F96DB96068C18848F2400211404029A9
S315080102C006D12178490703D4FF214088FFF7B6FEF6
S315080102D00020207009B0F0BD084900E008490978F6
S315080102E00170002070470448017811B94FF6FF7074
S315080102F07047408870470000882C0020DA2F0020BC
S31508010300DB2F00204242575742425700DFF8C40309
S3150801031000780C2101FB00F2FF21DFF8BC0300681D
S31508010320F1F715B970B505460C46DFF8A80300784C
S31508010330854201D36A2070BD284604F029FC08B11C
S31508010340762070BD2046FBF721FA4FF6FF718842E9
S3150801035008BF4FF6FD700C214D43DFF87C63316809
S315080103606852204600F060F900B101203168691829
S315080103708872F5F782FF042804D32B210FF27C300B
S31508010380F2F768F9F5F779FF316869188A7A42EA66
S31508010390400088720822214630682818801CF1F727
S315080103A093F8002070BDCB4A1278904200D370476B
S315080103B038B50C2202FB00F4C74D2A68A1524FF644
S315080103C0FF72914208BF04F0E5FBF5F756FFC349F2
S315080103D00978884204D345210FF22030F2F73AF919
S315080103E028682018817A01F0F1018172F5F745FF35
S315080103F0296861188A7A42EA4000887231BD10B5C7
S315080104000B4608220C21B44C246801FB0040811CD0
S315080104101846BDE81040F1F757B80C21AE4A1268E4
S3150801042001FB002000887047F8B507460C46A94D20
S31508010430A94E00E00C3728780C21326801FB002010
S31508010440874214D238884FF6FF718842F2D00822C3
S315080104502146B81CF1F782F80028EBD1F5F70DFF14
S31508010460B97AC1F342018142E4D13846F2BD00208E
S31508010470F2BDF8B5044600F0BBFA002596480768B0
S31508010480944E0EE03888A04209D1F5F7F6FEB97AFE
S31508010490C1F34201814204BF4FF6FD7038806D1CDD
S315080104A00C373078EDB28542ECD3F1BD70B5044610
S315080104B00D462846FFF7DDFF2946204600F0BBFA20
S315080104C021468548006805E0358003F05EFF214630
S315080104D006F10C00FFF7A8FF0600F5D170BD7FB540
S315080104E0044608227E49F1F739F810B9FBF79AF95B
S315080104F034E07C4D08222868811C2046F1F72EF845
S3150801050010B92868008829E04FF6FF750020009089
S31508010510002301222146284600F09CFB4FF6FC7673
S31508010520FF2805D07049096831F81000B04215D383
S3150801053001A802F0ECF950B9BDF80400400606D549
S31508010540082221460DF10600F1F708F830B100F04E
S3150801055085F810B10088B04200D3284604B070BDB2
S315080105602DE9FF4104468846FBF75CF9844202D12E
S3150801057008225B493EE05B4E306801888C4209D10E
S3150801058000220821801CF7F752FC18B908223068A6
S31508010590811C2FE0002000900023012201462046FD
S315080105A000F058FBFF280AD000A900F0B5FA30B9C7
S315080105B008220DF105014046F0F786FF1DE00026E9
S315080105C045480568434F01E0761C0C353878F6B284
S315080105D0864214D228884FF6FC718842F4D2A0428A
S315080105E0F2D1F5F74AFEA97AC1F342018142EBD16C
S315080105F00822A91C4046F0F767FF012000E0002009
S3150801060004B0BDE8F08110B50446002000F0E4FF0F
S31508010610FF2806D03549096811F8100000F00400D2
S3150801062010BD04F0010010BD38B50446002500F0E0
S3150801063015F808B1857A0CE00090002301222146BD
S315080106404FF6FF7000F006FBFF2802D0284909681B
S31508010650455C21462846BDE83440D4E721461E4874
S315080106600068E1E638B504460D0018BF012529469C
S3150801067000F024FA21461848006802E085722146EE
S315080106800C30FFF7D1FE0028F8D131BD2DE9F04134
S3150801069080464146002000F0B0FAFF2815D1002512
S315080106A014480668144F01E06D1C361D3878EDB202
S315080106B085420CD230884045F6D1F478F5F7DDFD50
S315080106C08442F1D1B0780028EED0012000E0002064
S315080106D0BDE8F081841C0020881C0020681C0020CD
S315080106E0A02C0020802C00207C1C00204C1C002003
S315080106F0801C00205C1C0020601C00206164647260
S315080107006573732D7461626C652E63002DE9F04F74
S3150801071083B082460C4615469B469C480068FF2DC9
S315080107200EBF0027295C4F08BBF1FF0F0EBF4FF024
S3150801073000081BF800004FEA500809F06DFE8DF815
S3150801074000008DF801A04FEA1A208DF802008DF8F5
S315080107500340200A8DF804008DF80570062100A8CB
S31508010760F6F74AFF8146B9F1FF0F08D008EB0700F3
S315080107704000C11DC9B24846F7F70AF808B1182062
S3150801078046E0002413E06100C9B22846F7F744F8A9
S3150801079066000246B11D00F03DF8711CC9B2284633
S315080107A0F7F73AF80246F11D00F034F8641CBC422A
S315080107B0E9DB7800851DEDB2424629464846F7F73A
S315080107C030F86D1CEDB2002714E07C00E1B2584602
S315080107D0F7F722F802467E00A91900F01BF8711CEA
S315080107E0C9B25846F7F718F802466019411C00F0D5
S315080107F011F87F1C4745E8DB4B46BDF8302006213A
S31508010800504600F09FF804464846F6F772FE204621
S31508010810BDE8FE8FC9B24846F7F703B82DE9F0419E
S3150801082088B00446884601A9F8F715FA08B9A3203D
S315080108305DE009F0F1FD8DF80C00FAF7F3FF8DF88C
S315080108400D00FAF7EFFF000A8DF80E00082250494D
S315080108500DF10F00F0F738FE8DF81740BDF80400CA
S315080108608DF81800000A8DF819009DF809008DF811
S315080108701A000F2103A8F6F7BFFE0646FF2E08BF8A
S31508010880182034D000270AE03A4600212046F8F716
S3150801089006FA00F02FF8281200F02DF87F1C9DF8B3
S315080108A00900FFB28742EFD301220DF10A01304652
S315080108B0F6F72CFF00270AE03A4601212046F8F709
S315080108C0EEF900F017F8281200F015F87F1C9DF8CC
S315080108D00A00FFB28742EFD3334642462021002061
S315080108E000F030F804463046F6F703FE204608B015
S315080108F0BDE8F08105468DF80000012200A93046C1
S31508010900F6F704BF2DE9F04105460E4690461F4607
S31508010910069C09F081FD387021463846F6F76CFECB
S315080109200446FF2C08BF18200AD023464246314602
S31508010930284600F007F805462046F6F7DAFD284668
S31508010940BDE8F08110B584B00024ADF80440ADF8D7
S315080109500210ADF80040ADF806204FF6FC7188424A
S315080109601FBF4FF6FD7188424FF6FF71884205D1C8
S3150801097008490A7800A9FFF775F904E000AA0146B3
S315080109800020FFF713F904B010BD0000301C002049
S31508010990A02C0020011E00201FB50C460D2302467F
S315080109A0132100A8F2F7B7FC0D2200A92046F0F79B
S315080109B08BFD207840096073207800F01F002070B5
S315080109C01FBD30B585B004460D460D2200A8F0F7C7
