###############################################################################
#                                                                             #
# IAR ANSI C/C++ Compiler V6.40.1.53790/W32 for ARM     24/Sep/2014  08:21:51 #
# Copyright 1999-2012 IAR Systems AB.                                         #
#                                                                             #
#    Cpu mode     =  thumb                                                    #
#    Endian       =  little                                                   #
#    Source file  =  C:\Ember\EmberZNet5.1.2-GA\EM35x\app\framework\plugin\en #
#                    d-device-support\polling-soc.c                           #
#    Command line =  C:\Ember\EmberZNet5.1.2-GA\EM35x\app\framework\plugin\en #
#                    d-device-support\polling-soc.c -D DEBUG -D               #
#                    "GENERATED_TOKEN_HEADER=\"app/builder/darUNBsensorTmpAcc #
#                    eILLumUNB/darUNBsensorTmpAcceILLumUNB_tokens.h\"" -D     #
#                    "ZA_GENERATED_HEADER=\"app/builder/darUNBsensorTmpAcceIL #
#                    LumUNB/darUNBsensorTmpAcceILLumUNB.h\"" -D NULL_BTL -D   #
#                    "BOARD_HEADER=\"hal/micro/cortexm3/em35x/board/eznode.h\ #
#                    "" -D "PLATFORM_HEADER=\"hal/micro/cortexm3/compiler/iar #
#                    .h\"" -D CORTEXM3 -D CORTEXM3_EM357 -D PHY_EM3XX -D      #
#                    "APPLICATION_TOKEN_HEADER=\"app/framework/util/tokens.h\ #
#                    "" -D "CONFIGURATION_HEADER=\"app/framework/util/config. #
#                    h\"" -D "ATTRIBUTE_STORAGE_CONFIGURATION=\"app/builder/d #
#                    arUNBsensorTmpAcceILLumUNB/darUNBsensorTmpAcceILLumUNB_e #
#                    ndpoint_config.h\"" -D "__SOURCEFILE__=\"polling-soc.c\" #
#                    " -lC C:\Ember\EmberZNet5.1.2-GA\EM35x\build\darUNBsenso #
#                    rTmpAcceILLumUNB\ --diag_suppress Pa050 -o               #
#                    C:\Ember\EmberZNet5.1.2-GA\EM35x\build\darUNBsensorTmpAc #
#                    ceILLumUNB\ --debug --endian=little --cpu=Cortex-M3 -e   #
#                    --fpu=None --dlib_config "C:\Program Files (x86)\IAR     #
#                    Systems\Embedded Workbench 6.4\arm\INC\c\DLib_Config_Nor #
#                    mal.h" -I C:\Ember\EmberZNet5.1.2-GA\EM35x\app\framework #
#                    \plugin\end-device-support\ -I                           #
#                    C:\Ember\EmberZNet5.1.2-GA\EM35x\app\builder\darUNBsenso #
#                    rTmpAcceILLumUNB\ -I C:\Ember\EmberZNet5.1.2-GA\EM35x\ap #
#                    p\builder\darUNBsensorTmpAcceILLumUNB\..\..\..\ -I       #
#                    C:\Ember\EmberZNet5.1.2-GA\EM35x\app\builder\darUNBsenso #
#                    rTmpAcceILLumUNB\..\..\..\app\framework\include\ -I      #
#                    C:\Ember\EmberZNet5.1.2-GA\EM35x\app\builder\darUNBsenso #
#                    rTmpAcceILLumUNB\..\..\..\ -I                            #
#                    C:\Ember\EmberZNet5.1.2-GA\EM35x\app\builder\darUNBsenso #
#                    rTmpAcceILLumUNB\..\..\..\stack\ -I                      #
#                    C:\Ember\EmberZNet5.1.2-GA\EM35x\app\builder\darUNBsenso #
#                    rTmpAcceILLumUNB\..\..\..\hal\ -I                        #
#                    C:\Ember\EmberZNet5.1.2-GA\EM35x\app\builder\darUNBsenso #
#                    rTmpAcceILLumUNB\..\..\..\hal\..\ -Ohz --use_c++_inline  #
#    List file    =  C:\Ember\EmberZNet5.1.2-GA\EM35x\build\darUNBsensorTmpAc #
#                    ceILLumUNB\polling-soc.lst                               #
#    Object file  =  C:\Ember\EmberZNet5.1.2-GA\EM35x\build\darUNBsensorTmpAc #
#                    ceILLumUNB\polling-soc.o                                 #
#                                                                             #
#                                                                             #
###############################################################################

C:\Ember\EmberZNet5.1.2-GA\EM35x\app\framework\plugin\end-device-support\polling-soc.c
      1          // Copyright 2013 Silicon Laboratories Inc.
      2          
      3          #include "app/framework/include/af.h"
      4          #include "app/framework/plugin/end-device-support/end-device-support.h"
      5          
      6          // *****************************************************************************
      7          // Globals
      8          
      9          extern EmberEventControl emberAfPluginEndDeviceSupportPollingNetworkEventControls[];
     10          
     11          // *****************************************************************************
     12          // Functions
     13          
     14          // This is called to scheduling polling events for the network(s).  We only
     15          // care about end device networks.  For each of those, a polling event will be
     16          // scheduled for joined networks or canceled otherwise.

   \                                 In section .text, align 2, keep-with-next
     17          void emberAfSchedulePollEventCallback(void)
     18          {
   \                     emberAfSchedulePollEventCallback:
   \   00000000   0xB570             PUSH     {R4-R6,LR}
     19            int8u i;
     20            for (i = 0; i < EMBER_SUPPORTED_NETWORKS; i++) {
   \   00000002   0x....             LDR.N    R4,??DataTable1
   \   00000004   0x....             LDR.N    R5,??DataTable1_1
     21              if (EMBER_END_DEVICE <= emAfNetworks[i].nodeType) {
   \   00000006   0x....             LDR.N    R0,??DataTable1_2
   \   00000008   0x7800             LDRB     R0,[R0, #+0]
   \   0000000A   0x2803             CMP      R0,#+3
   \   0000000C   0xD31D             BCC.N    ??emberAfSchedulePollEventCallback_0
     22                emberAfPushNetworkIndex(i);
   \   0000000E   0x2000             MOVS     R0,#+0
   \   00000010   0x.... 0x....      BL       emberAfPushNetworkIndex
     23                if (emberNetworkState() == EMBER_JOINED_NETWORK) {
   \   00000014   0x.... 0x....      BL       emberNetworkState
   \   00000018   0x2802             CMP      R0,#+2
   \   0000001A   0xD10F             BNE.N    ??emberAfSchedulePollEventCallback_1
     24                  EmAfPollingState *state = &emAfPollingStates[i];
     25                  int32u lastPollIntervalTimeQS = state->pollIntervalTimeQS;
   \   0000001C   0x682E             LDR      R6,[R5, #+0]
     26                  state->pollIntervalTimeQS = emberAfGetCurrentPollIntervalQsCallback();
   \   0000001E   0x.... 0x....      BL       emberAfGetCurrentPollIntervalQsCallback
   \   00000022   0x6028             STR      R0,[R5, #+0]
     27                  if (state->pollIntervalTimeQS != lastPollIntervalTimeQS
     28                      || !emberAfNetworkEventControlGetActive(emberAfPluginEndDeviceSupportPollingNetworkEventControls)) {
   \   00000024   0x42B0             CMP      R0,R6
   \   00000026   0xD103             BNE.N    ??emberAfSchedulePollEventCallback_2
   \   00000028   0x4620             MOV      R0,R4
   \   0000002A   0x.... 0x....      BL       emberAfNetworkEventControlGetActive
   \   0000002E   0xB940             CBNZ.N   R0,??emberAfSchedulePollEventCallback_3
     29                    emberAfDebugPrintln("Next poll nwk %d in %l ms",
     30                                        i,
     31                                        (state->pollIntervalTimeQS
     32                                         * MILLISECOND_TICKS_PER_QUARTERSECOND));
     33                    emberAfNetworkEventControlSetDelay(emberAfPluginEndDeviceSupportPollingNetworkEventControls,
     34                                                       (state->pollIntervalTimeQS
     35                                                        * MILLISECOND_TICKS_PER_QUARTERSECOND));
   \                     ??emberAfSchedulePollEventCallback_2:
   \   00000030   0x6828             LDR      R0,[R5, #+0]
   \   00000032   0x0201             LSLS     R1,R0,#+8
   \   00000034   0x4620             MOV      R0,R4
   \   00000036   0x.... 0x....      BL       emberAfNetworkEventControlSetDelay
   \   0000003A   0xE002             B.N      ??emberAfSchedulePollEventCallback_3
     36                  }
     37                } else {
     38                  emberAfNetworkEventControlSetInactive(emberAfPluginEndDeviceSupportPollingNetworkEventControls);
   \                     ??emberAfSchedulePollEventCallback_1:
   \   0000003C   0x4620             MOV      R0,R4
   \   0000003E   0x.... 0x....      BL       emberAfNetworkEventControlSetInactive
     39                }
     40                emberAfPopNetworkIndex();
   \                     ??emberAfSchedulePollEventCallback_3:
   \   00000042   0xE8BD 0x4070      POP      {R4-R6,LR}
   \   00000046   0x.... 0x....      B.W      emberAfPopNetworkIndex
     41              }
     42            }
     43          }
   \                     ??emberAfSchedulePollEventCallback_0:
   \   0000004A   0xBD70             POP      {R4-R6,PC}       ;; return
     44          
     45          // Whenever the polling event fires for a network, a MAC data poll is sent.

   \                                 In section .text, align 2, keep-with-next
     46          void emberAfPluginEndDeviceSupportPollingNetworkEventHandler(void)
     47          {
   \                     emberAfPluginEndDeviceSupportPollingNetworkEventHandler:
   \   00000000   0xB510             PUSH     {R4,LR}
     48            EmberNetworkStatus state = emberNetworkState();
     49            if (state == EMBER_JOINED_NETWORK) {
   \   00000002   0x.... 0x....      BL       emberNetworkState
   \   00000006   0x2802             CMP      R0,#+2
   \   00000008   0xD10E             BNE.N    ??emberAfPluginEndDeviceSupportPollingNetworkEv_0
     50              EmberStatus status = emberPollForData();
   \   0000000A   0x.... 0x....      BL       emberPollForData
   \   0000000E   0x0004             MOVS     R4,R0
     51              if (status != EMBER_SUCCESS) {
   \   00000010   0xD00A             BEQ.N    ??emberAfPluginEndDeviceSupportPollingNetworkEv_0
     52                emberAfCorePrintln("poll nwk %d: 0x%x", emberGetCurrentNetwork(), status);
   \   00000012   0x.... 0x....      BL       emberGetCurrentNetwork
   \   00000016   0x4623             MOV      R3,R4
   \   00000018   0x4602             MOV      R2,R0
   \   0000001A   0x.... 0x....      ADR.W    R1,`?<Constant "poll nwk %d: 0x%x">`
   \   0000001E   0x2001             MOVS     R0,#+1
   \   00000020   0xE8BD 0x4010      POP      {R4,LR}
   \   00000024   0x.... 0x....      B.W      emberAfPrintln
     53              }
     54            }
     55          }
   \                     ??emberAfPluginEndDeviceSupportPollingNetworkEv_0:
   \   00000028   0xBD10             POP      {R4,PC}          ;; return
     56          
     57          // This function is called when a poll completes and explains what happend with
     58          // the poll.  If the number of sequential data polls not ACKed by the parent
     59          // exceeds the threshold, we will try to find a new parent.

   \                                 In section .text, align 2, keep-with-next
     60          void emberPollCompleteHandler(EmberStatus status)
     61          {
     62            emAfPollCompleteHandler(status,
     63                                    EMBER_AF_PLUGIN_END_DEVICE_SUPPORT_MAX_MISSED_POLLS);
   \                     emberPollCompleteHandler:
   \   00000000   0x210A             MOVS     R1,#+10
   \   00000002   0x.... 0x....      B.W      emAfPollCompleteHandler
     64          }

   \                                 In section .text, align 4, keep-with-next
   \                     ??DataTable1:
   \   00000000   0x........         DC32     emberAfPluginEndDeviceSupportPollingNetworkEventControls

   \                                 In section .text, align 4, keep-with-next
   \                     ??DataTable1_1:
   \   00000000   0x........         DC32     emAfPollingStates

   \                                 In section .text, align 4, keep-with-next
   \                     ??DataTable1_2:
   \   00000000   0x........         DC32     emAfNetworks

   \                                 In section .text, align 4, keep-with-next
   \                     `?<Constant "poll nwk %d: 0x%x">`:
   \   00000000   0x70 0x6F          DC8 "poll nwk %d: 0x%x"
   \              0x6C 0x6C    
   \              0x20 0x6E    
   \              0x77 0x6B    
   \              0x20 0x25    
   \              0x64 0x3A    
   \              0x20 0x30    
   \              0x78 0x25    
   \              0x78 0x00    
   \   00000012   0x00 0x00          DC8 0, 0

   Maximum stack usage in bytes:

   .cstack Function
   ------- --------
        8  emberAfPluginEndDeviceSupportPollingNetworkEventHandler
              0 -> emberAfPrintln
              8 -> emberGetCurrentNetwork
              8 -> emberNetworkState
              8 -> emberPollForData
       16  emberAfSchedulePollEventCallback
             16 -> emberAfGetCurrentPollIntervalQsCallback
             16 -> emberAfNetworkEventControlGetActive
             16 -> emberAfNetworkEventControlSetDelay
             16 -> emberAfNetworkEventControlSetInactive
              0 -> emberAfPopNetworkIndex
             16 -> emberAfPushNetworkIndex
             16 -> emberNetworkState
        0  emberPollCompleteHandler
              0 -> emAfPollCompleteHandler


   Section sizes:

   Bytes  Function/Label
   -----  --------------
      20  ?<Constant "poll nwk %d: 0x%x">
       4  ??DataTable1
       4  ??DataTable1_1
       4  ??DataTable1_2
      42  emberAfPluginEndDeviceSupportPollingNetworkEventHandler
      76  emberAfSchedulePollEventCallback
       6  emberPollCompleteHandler

 
 156 bytes in section .text
 
 156 bytes of CODE memory

Errors: none
Warnings: none
