###############################################################################
#                                                                             #
# IAR ANSI C/C++ Compiler V6.40.1.53790/W32 for ARM     24/Sep/2014  08:23:12 #
# Copyright 1999-2012 IAR Systems AB.                                         #
#                                                                             #
#    Cpu mode     =  thumb                                                    #
#    Endian       =  little                                                   #
#    Source file  =  C:\Ember\EmberZNet5.1.2-GA\EM35x\app\framework\plugin\en #
#                    d-device-support\polling-common.c                        #
#    Command line =  C:\Ember\EmberZNet5.1.2-GA\EM35x\app\framework\plugin\en #
#                    d-device-support\polling-common.c -D DEBUG -D            #
#                    "GENERATED_TOKEN_HEADER=\"app/builder/darUNBsensorTmpAcc #
#                    eILLumUNB/darUNBsensorTmpAcceILLumUNB_tokens.h\"" -D     #
#                    "ZA_GENERATED_HEADER=\"app/builder/darUNBsensorTmpAcceIL #
#                    LumUNB/darUNBsensorTmpAcceILLumUNB.h\"" -D NULL_BTL -D   #
#                    "BOARD_HEADER=\"hal/micro/cortexm3/em35x/board/eznode.h\ #
#                    "" -D "PLATFORM_HEADER=\"hal/micro/cortexm3/compiler/iar #
#                    .h\"" -D CORTEXM3 -D CORTEXM3_EM357 -D PHY_EM3XX -D      #
#                    "APPLICATION_TOKEN_HEADER=\"app/framework/util/tokens.h\ #
#                    "" -D "CONFIGURATION_HEADER=\"app/framework/util/config. #
#                    h\"" -D "ATTRIBUTE_STORAGE_CONFIGURATION=\"app/builder/d #
#                    arUNBsensorTmpAcceILLumUNB/darUNBsensorTmpAcceILLumUNB_e #
#                    ndpoint_config.h\"" -D "__SOURCEFILE__=\"polling-common. #
#                    c\"" -lC C:\Ember\EmberZNet5.1.2-GA\EM35x\build\darUNBse #
#                    nsorTmpAcceILLumUNB\ --diag_suppress Pa050 -o            #
#                    C:\Ember\EmberZNet5.1.2-GA\EM35x\build\darUNBsensorTmpAc #
#                    ceILLumUNB\ --debug --endian=little --cpu=Cortex-M3 -e   #
#                    --fpu=None --dlib_config "C:\Program Files (x86)\IAR     #
#                    Systems\Embedded Workbench 6.4\arm\INC\c\DLib_Config_Nor #
#                    mal.h" -I C:\Ember\EmberZNet5.1.2-GA\EM35x\app\framework #
#                    \plugin\end-device-support\ -I                           #
#                    C:\Ember\EmberZNet5.1.2-GA\EM35x\app\builder\darUNBsenso #
#                    rTmpAcceILLumUNB\ -I C:\Ember\EmberZNet5.1.2-GA\EM35x\ap #
#                    p\builder\darUNBsensorTmpAcceILLumUNB\..\..\..\ -I       #
#                    C:\Ember\EmberZNet5.1.2-GA\EM35x\app\builder\darUNBsenso #
#                    rTmpAcceILLumUNB\..\..\..\app\framework\include\ -I      #
#                    C:\Ember\EmberZNet5.1.2-GA\EM35x\app\builder\darUNBsenso #
#                    rTmpAcceILLumUNB\..\..\..\ -I                            #
#                    C:\Ember\EmberZNet5.1.2-GA\EM35x\app\builder\darUNBsenso #
#                    rTmpAcceILLumUNB\..\..\..\stack\ -I                      #
#                    C:\Ember\EmberZNet5.1.2-GA\EM35x\app\builder\darUNBsenso #
#                    rTmpAcceILLumUNB\..\..\..\hal\ -I                        #
#                    C:\Ember\EmberZNet5.1.2-GA\EM35x\app\builder\darUNBsenso #
#                    rTmpAcceILLumUNB\..\..\..\hal\..\ -Ohz --use_c++_inline  #
#    List file    =  C:\Ember\EmberZNet5.1.2-GA\EM35x\build\darUNBsensorTmpAc #
#                    ceILLumUNB\polling-common.lst                            #
#    Object file  =  C:\Ember\EmberZNet5.1.2-GA\EM35x\build\darUNBsensorTmpAc #
#                    ceILLumUNB\polling-common.o                              #
#                                                                             #
#                                                                             #
###############################################################################

C:\Ember\EmberZNet5.1.2-GA\EM35x\app\framework\plugin\end-device-support\polling-common.c
      1          // Copyright 2013 Silicon Laboratories Inc.
      2          
      3          #include "app/framework/include/af.h"
      4          #include "app/framework/plugin/end-device-support/end-device-support.h"
      5          #include "end-device-support-callback.h"
      6          
      7          // The polling task is not used on the host.
      8          #ifdef EZSP_HOST
      9            #define ADD_POLLING_TASK()
     10            #define REMOVE_POLLING_TASK()
     11          #else
     12            #define ADD_POLLING_TASK()    emberAfAddToCurrentAppTasks(EMBER_AF_LAST_POLL_GOT_DATA)
     13            #define REMOVE_POLLING_TASK() emberAfRemoveFromCurrentAppTasks(EMBER_AF_LAST_POLL_GOT_DATA)
     14          #endif
     15          

   \                                 In section .bss, align 4
     16          EmAfPollingState emAfPollingStates[EMBER_SUPPORTED_NETWORKS];
   \                     emAfPollingStates:
   \   00000000                      DS8 8
     17          
     18          // This function is called when a poll completes and explains what happend with
     19          // the poll.  If the number of sequential data polls not ACKed by the parent
     20          // exceeds the threshold, we will try to find a new parent.

   \                                 In section .text, align 4, keep-with-next
     21          void emAfPollCompleteHandler(EmberStatus status, int8u limit)
     22          {
   \                     emAfPollCompleteHandler:
   \   00000000   0xB570             PUSH     {R4-R6,LR}
   \   00000002   0x4605             MOV      R5,R0
   \   00000004   0x460E             MOV      R6,R1
     23            EmAfPollingState *state;
     24            int8u networkIndex;
     25          
     26            emberAfPushCallbackNetworkIndex();
   \   00000006   0x.... 0x....      BL       emberAfPushCallbackNetworkIndex
     27            networkIndex = emberGetCurrentNetwork();
     28            state = &emAfPollingStates[networkIndex];
   \   0000000A   0x.... 0x....      BL       emberGetCurrentNetwork
   \   0000000E   0x4916             LDR.N    R1,??emAfPollCompleteHandler_0
   \   00000010   0xEB01 0x04C0      ADD      R4,R1,R0, LSL #+3
     29          
     30            if (emAfEnablePollCompletedCallback) {
   \   00000014   0x4815             LDR.N    R0,??emAfPollCompleteHandler_0+0x4
   \   00000016   0x7800             LDRB     R0,[R0, #+0]
   \   00000018   0xB110             CBZ.N    R0,??emAfPollCompleteHandler_1
     31              emberAfPluginEndDeviceSupportPollCompletedCallback(status);
   \   0000001A   0x4628             MOV      R0,R5
   \   0000001C   0x.... 0x....      BL       emberAfPluginEndDeviceSupportPollCompletedCallback
     32            }
     33          
     34            switch (status) {
   \                     ??emAfPollCompleteHandler_1:
   \   00000020   0xB135             CBZ.N    R5,??emAfPollCompleteHandler_2
   \   00000022   0x2D31             CMP      R5,#+49
   \   00000024   0xD008             BEQ.N    ??emAfPollCompleteHandler_3
   \   00000026   0x2D40             CMP      R5,#+64
   \   00000028   0xD00C             BEQ.N    ??emAfPollCompleteHandler_4
   \   0000002A   0x2D66             CMP      R5,#+102
   \   0000002C   0xD015             BEQ.N    ??emAfPollCompleteHandler_5
   \   0000002E   0xE017             B.N      ??emAfPollCompleteHandler_6
     35            case EMBER_SUCCESS:
     36              ADD_POLLING_TASK();
   \                     ??emAfPollCompleteHandler_2:
   \   00000030   0x2002             MOVS     R0,#+2
   \   00000032   0x.... 0x....      BL       emberAfAddToCurrentAppTasksCallback
     37              emberAfDebugPrintln("poll nwk %d: got data", networkIndex);
     38              state->numPollsFailing = 0;
   \   00000036   0xE002             B.N      ??emAfPollCompleteHandler_7
     39              break;
     40            case EMBER_MAC_NO_DATA:
     41              REMOVE_POLLING_TASK();
   \                     ??emAfPollCompleteHandler_3:
   \   00000038   0x2002             MOVS     R0,#+2
   \   0000003A   0x.... 0x....      BL       emberAfRemoveFromCurrentAppTasksCallback
     42              emberAfDebugPrintln("poll nwk %d: no data", networkIndex);
     43              state->numPollsFailing = 0;
   \                     ??emAfPollCompleteHandler_7:
   \   0000003E   0x2000             MOVS     R0,#+0
   \   00000040   0x7120             STRB     R0,[R4, #+4]
     44              break;
   \   00000042   0xE00D             B.N      ??emAfPollCompleteHandler_6
     45            case EMBER_DELIVERY_FAILED:
     46              // This means the air was busy, which we don't count as a failure.
     47              REMOVE_POLLING_TASK();
     48              emberAfDebugPrintln("poll nwk %d: delivery failed", networkIndex);
     49              break;
     50            case EMBER_MAC_NO_ACK_RECEIVED:
     51              // If we are performing key establishment, we can ignore this since the
     52              // parent could go away for long periods of time while doing ECC processes.
     53              if (emberAfPerformingKeyEstablishment()) {
   \                     ??emAfPollCompleteHandler_4:
   \   00000044   0x.... 0x....      BL       emberAfPerformingKeyEstablishmentCallback
   \   00000048   0xB950             CBNZ.N   R0,??emAfPollCompleteHandler_6
     54                break;
     55              }
     56              // Count failures until we hit the limit, then we try a rejoin. If rejoin
     57              // fails, it will trigger a move.
     58              state->numPollsFailing++;
   \   0000004A   0x7920             LDRB     R0,[R4, #+4]
   \   0000004C   0x1C40             ADDS     R0,R0,#+1
   \   0000004E   0x7120             STRB     R0,[R4, #+4]
     59              if (limit <= state->numPollsFailing) {
   \   00000050   0xB2C0             UXTB     R0,R0
   \   00000052   0x42B0             CMP      R0,R6
   \   00000054   0xBF28             IT       CS 
   \   00000056   0x.... 0x....      BLCS     emberAfStartMoveCallback
     60                emberAfStartMoveCallback();
     61              }
     62              REMOVE_POLLING_TASK();
   \                     ??emAfPollCompleteHandler_5:
   \   0000005A   0x2002             MOVS     R0,#+2
   \   0000005C   0x.... 0x....      BL       emberAfRemoveFromCurrentAppTasksCallback
     63              break;
     64            default:
     65              emberAfDebugPrintln("poll nwk %d: 0x%x", networkIndex, status);
     66            }
     67          
     68            emberAfPopNetworkIndex();
   \                     ??emAfPollCompleteHandler_6:
   \   00000060   0xE8BD 0x4070      POP      {R4-R6,LR}
   \   00000064   0x.... 0x....      B.W      emberAfPopNetworkIndex
   \                     ??emAfPollCompleteHandler_0:
   \   00000068   0x........         DC32     emAfPollingStates
   \   0000006C   0x........         DC32     emAfEnablePollCompletedCallback
     69          }

   Maximum stack usage in bytes:

   .cstack Function
   ------- --------
       16  emAfPollCompleteHandler
             16 -> emberAfAddToCurrentAppTasksCallback
             16 -> emberAfPerformingKeyEstablishmentCallback
             16 -> emberAfPluginEndDeviceSupportPollCompletedCallback
              0 -> emberAfPopNetworkIndex
             16 -> emberAfPushCallbackNetworkIndex
             16 -> emberAfRemoveFromCurrentAppTasksCallback
             16 -> emberAfStartMoveCallback
             16 -> emberGetCurrentNetwork


   Section sizes:

   Bytes  Function/Label
   -----  --------------
     112  emAfPollCompleteHandler
       8  emAfPollingStates

 
   8 bytes in section .bss
 112 bytes in section .text
 
 112 bytes of CODE memory
   8 bytes of DATA memory

Errors: none
Warnings: none
