###############################################################################
#                                                                             #
# IAR ANSI C/C++ Compiler V6.40.1.53790/W32 for ARM     03/Oct/2014  11:14:07 #
# Copyright 1999-2012 IAR Systems AB.                                         #
#                                                                             #
#    Cpu mode     =  thumb                                                    #
#    Endian       =  little                                                   #
#    Source file  =  C:\Ember\EmberZNet5.1.2-GA\EM35x\hal\ece\tempSensor.c    #
#    Command line =  C:\Ember\EmberZNet5.1.2-GA\EM35x\hal\ece\tempSensor.c    #
#                    -D DEBUG -D "GENERATED_TOKEN_HEADER=\"app/builder/darUNB #
#                    sensorTmpAcceILLumUNB/darUNBsensorTmpAcceILLumUNB_tokens #
#                    .h\"" -D "ZA_GENERATED_HEADER=\"app/builder/darUNBsensor #
#                    TmpAcceILLumUNB/darUNBsensorTmpAcceILLumUNB.h\"" -D      #
#                    NULL_BTL -D "BOARD_HEADER=\"hal/micro/cortexm3/em35x/boa #
#                    rd/eznode.h\"" -D "PLATFORM_HEADER=\"hal/micro/cortexm3/ #
#                    compiler/iar.h\"" -D CORTEXM3 -D CORTEXM3_EM357 -D       #
#                    PHY_EM3XX -D "APPLICATION_TOKEN_HEADER=\"app/framework/u #
#                    til/tokens.h\"" -D "CONFIGURATION_HEADER=\"app/framework #
#                    /util/config.h\"" -D "ATTRIBUTE_STORAGE_CONFIGURATION=\" #
#                    app/builder/darUNBsensorTmpAcceILLumUNB/darUNBsensorTmpA #
#                    cceILLumUNB_endpoint_config.h\"" -D                      #
#                    "__SOURCEFILE__=\"tempSensor.c\"" -lC                    #
#                    C:\Ember\EmberZNet5.1.2-GA\EM35x\build\darUNBsensorTmpAc #
#                    ceILLumUNB\ --diag_suppress Pa050 -o                     #
#                    C:\Ember\EmberZNet5.1.2-GA\EM35x\build\darUNBsensorTmpAc #
#                    ceILLumUNB\ --debug --endian=little --cpu=Cortex-M3 -e   #
#                    --fpu=None --dlib_config "C:\Program Files (x86)\IAR     #
#                    Systems\Embedded Workbench 6.4\arm\INC\c\DLib_Config_Nor #
#                    mal.h" -I C:\Ember\EmberZNet5.1.2-GA\EM35x\hal\ece\ -I   #
#                    C:\Ember\EmberZNet5.1.2-GA\EM35x\app\builder\darUNBsenso #
#                    rTmpAcceILLumUNB\ -I C:\Ember\EmberZNet5.1.2-GA\EM35x\ap #
#                    p\builder\darUNBsensorTmpAcceILLumUNB\..\..\..\ -I       #
#                    C:\Ember\EmberZNet5.1.2-GA\EM35x\app\builder\darUNBsenso #
#                    rTmpAcceILLumUNB\..\..\..\app\framework\include\ -I      #
#                    C:\Ember\EmberZNet5.1.2-GA\EM35x\app\builder\darUNBsenso #
#                    rTmpAcceILLumUNB\..\..\..\ -I                            #
#                    C:\Ember\EmberZNet5.1.2-GA\EM35x\app\builder\darUNBsenso #
#                    rTmpAcceILLumUNB\..\..\..\stack\ -I                      #
#                    C:\Ember\EmberZNet5.1.2-GA\EM35x\app\builder\darUNBsenso #
#                    rTmpAcceILLumUNB\..\..\..\hal\ -I                        #
#                    C:\Ember\EmberZNet5.1.2-GA\EM35x\app\builder\darUNBsenso #
#                    rTmpAcceILLumUNB\..\..\..\hal\..\ -Ohz --use_c++_inline  #
#    List file    =  C:\Ember\EmberZNet5.1.2-GA\EM35x\build\darUNBsensorTmpAc #
#                    ceILLumUNB\tempSensor.lst                                #
#    Object file  =  C:\Ember\EmberZNet5.1.2-GA\EM35x\build\darUNBsensorTmpAc #
#                    ceILLumUNB\tempSensor.o                                  #
#                                                                             #
#                                                                             #
###############################################################################

C:\Ember\EmberZNet5.1.2-GA\EM35x\hal\ece\tempSensor.c
      1          #include "app/framework/include/af.h"
      2          #include "i2c.h"
      3          #include "driverUtils.h"
      4          #include "tempSensor.h"
      5          
      6          /******************************************************************************/
      7          /*  Device Configuration Functions                                            */
      8          /******************************************************************************/
      9          

   \                                 In section .text, align 2, keep-with-next
     10          void TMP100initDevice(int8u devNum){
     11            // Get device I2C address
     12            int8u devAddr = TMP100_I2C_ADDR(devNum);
     13             
     14            // Default configuration mode is Shutdown Mode(SD=1), 
     15            // Default resolution is 9 bits.R0/R1=00 
     16            // The rest of the configuration bits are set to 0 as they don't care
     17            // +--------+--------+--------+--------+--------+--------+--------+--------+
     18            // |OS/ALERT|   R1   |   R0   |   F1   |   F0   |   POL  |   TM   |   SD   |
     19            // +--------+--------+--------+--------+--------+--------+--------+--------+
     20            //     0         0        0        0        0        0        0        1
     21            TMP100_WR_CONFIG(devAddr, TMP100_MODE_ONESHOT );
   \                     TMP100initDevice:
   \   00000000   0x2201             MOVS     R2,#+1
   \   00000002   0x2101             MOVS     R1,#+1
   \   00000004   0xF000 0x000F      AND      R0,R0,#0xF
   \   00000008   0x0040             LSLS     R0,R0,#+1
   \   0000000A   0xF040 0x0090      ORR      R0,R0,#0x90
   \   0000000E   0x.... 0x....      B.W      halI2CWriteint8u
     22            
     23            /* The following code is a longer, but also a more descriptive way of device initialization
     24            TMP100setMode (TMP100_MODE_ONESHOT, devNum);
     25            TMP100setResolution (TMP100_MIN_RESOLUTION, devNum);
     26            TMP100setThermostatMode (TMP100_TMODE_COMPARATOR, devNum)
     27            TMP100setComparatorPolarity (TMP100_COMP_POL_ACTIVE_LOW, devNum);
     28            TMP100setComparatorQueueLength(1, devNum);
     29            */ 
     30           }// End of initDevice
     31          

   \                                 In section .text, align 2, keep-with-next
     32          int8u TMP100getConfig(int8u devNum ){
     33            // Get device I2C address
     34            int8u devAddr = TMP100_I2C_ADDR(devNum);
     35            
     36            // read new configuration from device
     37            return TMP100_RD_CONFIG(devAddr);
   \                     TMP100getConfig:
   \   00000000   0x2101             MOVS     R1,#+1
   \   00000002   0xF000 0x000F      AND      R0,R0,#0xF
   \   00000006   0x0040             LSLS     R0,R0,#+1
   \   00000008   0xF040 0x0090      ORR      R0,R0,#0x90
   \   0000000C   0x.... 0x....      B.W      halI2CReadint8u
     38          
     39          }// End of getConfig
     40          

   \                                 In section .text, align 2, keep-with-next
     41          int8u TMP100getMode(int8u devNum ){
   \                     TMP100getMode:
   \   00000000   0xB580             PUSH     {R7,LR}
     42            return (TMP100getConfig(devNum) & TMP100_CFG_MODE_MASK);
   \   00000002   0x.... 0x....      BL       TMP100getConfig
   \   00000006   0xF000 0x0001      AND      R0,R0,#0x1
   \   0000000A   0xBD02             POP      {R1,PC}          ;; return
     43          }//End of getMode
     44          

   \                                 In section .text, align 2, keep-with-next
     45          void TMP100setMode(int8u mode, int8u devNum ){
   \                     TMP100setMode:
   \   00000000   0xB538             PUSH     {R3-R5,LR}
   \   00000002   0x.... 0x....      BL       ?Subroutine7
     46            // Read device current configuration
     47            int8u devConf = TMP100getConfig(devNum);
     48              
     49            // clear previous mode from configuration register
     50            devConf ^= (devConf & TMP100_CFG_MODE_MASK);
     51            
     52            // Set new mode in configuration register
     53            devConf |= mode & TMP100_CFG_MODE_MASK;
     54              
     55            // write new configuration back to device
     56            TMP100_WR_CONFIG(TMP100_I2C_ADDR(devNum), devConf);
   \                     ??CrossCallReturnLabel_2:
   \   00000006   0xF000 0x0101      AND      R1,R0,#0x1
   \   0000000A   0x4048             EORS     R0,R1,R0
   \   0000000C   0xF004 0x0101      AND      R1,R4,#0x1
   \   00000010   0xEA41 0x0200      ORR      R2,R1,R0
   \   00000014   0x....             B.N      ??Subroutine0_0
     57          
     58          }//End of setMode

   \                                 In section .text, align 2, keep-with-next
   \                     ?Subroutine7:
   \   00000000   0x4604             MOV      R4,R0
   \   00000002   0x460D             MOV      R5,R1
   \   00000004   0x4628             MOV      R0,R5
   \   00000006   0x....             B.N      TMP100getConfig

   \                                 In section .text, align 2, keep-with-next
   \                     ?Subroutine0:
   \   00000000   0xB2D2             UXTB     R2,R2
   \                     ??Subroutine0_0:
   \   00000002   0x2101             MOVS     R1,#+1
   \   00000004   0xF005 0x000F      AND      R0,R5,#0xF
   \   00000008   0x0040             LSLS     R0,R0,#+1
   \   0000000A   0xF040 0x0090      ORR      R0,R0,#0x90
   \   0000000E   0xE8BD 0x4038      POP      {R3-R5,LR}
   \   00000012   0x.... 0x....      B.W      halI2CWriteint8u
     59          

   \                                 In section .text, align 2, keep-with-next
     60          void TMP100setContinuousMode(int8u devNum ){
   \                     TMP100setContinuousMode:
   \   00000000   0xB510             PUSH     {R4,LR}
   \   00000002   0x.... 0x....      BL       ?Subroutine8
     61            // Read device current configuration
     62            int8u devConf = TMP100getConfig(devNum);
     63              
     64            // clear previous mode from configuration register (continuous mode)
     65            devConf ^= (devConf & TMP100_CFG_MODE_MASK);
     66            
     67            // write new configuration back to device
     68            TMP100_WR_CONFIG(TMP100_I2C_ADDR(devNum), devConf);
   \                     ??CrossCallReturnLabel_9:
   \   00000006   0xF000 0x0101      AND      R1,R0,#0x1
   \   0000000A   0xEA81 0x0200      EOR      R2,R1,R0
   \   0000000E   0x....             B.N      ?Subroutine1
     69          
     70          }//End of setContinuousMode

   \                                 In section .text, align 2, keep-with-next
   \                     ?Subroutine1:
   \   00000000   0x2101             MOVS     R1,#+1
   \   00000002   0xF004 0x000F      AND      R0,R4,#0xF
   \   00000006   0x0040             LSLS     R0,R0,#+1
   \   00000008   0xF040 0x0090      ORR      R0,R0,#0x90
   \   0000000C   0xE8BD 0x4010      POP      {R4,LR}
   \   00000010   0x.... 0x....      B.W      halI2CWriteint8u

   \                                 In section .text, align 2, keep-with-next
   \                     ?Subroutine8:
   \   00000000   0x4604             MOV      R4,R0
   \   00000002   0x....             B.N      TMP100getConfig
     71          

   \                                 In section .text, align 2, keep-with-next
     72          void TMP100setOneShotMode(int8u devNum ){
   \                     TMP100setOneShotMode:
   \   00000000   0xB510             PUSH     {R4,LR}
   \   00000002   0x.... 0x....      BL       ?Subroutine8
     73            // Read device current configuration
     74            int8u devConf = TMP100getConfig(devNum);
     75              
     76            // clear previous mode from configuration register
     77            devConf ^= (devConf & TMP100_CFG_MODE_MASK);
     78            
     79            // Set new mode in configuration register
     80            devConf |= TMP100_CFG_SET_SD;
     81              
     82            // write new configuration back to device
     83            TMP100_WR_CONFIG(TMP100_I2C_ADDR(devNum), devConf);
   \                     ??CrossCallReturnLabel_8:
   \   00000006   0xF040 0x0201      ORR      R2,R0,#0x1
   \   0000000A                      REQUIRE ?Subroutine1
   \   0000000A                      ;; // Fall through to label ?Subroutine1
     84          
     85          }//End of setOneShotMode
     86          

   \                                 In section .text, align 2, keep-with-next
     87          void TMP100setResolution (int8u Resolution, int8u devNum ){
   \                     TMP100setResolution:
   \   00000000   0xB538             PUSH     {R3-R5,LR}
   \   00000002   0x.... 0x....      BL       ?Subroutine7
     88            // Read device current configuration
     89            int8u devConf = TMP100getConfig(devNum);
     90            
     91            // check if desired resolution matches TMP100 options
     92            if ((Resolution < 9) | (Resolution > 12))
   \                     ??CrossCallReturnLabel_1:
   \   00000006   0x2C09             CMP      R4,#+9
   \   00000008   0xD202             BCS.N    ??TMP100setResolution_0
   \   0000000A   0x2101             MOVS     R1,#+1
   \   0000000C   0x2200             MOVS     R2,#+0
   \   0000000E   0xE004             B.N      ??TMP100setResolution_1
   \                     ??TMP100setResolution_0:
   \   00000010   0x2100             MOVS     R1,#+0
   \   00000012   0x2C0D             CMP      R4,#+13
   \   00000014   0x4192             SBCS     R2,R2,R2
   \   00000016   0x43D2             MVNS     R2,R2
   \   00000018   0x0FD2             LSRS     R2,R2,#+31
   \                     ??TMP100setResolution_1:
   \   0000001A   0x4311             ORRS     R1,R2,R1
   \   0000001C   0xBF18             IT       NE 
   \   0000001E   0x2409             MOVNE    R4,#+9
     93              Resolution = TMP100_DEFAULT_RESOLUTION;
     94            
     95            // clear old resolution from configuration register
     96            devConf ^= (devConf & RESOL_MASK);
     97            
     98            // Set new resolution in configuration register
     99            devConf |= RESOLUTION_BITS(Resolution);
    100              
    101            // write new configuration back to device
    102            TMP100_WR_CONFIG(TMP100_I2C_ADDR(devNum), devConf);
   \   00000020   0xF000 0x0160      AND      R1,R0,#0x60
   \   00000024   0x4048             EORS     R0,R1,R0
   \   00000026   0xF1A4 0x0109      SUB      R1,R4,#+9
   \   0000002A   0xEA40 0x1241      ORR      R2,R0,R1, LSL #+5
   \   0000002E   0x....             B.N      ?Subroutine0
    103            
    104          }// End of setResolution
    105          

   \                                 In section .text, align 2, keep-with-next
    106          int8u TMP100getResolution(int8u devNum ){
   \                     TMP100getResolution:
   \   00000000   0xB580             PUSH     {R7,LR}
    107            // Read device current configuration
    108            int8u devConf = TMP100getConfig(devNum);
   \   00000002   0x.... 0x....      BL       TMP100getConfig
    109          
    110            //return resolution in number of bits
    111            return RESOLUTION(devConf);
   \   00000006   0xF3C0 0x1041      UBFX     R0,R0,#+5,#+2
   \   0000000A   0x3009             ADDS     R0,R0,#+9
   \   0000000C   0xB2C0             UXTB     R0,R0
   \   0000000E   0xBD02             POP      {R1,PC}          ;; return
    112            
    113           }// End of getResolution
    114          

   \                                 In section .text, align 2, keep-with-next
    115          void TMP100setTTolerance(int8u Tolerance, int8u devNum ){
   \                     TMP100setTTolerance:
   \   00000000   0xB538             PUSH     {R3-R5,LR}
   \   00000002   0x.... 0x....      BL       ?Subroutine7
    116            // Read device current configuration
    117            int8u devConf = TMP100getConfig(devNum);
    118            
    119            // check if desired tolerance matches TMP100 options
    120            // Tolerance values can only be 1,2,4,6 (0,1,2,3 if right shift one bit)
    121            if ( (Tolerance >> 1) > 3)
   \                     ??CrossCallReturnLabel_0:
   \   00000006   0x0861             LSRS     R1,R4,#+1
   \   00000008   0x2904             CMP      R1,#+4
   \   0000000A   0xBF28             IT       CS 
   \   0000000C   0x2401             MOVCS    R4,#+1
    122              Tolerance = TMP100_DEFAULT_TOL;
    123            
    124            // clear old resolution from configuration register
    125            devConf ^= (devConf & FAULT_MASK);
    126            
    127            // Set new fault tolerance in configuration register
    128            devConf |= FAULT_TOL_BITS(Tolerance);
    129            
    130            // write new configuration back to device
    131            TMP100_WR_CONFIG(TMP100_I2C_ADDR(devNum), devConf);
   \   0000000E   0xF000 0x0118      AND      R1,R0,#0x18
   \   00000012   0x4048             EORS     R0,R1,R0
   \   00000014   0x0861             LSRS     R1,R4,#+1
   \   00000016   0xEA40 0x02C1      ORR      R2,R0,R1, LSL #+3
   \   0000001A                      REQUIRE ?Subroutine0
   \   0000001A                      ;; // Fall through to label ?Subroutine0
    132            
    133          }// End of setTolerance
    134          

   \                                 In section .text, align 2, keep-with-next
    135          int8u TMP100getTTolerance(int8u devNum ){
   \                     TMP100getTTolerance:
   \   00000000   0xB580             PUSH     {R7,LR}
    136            // Read device current configuration
    137            int8u devConf = TMP100getConfig(devNum);
    138          
    139            //return Thermostat's fault queue length in number of samples (1, 2, 4 or 6)
    140            int8u cfgFault = FAULT_TOL(devConf) << 1;
   \   00000002   0x.... 0x....      BL       TMP100getConfig
   \   00000006   0x0880             LSRS     R0,R0,#+2
   \   00000008   0xF010 0x0006      ANDS     R0,R0,#0x6
    141            if (cfgFault == 0) cfgFault = 1;
   \   0000000C   0xBF08             IT       EQ 
   \   0000000E   0x2001             MOVEQ    R0,#+1
    142            
    143            return cfgFault;
   \   00000010   0xBD02             POP      {R1,PC}          ;; return
    144            
    145           }// End of getTTolerance
    146          

   \                                 In section .text, align 2, keep-with-next
    147          int16s TMP100getTLowThresholdRaw(int8u devNum ){
   \                     TMP100getTLowThresholdRaw:
   \   00000000   0xB580             PUSH     {R7,LR}
    148            // Get device I2C address
    149            int8u devAddr = TMP100_I2C_ADDR(devNum);
    150            
    151            //return register value as read from device
    152            return TMP100_RD_TLOW(devAddr);
   \   00000002   0x2102             MOVS     R1,#+2
   \   00000004   0x....             B.N      ?Subroutine2
    153           }// End of getLowThresholdRaw

   \                                 In section .text, align 2, keep-with-next
   \                     ?Subroutine2:
   \   00000000   0xF000 0x000F      AND      R0,R0,#0xF
   \   00000004   0x0040             LSLS     R0,R0,#+1
   \   00000006   0xF040 0x0090      ORR      R0,R0,#0x90
   \   0000000A   0x.... 0x....      BL       halI2CReadint16u
   \   0000000E   0xB200             SXTH     R0,R0
   \   00000010   0xBD02             POP      {R1,PC}          ;; return
    154          

   \                                 In section .text, align 2, keep-with-next
    155          int8s TMP100getTLowThresholdRoundC(int8u devNum ){
   \                     TMP100getTLowThresholdRoundC:
   \   00000000   0xB580             PUSH     {R7,LR}
    156            // read raw register
    157            int16s TLo = TMP100getTLowThresholdRaw(devNum);
    158            
    159            // int (TLo + 0.5). Q8 fornmat is used: 8 fractional bits and 8 integer bits
    160            TLo = (TLo + 128) >> 8;
    161            
    162            return (int8s)TLo;
   \   00000002   0x.... 0x....      BL       TMP100getTLowThresholdRaw
   \   00000006   0x....             B.N      ?Subroutine3
    163          }// End of getTLowThresholdRoundC

   \                                 In section .text, align 2, keep-with-next
   \                     ?Subroutine3:
   \   00000000   0x3080             ADDS     R0,R0,#+128
   \   00000002   0x0400             LSLS     R0,R0,#+16
   \   00000004   0x1600             ASRS     R0,R0,#+24
   \   00000006   0xBD02             POP      {R1,PC}          ;; return
    164          

   \                                 In section .text, align 2, keep-with-next
    165          void TMP100setTLowThresholdRaw(int16s threshold, int8u devNum ){
   \                     TMP100setTLowThresholdRaw:
   \   00000000   0x460B             MOV      R3,R1
    166            // Get device I2C address
    167            int8u devAddr = TMP100_I2C_ADDR(devNum);
    168            
    169            //return register value as read from device
    170            TMP100_WR_TLOW(devAddr, (threshold + 0x8) & 0xFFF0);
   \   00000002   0x3008             ADDS     R0,R0,#+8
   \   00000004   0xF64F 0x71F0      MOVW     R1,#+65520
   \   00000008   0xEA01 0x0200      AND      R2,R1,R0
   \   0000000C   0x2102             MOVS     R1,#+2
   \   0000000E   0x....             B.N      ?Subroutine4
    171          }// End of setLowThresholdRaw

   \                                 In section .text, align 2, keep-with-next
   \                     ?Subroutine4:
   \   00000000   0xF003 0x000F      AND      R0,R3,#0xF
   \   00000004   0x0040             LSLS     R0,R0,#+1
   \   00000006   0xF040 0x0090      ORR      R0,R0,#0x90
   \   0000000A   0x.... 0x....      B.W      halI2CWriteint16u
    172          

   \                                 In section .text, align 2, keep-with-next
    173          int16s TMP100getTHighThresholdRaw(int8u devNum ){
   \                     TMP100getTHighThresholdRaw:
   \   00000000   0xB580             PUSH     {R7,LR}
    174            // Get device I2C address
    175            int8u devAddr = TMP100_I2C_ADDR(devNum);
    176            
    177            //return register value as read from device
    178            return TMP100_RD_THIGH(devAddr);
   \   00000002   0x2103             MOVS     R1,#+3
   \   00000004                      REQUIRE ?Subroutine2
   \   00000004                      ;; // Fall through to label ?Subroutine2
    179          }// End of getHighThresholdRaw
    180          

   \                                 In section .text, align 2, keep-with-next
    181          int8s TMP100getTHighThresholdRoundC(int8u devNum ){
   \                     TMP100getTHighThresholdRoundC:
   \   00000000   0xB580             PUSH     {R7,LR}
    182            // read raw register
    183            int16s THi = TMP100getTHighThresholdRaw(devNum);
    184            
    185            // int (THi + 0.5). Q8 fornmat is used: 8 fractional bits and 8 integer bits
    186            THi = (THi + 128) >> 8;
    187            
    188            return (int8s)THi;
   \   00000002   0x.... 0x....      BL       TMP100getTHighThresholdRaw
   \   00000006                      REQUIRE ?Subroutine3
   \   00000006                      ;; // Fall through to label ?Subroutine3
    189          }// End of getTHighThresholdRoundC
    190          

   \                                 In section .text, align 2, keep-with-next
    191          int16s TMP100getData(int8u devNum ){
   \                     TMP100getData:
   \   00000000   0xB580             PUSH     {R7,LR}
    192          
    193            // Get device I2C address
    194            int8u devAddr = TMP100_I2C_ADDR(devNum);
    195            
    196            //return register value as read from device
    197            return TMP100_RD_DATA(devAddr);
   \   00000002   0x2100             MOVS     R1,#+0
   \   00000004   0x....             B.N      ?Subroutine2
    198            
    199          }//End of getData
    200          

   \                                 In section .text, align 2, keep-with-next
    201          void TMP100setTHighThresholdRaw(int16s threshold, int8u devNum ){
   \                     TMP100setTHighThresholdRaw:
   \   00000000   0x460B             MOV      R3,R1
    202            // Get device I2C address
    203            int8u devAddr = TMP100_I2C_ADDR(devNum);
    204            
    205            //return register value as read from device
    206            TMP100_WR_THIGH(devAddr, (threshold + 0x8) & 0xFFF0);
   \   00000002   0x3008             ADDS     R0,R0,#+8
   \   00000004   0xF64F 0x71F0      MOVW     R1,#+65520
   \   00000008   0xEA01 0x0200      AND      R2,R1,R0
   \   0000000C   0x2103             MOVS     R1,#+3
   \   0000000E                      REQUIRE ?Subroutine4
   \   0000000E                      ;; // Fall through to label ?Subroutine4
    207          }// Endo of setHighThresholdRaw
    208          

   \                                 In section .text, align 2, keep-with-next
    209          void TMP100setTConfig(int16s TLow, int16s THigh, int8u AlertPol, int8u devNum ){
   \                     TMP100setTConfig:
   \   00000000   0xB5F8             PUSH     {R3-R7,LR}
   \   00000002   0x4605             MOV      R5,R0
   \   00000004   0x460C             MOV      R4,R1
   \   00000006   0x4616             MOV      R6,R2
   \   00000008   0x461F             MOV      R7,R3
    210            // Read device current configuration
    211            int8u devConf = TMP100getConfig(devNum);
   \   0000000A   0x4638             MOV      R0,R7
   \   0000000C   0x.... 0x....      BL       TMP100getConfig
    212            
    213            // clear old polarity setting in configuration register
    214            devConf ^= (devConf & TMP100_CFG_SET_POL);
   \   00000010   0xF000 0x0104      AND      R1,R0,#0x4
   \   00000014   0xEA81 0x0200      EOR      R2,R1,R0
    215            
    216            // Set Polarity of Alert bit in configuration register
    217            if (AlertPol > 0) devConf |= TMP100_CFG_SET_POL;
   \   00000018   0xB10E             CBZ.N    R6,??TMP100setTConfig_0
   \   0000001A   0xF042 0x0204      ORR      R2,R2,#0x4
    218            
    219            // write new configuration to the device
    220            int8u devAddr = TMP100_I2C_ADDR(devNum);
   \                     ??TMP100setTConfig_0:
   \   0000001E   0xF007 0x000F      AND      R0,R7,#0xF
   \   00000022   0x0040             LSLS     R0,R0,#+1
   \   00000024   0xF040 0x0690      ORR      R6,R0,#0x90
    221            TMP100_WR_CONFIG(devAddr, devConf);
   \   00000028   0x2101             MOVS     R1,#+1
   \   0000002A   0x4630             MOV      R0,R6
   \   0000002C   0x.... 0x....      BL       halI2CWriteint8u
    222            
    223            // Write Thermostat low and high thresholds with rounding to TMP100 precision
    224            TMP100_WR_TLOW(devAddr, (int16u)((TLow + 0x0008) & 0xFFF0));
   \   00000030   0xF105 0x0008      ADD      R0,R5,#+8
   \   00000034   0x.... 0x....      BL       ?Subroutine9
    225            TMP100_WR_THIGH(devAddr, (int16u)((THigh + 0x0008) & 0xFFF0));
   \                     ??CrossCallReturnLabel_11:
   \   00000038   0xF104 0x0008      ADD      R0,R4,#+8
   \   0000003C   0x.... 0x....      BL       ?Subroutine10
   \                     ??CrossCallReturnLabel_12:
   \   00000040   0xE8BD 0x40F8      POP      {R3-R7,LR}
   \   00000044   0x.... 0x....      B.W      halI2CWriteint16u
    226            
    227          }// End of setThermostat

   \                                 In section .text, align 2, keep-with-next
   \                     ?Subroutine10:
   \   00000000   0xF64F 0x71F0      MOVW     R1,#+65520
   \   00000004   0xEA01 0x0200      AND      R2,R1,R0
   \   00000008   0x2103             MOVS     R1,#+3
   \   0000000A   0x4630             MOV      R0,R6
   \   0000000C   0x4770             BX       LR

   \                                 In section .text, align 2, keep-with-next
   \                     ?Subroutine9:
   \   00000000   0xF64F 0x71F0      MOVW     R1,#+65520
   \   00000004   0xEA01 0x0200      AND      R2,R1,R0
   \   00000008   0x2102             MOVS     R1,#+2
   \   0000000A   0x4630             MOV      R0,R6
   \   0000000C   0x.... 0x....      B.W      halI2CWriteint16u
    228          

   \                                 In section .text, align 2, keep-with-next
    229          void TMP100setConfig(int8u devConf, int16s TLow, int16s THigh, int8u devNum ){
   \                     TMP100setConfig:
   \   00000000   0xB570             PUSH     {R4-R6,LR}
   \   00000002   0x460C             MOV      R4,R1
   \   00000004   0x4615             MOV      R5,R2
    230            // Get device I2C address
    231            int8u devAddr = TMP100_I2C_ADDR(devNum);
   \   00000006   0xF003 0x010F      AND      R1,R3,#0xF
   \   0000000A   0x0049             LSLS     R1,R1,#+1
   \   0000000C   0xF041 0x0690      ORR      R6,R1,#0x90
    232            
    233            // write new configuration to the device
    234            TMP100_WR_CONFIG(devAddr, devConf);
   \   00000010   0x4602             MOV      R2,R0
   \   00000012   0x2101             MOVS     R1,#+1
   \   00000014   0x4630             MOV      R0,R6
   \   00000016   0x.... 0x....      BL       halI2CWriteint8u
    235            
    236            // Write Thermostat low and high thresholds with rounding to TMP100 precision
    237            TMP100_WR_TLOW(devAddr, (int16u)((TLow + 0x0008) & 0xFFF0));
   \   0000001A   0xF104 0x0008      ADD      R0,R4,#+8
   \   0000001E   0x.... 0x....      BL       ?Subroutine9
    238            TMP100_WR_THIGH(devAddr, (int16u)((THigh + 0x0008) & 0xFFF0));
   \                     ??CrossCallReturnLabel_10:
   \   00000022   0xF105 0x0008      ADD      R0,R5,#+8
   \   00000026   0x.... 0x....      BL       ?Subroutine10
   \                     ??CrossCallReturnLabel_13:
   \   0000002A   0xE8BD 0x4070      POP      {R4-R6,LR}
   \   0000002E   0x.... 0x....      B.W      halI2CWriteint16u
    239          
    240          } // End of setConfig
    241          

   \                                 In section .text, align 2, keep-with-next
    242          void TMP100triggerOneShotMeasurement( int8u devNum ){
   \                     TMP100triggerOneShotMeasurement:
   \   00000000   0xB510             PUSH     {R4,LR}
   \   00000002   0x.... 0x....      BL       ?Subroutine8
    243            // Note: this function should only be called when devioce is in ShutDown Mode
    244            
    245            // Read device current configuration
    246            int8u devConf = TMP100getConfig(devNum);
    247              
    248            // Set OneShot bit in configuration register
    249            SETBIT(devConf, TMP100_CFG_BIT_OS); //devConf |= TMP100_CFG_SET_OS;
    250              
    251            // write new configuration back to device
    252            TMP100_WR_CONFIG(TMP100_I2C_ADDR(devNum), devConf);
   \                     ??CrossCallReturnLabel_7:
   \   00000006   0xF040 0x0280      ORR      R2,R0,#0x80
   \   0000000A   0x....             B.N      ?Subroutine1
    253          
    254          }//End of triggerSingleShotMeasurement
    255          
    256          /******************************************************************************/
    257          /*  Debug Functions                                                           */
    258          /******************************************************************************/

   \                                 In section .text, align 2, keep-with-next
    259          void TMP100showConfig( int8u devNum ){
   \                     TMP100showConfig:
   \   00000000   0xB5F8             PUSH     {R3-R7,LR}
   \   00000002   0x4606             MOV      R6,R0
    260            int8u devConf = TMP100getConfig(devNum);
   \   00000004   0x.... 0x....      BL       TMP100getConfig
   \   00000008   0x4604             MOV      R4,R0
    261            int16s TLo = TMP100getTLowThresholdRaw(devNum);
   \   0000000A   0x4630             MOV      R0,R6
   \   0000000C   0x.... 0x....      BL       TMP100getTLowThresholdRaw
   \   00000010   0x4605             MOV      R5,R0
    262            int16s THi = TMP100getTHighThresholdRaw(devNum);
   \   00000012   0x4630             MOV      R0,R6
   \   00000014   0x.... 0x....      BL       TMP100getTHighThresholdRaw
   \   00000018   0x4606             MOV      R6,R0
    263            
    264            logPrintln("TMP100 Configuration Register");
   \   0000001A   0x.... 0x....      ADR.W    R1,`?<Constant "TMP100 Configuration ...">`
   \   0000001E   0x2001             MOVS     R0,#+1
   \   00000020   0x.... 0x....      BL       emberAfPrintln
    265            logPrintln("\t Single Shot Mode Enabled:         %d", READBIT(devConf, TMP100_CFG_BIT_SD) >> TMP100_CFG_BIT_SD);   //devConf & TMP100_MODE_ONESHOT);
   \   00000024   0xF004 0x0201      AND      R2,R4,#0x1
   \   00000028   0x.... 0x....      ADR.W    R1,`?<Constant "\\t Single Shot Mode En...">`
   \   0000002C   0x.... 0x....      BL       ?Subroutine11
    266            logPrintln("\t Thermostat Interrupt Mode Enabled:%d", READBIT(devConf, TMP100_CFG_BIT_TM) >> TMP100_CFG_BIT_TM);   //devConf && TMP100_CFG_SET_TM);
   \                     ??CrossCallReturnLabel_19:
   \   00000030   0xF3C4 0x0240      UBFX     R2,R4,#+1,#+1
   \   00000034   0x.... 0x....      ADR.W    R1,`?<Constant "\\t Thermostat Interrup...">`
   \   00000038   0x.... 0x....      BL       ?Subroutine11
    267            logPrintln("\t Comparator Polarity Active Low:   %d", ALERT_ACTIVE_LOW(devConf));
   \                     ??CrossCallReturnLabel_18:
   \   0000003C   0x08A0             LSRS     R0,R4,#+2
   \   0000003E   0xF000 0x0001      AND      R0,R0,#0x1
   \   00000042   0xF080 0x0701      EOR      R7,R0,#0x1
   \   00000046   0x463A             MOV      R2,R7
   \   00000048   0x.... 0x....      ADR.W    R1,`?<Constant "\\t Comparator Polarity...">`
   \   0000004C   0x.... 0x....      BL       ?Subroutine11
    268            logPrintln("\t Number of consecutive faults:     %d samples", FAULT_TOL(devConf));
   \                     ??CrossCallReturnLabel_17:
   \   00000050   0x10E0             ASRS     R0,R4,#+3
   \   00000052   0xF000 0x0203      AND      R2,R0,#0x3
   \   00000056   0x.... 0x....      ADR.W    R1,`?<Constant "\\t Number of consecuti...">`
   \   0000005A   0x.... 0x....      BL       ?Subroutine11
    269            logPrintln("\t Resolution:                       %d bits", RESOLUTION(devConf));
   \                     ??CrossCallReturnLabel_16:
   \   0000005E   0x1160             ASRS     R0,R4,#+5
   \   00000060   0xF000 0x0003      AND      R0,R0,#0x3
   \   00000064   0xF100 0x0209      ADD      R2,R0,#+9
   \   00000068   0x.... 0x....      ADR.W    R1,`?<Constant "\\t Resolution:        ...">`
   \   0000006C   0x.... 0x....      BL       ?Subroutine11
    270            logPrintln("\t Alert bit is Active:              %d", ((READBIT(devConf, TMP100_CFG_BIT_ALERT) >> TMP100_CFG_BIT_ALERT) ^ ALERT_ACTIVE_LOW(devConf)) );     //(devConf >> TMP100_CFG_BIT_ALERT) ^ ALERT_ACTIVE_LOW(devConf));
   \                     ??CrossCallReturnLabel_15:
   \   00000070   0xF3C4 0x10C0      UBFX     R0,R4,#+7,#+1
   \   00000074   0xEA87 0x0200      EOR      R2,R7,R0
   \   00000078   0x.... 0x....      ADR.W    R1,`?<Constant "\\t Alert bit is Active...">`
   \   0000007C   0x.... 0x....      BL       ?Subroutine11
    271            logPrintln("                                       ");
   \                     ??CrossCallReturnLabel_14:
   \   00000080   0x.... 0x....      ADR.W    R1,`?<Constant "                     ...">`
   \   00000084   0x2001             MOVS     R0,#+1
   \   00000086   0x.... 0x....      BL       emberAfPrintln
    272            logPrintln("\t Thermostat Low  Threshold: %d.%d oC", HIGH_BYTE(TLo), rawTFrac(TLo, TMP100_MAX_RESOLUTION));
   \   0000008A   0x210C             MOVS     R1,#+12
   \   0000008C   0x4628             MOV      R0,R5
   \   0000008E   0x.... 0x....      BL       rawTFrac
   \   00000092   0x4603             MOV      R3,R0
   \   00000094   0x042A             LSLS     R2,R5,#+16
   \   00000096   0x0E12             LSRS     R2,R2,#+24
   \   00000098   0x.... 0x....      ADR.W    R1,`?<Constant "\\t Thermostat Low  Thr...">`
   \   0000009C   0x2001             MOVS     R0,#+1
   \   0000009E   0x.... 0x....      BL       emberAfPrintln
    273            logPrintln("\t Thermostat High Threshold: %d.%d oC", HIGH_BYTE(THi), rawTFrac(THi, TMP100_MAX_RESOLUTION));
   \   000000A2   0x210C             MOVS     R1,#+12
   \   000000A4   0x4630             MOV      R0,R6
   \   000000A6   0x.... 0x....      BL       rawTFrac
   \   000000AA   0x4603             MOV      R3,R0
   \   000000AC   0x0432             LSLS     R2,R6,#+16
   \   000000AE   0x0E12             LSRS     R2,R2,#+24
   \   000000B0   0x.... 0x....      ADR.W    R1,`?<Constant "\\t Thermostat High Thr...">`
   \   000000B4   0x2001             MOVS     R0,#+1
   \   000000B6   0x.... 0x....      BL       emberAfPrintln
    274            logPrintln("--- TMP100 End of Configuration  --");
   \   000000BA   0x.... 0x....      ADR.W    R1,`?<Constant "--- TMP100 End of Con...">`
   \   000000BE   0x2001             MOVS     R0,#+1
   \   000000C0   0xE8BD 0x40F4      POP      {R2,R4-R7,LR}
   \   000000C4   0x.... 0x....      B.W      emberAfPrintln
    275            
    276          }// End of showConfig

   \                                 In section .text, align 2, keep-with-next
   \                     ?Subroutine11:
   \   00000000   0x2001             MOVS     R0,#+1
   \   00000002   0x.... 0x....      B.W      emberAfPrintln
    277          

   \                                 In section .text, align 2, keep-with-next
    278          void TMP100showMeasResol(int8u devNum){
   \                     TMP100showMeasResol:
   \   00000000   0xB580             PUSH     {R7,LR}
    279            logPrintln("Temperature Sensor Resolution= %d bits", TMP100getResolution(devNum));
   \   00000002   0x.... 0x....      BL       TMP100getResolution
   \   00000006   0x4602             MOV      R2,R0
   \   00000008   0x.... 0x....      ADR.W    R1,`?<Constant "Temperature Sensor Re...">`
   \   0000000C   0x....             B.N      ?Subroutine5
    280          }

   \                                 In section .text, align 2, keep-with-next
   \                     ?Subroutine5:
   \   00000000   0x2001             MOVS     R0,#+1
   \   00000002   0xE8BD 0x4008      POP      {R3,LR}
   \   00000006   0x.... 0x....      B.W      emberAfPrintln
    281          

   \                                 In section .text, align 2, keep-with-next
    282          void TMP100showMeasDelay( int8u devNum ){
   \                     TMP100showMeasDelay:
   \   00000000   0xB580             PUSH     {R7,LR}
    283            logPrintln("Temperature Sensor Conversion Time= %d ms",OS_MAX_CONV_TIME(TMP100getResolution(devNum)));
   \   00000002   0x.... 0x....      BL       TMP100getResolution
   \   00000006   0x2101             MOVS     R1,#+1
   \   00000008   0x3809             SUBS     R0,R0,#+9
   \   0000000A   0xFA01 0xF000      LSL      R0,R1,R0
   \   0000000E   0x214B             MOVS     R1,#+75
   \   00000010   0xFB01 0xF200      MUL      R2,R1,R0
   \   00000014   0x.... 0x....      ADR.W    R1,`?<Constant "Temperature Sensor Co...">`
   \   00000018                      REQUIRE ?Subroutine5
   \   00000018                      ;; // Fall through to label ?Subroutine5
    284          }
    285          
    286          /******************************************************************************/
    287          /* Reading Temperature Functions                                              */
    288          /******************************************************************************/
    289          

   \                                 In section .text, align 2, keep-with-next
    290          float getTemperature(int8u devNum ){
   \                     getTemperature:
   \   00000000   0xB510             PUSH     {R4,LR}
   \   00000002   0x.... 0x....      BL       ?Subroutine8
    291            // Read device current configuration
    292            int8u devConf = TMP100getConfig( devNum );
    293            
    294            if (READBIT(devConf, TMP100_CFG_BIT_SD) == TMP100_MODE_CONTINUOUS){
   \                     ??CrossCallReturnLabel_6:
   \   00000006   0x07C0             LSLS     R0,R0,#+31
   \   00000008   0x4620             MOV      R0,R4
   \   0000000A   0xD402             BMI.N    ??getTemperature_0
    295              return rawT2float(readTemperatureRawNonBlocking( devNum ));
   \   0000000C   0x.... 0x....      BL       TMP100getData
    296            }
   \   00000010   0xE001             B.N      ??getTemperature_1
    297            else{
    298              return rawT2float(readTemperatureRawSleeping( devNum ));
   \                     ??getTemperature_0:
   \   00000012   0x.... 0x....      BL       readTemperatureRawSleeping
   \                     ??getTemperature_1:
   \   00000016   0xE8BD 0x4010      POP      {R4,LR}
   \   0000001A   0x.... 0x....      B.W      rawT2float
    299            }
    300          }//End of getTemperature
    301          

   \                                 In section .text, align 2, keep-with-next
    302          int16s getTemperatureIn100sC( int8u devNum ){
   \                     getTemperatureIn100sC:
   \   00000000   0xB510             PUSH     {R4,LR}
   \   00000002   0x.... 0x....      BL       ?Subroutine8
    303            // Read device current configuration
    304            int8u devConf = TMP100getConfig( devNum );
    305            
    306            if (READBIT(devConf, TMP100_CFG_BIT_SD) == TMP100_MODE_CONTINUOUS){
   \                     ??CrossCallReturnLabel_5:
   \   00000006   0x07C0             LSLS     R0,R0,#+31
   \   00000008   0x4620             MOV      R0,R4
   \   0000000A   0xD402             BMI.N    ??getTemperatureIn100sC_0
    307              return rawT2100sC(readTemperatureRawNonBlocking( devNum ));
   \   0000000C   0x.... 0x....      BL       TMP100getData
    308            }
   \   00000010   0xE001             B.N      ??getTemperatureIn100sC_1
    309            else{
    310              return rawT2100sC(readTemperatureRawSleeping( devNum ));
   \                     ??getTemperatureIn100sC_0:
   \   00000012   0x.... 0x....      BL       readTemperatureRawSleeping
   \                     ??getTemperatureIn100sC_1:
   \   00000016   0xE8BD 0x4010      POP      {R4,LR}
   \   0000001A   0x.... 0x....      B.W      rawT2100sC
    311            }
    312          }//End of getTemperatureIn100oC
    313          

   \                                 In section .text, align 2, keep-with-next
    314          int16s getTemperatureFpoint(int8u devNum ){
   \                     getTemperatureFpoint:
   \   00000000   0xB510             PUSH     {R4,LR}
   \   00000002   0x.... 0x....      BL       ?Subroutine8
    315            // Read device current configuration
    316            int8u devConf = TMP100getConfig( devNum );
    317            
    318            if (READBIT(devConf, TMP100_CFG_BIT_SD) == TMP100_MODE_CONTINUOUS){
   \                     ??CrossCallReturnLabel_4:
   \   00000006   0x07C0             LSLS     R0,R0,#+31
   \   00000008   0x4620             MOV      R0,R4
   \   0000000A   0xD402             BMI.N    ??getTemperatureFpoint_0
    319              return rawT2fpoint(readTemperatureRawNonBlocking( devNum ));
   \   0000000C   0x.... 0x....      BL       TMP100getData
    320            }
   \   00000010   0xE001             B.N      ??getTemperatureFpoint_1
    321            else{
    322              return rawT2fpoint(readTemperatureRawSleeping( devNum ));
   \                     ??getTemperatureFpoint_0:
   \   00000012   0x.... 0x....      BL       readTemperatureRawSleeping
   \                     ??getTemperatureFpoint_1:
   \   00000016   0xE8BD 0x4010      POP      {R4,LR}
   \   0000001A   0x.... 0x....      B.W      rawT2fpoint
    323            }
    324          }//End of getTemperatureFpoint
    325          

   \                                 In section .text, align 2, keep-with-next
    326          int16s getTemperatureRaw(int8u devNum ){
   \                     getTemperatureRaw:
   \   00000000   0xB510             PUSH     {R4,LR}
   \   00000002   0x.... 0x....      BL       ?Subroutine8
    327            // Read device current configuration
    328            int8u devConf = TMP100getConfig( devNum );
    329            
    330            if (READBIT(devConf, TMP100_CFG_BIT_SD) == TMP100_MODE_CONTINUOUS){
   \                     ??CrossCallReturnLabel_3:
   \   00000006   0x07C0             LSLS     R0,R0,#+31
   \   00000008   0x4620             MOV      R0,R4
   \   0000000A   0xBF5C             ITT      PL 
   \   0000000C   0xE8BD 0x4010      POPPL    {R4,LR}
   \   00000010   0x.... 0x....      BPL.W    TMP100getData
    331              return readTemperatureRawNonBlocking( devNum );
    332            }
    333            else{
    334              return readTemperatureRawSleeping( devNum );
   \   00000014   0xE8BD 0x4010      POP      {R4,LR}
   \   00000018   0x....             B.N      readTemperatureRawSleeping
    335            }
    336          }//End of getTemperatureRaw
    337          

   \                                 In section .text, align 2, keep-with-next
    338          int16s readTemperatureRawNonBlocking(int8u devNum ){
    339            return TMP100getData(devNum);
   \                     readTemperatureRawNonBlocking:
   \   00000000   0x....             B.N      TMP100getData
    340          }
    341          

   \                                 In section .text, align 2, keep-with-next
    342          int16s readTemperatureRawBlocking(int8u devNum ){
   \                     readTemperatureRawBlocking:
   \   00000000   0xB538             PUSH     {R3-R5,LR}
   \   00000002   0x4604             MOV      R4,R0
    343            
    344            // get device resolution to determine maximum conversion delay
    345            int8u resolution = TMP100getResolution(devNum);
   \   00000004   0x.... 0x....      BL       TMP100getResolution
   \   00000008   0x4605             MOV      R5,R0
    346            
    347            // trigger one shot temperature measurement
    348            TMP100triggerOneShotMeasurement(devNum);
   \   0000000A   0x4620             MOV      R0,R4
   \   0000000C   0x.... 0x....      BL       TMP100triggerOneShotMeasurement
    349            
    350            // actively wait for conversion to finish
    351            waitBusy(OS_MAX_CONV_TIME(resolution));
   \   00000010   0x.... 0x....      BL       ?Subroutine12
   \                     ??CrossCallReturnLabel_20:
   \   00000014   0x.... 0x....      BL       waitBusy
    352            
    353            // Finally we can read tha data register
    354            return TMP100getData(devNum);
   \   00000018   0x....             B.N      ?Subroutine6
    355            
    356          }//End of readTemperatureRawBlocking

   \                                 In section .text, align 2, keep-with-next
   \                     ?Subroutine6:
   \   00000000   0x4620             MOV      R0,R4
   \   00000002   0xE8BD 0x4032      POP      {R1,R4,R5,LR}
   \   00000006   0x....             B.N      TMP100getData

   \                                 In section .text, align 2, keep-with-next
   \                     ?Subroutine12:
   \   00000000   0x2001             MOVS     R0,#+1
   \   00000002   0xF1A5 0x0109      SUB      R1,R5,#+9
   \   00000006   0x4088             LSLS     R0,R0,R1
   \   00000008   0x214B             MOVS     R1,#+75
   \   0000000A   0x4348             MULS     R0,R1,R0
   \   0000000C   0x4770             BX       LR
    357          

   \                                 In section .text, align 2, keep-with-next
    358          int16s readTemperatureRawSleeping(int8u devNum ){
   \                     readTemperatureRawSleeping:
   \   00000000   0xB538             PUSH     {R3-R5,LR}
   \   00000002   0x4604             MOV      R4,R0
    359            
    360            // get device resolution to determine maximum conversion delay
    361            int8u resolution = TMP100getResolution(devNum);
   \   00000004   0x.... 0x....      BL       TMP100getResolution
   \   00000008   0x4605             MOV      R5,R0
    362            
    363            // set the amount of time the device requires to finish conversion
    364            int32u duration = OS_MAX_CONV_TIME(resolution);
    365              
    366            // trigger one shot temperature measurement
    367            TMP100triggerOneShotMeasurement(devNum);
   \   0000000A   0x4620             MOV      R0,R4
   \   0000000C   0x.... 0x....      BL       TMP100triggerOneShotMeasurement
    368            
    369            // Put EZnode into sleep mode in order to wait for conversion to finish
    370            waitSleeping(duration);
   \   00000010   0x.... 0x....      BL       ?Subroutine12
   \                     ??CrossCallReturnLabel_21:
   \   00000014   0x.... 0x....      BL       waitSleeping
    371          
    372            // Finally we can read tha data register
    373            return TMP100getData(devNum);
   \   00000018                      REQUIRE ?Subroutine6
   \   00000018                      ;; // Fall through to label ?Subroutine6
    374            
    375          }//End of readTemperatureRawSleeping

   \                                 In section .text, align 4, keep-with-next
   \                     `?<Constant "TMP100 Configuration ...">`:
   \   00000000   0x54 0x4D          DC8 "TMP100 Configuration Register"
   \              0x50 0x31    
   \              0x30 0x30    
   \              0x20 0x43    
   \              0x6F 0x6E    
   \              0x66 0x69    
   \              0x67 0x75    
   \              0x72 0x61    
   \              0x74 0x69    
   \              0x6F 0x6E    
   \              0x20 0x52    
   \              0x65 0x67    
   \              0x69 0x73    
   \              0x74 0x65    
   \              0x72 0x00    
   \   0000001E   0x00 0x00          DC8 0, 0

   \                                 In section .text, align 4, keep-with-next
   \                     `?<Constant "\\t Single Shot Mode En...">`:
   \   00000000   0x09 0x20          DC8 "\t Single Shot Mode Enabled:         %d"
   \              0x53 0x69    
   \              0x6E 0x67    
   \              0x6C 0x65    
   \              0x20 0x53    
   \              0x68 0x6F    
   \              0x74 0x20    
   \              0x4D 0x6F    
   \              0x64 0x65    
   \              0x20 0x45    
   \              0x6E 0x61    
   \              0x62 0x6C    
   \              0x65 0x64    
   \              0x3A 0x20    
   \              0x20 0x20    
   \              0x20 0x20    
   \              0x20 0x20    
   \              0x20 0x20    
   \              0x25 0x64    
   \              0x00         
   \   00000027   0x00               DC8 0

   \                                 In section .text, align 4, keep-with-next
   \                     `?<Constant "\\t Thermostat Interrup...">`:
   \   00000000   0x09 0x20          DC8 "\t Thermostat Interrupt Mode Enabled:%d"
   \              0x54 0x68    
   \              0x65 0x72    
   \              0x6D 0x6F    
   \              0x73 0x74    
   \              0x61 0x74    
   \              0x20 0x49    
   \              0x6E 0x74    
   \              0x65 0x72    
   \              0x72 0x75    
   \              0x70 0x74    
   \              0x20 0x4D    
   \              0x6F 0x64    
   \              0x65 0x20    
   \              0x45 0x6E    
   \              0x61 0x62    
   \              0x6C 0x65    
   \              0x64 0x3A    
   \              0x25 0x64    
   \              0x00         
   \   00000027   0x00               DC8 0

   \                                 In section .text, align 4, keep-with-next
   \                     `?<Constant "\\t Comparator Polarity...">`:
   \   00000000   0x09 0x20          DC8 "\t Comparator Polarity Active Low:   %d"
   \              0x43 0x6F    
   \              0x6D 0x70    
   \              0x61 0x72    
   \              0x61 0x74    
   \              0x6F 0x72    
   \              0x20 0x50    
   \              0x6F 0x6C    
   \              0x61 0x72    
   \              0x69 0x74    
   \              0x79 0x20    
   \              0x41 0x63    
   \              0x74 0x69    
   \              0x76 0x65    
   \              0x20 0x4C    
   \              0x6F 0x77    
   \              0x3A 0x20    
   \              0x20 0x20    
   \              0x25 0x64    
   \              0x00         
   \   00000027   0x00               DC8 0

   \                                 In section .text, align 4, keep-with-next
   \                     `?<Constant "\\t Number of consecuti...">`:
   \   00000000   0x09 0x20          DC8 "\t Number of consecutive faults:     %d samples"
   \              0x4E 0x75    
   \              0x6D 0x62    
   \              0x65 0x72    
   \              0x20 0x6F    
   \              0x66 0x20    
   \              0x63 0x6F    
   \              0x6E 0x73    
   \              0x65 0x63    
   \              0x75 0x74    
   \              0x69 0x76    
   \              0x65 0x20    
   \              0x66 0x61    
   \              0x75 0x6C    
   \              0x74 0x73    
   \              0x3A 0x20    
   \              0x20 0x20    
   \              0x20 0x20    
   \              0x25 0x64    
   \              0x20 0x73    
   \              0x61 0x6D    
   \              0x70 0x6C    
   \              0x65 0x73    
   \              0x00         
   \   0000002F   0x00               DC8 0

   \                                 In section .text, align 4, keep-with-next
   \                     `?<Constant "\\t Resolution:        ...">`:
   \   00000000   0x09 0x20          DC8 "\t Resolution:                       %d bits"
   \              0x52 0x65    
   \              0x73 0x6F    
   \              0x6C 0x75    
   \              0x74 0x69    
   \              0x6F 0x6E    
   \              0x3A 0x20    
   \              0x20 0x20    
   \              0x20 0x20    
   \              0x20 0x20    
   \              0x20 0x20    
   \              0x20 0x20    
   \              0x20 0x20    
   \              0x20 0x20    
   \              0x20 0x20    
   \              0x20 0x20    
   \              0x20 0x20    
   \              0x20 0x20    
   \              0x25 0x64    
   \              0x20 0x62    
   \              0x69 0x74    
   \              0x73 0x00    

   \                                 In section .text, align 4, keep-with-next
   \                     `?<Constant "\\t Alert bit is Active...">`:
   \   00000000   0x09 0x20          DC8 "\t Alert bit is Active:              %d"
   \              0x41 0x6C    
   \              0x65 0x72    
   \              0x74 0x20    
   \              0x62 0x69    
   \              0x74 0x20    
   \              0x69 0x73    
   \              0x20 0x41    
   \              0x63 0x74    
   \              0x69 0x76    
   \              0x65 0x3A    
   \              0x20 0x20    
   \              0x20 0x20    
   \              0x20 0x20    
   \              0x20 0x20    
   \              0x20 0x20    
   \              0x20 0x20    
   \              0x20 0x20    
   \              0x25 0x64    
   \              0x00         
   \   00000027   0x00               DC8 0

   \                                 In section .text, align 4, keep-with-next
   \                     `?<Constant "                     ...">`:
   \   00000000   0x20 0x20          DC8 "                                       "
   \              0x20 0x20    
   \              0x20 0x20    
   \              0x20 0x20    
   \              0x20 0x20    
   \              0x20 0x20    
   \              0x20 0x20    
   \              0x20 0x20    
   \              0x20 0x20    
   \              0x20 0x20    
   \              0x20 0x20    
   \              0x20 0x20    
   \              0x20 0x20    
   \              0x20 0x20    
   \              0x20 0x20    
   \              0x20 0x20    
   \              0x20 0x20    
   \              0x20 0x20    
   \              0x20 0x20    
   \              0x20 0x00    

   \                                 In section .text, align 4, keep-with-next
   \                     `?<Constant "\\t Thermostat Low  Thr...">`:
   \   00000000   0x09 0x20          DC8 "\t Thermostat Low  Threshold: %d.%d oC"
   \              0x54 0x68    
   \              0x65 0x72    
   \              0x6D 0x6F    
   \              0x73 0x74    
   \              0x61 0x74    
   \              0x20 0x4C    
   \              0x6F 0x77    
   \              0x20 0x20    
   \              0x54 0x68    
   \              0x72 0x65    
   \              0x73 0x68    
   \              0x6F 0x6C    
   \              0x64 0x3A    
   \              0x20 0x25    
   \              0x64 0x2E    
   \              0x25 0x64    
   \              0x20 0x6F    
   \              0x43 0x00    
   \   00000026   0x00 0x00          DC8 0, 0

   \                                 In section .text, align 4, keep-with-next
   \                     `?<Constant "\\t Thermostat High Thr...">`:
   \   00000000   0x09 0x20          DC8 "\t Thermostat High Threshold: %d.%d oC"
   \              0x54 0x68    
   \              0x65 0x72    
   \              0x6D 0x6F    
   \              0x73 0x74    
   \              0x61 0x74    
   \              0x20 0x48    
   \              0x69 0x67    
   \              0x68 0x20    
   \              0x54 0x68    
   \              0x72 0x65    
   \              0x73 0x68    
   \              0x6F 0x6C    
   \              0x64 0x3A    
   \              0x20 0x25    
   \              0x64 0x2E    
   \              0x25 0x64    
   \              0x20 0x6F    
   \              0x43 0x00    
   \   00000026   0x00 0x00          DC8 0, 0

   \                                 In section .text, align 4, keep-with-next
   \                     `?<Constant "--- TMP100 End of Con...">`:
   \   00000000   0x2D 0x2D          DC8 "--- TMP100 End of Configuration  --"
   \              0x2D 0x20    
   \              0x54 0x4D    
   \              0x50 0x31    
   \              0x30 0x30    
   \              0x20 0x45    
   \              0x6E 0x64    
   \              0x20 0x6F    
   \              0x66 0x20    
   \              0x43 0x6F    
   \              0x6E 0x66    
   \              0x69 0x67    
   \              0x75 0x72    
   \              0x61 0x74    
   \              0x69 0x6F    
   \              0x6E 0x20    
   \              0x20 0x2D    
   \              0x2D 0x00    

   \                                 In section .text, align 4, keep-with-next
   \                     `?<Constant "Temperature Sensor Re...">`:
   \   00000000   0x54 0x65          DC8 "Temperature Sensor Resolution= %d bits"
   \              0x6D 0x70    
   \              0x65 0x72    
   \              0x61 0x74    
   \              0x75 0x72    
   \              0x65 0x20    
   \              0x53 0x65    
   \              0x6E 0x73    
   \              0x6F 0x72    
   \              0x20 0x52    
   \              0x65 0x73    
   \              0x6F 0x6C    
   \              0x75 0x74    
   \              0x69 0x6F    
   \              0x6E 0x3D    
   \              0x20 0x25    
   \              0x64 0x20    
   \              0x62 0x69    
   \              0x74 0x73    
   \              0x00         
   \   00000027   0x00               DC8 0

   \                                 In section .text, align 4, keep-with-next
   \                     `?<Constant "Temperature Sensor Co...">`:
   \   00000000   0x54 0x65          DC8 "Temperature Sensor Conversion Time= %d ms"
   \              0x6D 0x70    
   \              0x65 0x72    
   \              0x61 0x74    
   \              0x75 0x72    
   \              0x65 0x20    
   \              0x53 0x65    
   \              0x6E 0x73    
   \              0x6F 0x72    
   \              0x20 0x43    
   \              0x6F 0x6E    
   \              0x76 0x65    
   \              0x72 0x73    
   \              0x69 0x6F    
   \              0x6E 0x20    
   \              0x54 0x69    
   \              0x6D 0x65    
   \              0x3D 0x20    
   \              0x25 0x64    
   \              0x20 0x6D    
   \              0x73 0x00    
   \   0000002A   0x00 0x00          DC8 0, 0
    376          
    377          

   Maximum stack usage in bytes:

   .cstack Function
   ------- --------
        0  TMP100getConfig
              0 -> halI2CReadint8u
        8  TMP100getData
              8 -> halI2CReadint16u
        8  TMP100getMode
              8 -> TMP100getConfig
        8  TMP100getResolution
              8 -> TMP100getConfig
        8  TMP100getTHighThresholdRaw
              8 -> halI2CReadint16u
        8  TMP100getTHighThresholdRoundC
              8 -> TMP100getTHighThresholdRaw
        8  TMP100getTLowThresholdRaw
              8 -> halI2CReadint16u
        8  TMP100getTLowThresholdRoundC
              8 -> TMP100getTLowThresholdRaw
        8  TMP100getTTolerance
              8 -> TMP100getConfig
        0  TMP100initDevice
              0 -> halI2CWriteint8u
       16  TMP100setConfig
              0 -> halI2CWriteint16u
             16 -> halI2CWriteint16u
             16 -> halI2CWriteint8u
        8  TMP100setContinuousMode
              8 -> TMP100getConfig
              0 -> halI2CWriteint8u
       16  TMP100setMode
             16 -> TMP100getConfig
              0 -> halI2CWriteint8u
        8  TMP100setOneShotMode
              8 -> TMP100getConfig
              0 -> halI2CWriteint8u
       16  TMP100setResolution
             16 -> TMP100getConfig
              0 -> halI2CWriteint8u
       24  TMP100setTConfig
             24 -> TMP100getConfig
              0 -> halI2CWriteint16u
             24 -> halI2CWriteint16u
             24 -> halI2CWriteint8u
        0  TMP100setTHighThresholdRaw
              0 -> halI2CWriteint16u
        0  TMP100setTLowThresholdRaw
              0 -> halI2CWriteint16u
       16  TMP100setTTolerance
             16 -> TMP100getConfig
              0 -> halI2CWriteint8u
       24  TMP100showConfig
             24 -> TMP100getConfig
             24 -> TMP100getTHighThresholdRaw
             24 -> TMP100getTLowThresholdRaw
              0 -> emberAfPrintln
             24 -> emberAfPrintln
             24 -> rawTFrac
        8  TMP100showMeasDelay
              8 -> TMP100getResolution
              0 -> emberAfPrintln
        8  TMP100showMeasResol
              8 -> TMP100getResolution
              0 -> emberAfPrintln
        8  TMP100triggerOneShotMeasurement
              8 -> TMP100getConfig
              0 -> halI2CWriteint8u
        8  getTemperature
              8 -> TMP100getConfig
              8 -> TMP100getData
              0 -> rawT2float
              8 -> readTemperatureRawSleeping
        8  getTemperatureFpoint
              8 -> TMP100getConfig
              8 -> TMP100getData
              0 -> rawT2fpoint
              8 -> readTemperatureRawSleeping
        8  getTemperatureIn100sC
              8 -> TMP100getConfig
              8 -> TMP100getData
              0 -> rawT2100sC
              8 -> readTemperatureRawSleeping
        8  getTemperatureRaw
              8 -> TMP100getConfig
              8 -> TMP100getData
              0 -> readTemperatureRawSleeping
       16  readTemperatureRawBlocking
              0 -> TMP100getData
             16 -> TMP100getResolution
             16 -> TMP100triggerOneShotMeasurement
             16 -> waitBusy
        0  readTemperatureRawNonBlocking
              0 -> TMP100getData
       16  readTemperatureRawSleeping
              0 -> TMP100getData
             16 -> TMP100getResolution
             16 -> TMP100triggerOneShotMeasurement
             16 -> waitSleeping


   Section sizes:

   Bytes  Function/Label
   -----  --------------
      40  ?<Constant "                     ...">
      36  ?<Constant "--- TMP100 End of Con...">
      32  ?<Constant "TMP100 Configuration ...">
      44  ?<Constant "Temperature Sensor Co...">
      40  ?<Constant "Temperature Sensor Re...">
      40  ?<Constant "\t Alert bit is Active...">
      40  ?<Constant "\t Comparator Polarity...">
      48  ?<Constant "\t Number of consecuti...">
      44  ?<Constant "\t Resolution:        ...">
      40  ?<Constant "\t Single Shot Mode En...">
      40  ?<Constant "\t Thermostat High Thr...">
      40  ?<Constant "\t Thermostat Interrup...">
      40  ?<Constant "\t Thermostat Low  Thr...">
      22  ?Subroutine0
      20  ?Subroutine1
      14  ?Subroutine10
       6  ?Subroutine11
      14  ?Subroutine12
      18  ?Subroutine2
       8  ?Subroutine3
      14  ?Subroutine4
      10  ?Subroutine5
       8  ?Subroutine6
       8  ?Subroutine7
       4  ?Subroutine8
      16  ?Subroutine9
      16  TMP100getConfig
       6  TMP100getData
      12  TMP100getMode
      16  TMP100getResolution
       4  TMP100getTHighThresholdRaw
       6  TMP100getTHighThresholdRoundC
       6  TMP100getTLowThresholdRaw
       8  TMP100getTLowThresholdRoundC
      18  TMP100getTTolerance
      18  TMP100initDevice
      50  TMP100setConfig
      16  TMP100setContinuousMode
      22  TMP100setMode
      10  TMP100setOneShotMode
      48  TMP100setResolution
      72  TMP100setTConfig
      14  TMP100setTHighThresholdRaw
      16  TMP100setTLowThresholdRaw
      26  TMP100setTTolerance
     200  TMP100showConfig
      24  TMP100showMeasDelay
      14  TMP100showMeasResol
      12  TMP100triggerOneShotMeasurement
      30  getTemperature
      30  getTemperatureFpoint
      30  getTemperatureIn100sC
      26  getTemperatureRaw
      26  readTemperatureRawBlocking
       2  readTemperatureRawNonBlocking
      24  readTemperatureRawSleeping

 
 1 488 bytes in section .text
 
 1 488 bytes of CODE memory

Errors: none
Warnings: none
