S01D000073657269616C2D756172742D626F6F746C6F616465722E73333716
S31508000000000400206F00000885000008850000082D
S31508000010A70B09010000000001012151004000085A
S31508000020040D000007090008BD0B0008A00400081D
S3150800003000000000000000000000000000000000B2
S315080000400000000000000000000000005E00000044
S31508000050FFFFFFFF09480068202100EA010028B1D8
S315080000600748016842685FEA010D10477047FFF7C5
S31508000070F1FF00F010F800F041F800002C000040F5
S315080000800040000803E000005FEA000D70474FF4E7
S31508000090017000F09BB838B54FF20F043F4D00F0E1
S315080000A0C1F828B140F2052028806C80012032BDB5
S315080000B03B480068C00613D56888A0421CD128882A
S315080000C040F2022188421CBF40F20621884213D022
S315080000D040F2011188421CBF40F2111188420BD030
S315080000E0304C208A40F6A721884205D12068FFF7C0
S315080000F0CBFF6068804700BF002032BD38B5044694
S3150800010072B62948016849084900016000F0D0F82C
S31508000110234800680009C10754BF2449244902E05E
S31508000120CD2201F8012B234A9142F9D32249234AC9
S31508000130234B03E011F8015B02F8015B9A42F9D3FD
S315080001402049214A002301E001F8013B9142FBD3F3
S3150800015040F20521114A53884FF20F05AB420BD1E5
S3150800016013888B4206D0C00706D5180A012818BF7F
S31508000170022801D1194601E004B900210648018088
S315080001804CF23C30508000F071F94FF40170BDE834
S31508000190324000F01BB80000280C002000000020A8
S315080001A02C00004000400008FCED00E000000020A4
S315080001B098000020000400206C10000800040020AD
S315080001C008040020080400202D0C00200D493022C8
S315080001D00A600D490A600D490A600D4910220A6035
S315080001E0010A08BF00020B4908804FF20F00488039
S315080001F0BFF35F8F0848002101604160074808493E
S31508000200016070473020004030C8004030C00040D0
S3150800021010E00040000000201C4000400CED00E00B
S315080002200400FA050020704780B500F03DF9012169
S31508000230062000F044F9062000F071F90121072094
S3150800024000F03DF9072000F05DF91748016821F034
S315080002501001016001BD0000052800D9704710B5DE
S31508000260DFE800F01721030F1C17104C2088411EE9
S315080002702180C0B9072000F05FF942F21070208093
S3150800028010BD072000F04BF90620BDE8104000F02D
S3150800029053B90620BDE8104000F034B90620BDE881
S315080002A0104000F03CB910BD00BC00402A0C0020EC
S315080002B006E05248016841F00101016001214160F0
S315080002C05348512101607047F8B5504C4C4D4FF6D4
S315080002D0FF774D4EB088B84227D102237F224D487A
S315080002E00188301D00F03EF9B088B84204BF0220EC
S315080002F0B080A069800703D4A06940F00200A0611D
S3150800030001207070B088206007202860002068608F
S31508000310A8603C484FF000710160A069C00732D55B
S31508000320E06980B348F69F403CE0A0698007E3D5C2
S315080003302868C00348BF00F051F8707898BBA068D9
S3150800034010F00100A168B28803D10F2A08D2521C06
S3150800035006E0890704D5F17811B1032A28BF521E91
S31508000360F07092B2022A38BF0222B2802068B188A1
S315080003708842C5D1A06900F00300032818BFFFF71B
S3150800038098FF0120F2BDA069C00701D5E06920B138
S31508000390A069C00704D4E06910B144F24F6001E0D7
S315080003A042F2273068600020F2BD80B51A4801780D
S315080003B029B9C07807281CBF0928032809D0174877
S315080003C0016841F48071016003E040F2DC5000F0FE
S315080003D0FDF8FFF779FF0028F7D001BD084800218E
S315080003E041608160016821F00201016005484FF013
S315080003F00071016004480021417070471C400040AC
S3150800040010E000E004ED00E0000400200440004095
S315080004100080004068100008960708083840004029
S315080004200078704730B5DBB00446214636A800F0A0
S31508000430E7F8002000904FF402630B4A36A901A89A
S3150800044000F061FA0FF24C0201A90FF2540000F015
S31508000450B5FB054600F02FF81DB12146284600F0E9
S315080004601BF928465BB030BD0804002080B5FFF7AD
S315080004709CFFFFF7D9FE00F0C1FB00F047FC40F2F5
S315080004800120FFF7A3FE002002BD012A08BF00F0E5
S31508000490C9BB7047E10F00081D10000821040008B9
S315080004A0530800088B0800080E48012181604EF6A3
S315080004B0BE21416000E00C4801210160704710B57B
S315080004C082080FF2280353F82220136800F003006D
S315080004D080000F248440A34301FA00F018431060FB
S315080004E010BD0000006000400860004000B00040F9
S315080004F004B0004000B2004004B2004000B400401E
S3150800050004B40040C108032908D2C1104902124A9E
S31508000510012300F0070003FA00F050507047C108A5
S31508000520032908D2C11049020C4A012300F007002A
S3150800053003FA00F050507047C10803290BD2C110C6
S31508000540074A02EB41210A68012300F0070003FA73
S3150800055000F050400860704714B0004010B00040EA
S315080005600CB0004030B583B0044610467F2808BF5B
S315080005700020B1F5004F1AD108237F2240F6120158
S3150800058000A8FFF7EFFF08220FF2380100A800F0D5
S31508000590E2FC30B908237F2240F2A27100A8FFF7D7
S315080005A0E1FF082200A9204600F0BCFC37BD1A4628
S315080005B0034D294300FB0311204600F0B3FC37BD69
S315080005C000000808FFFFFFFFFFFFFFFF0A490A6850
S315080005D00A4B1B68DB0758BF4008032809D34B6D35
S315080005E043F001034B650B689B1A1B031B0B8342E5
S315080005F0F9D3704700000000382000401C40004036
S31508000600017001224270827001290CBF80214021AD
S3150800061081800021C18001811D4801600E2181620F
S31508000620016821F0100101600021416341627047B1
S31508000630F8B504460D46164616484FF0FF310160D8
S31508000640134FFE6200207862386840F00100386077
S31508000650FFF731FF012C19D16DB900F032FB78B9DB
S31508000660786AB042F4D3002EF2D0386840084000C9
S3150800067038601620F2BD284600F02AFB0028EFD184
S3150800068038684008400038600020F2BD0120F2BDFD
S3150800069000F0004000A8004038B504460D4600F0BA
S315080006A009F800F007F82A4621461820BDE8384020
S315080006B0FFF7EBBE2A4621461820FFF7E6BE30B5FF
S315080006C083B00446002020814AF6B43200A9207877
S315080006D0FFF7AEFF08B11C203EBD9DF800000328B9
S315080006E018BF182801D118203EBD042801D11720AB
S315080006F03EBD012801D021203EBD002500E06D1C2D
S31508000700EDB2A188091D8D420BDA40F2DD222819C7
S3150800071000F10A012078FFF78BFF0028EFD026208A
S315080007203EBD0025002006E00146EDB22819007BF3
S3150800073000F022FC6D1CA188EAB28A42F4D3A27AA0
S31508000740E37A9B18FF2B01D022203EBD0B191D7B97
S31508000750B5EB102F01D023203EBD5B7BC0B2834290
S3150800076001D024203EBDA078824207D0401EC0B2E8
S31508000770824201D127203EBD25203EBD881C20810E
S315080007800220E08000203EBD38B504466078012886
S3150800079004D023D3032855D018D31FE02078012886
S315080007A011D13B25432000F03DFA40F2DD2200211D
S315080007B02078FFF73DFF30B12846451EC0B2002815
S315080007C0F0D11B2032BD0220607010E000F092FAD2
S315080007D000F03AF8A078401CA07008E0182032BD56
S315080007E02278A078411EC9B20620FFF74EFE2046A1
S315080007F0FFF765FF050018BF00F07CFA272DEFD03C
S31508000800A8060BD52278A1781520FFF73EFE002D05
S31508000810EDD10320FFF720FD002032BD680603D482
S31508000820182D18BF1C2D07D121782846FFF734FF4D
S3150800083004206070284632BD172DE8D100F004F870
S3150800084003206070172032BD2278A1780620FFF7B2
S315080008501CBEF8B504460D461646002706E0E08895
S31508000860411CE1800019807A78557F1CBFB2B742D7
S3150800087009D2E08821898842F1D32046FFF784FF10
S315080008800028ECD0F2BD0020F2BD10B50446204683
S31508000890FFF77AFF0028FAD010BD0000F8B5044625
S315080008A00D4616461F4607E03046A047294600F083
S315080008B075FB05467F1E761CBFB2002FF4D128466D
S315080008C0F2BD38B50C46154605E0014614F8010B8D
S315080008D000F064FB6D1EADB2002DF6D132BDF8B541
S315080008E004460D4616461F463A463146286823688A
S315080008F09847040005D13A463146E868FFF7E1FF14
S31508000900E8602046F2BD10B5029C847203814260FD
S3150800091001604FF0FF31C1600021017410BD2DE95F
S31508000920F84F04468B461E469BF81B70802F28BF3F
S315080009308027D0689D49884250D1002E4CD0B06897
S3150800094000904FF0FF384FF000090BEB490A9AF870
S3150800095048500FE0FF2D16D0FFF7ADFD4FF40063AA
S31508000960E80240F0006241460098FFF797FF80468C
S31508000970681CC5B29AF84900A842EBDA09F10109E0
S31508000980B9F1060FE1DBDBF844006FEA080188429B
S3150800099024D1A06800BA7A08594673689847C8B936
S315080009A0E06805BAA06802BA3B464FF0FF31B06866
S315080009B0FFF774FFC04385420CD140F6A720ABF879
S315080009C01000A06800BA01220BF1100110307368FC
S315080009D0984708B1422002E0172000E04320BDE80E
S315080009E0F28F2DE9F84F80460D469146D5F804A0BA
S315080009F02889ADF8000005F1140606F1100704234E
S31508000A0052464046FFF76BFF002870D1BAF800003F
S31508000A1040BA1FFA80FBBAF8020040BA84B2E0076F
S31508000A2048BF462063D4B4F5026FC8BF4E205EDCCB
S31508000A30002C5BD05FEA0B000AD04FF60441BBEBF3
S31508000A40010000F09B80FF3853D0FE3851D0ABE050
S31508000A50287C08B151204AE08D2C28BF4F2046D269
S31508000A602346321D00F0A7F8002840D1FA7E802AD6
S31508000A7028BF802202F10C00844201BFB08840BA28
S31508000A8000F47F40B0F5007F2CD1F08840BA4EF2D2
S31508000A905031884202BF388A40F6A721884202BFF1
S31508000AA0788A00F47F40B0F5807F1BD1B06800BA21
S31508000AB03F49C969884215D14FF6FF70388206F159
S31508000AC010014FF0FF30FFF7FCFEF16809BAC94381
S31508000AD0884204BF387E042804D1787E0D2818BFC2
S31508000AE0062801D0452002E0012028740020BDE830
S31508000AF0F28F287C002843D0042300F05BF80028F6
S31508000B00F5D1DAF8000006BA201F84B22848C06971
S31508000B10864238BF4820EAD3A019796D884228BF93
S31508000B204920E4D24FF6035083450DD1B9F1000FA1
S31508000B300AD031460220D9F80020904720B14A2031
S31508000B40D5E7E01B84B2BE19002CCFD0BDF8000053
S31508000B508442B4BF274607463B4600F02BF80028D8
S31508000B60C5D1B9F1000FECD07A0851463046D9F80C
S31508000B70043098470028E4D04B20B8E7287C08B909
S31508000B804120B4E7042C18BF4C20B0D104236A686E
S31508000B9000F011F80028AAD14B462A4639463046B5
S31508000BA001B0BDE8F04FBAE64420A0E7E320BBDE7B
S31508000BB00000000852462946404690E670B50446AD
S31508000BC00D4616462889C10701D4802803DA4F2026
S31508000BD070BDA87A78B9324629462046FFF701FF44
S31508000BE00028F6D0172807D128686168884717288B
S31508000BF002D1002070BD502070BD000080B53A4873
S31508000C006821416100218161022181600121016021
S31508000C1009210920FFF753FC04210A20BDE80440F6
S31508000C20FFF74DBC3249CA685207FCD508607047C1
S31508000C3010B5044603E014F8010BFFF7F3FF20781C
S31508000C400028F8D110BD7CB500A90FF2B80218CA61
S31508000C5018C1052104220A230CE080B290FBF3F4A4
S31508000C6003FB1405EDB2204600AC05F130060E551F
S31508000C7005B10A46491E49B20029EED5D2B200A8E6
S31508000C801018FFF7D5FF73BD10B5044620090A28CA
S31508000C902CBF37303030C0B2FFF7C4FF04F00F0066
S31508000CA00A282CBF37303030C0B2BDE81040B9E74B
S31508000CB010B50446200AFFF7E7FFE0B2BDE810408A
S31508000CC0E2E70A48006810F0020018BF01207047E2
S31508000CD010B50446FFF7F5FF20B1054800682070F7
S31508000CE0002010BD012010BD54C8004048C800406F
S31508000CF03CC8004080B500A8FFF7EAFF0028FAD0F4
S31508000D0001BD000030303030300000002DE9F84FCA
S31508000D10FFF7D1FBFFF7EEFF0020FFF79DFA0FF272
S31508000D207418474D44A60FF2401B44A4DFF81491EB
S31508000D300FF2141A1DE05046FFF77AFF0C27B9F890
S31508000D401A00384100F00F00FFF77DFF012FA4BFFE
S31508000D502E20FFF767FF3F1FF1D52046FFF768FFF4
S31508000D60B9F84C00FFF76FFF5846FFF761FFFFF72A
S31508000D70C1FFFFF7A0FB0220FFF76EFA00A8FFF7F6
S31508000D80A7FF0028F5D19DF80000FFF74BFF9DF857
S31508000D9000000A2818BF0D28CDD0312804D03228E3
S31508000DA02FD0332832D0E2E70FF2F800FFF740FFE2
S31508000DB00120FFF737FB07460FF2FC00FFF738FF65
S31508000DC0380005D10520FFF747FA0FF20010CCE7E7
S31508000DD00420FFF741FA0FF20010FFF729FFB806C3
S31508000DE048BF0FF2001005D478064CBF0FF20C105E
S31508000DF00FF22410FFF71CFF3846FFF759FF30465D
S31508000E00B3E70120FFF728FABDE8F18F002730463F
S31508000E10FFF70EFF288A40F6A721884218BF4046EA
S31508000E20A3D1781990F824007F1C20B1FFF7FAFEA9
S31508000E30FFB2202FF5D3E2E70D0A0000206200007A
S31508000E4000400008000000080D0A454D33353836C5
S31508000E502053657269616C20426F6F746C6F6164B0
S31508000E6065722076000000000D0A312E2075706C20
S31508000E706F61642065626C0D0A322E2072756E0DE4
S31508000E800A332E2065626C20696E666F0D0A424C25
S31508000E90203E20002A2A206E6F20617070202A2AA0
S31508000EA00D0A00000D0A626567696E2075706C6F21
S31508000EB061640D0A000000000D0A53657269616CD1
S31508000EC02075706C6F61642000000000636F6D70A0
S31508000ED06C6574650D0A000061626F727465640D55
S31508000EE00A0000000D0A584D6F64656D20626C6F2C
S31508000EF0636B206572726F72203078000D0A646F1A
S31508000F00776E6C6F61642066696C65206572726FB6
S31508000F1072203078000000000D0A6572726F722028
S31508000F2030780000814212D21018401E5118491E0E
S31508000F3092B2002A1EBF11F8013900F80139521E73
S31508000F40F6D1704711F8013B00F8013B521E92B2E8
S31508000F50002AF7D1704710B500E0521E92B232B19E
S31508000F6010F8013B11F8014BA342F6D001E000202E
S31508000F7010BD181B40B210BD0A0242EA11214840B2
S31508000F80C0F30311484080EA00304101C9B20206A5
S31508000F90D20E41EA0221484080B270470A0A484008
S31508000FA0C0B208214308C00746BF03485840184640
S31508000FB0491EF7D1504070472083B8ED2748018A6B
S31508000FC040F6A772914202BF418A4FF47F40014220
S31508000FD004D102298041C043C00F704700207047E2
S31508000FE0F8B504460D461C4E01203070FFF7E6FFA3
S31508000FF018B94FF40170FFF7E9F81848876A2946C7
S3150800100044F48070B847002131700FF2540618B9BD
S31508001010294644F40070B847805DF2BD2DE9F041D9
S31508001020044688465600FFF7C9FF18B94FF4017001
S31508001030FFF7CCF80948476A00233246414620465E
S31508001040B8470FF21C0520B9334600224146204610
S31508001050B847405DBDE8F0812C0C00200000080868
S31508001060000202024B4B4647EE0800000000000152
S30908001070FFFF000070
S7050800006F83
