S02500007365637572652D6170702D626F6F746C6F616465722D737069666C6173682E733337FB
S31508000000000400206F00000885000008850000082D
S31508000010A70B090100000000010221510020000879
S3150800002004030000D110000891150008FC0500081B
S3150800003089080008190A0008630A0008FB0800086E
S3150800004025090008890B0008870900085E000000DA
S31508000050FFFFFFFF09480068202100EA010028B1D8
S315080000600748016842685FEA010D10477047FFF7C5
S31508000070F1FF00F013F800F045F800002C000040EE
S315080000800020000806E000005FEA000D70474448BB
S31508000090008870474FF4017000F09CB838B54FF2ED
S315080000A00F04404D00F0C2F828B140F20520288020
S315080000B06C80012032BD3C480068C00613D56888AC
S315080000C0A0421CD1288840F2022188421CBF40F277
S315080000D00621884213D040F2011188421CBF40F223
S315080000E0111188420BD0314C208A40F6A72188424C
S315080000F005D12068FFF7C8FF6068804700BF002069
S3150800010032BD000038B5044672B629480168490868
S315080001104900016000F0D0F8234800680009C107CB
S3150800012054BF2449244902E0CD2201F8012B234A71
S315080001309142F9D32249234A234B03E011F8015B84
S3150800014002F8015B9A42F9D32049214A002301E0CB
S3150800015001F8013B9142FBD340F20521114A53882D
S315080001604FF20F05AB420BD113888B4206D0C0075E
S3150800017006D5180A012818BF022801D1194601E038
S3150800018004B90021064801804CF23C30508000F04A
S3150800019007FA4FF40170BDE8324000F01BB80000C2
S315080001A0B80C0020000000202C00004000200008A9
S315080001B0FCED00E00000002098000020000400206C
S315080001C0A01B0008000400200804002008040020E2
S315080001D0BD0C00200D4930220A600D490A600D4900
S315080001E00A600D4910220A60010A08BF00020B497D
S315080001F008804FF20F004880BFF35F8F0848002140
S315080002000160416007480849016070473020004096
S3150800021030C8004030C0004010D000400000002028
S315080002201C4000400CED00E00400FA050020704771
S3150800023080B500F0E7F90121062000F0EEF9062066
S3150800024000F01BFA0121072000F0E7F9072000F06B
S3150800025007FA1748016821F01001016001BD000086
S31508000260052800D9704710B5DFE800F01721030FFD
S315080002701C17104C2088411E2180C0B9072000F0A9
S3150800028009FA42F21070208010BD072000F0F5F937
S315080002900620BDE8104000F0FDB90620BDE8104074
S315080002A000F0DEB90620BDE8104000F0E6B910BD42
S315080002B000BC0040BA0C002006E04B48016841F03B
S315080002C001010160012141604C48512101607047DC
S315080002D0F8B5494C454D4FF6FF77464EB088B842BB
S315080002E027D102237F2246480188301D00F0E8F90D
S315080002F0B088B84204BF0220B080A069800703D442
S31508000300A06940F00200A06101207070B0882060EA
S315080003100720286000206860A86035484FF0007103
S315080003200160A069C00732D5E06980B348F69F40EE
S315080003303CE0A0698007E3D52868C00348BF00F001
S3150800034043F8707898BBA06810F00100A168B288DD
S3150800035003D10F2A08D2521C06E0890704D5F17882
S3150800036011B1032A28BF521EF07092B2022A38BF72
S315080003700222B2802068B1888842C5D1A06900F0FF
S315080003800300032818BFFFF798FF0120F2BDA069F4
S31508000390C00701D5E06920B1A069C00704D4E069A7
S315080003A010B144F24F6001E042F227306860002045
S315080003B0F2BD80B503E040F2DC5000F0B5F9FFF776
S315080003C087FF0028F7D001BD0848002141608160F9
S315080003D0016821F00201016005484FF000710160D3
S315080003E004480021417070471C40004010E000E0BE
S315080003F004ED00E0000400200440004000800040B6
S315080004009C1B000800787047002101608180C1802C
S3150800041001817047F8B504460D461646002710E0D8
S315080004202068803020600020E08080202081A0881D
S31508000430401CA080E088411CE1800019807A78552C
S315080004407F1CBFB2B7420CD2E08821898842F1D31B
S31508000450802204F10A01206800F0DEFA0028DFD0C5
S31508000460F2BD0020F2BD0020704710B5044600F02A
S31508000470D0F82046BDE8104000F071BC2DE9F043E5
S31508000480A5B000F053FC00F0C4F800F0A7FC012169
S3150800049000A800F0ABFC404C04F180050020686021
S315080004A0A86000F03FFA00280FBFE8608168E9609D
S315080004B04088A4F8800000A800F05CFD070046D13B
S315080004C0BDF80420BDF8060000A9401800F20A0687
S315080004D05FFA82F894F8800080070FD5E96869B159
S315080004E0686808EB00024B1E22EA030710B1A868E9
S315080004F0B84203D2384600F047FBAF604246314661
S31508000500686800F0AEFA07000FD1424621466868CF
S3150800051000F082FA002000E0401C404505DA015D43
S31508000520825D9142F8D0832706E068684044686097
S31508000530002FC0D01B2FBED00420FFF791FE01214B
S31508000540384600F09FFC384625B0BDE8F083172FE3
S31508000550F0D10020F8E770B5DAB0044636A8FFF700
S3150800056053FF012000904FF402630C4A36A901A8F4
S3150800057000F0AEFD0FF284050FF2740600F049F89C
S31508000580002C14BF3246002201A9284601F000F8C3
S315080005905028F3D05AB070BD280C0020080400205B
S315080005A080B5FFF706FFFFF743FE00F06DF918B1B7
S315080005B04FF40170FFF70EFE00F02BF8FFF767FD0A
S315080005C040F2011188421CBF40F21111884207D03F
S315080005D040F2052188421CBF40F20321884201D11E
S315080005E0012000E0002001F001F8002002BD000013
S315080005F0A91A0008E51A00080504000815040008E9
S31508000600670400080E48012181604EF6BE2141604C
S3150800061000E00C4801210160704710B582080FF20E
S31508000620280353F82220136800F0030080000F24E3
S315080006308440A34301FA00F01843106010BD00007F
S31508000640006000400860004000B0004004B0004070
S3150800065000B4004004B4004000B8004004B80040AC
S31508000660C108032908D2C1108902124A012300F0E1
S31508000670070003FA00F050507047C108032908D252
S31508000680C11089020C4A012300F0070003FA00F0A2
S3150800069050507047C10803290BD2C110074A02EB14
S315080006A081210A68012300F0070003FA00F0504090
S315080006B00860704714B0004010B000400CB000400D
S315080006C030B583B0044610467F2808BF0020B1F530
S315080006D0004F1AD108237F2240F6120100A8FFF71F
S315080006E0EFFF08220FF2380100A800F0E3FF30B947
S315080006F008237F2240F2A27100A8FFF7E1FF082233
S3150800070000A9204600F0B6FF37BD1A46034D294317
S3150800071000FB0311204600F0ADFF37BD00000408BA
S31508000720FFFFFFFFFFFFFFFF0A490A680A4B1B6826
S31508000730DB0758BF4008032809D34B6D43F0010374
S315080007404B650B689B1A1B031B0B8342F9D3704737
S3150800075000000000382000401C400040DFF810145C
S315080007604A685207FCD508607047DFF804044168F8
S315080007708907FCD50068C0B2704710B5044601E089
S31508000780FFF7F3FF2046441EC0B20028F8D110BD7B
S3150800079010B504462002000EFFF7E0FF2004000E05
S315080007A0FFF7DCFFE0B2BDE81040D7E780B5FFF7FA
S315080007B0D5FFBDE80140D8E770B500F0AEF89F2038
S315080007C0FFF7CCFF032501E000F049F92846451E4E
S315080007D0C0B20028F8D1FFF7C8FFFFF7C6FF0546E5
S315080007E0FFF7C3FF0646FFF7C0FF40EA06200821C9
S315080007F021601F2D1DD0202D28D0C22D0ED0EF2D03
S3150800080037D143F21201884204D044F214018842D7
S3150800081002D02EE0012070BD022070BD42F2120106
S31508000820401A02D0801E02D023E0032070BD0420A7
S3150800083070BD44F20141884204D044F20151884215
S3150800084002D016E0052070BD062070BD42F21201E6
S31508000850401A06D0401E06D0401E06D0401E06D0BE
S3150800086007E0072070BD082070BD092070BD0A206A
S3150800087070BD002070BD10B500F04FF80620FFF7D8
S3150800088095FF0820206010BD10B5BA4C41F64910F6
S315080008902060B9480021C1600161416010214160B2
S315080008A00221016001210F20FFF7B7FEB34880211E
S315080008B0016042F21070FFF737FF08206061AB2035
S315080008C0FFF774FF082020611E20FFF72DFFFFF7B2
S315080008D073FF08B9862010BD401F02280BD2FFF708
S315080008E0CAFF082060610120FFF760FF0020FFF7BC
S315080008F05DFF08202061002010BD10B500F043F808
S315080009000028FBD100F009F8B920FFF74FFF0820AF
S3150800091020609B488021016010BD9A4C08206060C9
S315080009207047000080B500F02EF80028FBD1FFF7CD
S3150800093043FF401E092824D8DFE800F005080B0EFF
S315080009401114171A1D200FF2F42002BD0FF20430FD
S3150800095002BD0FF2183002BD0FF2283002BD0FF2A9
S315080009603C3002BD0FF24C3002BD0FF2603002BDC2
S315080009700FF2703002BD0FF2843002BD0FF29430D0
S3150800098002BD002002BD10B5FFF7C7FF0520FFF71F
S31508000990E5FE00F064F8FFF7E8FEFFF7E6FE08213B
S315080009A0216010F0010018BF012010BD10B50446E3
S315080009B0FFF7E9FF0028FBD114B9FFF7FDFE04E0B5
S315080009C0207810B9FFF7F8FE2070401E092812D8C3
S315080009D0DFE800F0050B050B080B05080B0E4FF4B6
S315080009E0802010BD4FF4002010BD4FF4801010BDBC
S315080009F04FF4001010BD002010BD10B50C18B4F54A
S31508000A00802F01D8012010BD1046FFF7CFFFA04266
S31508000A108041C043C00F10BDF8B504460D4600F02E
S31508000A2086F808B98520F2BDFFF7ADFF0028FBD18F
S31508000A3000F081F82046FFF7ABFE00F076F805E0F7
S31508000A4000F00DF8FFF791FE05F8010B3046461E3B
S31508000A5080B20028F4D1082038600020F2BDFF20BB
S31508000A607CE62DE9F84F0446894600F060F808B997
S31508000A7085202EE0B046FFF786FF0028FBD100F060
S31508000A805AF82046FFF784FE00F04FF84046A0F1DA
S31508000A90010880B238B1FFF7E2FFFFF766FEFF28CC
S31508000AA0F4D0872015E0082038604FF480782006B7
S31508000AB008D0200A000200F580703119814205D35A
S31508000AC0051B04E040F20110864204D235461EB9E1
S31508000AD00020BDE8F28F4546AB46CA46FFF753FFEE
S31508000AE00028FBD1FFF7C7FE082078600220FFF731
S31508000AF035FE2046FFF74CFE00F017F803E01AF81B
S31508000B00010BFFF753FE5846A0F1010B80B20028EF
S31508000B10F5D108203860761BA8B20444814440F217
S31508000B200110B6B28642D6D2D0E7042025E616468C
S31508000B300022314661E7134F0820786003200DE64E
S31508000B4070B504460D46FFF71EFF0028FBD1FFF7D8
S31508000B5092FE0C4E082070602046FFF7FFFD2846DF
S31508000B60FFF716FEFFF7E1FF0820306070BD0000B2
S31508000B703CC0004000B0004054C0004010B40040E3
S31508000B8014B4004010B00040F8B504460D460020E5
S31508000B908DF8000040F6FF7600A8FFF707FF074626
S31508000BA09DF80000C01FC0B2042838BF4FF6FF7674
S31508000BB0354201D08220F2BD344201D08120F2BDF7
S31508000BC000AAA9B22046FFF718FF08B98520F2BD8A
S31508000BD0BCB9BD4215D1FFF7D6FE0028FBD1FFF7F9
S31508000BE04AFEFFF79AFEC720FFF7E0FD08202060BF
S31508000BF022E021462020FFF7A3FF04F58054A5F53F
S31508000C008055CDB12004F4D1B5F5803F12D32146E5
S31508000C10D820FFF795FF04F5803405F17F4505F5E3
S31508000C207F05F1E721462020FFF78AFF04F5805467
S31508000C30A5F58055002DF5D10020F2BD020103006F
S31508000C409A0100080010000000000400341B000888
S31508000C5001000000020103009A01001800100000BC
S31508000C6000001000401B00080100000002010300FC
S31508000C709A01340F00100000000004004C1B000805
S31508000C8001000000020103009A01003C0010000068
S31508000C9000001000581B00080100000002010300B4
S31508000CA09A01001C0010000000000800641B0008E0
S31508000CB001000000020103009A0100700010000004
S31508000CC000001000701B000801000000020103006C
S31508000CD0000C001800000100000004007C1B00083E
S31508000CE00100000002010300000C002800000100BA
S31508000CF000000800841B0008010000000201030030
S31508000D00000C005000000100000010008C1B0008B9
S31508000D100100000002010300000C00A00000010011
S31508000D2000002000941B00080100000080B5284838
S31508000D3068214161002181610221816001210160F0
S31508000D4009210920FFF769FC04210A20BDE80440AF
S31508000D50FFF763BC1F4800684006FBD570471E496D
S31508000D60CA685207FCD50860704710B5044603E008
S31508000D7014F8010BFFF7F3FF20780028F8D110BD0F
S31508000D8010B5044620090A282CBF37303030C0B2C7
S31508000D90FFF7E5FF04F00F000A282CBF3730303084
S31508000DA0C0B2BDE81040DAE70A48006810F0020051
S31508000DB018BF0120704710B50446FFF7F5FF20B1AC
S31508000DC0054800682070002010BD012010BD0000F5
S31508000DD054C8004048C800403CC8004080B500A838
S31508000DE0FFF7E9FF0028FAD001BD000001700122D3
S31508000DF04270827001290CBF802140218180002128
S31508000E00C18001811D4801600E218162016821F0BF
S31508000E10100101600021416341627047F8B504463C
S31508000E200D46164616484FF0FF310160134FFE6215
S31508000E3000207862386840F001003860FFF7E9FB67
S31508000E40012C19D16DB9FFF7AFFF78B9786AB042AE
S31508000E50F4D3002EF2D038684008400038601620D7
S31508000E60F2BD2846FFF7A7FF0028EFD138684008EB
S31508000E70400038600020F2BD0120F2BD00E00040CD
S31508000E8000A8004038B504460D4600F009F800F001
S31508000E9007F82A4621461820BDE83840FFF7E5BA84
S31508000EA02A4621461820FFF7E0BA30B583B0044633
S31508000EB0002020814AF6B43200A92078FFF7AEFF59
S31508000EC008B11C203EBD9DF80000032818BF18284D
S31508000ED001D118203EBD042801D117203EBD0128A6
S31508000EE001D021203EBD002500E06D1CEDB2A18891
S31508000EF0091D8D420BDA40F2DD22281900F10A019C
S31508000F002078FFF78BFF0028EFD026203EBD00256E
S31508000F10002006E00146EDB22819007B00F0DCFB54
S31508000F206D1CA188EAB28A42F4D3A27AE37A9B18A6
S31508000F30FF2B01D022203EBD0B191D7BB5EB102FD0
S31508000F4001D023203EBD5B7BC0B2834201D0242062
S31508000F503EBDA078824207D0401EC0B2824201D16F
S31508000F6027203EBD25203EBD881C20810220E0802A
S31508000F7000203EBD38B504466078012804D023D346
S31508000F80032855D018D31FE02078012811D13B2516
S31508000F904320FFF7E4FE40F2DD2200212078FFF728
S31508000FA03DFF30B12846451EC0B20028F0D11B20AF
S31508000FB032BD0220607010E0FFF710FF00F03AF82B
S31508000FC0A078401CA07008E0182032BD2278A078CE
S31508000FD0411EC9B20620FFF748FA2046FFF765FF0B
S31508000FE0050018BFFFF7FAFE272DEFD0A8060BD588
S31508000FF02278A1781520FFF738FA002DEDD10320C5
S31508001000FFF72EF9002032BD680603D4182D18BF45
S315080010101C2D07D121782846FFF734FF042060707D
S31508001020284632BD172DE8D100F004F80320607079
S31508001030172032BD2278A1780620FFF716BA0000DD
S31508001040F8B504460D4616461F4607E03046A04743
S31508001050294600F053FB05467F1E761CBFB2002FBB
S31508001060F4D12846F2BD38B50C46154605E00146CA
S3150800107014F8010B00F042FB6D1EADB2002DF6D13F
S3150800108032BDF8B507460E4614461D462A46214681
S3150800109030683B689847070005D12A462146F0681C
S315080010A0FFF7E1FFF060D6F8A8002818C6F8A800F0
S315080010B096F8A70050B1AC362A462146304600F0CD
S315080010C0F1FB2A462146304600F06CFB3846F2BD55
S315080010D010B5029C84720381426001604FF0FF31B3
S315080010E0C16000210174A0F8A410802180F8A61020
S315080010F0002180F8A710C0F8A8102822AC30BDE857
S31508001100104000F0D0BA2DE9F84F04468B461E462B
S315080011109BF81B70802F28BF8027D0689B49884280
S3150800112050D1002E4CD0B06800904FF0FF384FF0E9
S3150800113000090BEB490A9AF848500FE0FF2D16D024
S31508001140FFF767FA4FF40063E80240F00062414691
S315080011500098FFF775FF8046681CC5B29AF84900E3
S31508001160A842EBDA09F10109B9F1060FE1DBDBF870
S3150800117044006FEA0801884224D1A06800BA7A08B8
S31508001180594673689847C8B9E06805BAA06802BAAC
S315080011903B464FF0FF31B068FFF752FFC043854228
S315080011A00CD140F6A720ABF81000A06800BA0122BF
S315080011B00BF1100110307368984708B1422002E01D
S315080011C0172000E04320BDE8F28F2DE9F44F82B0E6
S315080011D081460D46D5F804B02889ADF8000005F11A
S315080011E0140606F1100704235A4600F0CFF9002822
S315080011F025D1BBF8000040BA1FFA80F8BBF80200F8
S3150800120040BA84B2E00748BF462076D4B4F5026FE8
S31508001210C8BF4E2071DC002C6ED0DFF874A15FEADF
S31508001220080009D04FF60441B8EB010064D0FF3836
S3150800123065D0FE3863D0A7E0287C08B151205CE071
S315080012408D2C28BF4F2058D22346321D00F09DF919
S31508001250002852D1FA7E802A28BF802202F10C008B
S31508001260844201BFB08840BA00F47F40B0F5007FE1
S315080012703ED1F08840BA4EF25031884202BF388AD1
S3150800128040F6A721884233D1788A00F47F40B0F52A
S31508001290807F01BFB06800BADAF81C10884227D1EF
S315080012A0BAF8180040F2032188420BD1788AB0F5C3
S315080012B0847F1DD3F86D41051AD13649081AB0F551
S315080012C0283F15D84FF6FF70388206F110014FF007
S315080012D0FF30FFF7C8FEF16809BAC943884204BF60
S315080012E0387E042804D1787E032818BF062801D042
S315080012F0452002E0012028740020BDE8FE8F287CE6
S3150800130008B94120F9E7042300F03EF90028F4D192
S31508001310DBF8000006BA201F84B2DAF81C00864201
S3150800132038BF4820E9D3A019796D884228BF4920DB
S31508001330E3D24FF6035080450CD1029850B131469E
S315080013400220029A1268904720B14A20D5E7E01B8E
S3150800135084B2BE19002CCFD0BDF800008442B4BFB9
S31508001360274607463B4600F00FF90028C5D10298E4
S315080013700028ECD07A0859463046029B5B689847A5
S315080013800028E4D04B20B8E74420B6E7E320BBDECC
S315080013900000000800E002082DE9F84304468846E4
S315080013A0154605F1AC062F89102C38BF4E202CD3D4
S315080013B00423324600F02BF838BB0C23321D00F00C
S315080013C026F810BBA4F11001306800BA30608CB260
S315080013D02146304600F0AEF906E04A4669683046CE
S315080013E000F0E0F9A4EB0904A4B254B1A146BC424A
S315080013F088BFB9464B466A6800F009F80028ECD061
S3150800140003E0304600F0F1F90020BDE8F2832946F2
S31508001410404636E62DE9FE4F81460C4690466668FC
S3150800142004F1140A0AF1100B04F1A405A87883281C
S3150800143005D14FF60710AF888221A9700AE0042368
S31508001440324600F0A3F8002866D1308840BA718881
S3150800145049BA8FB2F90748BF46205DD4A97880B249
S315080014604FF20972801A58D04FF4FF72801A3AD098
S31508001470FF382FD0FF3802D0FF386BD081E08029A3
S315080014806AD1062F23D3062301AA21464846FFF729
S31508001490F8FDE8B9BDF8040040BA00F47F40B0F59D
S315080014A0007F01BFBDF8080040BA4EF250318842AD
S315080014B00DD1BDF8060040BA012818BF522007D141
S315080014C0BDF8060040BAA4F8A400002000E04520B4
S315080014D0812154E081293FD1224649463846FFF703
S315080014E05BFF82214BE0822936D1042F2DD30120C0
S315080014F0E87000206860424621464846FFF765FEC8
S3150800150018BB0021E97069688F421ED3B94239D2E7
S315080015108322AA70791A696034E082291CD104F101
S31508001520AC08404600F061F92089B842B8BF4F20A0
S3150800153028DB3B463246214600F028F810BBFAB2B3
S315080015403146404600F077F908B954201AE00020E1
S31508001550842114E0842901D0512013E0042F18BFF8
S315080015604C200FD104233246214600F00FF848B923
S315080015704346224659465046FFF7C5FD8521A970C0
S3150800158000E04420BDE8FE8F5A462946484678E5DD
S3150800159070B505460C4616462089C10701D4802831
S315080015A001DA4F2070BD00F0B9F808B9532070BDB4
S315080015B0324621462846FFF72DFF002818BF172870
S315080015C003D08F2184F8A61070BD94F8A60085284C
S315080015D006D1206869688847172805D1002070BD9C
S315080015E0A07A0028E4D0502070BD000010B504464B
S315080015F00020FEF735FE24BB0020FEF7ACFF50B9ED
S315080016000120FEF7A8FF30B90520FEF729FE40F2B3
S315080016100120FEF7DFFD0420FEF722FE0120FEF77B
S315080016201FFE40F20320BDE81040FEF7D3BD0FF2BF
S315080016303400FFF79AFBFFF78DFB40F20220FEF716
S31508001640C9FDFEF71BFF0400F1D00FF22000FFF7DB
S315080016508CFB2046FFF794FB01A0FFF786FBF0E71B
S315080016600D0A00000D0A4F6B0D0A00000D0A4552BF
S3150800167052200000814212D21018401E5118491EED
S3150800168092B2002A1EBF11F8013900F80139521E1C
S31508001690F6D1704711F8013B00F8013B521E92B291
S315080016A0002AF7D17047130003D00A46194600F0FE
S315080016B025B9704710B500E0521E92B232B110F843
S315080016C0013B11F8014BA342F6D001E0002010BD02
S315080016D0181B40B210BD00000A0242EA1121484018
S315080016E0C0F30311484080EA00304101C9B202063E
S315080016F0D20E41EA0221484080B270470A0A4840A1
S31508001700C0B208214308C00746BF034858401846D8
S31508001710491EF7D1504070472083B8ED0020604934
S31508001720415CFF2901D001207047401C1028F6DBD8
S315080017300020704712B583B00446206800BA0090AE
S315080017403A20039901B17A2020740C22211D04F154
S315080017501100FFF78FFF03220DF1010104F11D00AF
S31508001760FFF788FF00F03CF80398D0B1B0F57F4F3B
S3150800177005D200BA039002220DF10E010EE00FF217
S3150800178078100088ADF80400039800BA0390022286
S3150800179001A9204600F006F8042203A9204600F015
S315080017A001F81FBDF8B504460D461646002714E095
S315080017B094F825000019017C7A5D5140017494F86B
S315080017C02500401C84F82500C0B2102804D300F078
S315080017D007F8002084F825007F1CB742E8D3F1BD3E
S315080017E02F4904F1100000F003B91FB5044600A8FC
S315080017F0102100F007F994F82500C0F11000C11077
S3150800180000EB11710911A0EB011200A92046FFF7A0
S31508001810C9FF1FBD1FB50C4600AA011D002000F018
S3150800182027F80020015D00AA825C51400155401C42
S315080018301028F7DB1FBD38B504460D46102A07D118
S315080018402068216A94F8242002EB0111884201D00D
S31508001850002032BD29462046FFF7DCFF102204F19E
S3150800186010012846FFF726FF401E8041C00F32BDF3
S3150800187011B581B0144600BA0190022020700C22DE
S31508001880601CFFF7F7FE03220DF1050104F10D00B8
S31508001890FFF7F0FE0249204600F0AAF813BD000043
S315080018A0F8080408F0B585B004460D46164600212A
S315080018B000271DE031B900AA211D206A401CFFF748
S315080018C0D7FF012104F120007A5D03790DF1000CA0
S315080018D013F80C305A407A550279521CD2B2102AA3
S315080018E004D30022216A491C2162002102717F1C4F
S315080018F0B742DFD305B0F0BDFFFE000062F30F224A
S3150800190062F31F42401810F0030308D0C91A1FD308
S31508001910DB0748BF00F8012D28BF20F8022D130069
S3150800192030B414461546103928BF20E93C00FAD8C9
S31508001930490728BF20E90C0048BF40F8042D890054
S3150800194028BF20F8022D48BF00F8012D30BC70478B
S31508001950C91818BF00F8012DCB0728BF00F8012DBC
S315080019607047000038B504461B4D214600F03DF887
S31508001970E860211D00F039F8A86004F1080100F0BC
S3150800198034F8686004F10C0100F02FF8286031BDC6
S31508001990F8B50446114D80202860114E06203060A7
S315080019A00720286030688007FCD5002704EB8701EC
S315080019B000F01BF8A8627F1C042FF7D33068400795
S315080019C0FCD500262A6B04EB860100F00BF8761C82
S315080019D0042EF7D3F1BD0000383000400030004037
S315080019E010A00040002000F010B8002000F01BB83E
S315080019F010B504460846FFF7B5FF2046BDE8104077
S31508001A00C6E70000002200F023B810B5002300281E
S31508001A1014BF1C46C3F10304E4B26254120A5B1CE9
S31508001A20042BF4D310BD30B54A788B78CC78097876
S31508001A3018B120461D460C4602E0084615461A46C9
S31508001A4055EA002054EA022141EA004030BD000070
S31508001A5000B500BF130096469446103928BFA0E883
S31508001A600C50FAD85FEA417C28BF0CC048BF40F842
S31508001A70042BC90728BF20F8022B48BF00F8012B02
S31508001A8000BD00002848018A40F6A772914202BFAD
S31508001A90418A4FF47F40014204D102298041C04364
S31508001AA0C00F704700207047F8B504460D461D4E16
S31508001AB001203070FFF7E6FF18B94FF40170FEF702
S31508001AC089FB1948876A294644F48070B84700217B
S31508001AD031700FF2580618B9294644F40070B84711
S31508001AE0805DF2BD2DE9F041044688465600FFF7B1
S31508001AF0C9FF18B94FF40170FEF76CFB0A48476A2C
S31508001B000023324641462046B8470FF2200520B941
S31508001B103346002241462046B847405DBDE8F0817D
S31508001B2000000000BC0C00200000040800020202AD
S31508001B304B4B464757323558323042560000000064
S31508001B405732355138304256000000004D5832356C
S31508001B504C323030364500004D5832354C3830302E
S31508001B603645000041543235444630343141000090
S31508001B704154323544463038314100004D323550F3
S31508001B80323000004D323550343000004D32355079
S31508001B90383000004D32355031360000EE0800006E
S30D08001BA000000001FFFF000030
S7050800006F83
