:020000040800F2
:10000000000400206F00000885000008850000083B
:10001000A70B090100000000010121510020000888
:1000200004050000E3080008990B00087C040008A0
:1000300000000000000000000000000000000000C0
:100040000000000000000000000000005E00000052
:10005000FFFFFFFF09480068202100EA010028B1E6
:100060000748016842685FEA010D10477047FFF7D3
:10007000F1FF00F010F800F041F800002C00004003
:100080000020000803E000005FEA000D70474FF415
:10009000017000F09BB838B54FF20F043F4D00F0EF
:1000A000C1F828B140F2052028806C80012032BDC3
:1000B0003B480068C00613D56888A0421CD1288838
:1000C00040F2022188421CBF40F20621884213D030
:1000D00040F2011188421CBF40F2111188420BD03E
:1000E000304C208A40F6A721884205D12068FFF7CE
:1000F000CBFF6068804700BF002032BD38B50446A2
:1001000072B62948016849084900016000F0D0F83A
:10011000234800680009C10754BF2449244902E06C
:10012000CD2201F8012B234A9142F9D32249234AD7
:10013000234B03E011F8015B02F8015B9A42F9D30B
:100140002049214A002301E001F8013B9142FBD301
:1001500040F20521114A53884FF20F05AB420BD1F3
:1001600013888B4206D0C00706D5180A012818BF8D
:10017000022801D1194601E004B900210648018096
:100180004CF23C30508000F05FF94FF40170BDE854
:10019000324000F01BB80000280C002000000020B6
:1001A0002C00004000200008FCED00E000000020D2
:1001B00098000020000400204810000800040020DF
:1001C00008040020080400202D0C00200D493022D6
:1001D0000A600D490A600D490A600D4910220A6043
:1001E000010A08BF00020B4908804FF20F00488047
:1001F000BFF35F8F0848002101604160074808494C
:10020000016070473020004030C8004030C00040DE
:1002100010D00040000000201C4000400CED00E029
:100220000400FA050020704780B500F02BF9012189
:10023000062000F032F9062000F05FF901210720C6
:1002400000F02BF9072000F04BF91748016821F066
:100250001001016001BD0000052800D9704710B5EC
:10026000DFE800F01721030F1C17104C2088411EF7
:100270002180C0B9072000F04DF942F210702080B3
:1002800010BD072000F039F90620BDE8104000F04D
:1002900041B90620BDE8104000F022B90620BDE8B3
:1002A000104000F02AB910BD00BC00402A0C00200C
:1002B00006E04B48016841F0010101600121416005
:1002C0004C48512101607047F8B5494C454D4FF6F7
:1002D000FF77464EB088B84227D102237F22464896
:1002E0000188301D00F02CF9B088B84204BF02200C
:1002F000B080A069800703D4A06940F00200A0612B
:1003000001207070B088206007202860002068609D
:10031000A86035484FF000710160A069C00732D570
:10032000E06980B348F69F403CE0A0698007E3D5D0
:100330002868C00348BF00F043F8707898BBA068F5
:1003400010F00100A168B28803D10F2A08D2521C14
:1003500006E0890704D5F17811B1032A28BF521E9F
:10036000F07092B2022A38BF0222B2802068B188AF
:100370008842C5D1A06900F00300032818BFFFF729
:1003800098FF0120F2BDA069C00701D5E06920B146
:10039000A069C00704D4E06910B144F24F6001E0E5
:1003A00042F2273068600020F2BD80B503E040F2E1
:1003B000DC5000F0F9F8FFF787FF0028F7D001BD07
:1003C0000848002141608160016821F0020101605C
:1003D00005484FF0007101600448002141707047EA
:1003E0001C40004010E000E004ED00E000040020AC
:1003F000044000400080004044100008007870472E
:1004000030B5DBB00446214636A800F0E7F80020FE
:1004100000904FF402630B4A36A901A800F061FA7C
:100420000FF24C0201A90FF2540000F0B5FB054693
:1004300000F02FF81DB12146284600F01BF9284690
:100440005BB030BD0804002080B5FFF7AEFFFFF7BA
:10045000EBFE00F0C1FB00F047FC40F20120FFF78B
:10046000B5FE002002BD012A08BF00F0C9BB7047DD
:10047000B90F0008F50F0008FD0300082F08000859
:10048000670800080E48012181604EF6BE214160D8
:1004900000E00C4801210160704710B582080FF29E
:1004A000280353F82220136800F0030080000F2473
:1004B0008440A34301FA00F01843106010BD00000F
:1004C000006000400860004000B0004004B0004000
:1004D00000B4004004B4004000B8004004B800403C
:1004E000C108032908D2C1108902124A012300F071
:1004F000070003FA00F050507047C108032908D2E2
:10050000C11089020C4A012300F0070003FA00F031
:1005100050507047C10803290BD2C110074A02EBA3
:1005200081210A68012300F0070003FA00F050401F
:100530000860704714B0004010B000400CB000409C
:1005400030B583B0044610467F2808BF0020B1F5BF
:10055000004F1AD108237F2240F6120100A8FFF7AE
:10056000EFFF08220FF2380100A800F0E0FC30B9DC
:1005700008237F2240F2A27100A8FFF7E1FF0822C2
:1005800000A9204600F0BAFC37BD1A46034D2943A6
:1005900000FB0311204600F0B1FC37BD0000040849
:1005A000FFFFFFFFFFFFFFFF0A490A680A4B1B68B6
:1005B000DB0758BF4008032809D34B6D43F0010304
:1005C0004B650B689B1A1B031B0B8342F9D37047C7
:1005D00000000000382000401C4000400170012253
:1005E0004270827001290CBF80214021818000214E
:1005F000C18001811D4801600E218162016821F0E6
:10060000100101600021416341627047F8B5044662
:100610000D46164616484FF0FF310160134FFE623B
:1006200000207862386840F001003860FFF731FF41
:10063000012C19D16DB900F032FB78B9786AB0425B
:10064000F4D3002EF2D038684008400038601620FD
:10065000F2BD284600F02AFB0028EFD13868400898
:10066000400038600020F2BD0120F2BD00E00040F3
:1006700000A8004038B504460D4600F009F800F027
:1006800007F82A4621461820BDE83840FFF7EBBEA0
:100690002A4621461820FFF7E6BE30B583B004464F
:1006A000002020814AF6B43200A92078FFF7AEFF7F
:1006B00008B11C203EBD9DF80000032818BF182873
:1006C00001D118203EBD042801D117203EBD0128CC
:1006D00001D021203EBD002500E06D1CEDB2A188B7
:1006E000091D8D420BDA40F2DD22281900F10A01C2
:1006F0002078FFF78BFF0028EFD026203EBD002595
:10070000002006E00146EDB22819007B00F020FC35
:100710006D1CA188EAB28A42F4D3A27AE37A9B18CC
:10072000FF2B01D022203EBD0B191D7BB5EB102FF6
:1007300001D023203EBD5B7BC0B2834201D0242088
:100740003EBDA078824207D0401EC0B2824201D195
:1007500027203EBD25203EBD881C20810220E08050
:1007600000203EBD38B504466078012804D023D36C
:10077000032855D018D31FE02078012811D13B253C
:10078000432000F03DFA40F2DD2200212078FFF7FF
:100790003DFF30B12846451EC0B20028F0D11B20D5
:1007A00032BD0220607010E000F092FA00F03AF8DA
:1007B000A078401CA07008E0182032BD2278A078F4
:1007C000411EC9B20620FFF74EFE2046FFF765FF27
:1007D000050018BF00F07CFA272DEFD0A8060BD536
:1007E0002278A1781520FFF73EFE002DEDD10320E1
:1007F000FFF732FD002032BD680603D4182D18BF64
:100800001C2D07D121782846FFF734FF04206070A3
:10081000284632BD172DE8D100F004F8032060709F
:10082000172032BD2278A1780620FFF71CBEF8B54C
:1008300004460D461646002706E0E088411CE1808C
:100840000019807A78557F1CBFB2B74209D2E08880
:1008500021898842F1D32046FFF784FF0028ECD09D
:10086000F2BD0020F2BD10B504462046FFF77AFF26
:100870000028FAD010BD0000F8B504460D46164613
:100880001F4607E03046A047294600F073FB0546A7
:100890007F1E761CBFB2002FF4D12846F2BD38B5BA
:1008A0000C46154605E0014614F8010B00F062FB0A
:1008B0006D1EADB2002DF6D132BDF8B504460D4621
:1008C00016461F463A463146286823689847040072
:1008D00005D13A463146E868FFF7E1FFE860204677
:1008E000F2BD10B5029C84720381426001604FF03A
:1008F000FF31C1600021017410BD2DE9F84F04469D
:100900008B461E469BF81B70802F28BF8027D0681F
:100910009D49884250D1002E4CD0B06800904FF0D5
:10092000FF384FF000090BEB490A9AF848500FE0E6
:10093000FF2D16D0FFF7ADFD4FF40063E80240F045
:10094000006241460098FFF797FF8046681CC5B2D9
:100950009AF84900A842EBDA09F10109B9F1060F4A
:10096000E1DBDBF844006FEA0801884224D1A0688B
:1009700000BA7A08594673689847C8B9E06805BA5A
:10098000A06802BA3B464FF0FF31B068FFF774FF32
:10099000C04385420CD140F6A720ABF81000A068F8
:1009A00000BA01220BF1100110307368984708B1AA
:1009B000422002E0172000E04320BDE8F28F2DE93D
:1009C000F84F80460D469146D5F804A02889ADF829
:1009D000000005F1140606F11007042352464046B4
:1009E000FFF76BFF002870D1BAF8000040BA1FFA79
:1009F00080FBBAF8020040BA84B2E00748BF462044
:100A000063D4B4F5026FC8BF4E205EDC002C5BD00F
:100A10005FEA0B000AD04FF60441BBEB010000F087
:100A20009B80FF3853D0FE3851D0ABE0287C08B112
:100A300051204AE08D2C28BF4F2046D22346321D3C
:100A400000F0A7F8002840D1FA7E802A28BF802233
:100A500002F10C00844201BFB08840BA00F47F402C
:100A6000B0F5007F2CD1F08840BA4EF25031884268
:100A700002BF388A40F6A721884202BF788A00F474
:100A80007F40B0F5807F1BD1B06800BA3F49C9698B
:100A9000884215D14FF6FF70388206F110014FF0F1
:100AA000FF30FFF7FCFEF16809BAC943884204BF72
:100AB000387E042804D1787E052818BF062801D086
:100AC000452002E0012028740020BDE8F28F287C38
:100AD000002843D0042300F05BF80028F5D1DAF8B1
:100AE000000006BA201F84B22848C069864238BF79
:100AF0004820EAD3A019796D884228BF4920E4D262
:100B00004FF6035083450DD1B9F1000F0AD031469D
:100B10000220D9F80020904720B14A20D5E7E01BF9
:100B200084B2BE19002CCFD0BDF800008442B4BFFF
:100B3000274607463B4600F02BF80028C5D1B9F1FF
:100B4000000FECD07A0851463046D9F80430984767
:100B50000028E4D04B20B8E7287C08B94120B4E74E
:100B6000042C18BF4C20B0D104236A6800F011F89F
:100B70000028AAD14B462A463946304601B0BDE886
:100B8000F04FBAE64420A0E7E320BBDE00000008F7
:100B900052462946404690E670B504460D46164634
:100BA0002889C10701D4802803DA4F2070BDA87AB4
:100BB00078B9324629462046FFF701FF0028F6D0D3
:100BC000172807D1286861688847172802D10020B4
:100BD00070BD502070BD000080B53A486821416169
:100BE0000021816102218160012101600921092028
:100BF000FFF753FC04210A20BDE80440FFF74DBC79
:100C00003249CA685207FCD50860704710B50446DF
:100C100003E014F8010BFFF7F3FF20780028F8D168
:100C200010BD7CB500A90FF2B80218CA18C1052181
:100C300004220A230CE080B290FBF3F403FB1405BA
:100C4000EDB2204600AC05F130060E5505B10A465E
:100C5000491E49B20029EED5D2B200A81018FFF7FC
:100C6000D5FF73BD10B5044620090A282CBF3730C4
:100C70003030C0B2FFF7C4FF04F00F000A282CBFC9
:100C800037303030C0B2BDE81040B9E710B5044687
:100C9000200AFFF7E7FFE0B2BDE81040E2E70A48AC
:100CA000006810F0020018BF0120704710B504461C
:100CB000FFF7F5FF20B1054800682070002010BD47
:100CC000012010BD54C8004048C800403CC8004046
:100CD00080B500A8FFF7EAFF0028FAD001BD0000A8
:100CE00030303030300000002DE9F84FFFF7D1FBF5
:100CF000FFF7EEFF0020FFF7AFFA0FF27018474D35
:100D000044A60FF23C1B44A4DFF814910FF2141A0E
:100D10001DE05046FFF77AFF0C27B9F81A0038415A
:100D200000F00F00FFF77DFF012FA4BF2E20FFF77B
:100D300067FF3F1FF1D52046FFF768FFB9F84C0069
:100D4000FFF76FFF5846FFF761FFFFF7C1FFFFF79F
:100D5000A0FB0220FFF780FA00A8FFF7A7FF0028FA
:100D6000F5D19DF80000FFF74BFF9DF800000A2821
:100D700018BF0D28CDD0312804D032282FD03328E9
:100D800032D0E2E70FF2F400FFF740FF0120FFF757
:100D900037FB07460FF2F800FFF738FF380005D1A0
:100DA0000520FFF759FA0FF2FC00CCE70420FFF70B
:100DB00053FA0FF2FC00FFF729FFB80648BF0FF205
:100DC000FC0005D478064CBF0FF208100FF220107B
:100DD000FFF71CFF3846FFF759FF3046B3E7012005
:100DE000FFF73AFABDE8F18F00273046FFF70EFF14
:100DF000288A40F6A721884218BF4046A3D1781917
:100E000090F824007F1C20B1FFF7FAFEFFB2202FDC
:100E1000F5D3E2E70D0A0000206200000020000880
:100E2000000000080D0A454D3335312053657269C5
:100E3000616C20426F6F746C6F6164657220760024
:100E40000D0A312E2075706C6F61642065626C0D27
:100E50000A322E2072756E0D0A332E2065626C20C8
:100E6000696E666F0D0A424C203E20002A2A206ED1
:100E70006F20617070202A2A0D0A00000D0A626539
:100E800067696E2075706C6F61640D0A0000000068
:100E90000D0A53657269616C2075706C6F61642016
:100EA00000000000636F6D706C6574650D0A0000D2
:100EB00061626F727465640D0A0000000D0A584D7E
:100EC0006F64656D20626C6F636B206572726F7208
:100ED000203078000D0A646F776E6C6F6164206655
:100EE000696C65206572726F7220307800000000B6
:100EF0000D0A6572726F722030780000814212D242
:100F00001018401E5118491E92B2002A1EBF11F837
:100F1000013900F80139521EF6D1704711F8013B32
:100F200000F8013B521E92B2002AF7D1704710B56B
:100F300000E0521E92B232B110F8013B11F8014BA1
:100F4000A342F6D001E0002010BD181B40B210BD36
:100F50000A0242EA11214840C0F30311484080EAE6
:100F600000304101C9B20206D20E41EA02214840D6
:100F700080B270470A0A4840C0B208214308C0073F
:100F800046BF034858401846491EF7D150407047A5
:100F90002083B8ED2848018A40F6A772914202BF2B
:100FA000418A4FF47F40014204D102298041C0436D
:100FB000C00F704700207047F8B504460D461D4E1F
:100FC00001203070FFF7E6FF18B94FF40170FFF70A
:100FD000FDF81948876A294644F48070B847002113
:100FE00031700FF2580618B9294644F40070B8471A
:100FF000805DF2BD2DE9F041044688465600FFF7BA
:10100000C9FF18B94FF40170FFF7E0F80A48476AC2
:101010000023324641462046B8470FF2200520B94A
:101020003346002241462046B847405DBDE8F08186
:10103000000000002C0C0020000004080002020246
:101040004B4B4647EE08000000000001FFFF000088
:10105000FFFFFFFFFFFFFFFFFFFFFFFFFFFFFFFFA0
:10106000FFFFFFFFFFFFFFFFFFFFFFFFFFFFFFFF90
:10107000FFFFFFFFFFFFFFFFFFFFFFFFFFFFFFFF80
:10108000FFFFFFFFFFFFFFFFFFFFFFFFFFFFFFFF70
:102000001027002095F40008F9F30008FBF30008FE
:10201000A70A080100210008040503AC21515E0055
:102020006AAD315300000000000000000000000015
:1020300000000000000000000000000000000000A0
:102040000000000003F886380422FFFFFFFFFFFFB7
:10205000FFFFFFFF00E0010800000000000000009B
:102060008F95E84ADB3D4C0AFFFFFFFFFFFFFFFFB4
:10207000FFFFFFFFFFFFFFFFFFFFFFFFFFFFFFFF70
:10208000F02F002000000000EF2F0020EF2F002095
:102090001027002058170108ECF60008B81F002090
:1020A000380600200000020800300020FFFFFFFF7C
:1020B000FFFFFFFFFFFFFFFFFFFFFFFFFFFFFFFF30
:1020C000FFFFFFFFFFFFFFFFFFFFFFFFFFFFFFFF20
:1020D000FFFFFFFFFFFFFFFFFFFFFFFFFFFFFFFF10
:1020E000FFFFFFFFFFFFFFFFFFFFFFFFFFFFFFFF00
:1020F000FFFFFFFFFFFFFFFFFFFFFFFFFFFFFFFFF0
:102100001027002095F40008F9F30008FBF30008FD
:10211000FFF30008FDF3000801F4000878F400085C
:1021200078F4000878F4000878F4000878F40008DF
:1021300003F4000878F40008B5F60008EF7C000806
:10214000F5D6000878F40008458D000878F40008FA
:10215000978A00082B78000878F4000878F40008C3
:10216000B1B400082D970008938700081980000873
:1021700078F400083F8300089D830008933C000822
:102180006B40000878F4000878F4000879F400083F
:1021900070472DE9F84F04460026DFF8DC570FF2B0
:1021A000840100F0D1F80FF2AC2A0FF2585B0FF265
:1021B0004458DFF8C89704E0514600F093FE701CC5
:1021C00086B237012268B9184B6828789BB1BA5893
:1021D0004B4503D1414600F085FEF0E78B68594638
:1021E00000F080FE20683818C2682878002AE3D002
:1021F0000FF21851EFE70FF2A00100F073FE0FF29B
:10220000C00100F0A1F80FF2E80100F09DF80FF214
:102210000C1100F099F851462878BDE8F44F00F011
:1022200061BE0000434F4D4D414E44205B50415232
:10223000414D45544552535D205B2D204445534349
:1022400052495054494F4E5D0D0A202077686572FF
:10225000653A20623D6275666665722C2073313D79
:10226000696E7438732C2073323D696E7431367325
:102270002C2075313D696E7438752C2075323D699E
:102280006E743136752C2075343D696E7433327539
:102290000D0A0D0A0000000020202120202D2052D0
:1022A0006563616C6C732074686520707265766913
:1022B0006F757320636F6D6D616E640D0A000000B1
:1022C00020205B7461625D202D20417474656D7007
:1022D000747320746F2074616220636F6D706C651D
:1022E000746520636F6D6D616E640D0A00000000FF
:1022F000202020202A2A204E4F54453A20616C6C21
:1023000020696E7075742076616C756573206172DA
:102310006520696E20686578210D0A002020202044
:102320002A2A20436F6D6D616E647320617265208F
:102330004E4F5420636173652073656E73697469D1
:1023400076650D0A00000000287800F0CBBDA0F1F2
:102350004101C9B21A293CBF2030C0B270472DE9F3
:10236000F84F05460024A8680068C0B2DFF81016D0
:10237000096810F80180A346DFF8FC65B8F1210F69
:1023800009DB20220FF2D0013078BDE8F84F00F0D1
:10239000A9BDBDE8F18F00F05DFE8246A14607E0D1
:1023A00019F80A00FFF7D3FF09F80A0009F101093B
:1023B000C145F5DB42460FF2E401504601F0ECF86E
:1023C00040B94FF0010B05E03A460FF2D8013078E2
:1023D00000F088FD20012968421852681300D8D007
:1023E000641CA4B2DFF894954A45F3D14758BBF179
:1023F000000FE9D1384601F0E1F84045EAD1424604
:102400005146384601F0BAF80028E3D10FF2D82837
:102410000FF2F82B0FF2940A04E0414600F062FD3F
:10242000641CA4B22701286839184A68130018BF31
:102430004A45AED08B683A585146307800F052FD8C
:1024400028683818C2683078002AE6D0594600F06B
:1024500049FDE5E70D0A00004572726F723A206C83
:1024600069737420617267756D656E7420746F6F27
:10247000206C6F6E672C207765206F6E6C792073EF
:102480007570706F727420757020746F20257520C0
:1024900062797465732E0D0A000000006D6F64751B
:1024A0006C65730025700D0A000000002570202562
:1024B0007000000070B588B00446DFF8C854A0680A
:1024C00000682870DFF8C064A068406830700FF2C0
:1024D000580001F055FADFF8B404A168C96801702A
:1024E000DFF8AC14A26812690A70097807910FF23C
:1024F00060010691007805900FF25C0004900120C5
:1025000003907AA00290307801900FF2540000906E
:102510002B780FF2540204F111010FF2540001F074
:102520002FFA08B070BD00005475726E696E672096
:102530006F66662074616773206E6F7420796574AE
:1025400020737570706F727465640D0A000000006E
:10255000746578740000000064656C696D000000AB
:10256000636F6D6D616E6400686561646572000023
:102570007B264E20566572626F73697479206F7086
:1025800074696F6E732073657420746F3A0D0A2638
:1025900074750D0A2674750D0A2674750D0A267455
:1025A000750D0A2674757D0D0A000000007CDFF8A9
:1025B000E41351F820200FF20C01DFF8BC0300787F
:1025C00000F090BC4349204572726F723A2025702A
:1025D0000D0A000038B5DFF8A04343A500F014FA57
:1025E0000FF22C0100F011FA00F00EFA0FF2440184
:1025F00000F00BFA3EA100F008FA0FF2440100F0DF
:1026000004FA0FF248012078BDE8344000F06ABCBB
:10261000456D626572204E6F646520546573742049
:102620004170706C69636174696F6E2076312E3011
:10263000000000004D61722032352032303134000C
:1026400031323A32323A3130000000000D0A0D0AC0
:10265000000000002DE9F74F0446276B0026DFF845
:10266000188305E020A100F03DFC761CB6B21037BF
:102670007868B8B33D68DDF804904FF0000A0CE0CC
:1026800019F8010BFFF763FE834615F8010BFFF7FE
:102690005EFE8345E9D10AF1010A9DF808001FFAA0
:1026A0008AFA8245ECD3350120682A58291898F80F
:1026B00000004B68DFF8C4C2634504D10FF2340157
:1026C00000F010FCD1E78B680FF2380100F00AFC33
:1026D00020682818C26898F80000002AC2D00FF2BB
:1026E0002C01EDE7BDE8F78F0D0A0000746167006B
:1026F0002C2000002D2D2D2D202570202D2D2D2D51
:102700000D0A00002020257020257000202D202596
:10271000700D0A009CB00EA80FF27C21342201F04B
:102720005FF94FF000098DF8019001F085F9A520BF
:1027300001F083FB01F0C8FB012300220F211046AA
:1027400000F060FA040006D0012300220A2110469E
:1027500000F058FA0446012300220F21184600F029
:1027600051FA050006D0012300220A21184600F084
:1027700049FA054601F006FD3CB11DB34FF4DA718C
:102780000FF2482001F004FD1CE065B900A900200B
:1027900000F078FA48B99DF800000D2818BF0A2803
:1027A00018BF2A2801D100200DE000A9012000F067
:1027B00069FA0028EAD19DF800000D281CBF0A28FC
:1027C0002A28E3D101206C4C2070201D02F0ACFAC5
:1027D000201DFFF7FFFE0FF2042500F015F90FF2A0
:1027E000342100F012F961A6314600F00EF9201DE7
:1027F00002F00AFD00F008F90FF2242100F005F9BB
:10280000314600F002F9201D02F075FD00F0FCF8E1
:102810000FF2182100F0F9F8314600F0F6F8201D0B
:1028200003F051FF00F0F0F80FF20C2100F0EDF88A
:10283000314600F0EAF8201D03F068FF00F0E4F8EC
:102840000FF2002100F0E1F8314600F0DEF8201D23
:1028500003F079FF00F0D8F80FF2F41100F0D5F88A
:10286000314600F0D2F8201D04F0FFFA40A541A641
:102870000FF270170DF1040822E08DF800009DF8AA
:10288000001011F80820481C0A2A18BF0D2A18BF8A
:10289000002AF2D10D2201F808208DF800009DF8E1
:1028A000002001A9201D02F04BFA9DF8002001A98B
:1028B0000EA800F019FE9DF8009000208DF8010090
:1028C000394600F0A2F80DF10103322201A9207867
:1028D00000F01FFA0028D0D001F0ABFA04F05CFD44
:1028E0009DF8010028B301A9401810F8010C09282F
:1028F0001FD1314600F089F89DF80100401E8DF887
:1029000001009DF8012001A9201DFFF7A3FE9DF8FD
:102910000100002100F80810394600F076F8002088
:1029200004E000F06BF89DF80000401C00F05EF839
:10293000F7D39DF804002128C5D1314600F065F891
:102940004A460EA901A800F0CFFDA9F101008DF8BB
:102950000100394600F059F8002000F047F8B2D2E3
:1029600000F04CF89DF80000401CF6E75D0D0A00F1
:10297000256300000D0A00001027002091210008A7
:10298000A827002048270020492700204A270020A8
:102990004B270020702800200D00000000000000E0
:1029A0000000000000000000000000000000000027
:1029B0000000000000000000000000000000000017
:1029C000000000000000000000000000706C617456
:1029D000666F726D746573742E6300005B494E49B7
:1029E000542000000D0A3E20000000008DF8000079
:1029F0009DF800009DF801108842704710F80820EB
:102A00002946207800F06EBA2946207800F06ABA8C
:102A1000002070476372617368696E666F00000022
:102A2000696E6974546F6B656E73000072657365CF
:102A300074737472696E6700696E69745261646957
:102A40006F00000073656564506E726700000000DF
:102A50007365745065725465737454780000000097
:102A600070B51346101802E0A4192C705B1EDBB27F
:102A70004BB101F00F060909451E28460A2E34BF46
:102A800030243724F0E7101870BD2DE9F04F87B0DF
:102A90008046894614469B4601AD002701A88DF863
:102AA00000001BE05BF804AB04224FEA1A41284601
:102AB000FFF7D6FF04221FFA8AF1FFF7D1FF054680
:102AC00005A8854209D39DF800002E1A00F096F85B
:102AD000002831D1F719FFB201AD641C9DF8000048
:102AE0002E1A2078002807D0252802D005F8010BDF
:102AF000E6E714F8010F002876D02528F6D0322812
:102B000018BF34285FD0582857D063280CD06428C9
:102B100018BF6C2825D0702818BF732807D07528D7
:102B20001FD0782849D0CBE75BF8040BDEE75BF8D1
:102B300004AB00F063F800285CD1F719FFB201ADD7
:102B4000002600E0761CF6B216F80A000028F9D13B
:102B5000324651464846C04700284BD1F719FFB2CC
:102B6000AEE75BF8040B0021002803D52D21297066
:102B700001214042002300224FF0000C02E0801BA4
:102B80000CF1010C0FF2A84656F82260B042F6D2C2
:102B900043EA0C06F6B2002E05D0C9B20CF13003A0
:102BA0004B55491C0123521C092AE5DBC9B23030C0
:102BB0004855481CC0B2451982E75BF8041B022245
:102BC000C9B2284679E714F8010F78281CBF5828A5
:102BD000641EF1D114F8010C32287FF463AF5BF866
:102BE000041B042289B2ECE700F008F810B9F019D0
:102BF000C0B200E0002007B0BDE8F08FF2B201A93A
:102C0000484640472DE9FC4E0446894692469B467D
:102C1000022C18BF042C27D026D20FF2FC30205CE7
:102C2000012821D1DFF8E05305EB8406F76804F0B2
:102C3000BBFC0021B9803980798004F0BBFCF669C7
:102C400004F0B2FC0021B18031807180615504F044
:102C5000B1FC04F0E9FD5B4652464946204602B00D
:102C6000BDE8F04E04F0AABC2120BDE8F68E10B5F8
:102C7000044604F09CFDDFF8900300EB8400C0697B
:102C8000808810BD2DE9F04188460446DFF878536E
:102C900005EB8401CE690FF28031615C09B9012036
:102CA00035E005EB4407615D61B1B98872889142F6
:102CB00008D104F079FC665D0021615504F07AFCCE
:102CC000304624E004F073FDB088F8B104F06CFCE9
:102CD00071888919897988F800107188491C0FF268
:102CE000443232F8142000F0E4F87180B188491EB3
:102CF000B18004F05FFC605D30B1B8884FF6FF71C1
:102D0000884204BF3088B880002000E02620BDE85B
:102D1000F081F8B504460F4616461D46287808B1DE
:102D2000B04208D30020387005E02878411C297093
:102D30009DF80010C15500A92046FFF7A3FF002809
:102D400055D19DF800008028F5D2287828B99DF843
:102D500000100A2918BF0029EDD0B04207D3002087
:102D600028709DF800000D2818BF0028E3D09DF8BA
:102D70000000082818BF7F280CD128780028DAD056
:102D8000401E2870C0B20021C1558EA1204600F01F
:102D90004AF8D0E72878801C8642BCBF0D208DF809
:102DA00000009DF8000000F023F89DF80000613855
:102DB000C0B21A2804D29DF8000020388DF8000017
:102DC0009DF800000D2818BF0A28AED128780021F0
:102DD000C1559DF800000D2804D10A2000F008F824
:102DE000002602E00D2000F003F82E700020F2BD56
:102DF0008DF8010001220DF10101204686E070B539
:102E000082B004460D46164600208DF8000001E011
:102E100001F00FF800AB324629462046FFF779FF54
:102E20000028F5D176BD2DE9F84F83460D465E4664
:102E30000FF2E410305C012838D1734800EB8600B3
:102E4000C76800240FF2E4180FF2D0190FF2C01A6D
:102E500015E004F0A9FBB98801B901243988C91922
:102E600015F8012B8A713988491C39F8162000F0B1
:102E700020F83980B988491CB98004F09BFB287878
:102E800078B1B8883AF816108842E2D31CB1584697
:102E900004F0D8FB002416F808000028F1D1222005
:102EA00005E0584604F0CEFB002000E00120BDE81C
:102EB000F28F91FBF2F302FB1311704751A111E065
:102EC00010B500240FF25013C35C012B08D1134638
:102ED0000A4601460FF23500FFF7D7FD00B901247D
:102EE000204610BD0CB480B502AAFFF7E9FF02BC72
:102EF0005DF80CFB0CB438B5044604AAFFF7E0FFFC
:102F000005462046FFF7DAFF284678E02DE9F84F1E
:102F100080468B46164647460FF2FC00385C012877
:102F20003AD1394800EB8700C46800250FF2FC094C
:102F30000FF2DC0A17E004F037FBA18801B9012584
:102F4000218809191BF8012B8A712188491C0FF26D
:102F5000CC0232F81720FFF7ACFF2180A188491C72
:102F6000A18004F027FB3046461EC0B278B1A0888D
:102F70003AF817108842DED31DB1404604F062FBD8
:102F8000002517F809000028F1D1222005E040466D
:102F900004F058FB002000E00120BDE8F28F80B56E
:102FA0000FF27402825C012A06D1174A02EB8001FB
:102FB000C9688A88002AFCD104F097FB002002BD72
:102FC00000000000082008000CB438B504460D4687
:102FD00004F063FB04AB2A4621460C48FFF755FD7D
:102FE0000FF23401615C012908D1074901EB84002B
:102FF000C068808810B1204604F024FB002032BC59
:103000005DF80CFB0D0A000044280020AB76000898
:10301000800080000000800001010001800080002D
:10302000000080004000400000004000010100015D
:1030300000CA9A3B00E1F5058096980040420F00D7
:10304000A086010010270000E803000064000000D3
:103050000A000000DFF86014096801EB40107047B7
:10306000DFF858241268815470472DE9F0410400BC
:1030700032D004F099FADFF84814DFF84854DFF84A
:103080004824FF231678FE2E1DD100261670DFF887
:103090003C6437782F700027DFF834C409E007F16B
:1030A000010E07F808E0DCF8008007F808305FFA46
:1030B0008EF796F800E0D1F800807745EFDB0EEB55
:1030C000080606F8013C2E78A64207D204F072FAF0
:1030D00000211B2004F02CFCFF201FE0361B2E706B
:1030E0001578DFF8F0731678D7F800C04FF0010EAE
:1030F00006F80CE0D1F800C016F80CE082F800E009
:10310000641EE4B2002CEED106F80C30DFF8AC13EC
:10311000096800226A5404F04DFA2846BDE8F0819F
:1031200010B5044604F040FADFF8A8130968625CA1
:10313000521C6254BDE8104004F03CBA2DE9F04145
:10314000044600F032F8054604F02EFADFF8782342
:10315000DFF87033DFF86863DFF8788311E03168F7
:10316000615C002704F80E701F787F1C1F70D6F872
:1031700000E0177804F80E701470FF2904D12C4673
:10318000FF25FF2C01D10CE00C46D8F80010675C3D
:103190007F1E6754D8F800E014F80E107F273942DC
:1031A000DDD0BDE8F04104F005BA80B5DFF82413A6
:1031B0000968415C090603D5FFF74CFF007802BDA2
:1031C000FF2002BD70B582B004460D4605F11F0018
:1031D00000F013F90646FF2E0DD0DFF8E00200687C
:1031E00035543CB1012000902B4600223146204648
:1031F00000F002F8304676BDF2B582B005461646BC
:103200001F46089C0846DFF8B4120968405CB919EB
:10321000884203DA4FF4B07100F0D4F85FB1314660
:1032200002A800F0D3F800943B4602469DF808102F
:10323000284600F001F8F7BD2DE9F8430546894618
:1032400016461F46DFF87882089C0BE04A5D0A5458
:10325000491CB142FADBBF1B7519D8F8000019F8F8
:1032600000900026FFB2BFB14846FFF7F3FE3018CA
:10327000F1192029B2BF3E46C6F12006F6B2324609
:1032800024B90146284600F02FF9E4E7012C08BFD5
:103290002946F8D00021DCE7BDE8F1832DE9F041B3
:1032A00082B00446884616001F46DFF81002006808
:1032B000255C0ED07119C9B2204600F04FF808B154
:1032C000182007E0009733462A4621464046FFF77C
:1032D00093FF0020BDE8F6810123DFE70A4600E006
:1032E000521C1378002BFBD10223521AD2B2D5E71D
:1032F000F8B5044601F11F00C5042D0E02F11F00B0
:10330000C004000E05B9012500B90120854223D073
:10331000DFF8AC61854210DA401BC0B2FFF7A5FEB2
:103320000746FF2F01D10020F2BD691EC9B2204619
:1033300000F026F8316847540EE08A420CD2411E54
:10334000C9B2204600F01CF804463068205CFFF744
:10335000F5FE3068FF2121540120F2BD70B504460E
:103360000D46DFF858612A463068215C2046FFF799
:10337000BFFF18B130682554002070BD182070BD03
:1033800004E0491EDFF838211268805CC9B20029C8
:10339000F7D1704711B581B00C46DFF820110968EC
:1033A000405C844203D34FF4F47100F00BF82146E3
:1033B00001A800F00BF804469DF80400FFF74AFE50
:1033C000201816BD0FF2101000F0E2BE38B504460A
:1033D0000D46E904090E2078FFF7D2FF207005F0B2
:1033E0001F0032BD80B5FFF7D5FF007802BD10B5D4
:1033F0001446FFF7CFFF047010BD0004400DC0B2AB
:1034000033E670B500F00BF800F005F8007800EB3B
:10341000062080B270BD067829462046BAE70446E9
:103420000D46691CC9B2B5E72DE9F5411F46089C58
:10343000A4B24CB3254689B200A8FFF7C7FF0646E1
:10344000B9B201A8FFF7C2FF07463046B84238BFFD
:103450003846C0F12000C0B2A842B8BF05469DF86A
:103460000400FFF7F7FD80469DF80000FFF7F2FD2E
:103470002A4607EB0801301800F036F8641BA9193A
:10348000EF19A4B2002CD5D1BDE8F38170B5044684
:103490000D4604F089F80E4A12682378FF2B08BF06
:1034A000AD5403D09B181E78AE541D702570BDE836
:1034B000704004F07FB80000A4270020A827002057
:1034C000B0270020A127002040280020A0270020AE
:1034D000B4270020AC2700207061636B65742D62F7
:1034E00075666665722E6300814233D21018401EE5
:1034F0005118491E10E0121F11F8013900F8013966
:1035000011F8013900F8013911F8013900F80139D1
:1035100011F8013900F8013992B2042AEBD292B2C3
:10352000002A1EBF11F8013900F80139521EF6D1E8
:103530007047121F11F8013B00F8013B11F8013BE5
:1035400000F8013B11F8013B00F8013B11F8013B89
:1035500000F8013B92B2042AEBD292B2002A1EBFBD
:1035600011F8013B00F8013B521EF6D170471300E1
:1035700003D00A46194604F0DDB9704710B500E0E3
:10358000521E92B232B110F8013B11F8014BA34226
:10359000F6D00FE0002010BD10B500E0521E92B230
:1035A00032B110F8013B11F8014BA342F6D001E013
:1035B000002010BD181B40B210BD000000F1010337
:1035C000810704D010F8011B89B18107FAD1026884
:1035D000B2F10131914311F0803F04BF50F8042F44
:1035E000F6E710F8011B11B110F8011BFBE7C01A38
:1035F0007047000038B50446206A611D451AEAB2DA
:1036000020792368984708B1002032BD94F829003A
:10361000281884F8290004F205002062012032BD38
:1036200038B50446002500E06D1CEDB2685C00284A
:10363000FAD12A4620792368984730B994F82900AE
:10364000281884F82900012032BD002032BD2DE960
:10365000FE4F04460D46924604F20500206204F136
:10366000200604F215007060002070724FF00A0B03
:10367000DFF83C8315E018B104F2050020620D4626
:10368000B9F1000F04D000F05BF97D2100F8011DB5
:10369000206A7168884203D300F058F9002868D086
:1036A0006D1C2878002800F0428198F80110252828
:1036B00018BF26280FD07B281CBF7D28232807D1C0
:1036C0000029E5D03168491C316001F8010DDFE7C0
:1036D00098F80210F4E715F8012F252A18BF262ABA
:1036E00003D100F02DF92978D0E726280CD159B163
:1036F0004FF001096E2A18BF4E2A12D000F020F9AF
:103700007B2100F8011D01E04FF00009002029781D
:103710004E2906D0542929D06E2902D0742925D0EB
:1037200037E05AF8047B98F800000028B0D0B9F1CF
:10373000000F07D0206A7B2100F8011B411C216289
:103740002821017000F002F9002812D000F0F5F8ED
:1037500000280ED0B9F1000F9AD0206A292100F874
:10376000011B411C21627D21017091E700F0ECF802
:10377000002873D000F0E1F800286FD000F0E6F8E0
:1037800000286BD000F0DCF83A2100F8011D012080
:103790006D1C29783039C9B295F801E08A1E052AD6
:1037A00031D2BEF1640F18BFBEF1750F2BD10023CB
:1037B0005AF8042B97B2ADF800700122BEF1640FE5
:1037C00008D15FEA074C05D501236FEA070C0CF11D
:1037D0000107BFB237B15B1C97FBFBF7BFB2002FED
:1037E000F9D109E05B1C07E0376807F1010CC6F866
:1037F00000C020270CF8017D1F467B1CFFB28F42C2
:10380000F2DB6D1C00E00022691E2B78002B00F01B
:103810008B80322B18BF342B64D0482B57D0582BB9
:1038200057D0632B0CD0642B1BD0682B4FD0702B40
:1038300018BF732B0BD0752B13D0782B49D01AE7F8
:1038400000F07EF85AF8041B00F8011D18E700F09C
:103850007BF818B100F071F80028F7D10020BDE81E
:10386000FE8F002A12BFBDF800105AF8041B89B25F
:1038700019B900F065F83021E6E70020642B0DD17E
:103880000A040BD53268521C32602D2302F8013D28
:10389000B1F5004F02D0494289B249B191FBFBF228
:1038A0000BFB1211C0B201ABC154401C91B2F4E742
:1038B0000146481EC9B2002913D0C0B201A9415C1B
:1038C00030313268521C326002F8011DF0E700F01E
:1038D0003FF85AF8041B0222C9B2206AFFF7C0F869
:1038E0002062CDE615F8010F682818BF48280BD1D3
:1038F00000F02EF8206A15F8011C32290AD15AF876
:10390000041B042289B2E9E7782818BF5828F1D0AF
:103910006D1EB5E65AF8047B0422390CFFF7A0F8B7
:1039200020620422B9B2D9E7002888D1A7E600F0C6
:103930000DF8002892D0707A91E7394620466FE65C
:103940003068401C306070475AF8047B204651E6CE
:10395000206A302100F8011B411C2162782101708E
:1039600070470EB410B58BB000241249097809B91C
:10397000002004E000F011F800B90124204608E01E
:103980000EB410B58BB0002400F007F800B9012484
:1039900020460BB010BC5DF810FB074900910749A9
:1039A00009788DF804100DAA014600A84FE6000022
:1039B00049270020482700200D2F0008102700204D
:1039C00062B38B0708D0521E11F8013B00F8013B8F
:1039D00000F024808B07F6D1830740F0208000BFE1
:1039E000103A07D330B4B1E83810103AA0E83810D4
:1039F000F9D230BC530724BFB1E80810A0E8081082
:103A000044BF51F8043B40F8043BD20724BF31F8CF
:103A1000022B20F8022B44BF0B7803707047083A42
:103A200007D3B1E80810083A40F8043B40F804CB4B
:103A3000F7D25307E4E7000038B504F0BFF80020E0
:103A400004F046FADFF82C43206840F008002060BC
:103A500000F0E8F904F02CFA00F057F88D78DD60FA
:103A60008D890560CD89456000F046F8206820F01A
:103A70001000206004F02AFB04F01CFC04F00BF999
:103A800004F049F8BDE8314000F0E7B910B503F0A3
:103A9000AAFEB948B9490A79C260B94A4B79D360DC
:103AA000B84B8C79DC600C8B04604C8B4460888B49
:103AB0001060C88B5060088C1860488C586010BD2E
:103AC00010B504F045F804F0F3F900F01EF88C7816
:103AD000DC608C890460CC89446000F00DF8A54856
:103AE000016821F01001016004F0F0FA04F023F9FC
:103AF000BDE8104003F080BE088A1060488A50601C
:103B0000888A1860C88A586042E09B489B490A78B6
:103B1000C2609B4A4B78D3609A4B7047F0B50B68F4
:103B2000964C646A0F25960005FA06F6344212D0C8
:103B3000002606EB820724FA07F7FF0708D5B7002F
:103B400005FA07F7BB4330F812C007EA0C073B43FE
:103B5000761C042EEDDB0B60F0BDF0B50B68874CD6
:103B6000646AFF25D600B5402C420FD0002505EB36
:103B7000C20624FA06F6F60705D50126AE40B34381
:103B8000175C3E4033436D1C082DF0DB0B60F0BD2D
:103B900010B57A4C606A002827D000227A49201D8F
:103BA000FFF7DBFF01227949201DFFF7D6FF022234
:103BB0007749201DFFF7D1FF00226F4900F016F86A
:103BC0000122744900F012F802226D4900F00EF84B
:103BD0000322714900F00AF804226A4900F006F84D
:103BE00005226E4904F1180034E010BD04F11800FC
:103BF00094E710B5614C606A002827D00022624922
:103C00002046FFF7AAFF012260492046FFF7A5FFE3
:103C100002225F492046FFF7A0FF0022564900F02C
:103C200016F801225B4900F012F80222544900F014
:103C30000EF80322584900F00AF80422514900F016
:103C400006F80522554904F10C0003E010BD04F10B
:103C50000C0063E7BDE8104060E780B504F0FBFBB3
:103C60000FF2681101EB800002BD80B504F0F7FB94
:103C7000C1B20004000E0FF2801252F8200000EBD7
:103C8000810002BD00003D48007A70473B48807AC1
:103C9000704744484FF40041C16008210160374932
:103CA000887A50B13E480068800900F001000B7A24
:103CB00083421CBF087204F089BE70472DE9F041B1
:103CC00004462E4DAC72374F0020B8654FF40048C3
:103CD0003548C0F8008008203860C7F80C8003F031
:103CE00063FC2C4E002C316821F4706114D041F437
:103CF00000613160B16821F04001B160082100F03D
:103D00005FF801F0BF012970082100F053F801F0BD
:103D1000BF012971012113E041F480713160B16864
:103D200041F04001B160012100F04AF841F040014A
:103D30002970012100F03EF841F040012971002175
:103D4000697203F037FC4CB118480621016060200D
:103D5000B8657068800900F0010001E00020B865D6
:103D60002872287A04F032FE14B11148C0F800809D
:103D7000BDE8F08100BC004000B0004014280020E5
:103D800000B4004000B800400CB000400CB400404B
:103D90000CB8004004B0004004B4004004B8004037
:103DA00008B0004014A8004080E100E018BC0040CA
:103DB00000E100E06A8B61F30B226A832979704786
:103DC000EA8961F30B22EA8129787047554E4B004E
:103DD0004649420042544C00455854005057520046
:103DE000574447002053570043525300465348005E
:103DF00042414400464C540050130108541301083A
:103E0000AC130108CC130108D4130108E013010816
:103E1000EC130108F8130108001401080C14010840
:103E20001C1401082048012181604EF6BE2141602A
:103E300000E01E48012101607047A52805D11A48FD
:103E40004DF6AD614160022101607047164800687F
:103E500010F0010018BF0120704780B514481021F0
:103E60000160144800781449144A58B103280CBF63
:103E700000200120106040F651000860002004F08E
:103E8000B1F806E0022010604FF40060086003F013
:103E900010FE0B4807210160002101640948102130
:103EA0000160002002BD000000600040086000408A
:103EB00080E100E0E12F00200C600040080000409D
:103EC00014A0004000E100E080B59C480021416062
:103ED00041708170A521017000F01EF8002002BD24
:103EE00097480168C90700D4704780B595490A68AA
:103EF00022F440620A6001684908490001600168D3
:103F00000902FCD49048006810B1642004F049F81C
:103F10008E480021016001BD8D48016841F080712B
:103F200001608C48012101601721C1608A4802218B
:103F300001608A480021016089488A4901608A49F4
:103F400001220A607E49894A0A6040F20141016506
:103F500087484FF48031016070477C48006800B1A9
:103F60000120C0B27047D12202704170090A8170ED
:103F700080490A78C270501C0870042070472DE9EF
:103F8000F14F82B000907C490968405C441DE4B266
:103F9000002504F063FD01904FF6FF79FFF7DDFF88
:103FA000B8B956E0A91EC9B29DF80800FFF71AFA81
:103FB0000746494604F080FD81465546F9B2F000B7
:103FC00001FA00F040EA0808761C042E16D3CBF85C
:103FD0000080EDB2A54234DA04F040FD0199401AA8
:103FE00040F2F51180B288422BD24FF0604BDBF8E3
:103FF00000000128EDD14FF000080026EDB215B900
:104000005B270125DAE7012D05D100985A49096897
:10401000475C0225D2E705F1010AE11E8D4208BF87
:104020004F46CAD0A11E8D4208BF4FEA1927C4D0FF
:10403000611E8D4208BF5D27BFD0A542B2D10027C7
:10404000BCE74FF4C87003F0ACFFA54208BF0020E6
:1040500000D00120BDE8FE8F47490968415C042972
:1040600028BFFFF78CBF012070472DE9F047334D83
:104070006E78002E60D004F0F1FC804631460020BE
:10408000FFF7A0F80446A146FF2C02D1002068707B
:1040900052E02027202E98BF3746FEF7DBFF6860EE
:1040A000AF70DFF8D8A012E0A87880B9F01B687074
:1040B000C6B266B1DAF8000019F800902027202E69
:1040C00098BF37464846FEF7C5FF6860AF7068780E
:1040D00040B104F0C3FCA0EB080040F2F51180B23F
:1040E0008842E1D3002E04BF687800281CD1A8784C
:1040F000D0B921480068205C851EE9B22046FFF750
:1041000080F9122808D1E9B22046FFF727F92146A5
:10411000122004F09CFD0AE021461948FFF7B6F989
:104120002046FEF7FDFF02E000206870A8702046E0
:10413000BDE8F047FFF702B8BDE8F087F02F002098
:10414000800E00E0001000E034000040100004E0A9
:10415000FCED00E0040004E0F00004E0040304E0EF
:10416000B00F00E055CEACC5000E00E00D00010020
:1041700000E100E0E42F0020A8270020B027002065
:104180003C280020002181F31188704742DE7047EF
:1041900038B504460D46FFF74CFE03F005FA2946F4
:1041A000204604F09BFC2B4622460FF2785101205A
:1041B000FEF70AFF29462046BDE83440E6E72DE930
:1041C000F0414FF42065DFF83C65371DDFF8380516
:1041D00001687965016AB965DFF830150968F96524
:1041E000416A3966816A7966C16AB966016BF966A6
:1041F000806B386797F8340040074CBFFC6BBC6B92
:10420000A04604F01EFE3865DFF80415DFF804252B
:10421000DFF80435A646704522D2734520D354F802
:1042200018EFC7F840E054F804EFC7F844E07C6D9D
:10423000E405E40D062C17D13C6CA646964513D335
:104240008E4511D224884DF6426E74450CD106F18C
:104250008C04756865607D68A56040F2017503E0B7
:1042600000243C647C648046001D984204D2D0F84F
:1042700000E0BEF1CD3FF7D0181AB8640020F86412
:10428000844606EB8004C4F878C0401C0628F8D3A6
:10429000002004E0C0B206EB800CCCF87840434527
:1042A0002BD353F8044D9442F9D38C42F7D25FEAF2
:1042B000C47CF4D54FF0000C06EB8C0EDEF878E0F1
:1042C000A64504D00CF1010CBCF1060FF4DBBCF1E7
:1042D000060FE4D1002814BF401E0520DAE77C6FEA
:1042E0004FF0000C06EB8C01CA6F8A670CF1010CD1
:1042F000BCF1050FF6DBC6F88C400146481EC9B27A
:104300000029ECD1786DC005C00D02280AD0032821
:1043100016D0042817D0052818D0062819D00C2844
:104320001DD01FE0DFF8F4030168890748BF40F69D
:1043300002151CD40068C00719D540F2025516E0DA
:1043400040F6012513E040F6022510E040F6032573
:104350000DE0B5F5206F0AD140F6042507E040F6E0
:10436000052504E018B1242838BF40F60725284663
:10437000BDE8F0812DE9F04F85B08046DFF8845329
:10438000A86B410707D50FF2B03103912E6C2F6D4A
:104390000024A14607E00FF2A8310391EE6BEF6C09
:1043A0006C6DDFF8749300074CBF0FF29C320FF274
:1043B000A032B9EB040A07D064204FEA5A0100FB8F
:1043C0000710B0FBFAFB01E04FF0000B0296CDF8AE
:1043D00004900094039B0FF280314046FEF78AFD63
:1043E0001FFA8AF00190039800901FFA8BF3BAB27B
:1043F0000FF294314046FEF77DFD95F838004007F6
:1044000008D4AAF19800874204D10FF2B83140468F
:10441000FEF770FD4E4501D2A64205D2039A0FF277
:10442000D0314046FEF766FD4046FEF7B8FD286EE7
:10443000F8B10FF2DC314046FEF754FD0026ACA780
:104440000FF28074286E0121B14008421EBF54F85B
:1044500026201078002803D039464046FEF742FD5A
:10446000761C112EEEDB404605B0BDE8F04FFEF79E
:1044700025BD0FF2CC31404605B0BDE8F04FFEF748
:1044800039BD2DE9F84F04469E4F07F144050FF260
:10449000B45A0FF2CC590FF2B46801260FF2284B30
:1044A00003F0DDFF40F20151401A16D0401E17D034
:1044B00040F2FF11401A35D04FF44071401A39D004
:1044C000401E52D0401E73D0401E00F0B280401EED
:1044D00000F0CB80401E06D0C5E00FF27C3141E0F9
:1044E0000FF2B431C3E0E86C012806D0032807D0EE
:1044F000042807D0052808D00AE00FF2E83608E0C3
:104500007CA606E00FF2E43603E00FF2E83600E0A6
:1045100079A60FF2E83100F0B9F82B6D32460FF2B0
:10452000044103E02B6DEA6C0FF210412046FEF7C8
:10453000E1FC93E00FF2204100F0A8F895F8240088
:10454000800703D50FF2284100F0A0F8686A400008
:1045500003D50FF2584100F099F8686A00287DD51C
:104560000FF27C4100F092F878E00FF2B04100F0D9
:104570008DF895F8200010F0030F01D000F081F8BD
:1045800095F82000000603D5EA6A514600F07BF852
:10459000002700F071F81EBF58F827201078002877
:1045A00002D0494600F06FF87F1C082FF1DB55E080
:1045B0000FF2B44100F06AF800F063F8286A400591
:1045C00003D50FF2BC4100F061F8286A000403D55E
:1045D000EA6A514600F057F8082700F04DF81EBF70
:1045E00058F827201078002802D0494600F04BF8F0
:1045F0007F1C102FF1DB95F82000000603D10FF28D
:10460000C84100F043F801270FF2EC490FF2A4581B
:10461000286B06FA07F108421EBF58F827201078C9
:10462000002802D0494600F02EF87F1C042FEFDB53
:1046300014E00FF2CC4100F029F800F022F8102726
:1046400000F01AF81EBF58F827201078002802D072
:10465000494600F018F87F1C1A2FF1DB2046BDE810
:10466000F24FFEF79CBCBDE8F18F0FF2B04100F0B5
:104670000DF800F006F8F1E7286A06FA07F108429B
:1046800070477A6C59462046FEF734BC2046FEF748
:1046900031BC2DE9F0478046DFF884A00FF2685660
:1046A000002516A716A40FF2984906E04046FEF72B
:1046B00019FC4046FEF773FC6D1C3078A8B15AF81F
:1046C000043B324649464046FEF70CFC16F8010B07
:1046D0000028FBD1307800281EBFEDB205F00300A2
:1046E000032814BF21463946E0E7BDE8F087000003
:1046F00020257000414443003F3F00000D0A0000A8
:104700002C2000000000002004ED00E000E300E0A9
:10471000ECF6000890210008102700201CA00040A3
:10472000040000200D0A5B4153534552543A257052
:104730003A25645D0D0A000070726F636573730043
:104740006D61696E0000000054687265616400006C
:1047500048616E646C6572002570206D6F64652021
:104760007573696E6720257020737461636B2028F0
:1047700025347820746F20253478292C205350203C
:104780003D2025347800000025752062797465731A
:1047900020757365642028257525252920696E20DC
:1047A000257020737461636B20286F7574206F66A9
:1047B00020257520627974657320746F74616C298B
:1047C00000000000537461636B205F6D61795F20AE
:1047D00068617665207573656420757020746F203C
:1047E0003130302525206F6620746F74616C2E0087
:1047F0005350206973206F75747369646520257048
:1048000020737461636B2072616E67652100000024
:10481000496E746572727570747320616374697621
:104820006520286F72207072652D656D70746564E7
:1048300020616E6420737461636B6564293A0000C3
:104840004E6F20696E746572727570747320616347
:1048500074697665000000005265736574206361B9
:104860007573653A205761746368646F6720657873
:1048700070697265642C206E6F2072656C6961626C
:104880006C6520657874726120696E666F726D6107
:1048900074696F6E00000000526573657420636177
:1048A0007573653A205761746368646F672063614C
:1048B00075676874207769746820656E68616E63D7
:1048C000656420696E666F00496E737472756374F7
:1048D000696F6E20616464726573733A2025347861
:1048E0000000000053433120527800004D41432026
:1048F00052780000534332205278000052657365AD
:10490000742063617573653A20444D412070726F65
:1049100074656374696F6E2076696F6C6174696F1A
:104920006E000000444D413A2025702C20616464E3
:10493000726573733A202534780000005265736500
:10494000742063617573653A2041737365727420D6
:1049500025703A2564000000526573657420636118
:104960007573653A2048617264204661756C740005
:10497000484653522E5645435454424C3A20657291
:10498000726F722072656164696E67207665637408
:104990006F72207461626C6520666F7220616E2098
:1049A000657863657074696F6E0000004846535205
:1049B0002E464F524345443A20636F6E66696775D1
:1049C0007261626C65206661756C7420636F756CD2
:1049D00064206E6F74206163746976617465000091
:1049E000484653522E44454255474556543A206650
:1049F00061756C742072656C6174656420746F20DD
:104A00006465627567202D20652E672E2C206578E1
:104A100065637574656420424B505400526573653C
:104A2000742063617573653A204D656D6F727920EE
:104A30004D616E6167656D656E74204661756C745D
:104A400000000000496C6C6567616C206163636500
:104A5000737320616464726573733A20253478003F
:104A6000434653522E25700052657365742063616E
:104A70007573653A20427573204661756C74000049
:104A800041646472657373206973206F6620616E80
:104A900020696E737472756374696F6E20616674D9
:104AA000657220627573206661756C74206F636334
:104AB00075727265642C206E6F7420746865206353
:104AC000617573652E000000434653522E286E6FA9
:104AD0006E6529206C6F6164206F722073746F7231
:104AE0006520617420616E20696C6C6567616C2063
:104AF0006164647265737300414653522E257000E1
:104B000052657365742063617573653A20557361EE
:104B10006765204661756C7400000000526573651E
:104B2000742063617573653A204465627567204D32
:104B30006F6E69746F72204661756C7400000000BE
:104B40002570203D2025347800000000440C010829
:104B5000840C0108BC0C0108C00C0108040D0108FC
:104B6000BC0C0108BC0C0108400D0108700D0108C7
:104B7000A00D0108C40D0108EC0D01082C0E010860
:104B8000BC0C0108BC0C0108680E0108980E010855
:104B9000D00E01080C0F01083C0F0108BC0C0108E5
:104BA000BC0C0108BC0C0108BC0C0108740F010806
:104BB000A40F0108BC0C0108E40F0108281001082B
:104BC00068100108A4100108AC100108B410010815
:104BD000C0100108CC100108D8100108DC10010831
:104BE000E0100108EC100108F8100108001101089C
:104BF000081101080C110108141101081C11010809
:104C0000241101082C110108523000523100523297
:104C100000523300523400523500523600523700F1
:104C20005238005239005231300052313100523185
:104C30003200523133284C5229004D53500050530A
:104C4000500050430078505352004D53502075731C
:104C5000656400505350207573656400435354419C
:104C6000434B20626F74746F6D004943535200537D
:104C70004843535200494E545F41435449564500FE
:104C80004346535200484653520044465352004D47
:104C90004D41522F42464152004146535200526507
:104CA000743000526574310052657432005265747C
:104CB00033005265743400526574350044617430B9
:104CC00000446174310000002DE9F8430446DFF828
:104CD00048040068255C0026B146E80748BF00206C
:104CE00020D400270FF2B84802E04FEA00197F1CD9
:104CF000FFB2AF4211DA39462046FEF773FB10F8D7
:104D0000080000F00F00F907EFD549EA0002F1B200
:104D10002046FEF76CFB761CE9E7F1B22046FEF771
:104D20009FF90120BDE8F283FF2180F826100021C1
:104D3000C173C18380F824108173016801637047D7
:104D40002DE9F24F82B080469346002708F1040413
:104D50000CE0012200A9FEF7BFFA38B102208DF85D
:104D600000009DF80010404600F032F90025A946E9
:104D700008F12406029848BB00A95FFA8BF0FDF702
:104D800081FF002831D0262824D00121404600F0A0
:104D90001FF978208DF80000CA4610250027E07A18
:104DA0000828E3D8DFE800F0064A6AC4C4E6F289BE
:104DB0007B00DBE7102D36D1607A70720120E07243
:104DC00041469DF8000000F00AF9CFE75FFA8BF149
:104DD000002902D13846BDE8FE8F401C0290401EDB
:104DE00000788DF80000A1F1010BCA469DF8000083
:104DF000672815D20FF2A831405C00F0300500F0B2
:104E00000F0A400604D5717A8A4538BF4FF0010970
:104E10009DF800000A2818BF0D28BFD10127BEE762
:104E20007B28BBD2B9E79DF80000232802D10820D7
:104E3000E0729BE7202D99D0032090E7102D1CBF36
:104E40009DF800005F2802D0B9F1000F04D098F857
:104E500024000C28F0D2B3E7202D18BF302D1AD132
:104E600098F82400404400214174404600F0C5F801
:104E700088B1002088F824000220E072607A707205
:104E8000B9F1000F2AD02B203072C6F804A0607A46
:104E900070720420CCE70321404600F099F8002FFF
:104EA0000AD0207B28B14046D8F80410884700205B
:104EB00020734046FFF738FF58E71FB1404600F027
:104EC000CBF8F6E79DF80000232803D1404600F018
:104ED000C3F8ACE7202DEFD0042040E79DF8000098
:104EE0002D2818BF2B2806D1307200207060607A00
:104EF000707203209CE722280AD10120FEF7B5F842
:104F0000B070FF280BD00021FEF7AAF805208FE72C
:104F10007B28D2D10120FEF7A8F8B070FF283FF41B
:104F20001DAF0021FEF79CF81020707206207FE76D
:104F3000B9F1000F07D07068717A01FB00A004215D
:104F4000E172706012E79DF80010782918BF5829A7
:104F500004D1716811B91020707207E703282CD0B2
:104F6000202D18BF302D28D1404600F0A9F8002888
:104F700095D081E79DF80000222820D100214046ED
:104F800000F0D2F80028E8D0022051E79DF8000098
:104F90007D280DD1B078FFF797FE064601214046E7
:104FA00000F0C2F808B10220E072002ED5D104E072
:104FB000202DD2D0B9F1000F01D10720CFE6B07873
:104FC00055490968415CFF297FF4C3AE0820C6E655
:104FD000027C1AB90822C2730174B7E0704791F8D5
:104FE0002420A0F14103DBB21A2B38BF2030531824
:104FF0005874501C81F824007047F0B500F211017C
:10500000026B1346002406E016F801CBEDB2AC4566
:1050100006D0641C10335D68E5B11F680E4600E0E1
:105020007F1C3578002D3D780BD1002DF1D1C48344
:10503000C18B02EB0111896801620021817301209B
:10504000F0BDA5F1410C5FFA8CFCBCF11A0FDBD26C
:105050002035D9E70020F0BD10B50446206A01785C
:1050600031B162290CBF01210221085C2A2807D135
:105070002046E18B226B02EB01114968884706E06C
:105080000420207420466168884700202074204650
:10509000BDE810405AE010B5837B047BA34201D1E8
:1050A00005213DE0846844F82310817B491C81730D
:1050B000016A535C2A2B1CBF51180162012010BDEC
:1050C00010B5016A0A784B7800F12004A168247BAE
:1050D0002D2C08BF4942752A03D1342B0CD1022252
:1050E00031E0732A0FD1312B07BF6FF07F027F238E
:1050F0000A4A47F6FF7308E00022312B14BF4FF62F
:10510000FF73FF2301E004210AE09142A8BF8B4214
:10511000E5DA0621F8E70000A82700200080FFFF5D
:10512000FFF756FF002010BD10B5026A1278622A00
:1051300001D00421F4E700F120029379FF24947157
:10514000012213EB0121BDE81040A4E7F8B50446A5
:1051500004F10805E88AA96A01EB001086680027B7
:1051600005E00220815D2A2918BF86197F1CA879D5
:10517000FFB287420AD230786228F2D1A06850F894
:105180002700C0B2FDF7DAFF0120EBE70020A8718D
:10519000A87FFF2803D0FDF7D1FFFF20A877F1BD3E
:1051A000000000000000000000202020202000005F
:1051B00000000000000000000000000000000000EF
:1051C00020003030000000000000003000300000FF
:1051D0004041424344454647484900000000000022
:1051E000005A5B5C5D5E5F10101010101010101004
:1051F00010101010101010101010103000000000CF
:10520000005A5B5C5D5E5F0010B5012403F023F97A
:1052100004FA00F040F2A17108420BD0064C20784D
:10522000FFF7A8F82078FFF72CF92078BDE81040A8
:10523000FFF72FBA10BD00BF1027002010B5DFF810
:1052400044440FF2140100F0E9FF0FF21C01207832
:10525000BDE81040FDF746BE286C6974746C65208B
:10526000656E6469616E00002C20616C6C20646165
:10527000746120726570726573656E746564206117
:10528000732062797465206172726179290D0A0058
:105290000178A1F13002D2B20A2A0CD3A1F1410265
:1052A000D2B2062A38BF373905D3A1F16102D2B292
:1052B000062A03D257390907090E00E00021407879
:1052C000A0F13002D2B20A2A02D2401830380EE0E1
:1052D000A0F14102D2B2062A02D24018373806E0C5
:1052E000A0F16102D2B2062A03D240185738C0B2E8
:1052F00070470809704710B503F0CEFD020019D0C1
:10530000E04C2078042A08BF0FF22C0108D0062AAE
:1053100008BF0FF2700103D0072A04D10FF2A801D1
:10532000FDF7E0FD03E00FF2E801FDF7DBFD0FF212
:1053300014118CE710BD000068616C537461636BDD
:10534000496E6974546F6B656E73204641494C45D4
:1053500044207769746820454D4245525F45455069
:10536000524F4D5F4D46475F535441434B5F564547
:105370005253494F4E5F4D49534D415443480D0AD6
:105380000000000068616C537461636B496E69745E
:10539000546F6B656E73204641494C4544207769D4
:1053A000746820454D4245525F454550524F4D5F10
:1053B0004D46475F56455253494F4E5F4D49534DF9
:1053C000415443480D0A000068616C537461636B7B
:1053D000496E6974546F6B656E73204641494C4544
:1053E00044207769746820454D4245525F454550D9
:1053F000524F4D5F535441434B5F56455253494FB3
:105400004E5F4D49534D415443480D0A0000000082
:1054100068616C537461636B496E6974546F6B653A
:105420006E73204641494C45442077697468204595
:105430006D6265725374617475733A2025580D0A54
:1054400000000000546F6B656E73206172652073FD
:1054500074696C6C20616374697665207768656E29
:10546000207573696E672074686973206170706C51
:1054700069636174696F6E2E0D0A00002DE9F04FAB
:1054800089B080680568FFF7D9FEA8B203F0DCFE9A
:105490000446A8B203F07BFD8046A8B203F081FF6A
:1054A0008346784F3878002C1ABF4FF6FF71884535
:1054B0000FF27C212ED02346AAB20FF21411FDF771
:1054C00011FD00250FF2B4190FF2B41A0AE000A979
:1054D000725C49463878FDF705FD761CF6B2A642A7
:1054E000F5DB6D1CEDB25D4512DABBF1010F234611
:1054F00004D17F22414600F072F807E02A46414677
:1055000000F06DF851463878FDF7ECFC0026E5E731
:1055100051463878FDF7E6FC09B0BDE8F08F2DE97B
:10552000F04788B0806804684768FFF787FEA0B23C
:1055300003F08AFE8146A0B203F029FD8046A0B2A6
:1055400003F02FFF05464F4E3078B9F1000F1ABF18
:105550004FF6FF7188450FF2D81133D0A5F1010A3B
:1055600015B1FFB2BA450BDA0FF2D011FDF7BAFC54
:10557000534600220FF2FC113078FDF7B3FC23E014
:105580004B46A2B20FF24801FDF7ACFC012D08BF5B
:105590007F274B463A46414600F021F838A4214681
:1055A0003078FDF79FFC00270FF2D00805E000AA35
:1055B000BA5C4146FDF796FC7F1C3078FFB24F4540
:1055C000F5DB2146FDF78EFC08B0BDE8F087000052
:1055D0005B2532785D28256429203D00018800A8DC
:1055E00003F09FBC2DE9F047C2B080680668FFF762
:1055F00025FEB0B203F028FE8146B0B203F0C7FC2E
:105600008246B0B203F0CDFE0646DFF8247CB9F145
:10561000000F1CBF4FF6FF70824505D10FF210112D
:105620003878FDF75FFC80E000240FF26C1803E08F
:10563000504603F087FC641CB442F4DA002513E002
:1056400006FB09F0431E09FB045241463878FDF77A
:1056500049FC032200A93878FDF7D1FB00A8FFF729
:1056600017FE01A968546D1C4D45E9DB012E4B4620
:1056700001AA0CBF7F21E1B2DAE700002025580023
:105680000D0A0000102700202DE9F047C2B0806805
:1056900007684468FFF7D2FDB8B203F0D5FD804635
:1056A000B8B203F074FC8146B8B203F07AFE074644
:1056B000DFF87C5B2878B8F1000F1CBF4FF6FF7154
:1056C000894504D10FF26801FDF70CFC2DE07E1E28
:1056D00017B1E4B2A6420ADA0FF26001FDF702FC4C
:1056E000334600220FF28C0100F0EDFD1DE0002694
:1056F0000FF2A40A0EE0A8F1010300F0E2FD03227C
:1057000000A92878FDF77BFB00A8FFF7C1FD01A9E0
:105710007054761C4645EEDB012F08BF7F244346BC
:1057200001AA2146484603F00DFC42B0BDE8F087CF
:105730006E6F7420666F756E640D0A004552524F8D
:10574000523A204465736972656420696E646578B5
:10575000206973206F7574206F662072616E6765B3
:1057600020666F72207468697320746F6B656E0DAC
:105770000A0000002020202020202056616C69644F
:105780002072616E676520697320255820746872E5
:10579000752025580D0A00006461746120627974D7
:1057A000655B2564206F662025645D3A000000007B
:1057B0002DE9F043C9B0FFF741FDDFF8744A0FF659
:1057C0000C384CF24432414600F02EFD0FF6043105
:1057D00000F020FD0FF2883918237F22DFF8540AE9
:1057E00001881BA803F09DFB00271BA83A5C00F072
:1057F0001AFD7F1C182FF8D3DAA700F00EFD4FF228
:105800006402414600F010FD0FF6D82100F002FDC1
:1058100006237F22DFF8200A00F0F3FC002500F0C9
:1058200000FD6D1C062DFAD300F0F7FC4FF2644228
:10583000414600F0F9FC0FF6BC2100F0EBFC06231A
:105840007F22DFF8F809018810A803F06AFB002521
:1058500010A800F0E7FC6D1C062DF9D300F0DDFC6C
:105860004EF24552414600F0DFFC0FF6982100F061
:10587000D1FC08237F22DFF8C80900F0C2FC002514
:1058800000F0CFFC6D1C082DFAD300F0C6FC4FF2DF
:105890006E42414600F0C8FC0FF67C2100F0BAFCD5
:1058A00014237F22DFF89C09018816A803F039FB36
:1058B000002516A800F0B6FC6D1C142DF9D300F0DD
:1058C000ACFC4FF24242414600F0AEFC0FF66021C4
:1058D00000F0A0FC14237F22DFF86C0900F089FCA3
:1058E00000250BA800F09EFC6D1C142DF9D300F0D0
:1058F00094FC4FF26242414600F096FC0FF64821BC
:1059000000F088FC0A237F22DFF84009018808A8FC
:1059100003F007FB002508A800F084FC6D1C0A2D8D
:10592000F9D300F07AFC4FF27422414600F07CFC7F
:105930000FF62C2100F06EFC012502237F22DFF8F8
:105940001009FFF74BFE9DF8002000F06CFC9DF85D
:10595000012000F068FC6D1EEFD100F05EFC4FF2FC
:105960007622414600F060FC0FF6042100F052FC64
:10597000012502237F22DFF8DC0800F046FC9DF8B9
:10598000022000F050FC9DF8032000F04CFC6D1E3E
:10599000EFD100F042FC4FF27662414600F044FC49
:1059A0000FF6E01100F036FC012502237F22DFF81C
:1059B000A808FFF713FE9DF8002000F034FC9DF8C6
:1059C000012000F030FC6D1EEFD100F026FC4FF2FC
:1059D0006342414600F028FC0FF6BC1100F01AFCAF
:1059E000012502237F22DFF8740800F00EFC9DF8E9
:1059F000022000F018FC9DF8032000F014FC6D1E3E
:105A0000EFD100F00AFC4FF27442414600F00CFC6A
:105A10000FF6941100F0FEFB012502237F22DFF830
:105A20004008FFF7DBFD9DF8002000F0FCFB9DF82F
:105A3000012000F0F8FB6D1EEFD100F0EEFB4FF6F9
:105A40000972414600F0F0FB0FF66C1100F0E2FB2A
:105A5000012502237F22DFF80C0800F0D6FB9DF819
:105A6000022000F0E0FB9DF8032000F0DCFB6D1E3F
:105A7000EFD100F0D2FB4EF26362414600F0D4FB5E
:105A80000FF6441100F0C6FB012502237F22DFF848
:105A9000D807FFF7A3FD9DF8002000F0C4FB9DF898
:105AA000012000F0C0FB6D1EEFD100F0B6FB4EF2FE
:105AB0006F62414600F0B8FB0FF6201100F0AAFB20
:105AC00008237F22DFF8A40700F09BFB00F0A9FB6E
:105AD0006D1C082DFAD300F0A0FB4EF26F32414648
:105AE00000F0A2FB0FF6001100F094FB10237F22C0
:105AF000DFF87C0700F081FB002504A800F092FB92
:105B00006D1C102DF9D300F088FB4CF25632414643
:105B100000F08AFB0FF6DC0100F07CFB012502237C
:105B20007F22DFF85007FFF759FD9DF8002000F0B5
:105B30007AFB9DF8012000F076FB6D1EEFD100F09E
:105B40006CFB4EF24532414600F06EFB0FF6B80199
:105B500000F060FB08237F22DFF81C0704E000BF91
:105B6000202558000D0A000000F04BFB00F059FB07
:105B70006D1C082DFAD300F050FB4EF673524146CF
:105B800000F052FB0FF6940100F044FB10237F223B
:105B9000DFF8E80600F031FB002504A800F042FB26
:105BA0006D1C102DF9D300F038FB4CF24E2241460B
:105BB00000F03AFB0FF6700100F02CFB10237F225F
:105BC000DFF8BC06018812A803F0ABF9002512A883
:105BD00000F028FB6D1C102DF9D300F01EFB4CF6D5
:105BE0004412414600F020FB0FF64C0100F012FB7E
:105BF000012502237F22DFF88C06FFF7EFFC9DF8DA
:105C0000002000F010FB9DF8012000F00CFB6D1E41
:105C1000EFD100F002FB4DF24302414600F004FBDD
:105C20000FF6240100F0F6FA012502237F22DFF8A7
:105C3000580600F0EAFA9DF8022000F0F4FA9DF808
:105C4000032000F0F0FA6D1EEFD100F0E6FA4CF2FE
:105C50004B22414600F0E8FA0FF2FC7100F0DAFA4C
:105C600010237F22DFF8240600F0C7FA04A800F012
:105C7000D9FA6D1C102DF9D300F0CFFA4CF653521F
:105C8000414600F0D1FA0FF2E87100F0C3FA0823A0
:105C90007F22DFF8FC0500F0B4FA002500F0C1FA1D
:105CA0006D1C082DFAD300F0B8FA4CF243124146AD
:105CB00000F0BAFA0FF2CC7100F0ACFA0025022322
:105CC000EAB2DFF8D005FFF789FC9DF8002000F06C
:105CD000AAFA9DF8012000F0A6FA6D1C142DEEDB47
:105CE00000F09BFA4CF24232414600F09DFA0FF26E
:105CF000A47100F08FFA5C237F22DFF89C050188F5
:105D000032A803F00EF9002532A800F08BFA6D1CC2
:105D10005C2DF9D300F081FA4CF64312414600F0B5
:105D200083FA0FF2807100F075FA14237F22DFF8F6
:105D30006C0500F05EFA00250BA800F073FA6D1CEC
:105D4000142DF9D300F069FA4BF25422414600F0C9
:105D50006BFA0FF2687100F05DFA012502237F22D1
:105D6000DFF83C05FFF73AFC9DF8002000F05BFAF5
:105D70009DF8012000F057FA6D1EEFD100F04DFAAA
:105D80004DF24632414600F04FFA0FF2487100F0F2
:105D900041FA012502237F22DFF8080500F035FAD9
:105DA0009DF8022000F03FFA9DF8032000F03BFA36
:105DB0006D1EEFD100F031FA4BF25322414600F054
:105DC00033FA0FF2287100F025FA012502237F2211
:105DD000DFF8D404FFF702FC9DF8002000F023FA5E
:105DE0009DF8012000F01FFA6D1EEFD100F015FAAA
:105DF0004DF24332414600F017FA0FF2087100F0FD
:105E000009FA012502237F22DFF8A00400F0FDF942
:105E10009DF8022000F007FA9DF8032000F003FA35
:105E20006D1EEFD100F0F9F94CF24332414600F01B
:105E3000FBF90FF2E46100F0EDF9012502237F2266
:105E4000DFF86C04FFF7CAFB9DF8002000F0EBF9C7
:105E50009DF8012000F0E7F96D1EEFD100F0DDF9AB
:105E60004DF24232414600F0DFF90FF2C06100F01E
:105E7000D1F910237F22DFF83C0400F0BEF904A81A
:105E800000F0D0F96D1C102DF9D300F0C6F94BF2DB
:105E90003462414600F0C8F90FF2AC6100F0BAF983
:105EA00008237F22DFF8100400F0ABF9002500F092
:105EB000B8F96D1C082DFAD300F0AFF94FF6017256
:105EC000414600F0B1F90FF28C6100F0A3F9012511
:105ED00002237F220021FFF782FB9DF8002000F0C3
:105EE000A2F99DF8012000F09EF96D1EF0D100F09E
:105EF00094F94EF22312414600F096F90FF26C61CC
:105F000000F088F904237F22012103A803F009F897
:105F100003A800F087F96D1C042DF9D300F07DF97A
:105F20004EF27542414600F07FF90FF2586100F0E1
:105F300071F911237F22022100F05CF900250BA8E2
:105F400000F070F96D1C112DF9D300F066F94EF2D6
:105F50006322414600F068F90FF23C6100F05AF903
:105F6000012502237F220321FFF739FB9DF8002042
:105F700000F059F99DF8012000F055F96D1EF0D19F
:105F800000F04BF94EF26352414600F04DF90FF22A
:105F90001C6100F03FF904237F22042103A802F0D2
:105FA000C0FF03A800F03EF96D1C042DF9D300F0EA
:105FB00034F94EF26212414600F036F90FF20061F8
:105FC00000F028F9012502237F220521FFF707FBB6
:105FD0009DF8002000F027F99DF8012000F023F93A
:105FE0006D1EF0D100F019F94EF67932414600F0FD
:105FF0001BF90FF2E45100F00DF911237F22062165
:1060000000F0F8F80BA800F00DF96D1C112DF9D374
:1060100000F003F94EF66462414600F005F90FF214
:10602000C45100F0F7F810237F22072100F0E6F8B2
:10603000002504A800F0F6F86D1C102DF9D300F02F
:10604000ECF84EF22412414600F0EEF80FF2A451A3
:1060500000F0E0F81A237F2208212BA802F061FF4C
:1060600000252BA800F0DEF86D1C1A2DF9D300F0E6
:10607000D4F84EF22512414600F0D6F80FF28851BE
:1060800000F0C8F808237F22092100F0BBF80025A2
:1060900000F0C7F86D1C082DFAD300F0BEF84EF2E0
:1060A0002612414600F0C0F80FF2785100F0B2F825
:1060B0000A237F220A2108A802F033FF002508A83E
:1060C00000F0B0F86D1C0A2DF9D300F0A6F84DF2DF
:1060D0004522414600F0A8F80FF25C5100F09AF812
:1060E00000250423EAB20B2103A802F01AFF0026C0
:1060F00003A8325C00F097F8761C042EF8D36D1CD0
:10610000102DEEDB00F089F84EF27422414600F0CB
:106110008BF80FF2345100F07DF800F07EF84FF666
:106120000D72414600F080F80FF2305100F072F825
:1061300000250B23EAB20D2108A802F0F2FE00268A
:1061400008A8325C00F06FF8761C0B2EF8D36D1C9B
:10615000062DEEDB00F061F84EF25642414600F0AB
:1061600063F80FF20C5100F055F800F056F84FF4B8
:106170006542414600F058F80FF2045100F04AF829
:1061800000F04BF84EF20152414600F04DF80FF28C
:10619000085100F03FF810237F22102100F02EF864
:1061A000002504A800F03EF86D1C102DF9D300F076
:1061B00034F84EF20252414600F036F80FF2E84150
:1061C00000F028F828237F22112121A802F0A9FE3F
:1061D0004FF0000821A818F8002000F024F808F17A
:1061E0000108B8F1280FF5D300F017F849B0BDE861
:1061F000F08301880BA802F094BE018804A802F085
:1062000090BE018801A802F08CBE01880DF1020049
:1062100002F087BE2078FCF706BE39462078FCF7EE
:1062200061BE01A82A5C49462078FCF75BBE0000ED
:10623000102700203415010836150108381501080B
:106240003A1501083C1501083E15010840150108E2
:1062500042150108441501084615010848150108B2
:106260004A1501084C1501084E1501085015010882
:106270005215010854150108561501085815010852
:106280005A1501085C1501085E1501086015010822
:1062900062150108641501086615010868150108F2
:1062A0006A1501086C1501086E15010870150108C2
:1062B000721501087415010876150108009890F907
:1062C0000030324651462878FCF70CBE5B25325828
:1062D0005D2000004D46475F434849505F444154AC
:1062E000410000004D46475F504152545F444154C5
:1062F000410000004D46475F5445535445525F44AA
:10630000415441004D46475F454D4245525F45551A
:10631000495F3634000000004D46475F414E414C16
:106320004F475F5452494D5F4E4F524D414C000014
:106330004D46475F414E414C4F475F5452494D5F78
:10634000424F4F53540000004D46475F414E414C71
:106350004F475F5452494D5F424F54480000000080
:106360004D46475F5245475F5452494D000000007B
:106370004D46475F3156385F5245475F564F4C5444
:10638000414745004D46475F565245465F564F4C84
:1063900054414745000000004D46475F54454D506D
:1063A0005F43414C000000004D46475F5445535445
:1063B0005F54454D500000004D46475F4649425FDF
:1063C00056455253494F4E004D46475F4649425F3E
:1063D000434845434B53554D000000004D46475F31
:1063E0004649425F4F4253004D46475F4349425F33
:1063F0004F4253004D46475F435553544F4D5F56F0
:10640000455253494F4E00004D46475F4355535444
:106410004F4D5F4555495F36340000004D46475F9C
:10642000535452494E4700004D46475F424F415238
:10643000445F4E414D4500004D46475F4D414E552E
:10644000465F4944000000004D46475F5048595F91
:10645000434F4E46494700004D46475F424F4F5419
:106460004C4F41445F4145535F4B4559000000008C
:106470004D46475F455A53505F53544F524147452D
:10648000000000004D46475F4153485F434F4E4672
:10649000494700004D46475F43424B455F444154E6
:1064A000410000004D46475F494E5354414C4C411A
:1064B00054494F4E5F434F44450000004D46475FEF
:1064C0004F534332344D5F424941535F5452494D1B
:1064D000000000004D46475F53594E54485F4652F6
:1064E00045515F4F46465345540000004D46475FB7
:1064F0004F534332344D5F534554544C455F4445EC
:106500004C4159004D46475F5345435552495459F4
:106510005F434F4E464947004D46475F4343415F07
:106520005448524553484F4C440000004D46475F85
:106530005345435552455F424F4F544C4F4144459C
:10654000525F4B45590000004D46475F4555495F36
:1065500036340000535441434B5F4E56444154413E
:106560005F56455253494F4E00000000535441437B
:106570004B5F4150535F4652414D455F434F554E2F
:1065800054455200535441434B5F414C5445524E85
:106590004154455F4B455900535441434B5F424F73
:1065A0004F545F434F554E5445520000535441439E
:1065B0004B5F4E4F4E43455F434F554E544552003F
:1065C000535441434B5F414E414C595349535F52E1
:1065D00045424F4F54000000535441434B5F4B45DD
:1065E00059530000535441434B5F4E4F44455F4461
:1065F00041544100535441434B5F54525553545FEF
:1066000043454E5445520000535441434B5F4E4561
:1066100054574F524B5F4D414E4147454D454E54A7
:1066200000000000535441434B5F504152454E54CB
:106630005F494E464F000000535441434B5F434176
:106640004C5F444154410000535441434B5F424925
:106650004E44494E475F5441424C450053544143D8
:106660004B5F4348494C445F5441424C4500000055
:10667000535441434B5F4B45595F5441424C450095
:10668000535441434B5F4345525449464943415457
:10669000455F5441424C4500535441434B5F5A4C73
:1066A0004C5F444154410000535441434B5F5A4CAA
:1066B0004C5F5345435552495459000020210FF275
:1066C0002C00FDF765BD10B5FDF7CFFA0446FDF7C8
:1066D000C4FA234602460FF2240103480078BDE8BD
:1066E0001040FCF7FFBB00001027002072657365A7
:1066F000742D746573742E63000000005245534579
:10670000543A25702D25700D0A00000010B504467E
:10671000002003F016FA002003F023FA01F0F0F84D
:10672000012003F0FEF803F00DFC10F0060018BF86
:10673000012003F074FE204604F036FA2046BDE83E
:10674000104000F09DBB80B5022100A802F0BEF809
:10675000009804F0EFFA01BD8068006800B10120E4
:10676000DFF8A01108700878C0074CBF0FF2B8130B
:106770000FF2BC130FF2A0126348D0F84013FFE7EA
:106780000FF28810FDF7FCB880B503F0C7F90028B8
:1067900014BF0FF2A8130FF2AC130FF2D8125A481D
:1067A000D0F870130FF2AC102FE038B50446A06893
:1067B00005685548D0F880130FF2C410FDF7E0F8D3
:1067C000EDB215B1012D07D00CE00FF2BC10FDF7B2
:1067D000D7F803F037F905E00FF2C010FDF7D0F855
:1067E00003F06DF90FF2C410FDF7CAF82046BDE8BA
:1067F0003240C9E780B503F00FFD03460FF2D01217
:106800004148D0F850130FF2AC10BDE80050FDF72E
:10681000B7B838B500F053F805463B48D0F86013D8
:106820000FF2B410FDF7ACF803F049F9A068006866
:10683000C0B203F0E9FC02460FF210110FF2CC10C7
:10684000FDF79EF8012D08BF03F0FCF82046BDE8D7
:106850003240CFE738B500F032F8054603F02FF9A3
:10686000D02001F09EFB03F01DFA034623A204F1A1
:1068700011010FF2A010FDF783F8012D04BFBDE850
:10688000314003F0DFB831BD38B500F018F80546E7
:1068900003F015F9D02001F084FB03F045F903461D
:1068A0000FF2901204F111010FF27410FDF768F865
:1068B000012D04BFBDE8314003F0C4B831BD04462A
:1068C00003F02CB938B5FFF7FAFF054603F0F7F8E7
:1068D000D02001F066FB03F027F902F02DFE0346FD
:1068E00007A204F111010FF25410FDF749F8012D30
:1068F00004BFBDE8314003F0A5B831BD43434100BA
:10690000454400004D270020A40601087B264E20A8
:106910002674737D0D0A000050455220546573742F
:10692000204D6F6465000000656E61626C656400F7
:1069300064697361626C65640000000061736C657A
:10694000657000006177616B6500000073746174AD
:10695000757300007B264E20526164696F20706F52
:10696000776572207374617465202674737D0D0AD7
:1069700000000000706F77657220737461746500A9
:106980007B264E2000000000536C656570696E67C1
:1069900020726164696F2E2E2E00000057616B69B2
:1069A0006E6720726164696F2E2E2E00646F6E65B3
:1069B0007D0D0A007B264E20526164696F2063685A
:1069C000616E6E656C202674687D0D0A0000000003
:1069D0006368616E6E656C007B264E20536574742F
:1069E000696E67206368616E6E656C20616E6420FD
:1069F00063616C6962726174696E672028617320DB
:106A00006E6565646564292E2E2E00002674687DEF
:106A10000D0A00007B264E202674647D0D0A0000BE
:106A20007B264E20267464205B64426D5D7D0D0ADA
:106A30000000000052535349000000007B264E2006
:106A4000267464205B3830322E31352E3420756E3A
:106A50006974735D7D0D0A00DFF840148A7BCA7388
:106A600002F098BD2DE9F04105460E461746DFF8C5
:106A70002C440FF25C48280008D0402D0ED0892D00
:106A800014D08D2D0ED08F2D04D013E06069401CE2
:106A9000606119E0E069401CE06115E0206A401C7B
:106AA000206211E0A069401CA0610DE098214046E1
:106AB000FDF76EFB2A460FF230410120FCF784FA05
:106AC0009C214046FDF764FB6773A662402D0BD105
:106AD000E07B401EE073C0B230B1608A401C60822F
:106AE000BDE8F04104F0C5B901202073BDE8F08194
:106AF00080B503F094FB03460FF22C42DFF8A003AD
:106B0000D0F810140FF21440BDE80050FCF738BF65
:106B100030B583B00446A068056868B203F083FB13
:106B200001900FF2304000906BB20FF21842DFF884
:106B30007003D0F820140FF2FC30FCF721FF81A085
:106B4000FCF71EFF2046BDE83E40D1E700B583B00C
:106B5000DFF848130B8A01930FF22C4100910FF2DA
:106B6000104200F111010FF2F430FCF709FF07BDEC
:106B700081680968DFF824231182E7E72DE9F04FE7
:106B800083B0012480680588681E8041C00F009092
:106B900002F0C4FF80464FF00009DFF80073DFF811
:106BA0000463012D1AD00FF2F8313078FCF79AF90E
:106BB0003078009921B10FF2F031FCF793F903E03E
:106BC0002A4661A1FCF78EF93A8A0FF2E83100F00B
:106BD0007BF80FF2F0213078FCF784F9CA46DFF831
:106BE000C8B2009818B91FFA8AFAAA4534DA0AF12D
:106BF000010A01A93078FCF745F89DF804006528E2
:106C00002AD0DFF8A802007820B101F0C5FE08B153
:106C100004F0D2F9388A01F0C4F9DFF89402007860
:106C200060B19BF80000584400F8034C9BF800004A
:106C30005844A4B2210A00F8021C641C00203873D6
:106C40005846FFF709FF5FEA000905D104F019F97A
:106C50000028C6D04FF001091FFA8AF20FF26C31FA
:106C600000F032F84A460FF2803100F02DF8DFF8DC
:106C7000440202880FF28C3100F026F80FF2A431A2
:106C80003078FCF72FF93078797B002914BF0FF2A8
:106C9000B0310FF2B431FCF725F903F01DF820B143
:106CA0007A6A0FF2AC3100F00FF8BA6A0FF2CC3109
:106CB00000F00AF8642001F074F9B8F1010F08BF80
:106CC00002F0C0FEBDE8F78F3078FCF70BB910B5C5
:106CD0008068006800B10120C0B2FCF7EFFFDFF868
:106CE000C441FCF7D3FF70B1FCF7CDFF002814BFFF
:106CF0000FF2E0320FF2E4320FF2B0312078BDE84B
:106D00001040FCF7EFB80FF2DC312078BDE81040FE
:106D1000FCF7E8B870B50446FCF7B8FF48B1DFF8F7
:106D200098516E78012068702046FFF727FF6E703B
:106D300070BD0FF2CC31DFF86C010078BDE8704017
:106D4000FCF7D0B80D0A00002575000038B500F03A
:106D50002FF800F032F802F0B2FE02F05AFF03E022
:106D600000A92878FBF78EFF9DF800006528F7D171
:106D700002F057FF012C08BF02F064FE31BD38B5A8
:106D800000F016F800F019F802F099FE02F053FF37
:106D900003E000A92878FBF775FF9DF8000065283F
:106DA000F7D102F069FF012C08BF02F04BFE31BDA4
:106DB00000208DF8000002F0B1BE0446394D0FF2FC
:106DC00004112878FCF78EB82DE9F041354C0FF20C
:106DD00064312078FCF786F800250FF268360FF250
:106DE0005C38314F15E0EA5D41462078FCF77AF8CF
:106DF000681005EB90708010B5EB800007D13878F3
:106E0000854204DA2A4631462078FCF76BF86D1C7F
:106E1000EDB23878401C8542E5DBBDE8F081806842
:106E200000682149087070472DE9F8430446A068BE
:106E3000076800251B4E0FF21839DFF86C80781CAC
:106E4000C7B2802F06D2A16801EB8501496807F817
:106E5000081005E06B1C7A1E49463078FCF742F8B2
:106E60006D1C042DEBDBBDE8F1830F48142100F805
:106E7000011B002100F8011B491C1429FAD370479B
:106E80000648002141618161C16101620B49002214
:106E90000A600B490A604282704700006C2700209C
:106EA000A406010810270020942A00204E27002065
:106EB0004D270020CA28002098270020CC28002039
:106EC000882E00202765276E642E2E2E00000000DD
:106ED0007068792D636F6D6D6F6E2D74782D74658C
:106EE00073742E6300000000656D62657252616408
:106EF000696F5472616E736D6974436F6D706C6508
:106F0000746549737243616C6C6261636B20737466
:106F1000617475733A203078257800007B264E2006
:106F200026746464426D7D0061637475616C506F9A
:106F3000776572007B264E2026746464426D20269D
:106F400074647D00726571756573746564506F77E4
:106F50006572000073746174757300007B264E20A7
:106F60002674647573202674327875737D00000072
:106F70007472616E736D69742064656C6179202828
:106F800064656329000000007472616E736D69743A
:106F90002064656C6179202868657829000000000C
:106FA0005478696E67200000696E66696E69746561
:106FB00000000000207061636B65747320257520EC
:106FC00075732061706172742E2000000D0A2575A2
:106FD000207061636B657473207472616E736D6988
:106FE000747465642E0D0A004C61737420706163C3
:106FF0006B6574207374617475733A203078253230
:10700000780D0A004C617374207061636B657420A5
:107010006261636B6F66663A2030782532780D0ABC
:10702000000000004672616D652070656E64696ED7
:107030006720696E206C6173742041434B3A2000D5
:107040005965732E0D0A00004E6F2E0D0A000000C8
:107050005346442074696D65202876696120534643
:10706000442073656E742063616C6C6261636B298C
:107070003A2030782532780D0A000000534644202B
:1070800074696D65202876696120545820636F6D9E
:10709000706C6574652063616C6C6261636B293A26
:1070A0002030782532780D0A0000000052616469B2
:1070B0006F20486F6C644F666620656E61626C6518
:1070C000642C20726164696F2069732025700D0A39
:1070D0000000000068656C64000000006672656571
:1070E00000000000526164696F20486F6C644F6655
:1070F000662064697361626C65640D0A00000000BB
:10710000526164696F20486F6C644F6666206973D2
:10711000206E6F7420656E61626C65643B207573D0
:10712000652022736574486F6C644F666620312257
:107130002E0D0A00206C656E3A200000307825780C
:10714000200000000D0A307825783A200000000069
:107150007061796C6F6164206279746520696E6416
:1071600065783A202564206973206F7574206F66F6
:107170002072616E67652E20617267756D656E7431
:107180002025642069676E6F7265642E0D0A000009
:107190002DE9F04700F008FADFF82452AF68DFF875
:1071A0000442D4F80890DFF80482D8F808A000F070
:1071B00001FADFF8F4613A460FF2242100F00CF9ED
:1071C0004A460FF2342100F007F952460FF24021EF
:1071D00000F002F900F0E8F9EF68D4F80C90D8F864
:1071E0000CA000F0E7F93A460FF23C2100F0F4F869
:1071F0004A460FF24C2100F0EFF852460FF25821A8
:1072000000F0EAF800F0D0F96F682D68D4F8049027
:107210002468D8F804A0D8F8008000F0CBF945EA3B
:1072200007420FF24C2100F0D7F844EA09420FF26E
:10723000582100F0D1F848EA0A420FF2642100F028
:10724000CBF83078DFF85811096889064CBF0FF287
:1072500068210FF27421BDE8F047FBF743BE816857
:107260000B79DFF84401007809780A2904D013D398
:107270000C290DD008D30FE04122DFF838110B6044
:107280000FF27821FBF72EBE4222DFF82C11F6E731
:107290004322DFF82811F2E71CE081680B79DFF860
:1072A0000801007809780A2904D013D30C290DD0DD
:1072B00008D30FE04122DFF80C110B600FF25421CC
:1072C000FBF710BE4222DFF80011F6E74322DFF899
:1072D000FC10F2E70FF20021FBF704BE81680B7986
:1072E0003148007809780A2904D012D30C290CD02F
:1072F00007D30EE041222E490B600FF23021FBF73D
:10730000F1BD4222DFF8C810F6E74322DFF8C410CF
:10731000F2E7DFE738B581684B68234800781C0C3A
:107320009DB209780A2904D014D30C290FD00BD3AD
:1073300010E0412222490D604C600FF2082101B09B
:10734000BDE83040FBF7CEBD42221649F3E74322A9
:107350001649F0E70FF28011BDE83440FBF7C2BDDB
:107360000146114800780E4A89680968C9B20029A7
:1073700011680AD041F0200111601168890654BFDC
:107380000FF2EC110FF2D81104E021F0200111608E
:107390000FF2F411FBF7A6BD0FF2FC1003F075BE5F
:1073A00000BC004000B400401027002000B800409E
:1073B0000CB0004010B0004010B4004010B80040C5
:1073C00000B0004014B0004014B4004014B80040B5
:1073D0000CB400400CB800403078FBF783BD0000CF
:1073E0004750494F5F5041494E20202020203D20EA
:1073F000307825580D0A00004750494F5F504249E8
:107400004E20202020203D20307825580D0A0000F5
:107410004750494F5F5043494E20202020203D20B7
:10742000307825580D0A00004750494F5F50414FB2
:107430005554202020203D20307825580D0A00008A
:107440004750494F5F50424F5554202020203D2047
:10745000307825580D0A00004750494F5F50434F80
:107460005554202020203D20307825580D0A00005A
:107470004750494F5F5041434647482F4C203D20DD
:1074800030782534580D0A004750494F5F50424329
:107490004647482F4C203D2030782534580D0A00AF
:1074A0004750494F5F5043434647482F4C203D20AB
:1074B00030782534580D0A0053574A2044697361C7
:1074C000626C65640D0A000053574A20456E616284
:1074D0006C65640D0A000000546865206F6E6C795D
:1074E000206C6567616C20706F72747320617265C7
:1074F00020412C20422C20430D0A00004750494FC8
:107500005F502563534554203D20307825580D0A9F
:10751000000000004750494F5F502563434C522004
:107520003D20307825580D0A000000004750494F93
:107530005F5025634F5554203D20307825580D0A63
:10754000000000004750494F5F50256343464748BD
:107550002F4C203D2030782534580D0A00000000C3
:1075600044697361626C696E672053574A0D0A0063
:1075700043616E6E6F742064697361626C65205341
:10758000574A0D0A00000000456E61626C696E6723
:107590002053574A0D0A0000D82B00207DF4000824
:1075A0000000000000000000EFF31180602181F373
:1075B0001188704780F311887047000000B9704748
:1075C00010B501283CD1132907D20FF20C3030F945
:1075D00011004FF0FF34A04201D1202010BDAD4C6E
:1075E000002804D519B140426061012001E06061CA
:1075F0000020A061180907280CBF00200220012AE2
:1076000008BF40F0180003D0022A08BF40F008006D
:1076100003F00F010229A8BF40F00400A060012080
:1076200020609D48016C41F4C04141F009010164B2
:107630004FF6FF710160994820210160002010BDC4
:10764000212010BD10B590B995480468608828B114
:107650004FF4B9710FF27820FCF79AFDA188C9B2F6
:10766000A01D01F048FA0020A080208010BD012854
:1076700002BF8848006801280ED1FFF795FF044635
:107680008848016841F00601016000F091F8204649
:10769000BDE81040FFF78EBF10BD012804D181481E
:1076A000016821F006010160704780B50B46114664
:1076B00020B9184601F01FFA002002BD012802BFC0
:1076C00079488269012A07D0212002BDC268520789
:1076D000FCD513F8012B02600A46511ED2B2002AD3
:1076E000F4D1C1684906FCD5E6E710B50446FCF7BD
:1076F000A0FB012C03D16F4800684006FBD510BDEC
:1077000070B56A4A12686A4B0FE01488A41810F822
:10771000015BA5711488641C1D8894FBF5F605FBBC
:10772000164414809488641C94800C46611EE4B254
:1077300054B19488604D2D886D1EAC42E5DB232149
:107740000020BDE8704087E070BD70B557484468C0
:10775000574D554E10E0A1883F291BD221880919A9
:1077600088712088401C698890FBF1F201FB1200AF
:107770002080A088401CA080F068800716D5F068A3
:1077800010F038013068E6D0080705D4C80605D5E2
:10779000242107E0232105E0272103E088064CBFD0
:1077A00025210121012000F057F8E5E770BD704761
:1077B00030B53B48406841493B4A0EE043881B18BE
:1077C0009B79136043885B1C4C8893FBF4F504FBA6
:1077D0001533438083885B1E8380838813B1D3680D
:1077E0005B07EBD430BD36483649C2680A6002698F
:1077F0004A60006888607047264832490A684261DA
:107800004A68826189688160012101602248016CB7
:1078100041F4C04141F0090101644FF6FF7101607C
:107820001E48202101607047704738B51A4C0DE0A2
:10783000256046F2297005421CBFA8B2FFF785FFFC
:1078400041F6D600054218BFFFF7B2FF2068216C51
:1078500011EA0005ECD131BD30B5144A52F82020B0
:10786000194B1A4C055D25B9128823F810200155D3
:1078700030BD33F8103013800155518813888B4286
:1078800005D20D4C34F81000401A181800E0581AB0
:10789000908030BD54C8004008A8004000E100E0DE
:1078A0005028002048A800403CC800406028002024
:1078B0002430000848C800403C1401081C3000086F
:1078C0005CC80040CC2B0020482800204428002021
:1078D000756172742E630000409C204EEBCB102724
:1078E0008813C409E204BFFC710260FEC8FEF00008
:1078F00030FF9C007800680034001A000D00000082
:1079000010B5094C08220021201DFBF730FE03F0C2
:1079100025FA207003F022FA607003F01FFAA070BD
:1079200002480078E07010BDE02B0020C427002042
:1079300003F041BB62F30F2262F31F42401810F0C4
:10794000030308D0C91A1FD3DB0748BF00F8012D75
:1079500028BF20F8022D130030B414461546103904
:1079600028BF20E93C00FAD8490728BF20E90C00CD
:1079700048BF40F8042D890028BF20F8022D48BFD9
:1079800000F8012D30BC7047C91818BF00F8012D50
:10799000CB0728BF00F8012D70470000DFF8B404C2
:1079A0005121016070472DE9F04104461E2C3CBF77
:1079B000BDE8F04100F0F5BADFF89C040168C907A2
:1079C00004D5416811B11826641F11E00168C90788
:1079D00004D5416811B90C260A3C09E00168C907C1
:1079E00004D4406810B10C260F3C01E00626143C7C
:1079F000FFF7DAFD804603F061FBDFF86004072142
:107A00000160002141608160DFF854144FF0007282
:107A10000A60A4B204FB06F1491E4160DFF8444449
:107A20002668206840084000206003F049FBDFF82A
:107A300024743D68386820F04000386003F048FB4B
:107A40003D60266003F03CFB03F046FB4046BDE88A
:107A5000F041FFF7AFBD10B5DFF8FC130A68D2079D
:107A600004D54A6812B11821401F11E00A68D207F4
:107A700004D54A6812B90C210A3809E00A68D2070D
:107A800004D4496811B10C210F3801E006211438E3
:107A9000DFF8C82307231360002353609360DFF8E7
:107AA000C0334FF000741C6080B24843401E5060E9
:107AB00010BD2DE9F0410024DFF8AC532C60DFF855
:107AC000AC6334604FF4A040706041F29A084046C5
:107AD000FFF769FF686844F69041081A00B24FF456
:107AE000487190FBF1F000F3030030604046FFF76F
:107AF0005AFF08274046FFF756FF686804197F1EA3
:107B0000F8D1DFF86C03211DC908B0FBF1F080B299
:107B10007060BDE8F08138B56FF00F04DFF85453A2
:107B20000120A8602C608020FFF73DFFE868FF2857
:107B300002D8641C102CF5DB31BDCF48016841F040
:107B400001010160CD4804210160CD48016070470A
:107B500010B5CC4C012020700020E070CA4881692B
:107B600001F00301032906D10020607000F093F8B2
:107B70000120E07010BD0F21016002218161012010
:107B8000A0706420BDE8104065E770B5B248016898
:107B900041F00101016001214160FFF705FD04464C
:107BA000B04D00F09DF8AB48512101602E6003F00C
:107BB00087FA2046BDE87040FFF7FCBC70B5B14DB8
:107BC0002889B14C4FF6FF76B04229D102237F229B
:107BD000AE48018805F1080003F080FA2889B04218
:107BE00004BF02202881A069800703D4A06940F067
:107BF0000200A06101206870288920609748072151
:107C0000016000214160816095494FF000720A6077
:107C1000A169C9072DD5E16959B348F69F4137E0FD
:107C2000A1698907E2D5697899BBA16811F00101C2
:107C3000A26803D10F2809D2401C06E0920705D59F
:107C40002A791AB1032801D3401E28812971288975
:107C500002283CBF02202881206829898842C9D196
:107C6000A06900F00300032818BFFFF78EFF012072
:107C700070BDA169C90701D5E16921B1A169C90731
:107C800004D4E16911B144F24F6101E042F22731BD
:107C90004160002070BD2DE9F8436E4C714DFFF737
:107CA00083FC804603F00AFAFFF788FF5FEA0009C9
:107CB0000CD100F015F82768206820F04000206003
:107CC00003F006FA27602E6003F0FAF903F004FAD5
:107CD0004046FFF76FFCB9F1000FE0D0BDE8F1833B
:107CE0002E68286840084000286003F0E9B95B4826
:107CF000002141608160016821F002010160584863
:107D00004FF0007101605F480021417081780129C6
:107D10000BD15F4901220A605E490968C90748BF63
:107D2000032106D40221817007E78178042901D15B
:107D30000521817070472DE9F843524CE078002806
:107D400055D1484EDFF80C811DE0FFF72DFC0546AC
:107D500003F0B4F9A078032810D000F0A1F8D8F807
:107D60000090D8F8000020F04000C8F8000003F0B0
:107D7000AFF9C8F80090376003F0A2F903F0ACF94E
:107D80002846FFF717FCA0780328DED13E4D208956
:107D900028604FF6FF76E088B0420CD102237F22A4
:107DA0003D480188A01D03F099F9E088B04202D156
:107DB0006420E08001E0E08880B1E08837494A6DC6
:107DC00042F001024A650A68AB68DB07FBD50B6825
:107DD0009B1A1B031B0BB3EB500FF5D3FFF7D5FE1C
:107DE0000420A0704FF4C870BDE8F24333E6BDE84C
:107DF000F1832DE9F843234C207838B3E078F0B1D3
:107E000024E0FFF7D1FB804603F058F9A07805285D
:107E100010D0144E00F044F80E4DD5F800902868AC
:107E200020F04000286003F053F9C5F80090376057
:107E300003F046F903F050F94046FFF7BBFBA0788A
:107E40000528DED100206070FFF725FF002020709C
:107E5000BDE8F183008000401C40004010E000E0DD
:107E600004ED00E094ED00E0104000400C00004004
:107E70000060E3160840004058A0004080E200E0A7
:107E800000E100E0E4280020044000406A150108F9
:107E900018A000400C4000406E150108382000403A
:107EA0003768306840084000306003F009B90000CE
:107EB00010B5464C002003F0A2F940F68C21884210
:107EC000206834BF40F0080020F00800206010BD9A
:107ED00010B582B0044600F05FF800A803F0FEF889
:107EE0009DF801009DF80010FF2902BFFF28042023
:107EF000002104B1801CC0B2082828BF072008292F
:107F000028BF0721324A136823F4607343EAC01084
:107F100010601068C00851EAC000106013BD00B5C1
:107F200083B002237F222B48018800A803F0D6F8F3
:107F3000BDF800004FF6FF7188420EBF4FF4E160BC
:107F40000A2190FBF1F0ADF8000001F0FBFFC00743
:107F50001FD500F021F801A803F0C0F89DF8050036
:107F6000FF2808BF0420811CC9B20829A8BF072127
:107F7000C1F12F02BDF80030C0F12F0002EBD27228
:107F8000521000FB0320C1F12F01B0FBF1F0ADF85E
:107F90000000BDF800000EBD02237F220E480188BC
:107FA00070470E490A680E4B1B68DB0758BF400834
:107FB000032809D34B6D43F001034B650B689B1AF3
:107FC0001B031B0B8342F9D37047000000BC004029
:107FD00018000040441501084215010838200040EF
:107FE0001C40004010B5040004D110BD4FF47A705D
:107FF000FFF7D7FF2046441E80B20028F6D110BDFF
:10800000A4490A89002812BF42F004004FF6FB7011
:10801000104008817047000070B59E4842789E4924
:108020000B685B0723D5032A21DA00EB420384881F
:108030009C810123847803FA02F222438270027841
:10804000964C8AB1002503FA05F6164207D0457012
:108050007240027000EB4500808A206007E06D1CD2
:10806000EDB2032DEFD302E02260032242704FF6FF
:10807000FF700860BFF35F8F70BD38B5FFF794FAEB
:1080800084490A78EAB1854B1C68E40719D40024B6
:108090000125A54015420FD04C706A400A7001EBD3
:1080A0004401898A19607C494FF6FF720A607C4955
:1080B0004FF400620A6005E0641CE4B2032CE7D3CD
:1080C00000E00324FFF776FA204632BD7148002114
:1080D0000170032141700021C1700521018100213F
:1080E00081706E4900220A604A604FF400428A6043
:1080F0001022CA60001D4861012088610320C86009
:108100006548042101644FF6FF71016064484FF433
:108110000061016001F0A9BE70B504462A2901D0B2
:10812000012070BD5B4DD00040EA433029890843EF
:1081300005EB44018882012000FA04F628783042D9
:108140000FD1FFF731FA297831432970A978B1436B
:10815000A970FFF72FFAFFF790FFA04201D181200D
:1081600070BD822070BD2DE9F843044688464D4F0E
:108170004B4D03F075F848B92868000506D53868F6
:10818000800800F0010080F0010600E00126FFF702
:108190000BFA81463EB12868000504D538684007CF
:1081A00048BFFFF739FF3B4881780122A2400A42CD
:1081B00008D000EB44039B89A8F80030514081703F
:1081C000802409E00178114218BF822404D140784C
:1081D000A0420CBF812484244846FFF7EBF92046D7
:1081E000BDE8F28338B504460D4629462046FFF720
:1081F000BAFF842818BF8028F7D132BD38B50446AD
:10820000072389222A21FFF787FF224D05F11C0150
:108210002046FFF7E7FF802809D10723B9222A214A
:108220002046FFF779FFA91D2046FFF7DBFF8028D6
:1082300005D1E988AA8B891AE980012101E0002192
:108240000120E97032BD38B50446124DE87808B90E
:10825000FFF7D4FFE878D0B1B5F9060020B9FE21C8
:108260000FF24800FBF794FFB5F90600B5F91C10B2
:10827000611A00EBD072521002EB014191FBF0F455
:10828000FFF74DFE604300EB8000001432BD06484E
:1082900032BD0000382B002010A8004004D0004060
:1082A00000E100E050A800400080FFFF6164632E01
:1082B000630000002DE9F041314C00202065314E73
:1082C0004FF40055356002202060E56000202065F5
:1082D000206D40F060002065DFF8AC800E2000F0DB
:1082E0001DF888F80000002060654FF48047376073
:1082F00004202060E76025481621016000206065A9
:10830000606D40F060006065162000F007F888F8A6
:1083100001001F4805600760BDE8F0810E2802D00B
:10832000162802D009E01B4800E01B4800688009BD
:1083300000F0010080F0010070470020704710B588
:108340000F484FF40051C160022101600E20FFF779
:10835000E5FF01460C4C22788A4218BF21700DD1EE
:10836000501E8041C00F207021780E2002F080FF47
:108370002178481E8041C00F207021780E2033E004
:1083800014A8004080E100E0DF2F002014BC004072
:1083900000E100E008B4004008B8004010B506480D
:1083A0004FF48041C160042101601620FFF7B6FF41
:1083B0000146024C04E000BF14A80040DF2F00205B
:1083C00062788A4218BF61700DD1501E8041C00F83
:1083D00060706178162002F04BFF6178481E804182
:1083E000C00F607061781620BDE8104002F040BFF9
:1083F00030B51C4801680020002201249440CBB213
:10840000234212D00FF2680030F812004CF23C31D7
:108410004FF20F02144B062811D1588890420AD10E
:108420001888020A0B2A06D207E0521C082AE4D355
:108430000E49088030BD4FF4C0605980F8E740F223
:108440000724A04201BF5D8895421A88A242EFD15D
:1084500059802046ECE705480088000A7047034829
:10846000008870472C00004000000020562B0020A0
:1084700001040204010301050600070203090109C2
:1084800010B5DFF8744510202063FFF78DF8DFF892
:108490006C150A6842F001020A60FFF78BF8DFF8FA
:1084A000600560602060616889316160012121633D
:1084B0008A30E060A060E0688930E06002202063DC
:1084C000DFF840054FF6FF71016010BDDFF8380599
:1084D00045F26401C1601E21416250210162C82140
:1084E000C1618165F021C16545F690014166882131
:1084F00081660621C16644F2066101604FF6FF7194
:108500004160DFF80805007838B1DFF8040548F26B
:10851000607101604FF4C1514160DFF8F8040168F7
:1085200041F004010160DFF8F00400214170704760
:108530002DE9F84F0446DFF8E4848A2101FB00812D
:1085400014310091491C4A78097801EB02211FFA85
:1085500081FB0BF440414FF000094FF0010A0BF48E
:1085600040620426B2F5006F08BF082603D0B2F5BA
:10857000406F08BF0E260A0004D05FEA4B625CBF62
:10858000B21CD6B2DFF89824127888F801205FEA8E
:108590008B6279D5DFF88C747A6E120674D500EB95
:1085A000080500983018B1F5404F07D102F04AF99C
:1085B0005FEA000927D006F108000EE0B1F5004F90
:1085C00021D140780099715C01EB002080B202F06B
:1085D0004DFFFF280CD1CA46B01CC0B241080BF0B9
:1085E0000702032A0FD1002C14BF7A683A6817E0FB
:1085F000DFF83414096831F810004FF4FE610842C6
:1086000018BFD146E8D10020A870F86DC0063BD550
:10861000B86C002C14BF4FF400614FF480612DE062
:108620008A42F0D3002C14BF7A683A684B1C9A42F5
:10863000F8D30099405C0428E5D1BAF1000F02D1CB
:108640000020A87004E00020A870B9F1000FDCD071
:10865000F86DC0060CD4B86C002C14BF4FF4006148
:108660004FF48061084203D0786C40F001007864D8
:108670000120A870B869C8F80C0005E0084203D0D2
:10868000786C400840007864BDE8F18F2DE9F04E29
:1086900082B00446DFF884638A2000FB046000F1A6
:1086A000140BDFF88053002C0CBF28686868470063
:1086B000C0B2052805D24FF4F6710FF29830FBF7DF
:1086C00067FD5FFA87F909EB0B0010F8081D427887
:1086D00002EB01211FFA81FAA6F806A00179318187
:1086E0007178017000214170D04FF86B20F48050F8
:1086F000F863686E0CBB3868400523D41AF4E45F55
:108700003DD101F083FA10B15FEA4A4037D59BF8BA
:108710000000802833D2686BADF80000286BADF8FC
:108720000200009830617089401C7081A019827825
:108730004946584602F0CCFE24E0012CDED13868D0
:108740000005DBD5BA48017889B100210170B9482C
:1087500001681AF4E45F02D00022402005E09BF893
:108760000100000900F001028F2002F09FFE002CA2
:108770000CBF4FF480604FF40060386002E0B088B6
:10878000401CB080002C0CBF012002202861BDE8F5
:10879000F38E2DE9F84F9B4C2068216C01EA00050F
:1087A000A04EDFF894A2DFF88882DFF87092A34F22
:1087B0001AE040B14878C00605D400229D480168FF
:1087C0008F2002F073FE280605D502F0A8FE25F0E2
:1087D000800580202060E80506D502F0A0FE25F483
:1087E00080754FF480702060002D68D0280706D572
:1087F0000020FFF79DFE25F0080508202060E80610
:1088000006D50120FFF794FE25F01005102020600A
:1088100005F06000602803D1B06CC0050AD401E007
:10882000A80605D525F0200520202060002006E0C0
:10883000680606D525F04005402020600120FFF79E
:1088400025FFE80410D525F480554FF480502060B2
:10885000D7F800B0082038607868000548BF00F0FD
:1088600039FE1FFA8BF03860E807ACD56D086D0053
:108870000120206099F800000028A4D001F051F9EF
:108880000128A0D198F8000000289CD09AF8000098
:10889000042898D1F068400800F001008A2101FB0B
:1088A00000911431002814BF7268326812B922682E
:1088B000D204F7D5002814BF7068306879E700202B
:1088C0002060BDE8F18F5E4800687047F0B589B060
:1088D00004460D460021032002F034FC04AE1BE0E8
:1088E000002702F04AFC26F8170002F046FC00A917
:1088F00021F817007F1C082FF3DB04A802F058FEB4
:1089000000202080218836F8102051402180401C12
:108910000828F7DB6D1EA41CEDB2002DE0D102F09B
:1089200068FC012009B0F0BD0321022002F00ABC5E
:10893000F8B529244FF6FF7502F01FFC281A90FBAA
:10894000F4F000F13A063F4F3878B8B9032103201C
:1089500002F0F8FB02237F223B48018800A802F0C6
:10896000BDFB02F00AFCBDF80010401880B2281AC6
:1089700090FBF4F0253078700120387002F039FC5B
:108980007878301A40B2F2BD80B50321022002F09F
:10899000D9FBBDE80140CBE770B500242B48007837
:1089A00090B9FFF7F1FF05461B4E707848B130785B
:1089B000401B40B202F00DFE0B2805DB3570012490
:1089C00002E0357001207070204670BD80B540B166
:1089D0001F48002101600948016821F08001016001
:1089E00001BD01F0AEF901F086F901F0D2F8BDE861
:1089F000024001F0B6B80000002000408420004092
:108A0000B42E002000A000404C1000409928002007
:108A1000D010004080200040E92F0020A02E002030
:108A20009828002020200040C027002004A00040FB
:108A3000B4280020D0280020BF280020B820004003
:108A400038200040E72F002048150108C1280020E9
:108A5000541000407068792E6300000080B500F06B
:108A600002F880B202BD10B5FEF79EFD0D490A68FE
:108A7000496841EA0244FEF79DFD0B48017831B197
:108A80000A4909688C4202D10948406810BD00219A
:108A90000170204610BD07480721016004480121EC
:108AA0000170704710600040C02B0020C82B0020D0
:108AB000802E002014A000400A0242EA1121484002
:108AC000C0F30311484080EA00304101C9B20206F8
:108AD000D20E41EA0221484080B2704703460A465E
:108AE0007FA10420FFE70CB480B502AA00F00AF8C9
:108AF00001BC5DF80CFB21B103460A4679A11120A7
:108B0000F1E770472DE9F04F85B005460C469046D9
:108B10000026FBF722FAC0B10120FAF7A6FA824636
:108B2000BAF1FF0F11D00021FAF79AFA294601A8ED
:108B3000FBF719FA05467CB900F084F810B95046E5
:108B4000FBF78AFA5046FAF7F9FA05B0BDE8F08F5C
:108B50008DF804200125641C20780028ECD0A0F1B9
:108B60003001C9B20A2905D20A2101FB0600A0F191
:108B70003006F0E700F066F80028E3D100252278FF
:108B800001A8422A0ED0442A1AD0462A25D0572AB4
:108B90000DD0622A3AD0662A2AD06C2A25D0702AB3
:108BA00026D0D5E758F8040B8DF80400D2E758F822
:108BB000041B8DF804100904090E41700225CAE750
:108BC00058F8041B8DF804100A0A42700A0C8270CF
:108BD000080E8DF807000425BDE758F8041B504621
:108BE000FAF77CFB0028B6D0ACE758F8046BB2E784
:108BF000012358F8041B662A08BF0223F2B250462C
:108C0000FAF74CFB002808BF0026ECE7364800685E
:108C10001AF8009058F8041BCFB2FF2F9BD017F81A
:108C200000B00BEB0901C9B25046FAF797FB0028D8
:108C300088D1CDF800B000233A4649465046FAF7AD
:108C4000F3FB88E72A4601A95046FAF745BBF0B581
:108C500085B00C46122806D03A281AD04FF6FE717D
:108C6000884234D039E020480068255C204E08E076
:108C70002046FAF7EFF93946FEF742FD203D30680D
:108C8000245CFF2C29D0EDB2212D2CBF20272F46AC
:108C9000EEE7F9F7BDFE044600F0B0FF054601F02F
:108CA000BEFA064601F0B8FA074600F09FFF0246FA
:108CB00004940E4803900F48008802900195009696
:108CC0003B460FF234013B20FFF70DFF05E0204645
:108CD00005B0BDE8F04002F06DB905B0F0BD000090
:108CE000574600006C700000A8270020982E002036
:108CF000B0270020CC2F00205742425757387042EF
:108D00000000000010B50446FEF74EFC4E4830212E
:108D100001604E4801604E4801604E4810210160DC
:108D2000200A08BF24024C4804804FF20F01418002
:108D3000BFF35F8F494800210160416048484949BD
:108D4000016010BD10B5484C2068C0060BD54248E4
:108D500046490A68C0F894204968C0F8901040F667
:108D60000620FFF7CFFF2068C00708D54048032141
:108D70000170206C400840002064012020602068C1
:108D8000000703D5206C20F00800206410BD80B5DA
:108D9000002000F009F830B9F5210FF2E800BDE835
:108DA0000440FBF7F5B901BD2DE9FC44314C4142CB
:108DB000226889184A1C02F01F0200285ABF50423C
:108DC00045185518A5F11F062B48A84224BF2B486B
:108DD000864203D3EFF30880854201D300202EE0C2
:108DE000FEF7E2FB82462648006810F0010718BF34
:108DF00002F00FFC206801468D4207D22068CD2189
:108E000000F8011920608542F8D307E01F38CD2211
:108E100001E000F8012B8142FBD22560304602F0D0
:108E2000FDFBE22001E006F8010BB542FBD20FB1D9
:108E300002F0D4FB5046FEF7BDFB20682038BDE8A9
:108E4000F6840C48006870473020004030C800406D
:108E500030C0004010D00040000000201C40004006
:108E60000CED00E00400FA0518A00040305000406E
:108E7000E6280020D8280020B81F0020380600204F
:108E800094ED00E06D6963726F2D696E7465726EAA
:108E9000616C2E630000000030B583B0002401A88F
:108EA0000FF208610A680260DFF810530120287091
:108EB000002002F0C9FB30B1002002F0C5FB10B168
:108EC0002C7049203EBD02237F22DFF8F402018886
:108ED0000DF1020000F025F802237F22002100A8F6
:108EE00000F01FF8204601A931F81010BDF802204B
:108EF000914208BF0124401C0228F4D3002CBDF885
:108F0000000004D0B0F57F7F07D100203EBDB0F552
:108F10007F7F0CBF0620042000E00720012129707C
:108F20003EBD10B5B1F5807F07D2A44C247844B182
:108F3000C9B2BDE8104002F063BEBDE8104002F0C7
:108F4000CDB810BD2DE9F04105460E4617469846AE
:108F50000FF25C50B5F5807F12D2984C2178A1B108
:108F6000617811B1C221FBF713F90120607043460B
:108F700032463946E8B202F0A0FF0020607004E0FB
:108F8000CD21BDE8F041FBF703B9BDE8F0814BF21C
:108F90005321401A00F0E180401E00F0DA804FF4C7
:108FA0007871401A00F0E18040F60F31401A00F06D
:108FB000CA804FF48471401A00F0C180C01E00F0D6
:108FC000B880F43800F0C180401E00F0CA80401E16
:108FD00000F08980123800F0A68040F2ED51401A6E
:108FE00000F0B580401E00F0A68040F20F41401A0C
:108FF00000F0A7804FF43C71401A00F09E8040F2D0
:109000000221401A00F0C880FD3800F0AC80401EFC
:1090100000F0A580C01E00F09E8040F6DD51401A91
:1090200000F0A680401E00F0B180401E00F0B0802D
:10903000401E00F0AF803C3800F0A28040F20111E9
:10904000401A00F09980113800F0A880D1386CD017
:109050002A3866D0E73800F0A5801F3800F08A80F3
:109060008B3800F0A180401E00F0A080401E00F070
:109070009F8043383DD01E3800F080804FF48071CF
:10908000401A4AD00C384AD040F20A51401A79D0DE
:109090004FF4FD71401A4AD0F13875D04FF4007189
:1090A000401A22D04FF40471401A2AD0801E2AD0D0
:1090B0004FF4E671401A20D0203820D0401E26D030
:1090C000401E14D00A3816D0801F22D040F2022150
:1090D000401A1AD040F68B01401A6DD008381AD0C9
:1090E000001F5DD066E0374840E037483EE0374833
:1090F0003CE037483AE0374838E0374836E0374810
:1091000034E0374832E0374830E037482EE037481F
:109110002CE037482AE02A4828E0364826E036483E
:1091200024E0364822E0364820E036481EE0364843
:109130001CE036481AE0364818E0364816E0364853
:1091400014E0364812E0364810E036480EE0364863
:109150000CE036480AE0364808E0364806E0364873
:1091600004E0364802E0364800E0364800887047A0
:109170000120704702207047032070470420704789
:109180000520704706207047072070470820704769
:10919000092070470A2070470B2070470C20704749
:1091A0000D2070470E2070470F2070471020704729
:1091B000112070474FF6FF7070470000E22F00202B
:1091C0004C15010834150108361501083815010839
:1091D0003A1501083C1501083E1501084015010823
:1091E00042150108441501084615010848150108F3
:1091F0004A1501084E1501085015010852150108BD
:109200005415010856150108581501085A1501088A
:109210005C1501085E15010860150108621501085A
:109220006415010866150108681501086A1501082A
:109230006C1501086E1501087015010872150108FA
:1092400074150108761501084BF25321401A0128C4
:1092500040F28D8040F2E131401A1AD040F60F31D1
:10926000401A08D04FF48471401A1CD0C01E1AD086
:10927000F43838D0401E7AD0401E72D0123876D0E2
:1092800040F2ED51401A70D0401E70D040F20F41B4
:10929000401A72D04FF43C71401A68D040F202215B
:1092A000401A6ED0FD3876D0401E60D0C01E5ED011
:1092B00040F6DD51401A64D0401E5CD0401E5CD0A8
:1092C000401E5CD03C3852D040F20111401A4ED0C2
:1092D000113858D0D13850D02A385CD0E73856D021
:1092E0001F3846D08B3854D0401E54D0401E54D026
:1092F000433842D01E3844D04FF48071401A36D0E3
:109300000C383AD040F20A51401A32D04FF4FD7175
:10931000401A40D0F1383ED04FF40071401A22D0AC
:109320004FF40471401A22D0801E20D04FF4E67111
:10933000401A1AD0203822D0401E18D0401E12D019
:109340000A3812D0801F12D040F20221401A0ED0EB
:1093500040F68B01401A0AD0083808D0001F14D0FC
:109360001DE0182070470620704714207047022027
:109370007047112070471A207047082070470A2054
:109380007047042070470D2070470B20704719204C
:1093900070475C20704710207047282070470020DD
:1093A00070474BF25321401A01287AD940F2E1313B
:1093B000401A76D040F60F31401A6CD04FF48471C9
:1093C000401A6ED0C01E6CD0F438022869D9143807
:1093D00067D040F2ED51401A012862D94FF4826102
:1093E000401A5ED04FF43C71401A5AD040F202212C
:1093F000401A52D0FD38012853D9001F51D040F6F1
:10940000DD51401A03284CD93F384AD040F20111AF
:10941000401A46D0E23844D02A3842D04FF4837103
:10942000401A3ED08C3801283BD9443839D01E38F8
:1094300037D04FF48071401A33D00C3831D040F21D
:109440000A51401A2DD04FF4FD71401A29D0F1383D
:1094500027D04FF40071401A23D04FF40471401A02
:109460001FD0801E1DD04FF4E671401A19D020384D
:10947000022816D90C3814D0801F12D040F20221D5
:10948000401A0ED040F68B01401A0AD0083808D096
:10949000001F04D007E014207047102070470620FA
:1094A000704701207047002070470000FE01FD0258
:1094B000746F6B656E2E6300DFF89008417A39B1E6
:1094C000017A012904BFC07A042801D10120704724
:1094D0000020704710B5DFF87808016821F480514A
:1094E0000160DFF86848207898B100202070DFF82C
:1094F00064080168490849000160016841F0010100
:1095000001600022E169402001F0D0FFA069401C09
:10951000A06110BD010603D54FF67F710840C00061
:1095200070478001B0FBF1F080B2FF2888BFFF20B8
:10953000C0F1FF00C0B270476FF063018842B8BF4E
:109540000846643040B28004000CB0F5807F28BF2C
:10955000FF20C0B2704770B5DFF8F047A07A01284D
:1095600001D1002070BDDFF8F457687868B1E87861
:10957000A17B0E18B6B22879864228BF064601F0B4
:10958000EDFB0121B140491E084069790818E082CD
:10959000C0B270BD2DE9F0470446C00703D540F2C4
:1095A0006F1100F04BFADFF8B857286DC00748BFBD
:1095B0008C2000F19180DFF89467002030733070C8
:1095C000DFF898773878A0B12078122818BF0C28D7
:1095D0000BD1617801F00701032902BF001910F8CF
:1095E000020C042804BF01203073A86F40F0010072
:1095F00002E0A86F40084000A867707BDFF864872E
:10960000DFF86497797899B10021B173296D41F041
:1096100004012965012807D14FF6FF70C9F8000041
:109620004FF40070C8F80000FFF795FF82460CE089
:10963000296D21F0040129654FF0000A012804D1A9
:1096400000F03DFA6420FEF7ACFCA86F20F00800A3
:10965000A8671420E864C5F848A0787830B1707B1A
:10966000002801BFA86C00280120A864B879002850
:10967000286D14BF40F0080020F008002865FFF7AF
:109680001BFF28B1D9F8400040F00800C9F840009D
:10969000202028626C602C6068687F30686004203D
:1096A00028624FF4E064DFF8C406046006E001F0CD
:1096B000D7FD18B1FAF766FDFDF776FFDFF8B006C3
:1096C000006800F003000328F1D0C8F80040286DBE
:1096D00040F0010028650020BDE8F08710B5044681
:1096E000FFF7F1F8201A0003000B3338DFF8841677
:1096F00088421AD2DFF8800602210160DFF87C166A
:10970000A2B24A60220C02F00F020A60016C41F022
:1097100002010164DFF868460020207002E00120A9
:1097200002F048FD20780028F9D010BD2DE9F84F4F
:10973000DFF850667068716C08401FFA80F8C6F850
:109740000480DFF81C76DFF804566878002840F0C3
:10975000D180DFF83446DFF804965FEAC8704CD554
:10976000D7F800A0386C796C41EA0041E96199F8BA
:10977000000000283DD09AF80100800639D501206C
:1097800028704FF480503060306C40F4805030646A
:10979000FFF792FE88B31920FEF703FCDFF8ECB563
:1097A0004FF44040CBF82800DBF800000090E06E5A
:1097B00040F40050E066E06E40F48050E066E869F6
:1097C0009AF800104901B8310818FFF787FFE06EDA
:1097D00080098001E066E06E00A909880843E06620
:1097E0000020CBF8280048F26070E066A88A20606C
:1097F00003E00022002001F059FE5FEA08600CD56A
:10980000287830B1002028700022E969402001F05A
:109810004DFE306C20F4805030645FEA486008D51B
:10982000687830B9FFF74FF800220146892001F02F
:109830003DFE5FEAC8604FD5287ADFF828A50128E9
:1098400004BF697B01291ED1FAF7D3F9386F40F0C4
:109850000100386700206873FEF712FE0A20FEF749
:10986000A0FB4FF000084FF6FF7070604FF4E0600F
:10987000CAF800000920B8660120B864B86F40F04B
:109880000800B86718E0A97B491CA97399F8022061
:10989000C9B2914215D2012808BF00F0D3F8B86FC1
:1098A00020F00800B8671420B866FFF754FEB864CB
:1098B0004FF40070CAF80000386D40F001003865C0
:1098C0000AE0012808BF00F0BDF8FEF7FCFF002207
:1098D00001468D2001F0EAFD5FEA08700AD5FFF726
:1098E000EBFD38B12068A88201202060706C20F068
:1098F000080070645FEA88600AD5202038626878C2
:1099000030B9FEF7E0FF00220146882001F0CEFDCD
:10991000687820B118F4407F04BF0120A870BDE82A
:10992000F18F70B582B0044600F03EFCDFF86004B1
:1099300000210160DFF81C541521E960092101654F
:109940001F2141600121016600F0FCFA00F09CFA41
:10995000FEF7BCFD02F054FF00F01EF9DFF8EC63E7
:10996000308A00F046F9708A00F04BF9FDF71CFED2
:10997000696841F040016960FDF71CFE707900F0F4
:10998000E0F8B07900F0EDF8307900F01CF9DFF87C
:10999000040490F9000000F046FCF07800F09FF914
:1099A00096F9070000F0A7F902237F22DFF8E80309
:1099B000018800A801F092FBBDF80000C0054CBF73
:1099C0000020BDF80000DFF8D4130870DFF8D003E2
:1099D000007800F0EBFB18B14FF4607100F02EF846
:1099E000012C05D12868C00711D500F02BF80EE036
:1099F0006CB92868C0070AD4FAF7FBF8286840F069
:109A000001002860C820FEF7CCFA00207073DFF850
:109A10005843F120206440F2F910E063FEF730FD76
:109A20002868C00707D54FF6FF702060DFF83403C1
:109A30004FF4E0610160FEF7DCF973BD0FF2A43072
:109A4000FAF7A6BB70B5DFF85C532E68DFF8FC426E
:109A5000607B012832D0FDF7A7FD48F2D0012960D4
:109A60006A68520509D548F222022A606A68D2055E
:109A7000F5D529606A685207F1D4B6B22E60DFF8D6
:109A8000EC124FF4E0620A60DFF81C130A6A520815
:109A900052000A620A68520852000A600A6842F0DC
:109AA00002020A604A6A42F001024A6201216173BD
:109AB000FDF780FDBDE87040FAF76AB870BD70B57B
:109AC000A24C607B48B3FAF794F8FDF76DFD0546AC
:109AD000DFF8D802012101609F4E306D40F0010097
:109AE000306500206073FEF7CBFC20203060306BC7
:109AF00040F002003063F06D40F00800F065284649
:109B0000FDF758FD0A20FEF74CFA97484FF6FF7113
:109B1000016094484FF4E061016070BD8B48407B68
:109B200070478A48007A7047A14800688002001494
:109B30009A386FF07F0201B29142B8BF104640B22E
:109B4000704710B50446FDF72FFD9A49002C0A68AE
:109B500014BF42F0120222F012020A607B494C71DB
:109B600040E038B50446FDF71FFD0546FAF78BF8CF
:109B700040B99048002C016814BF41F0800121F0E9
:109B800080010160714884712846BDE83240FDF7CC
:109B900011BD6E4880797047874888494A780B78AC
:109BA00013EB02220260CA788B7813EB0222426028
:109BB0004A790B7913EB02228260CA79897911EB19
:109BC0000221C160704710B50446FDF7EDFC7949EC
:109BD000002C0A6814BF42F0200222F020020A6022
:109BE0005A490C71BDE81040FDF7E4BC5748008AA3
:109BF0007047564908827249086070475348408A46
:109C00007047524948826F49086070476E48007833
:109C100070476548816A41F002018162012101605B
:109C20007047614800210160816A21F00201816270
:109C30005020FEF7B6B938B5644C654821690180FB
:109C4000E1694180634DE96C818000202061FFF76C
:109C5000E0FF0120E0610020606220624CF25D00C4
:109C6000E864286840F4004028604FF40040206019
:109C700048F20200206031BD80B5FFF7D2FF5348A3
:109C80004FF4004101600021016052490A6822F44A
:109C900000420A604E4A9388CB6411880161518862
:109CA000C16101BD70B582B0484C6568266848F254
:109CB0000100206048F2320060602068ADF80000CA
:109CC0008020FEF76EF9A068ADB26560B6B226607E
:109CD000800B00F0010076BD3F48007870471D49B9
:109CE00000280A6814BF42F0020222F002020A6051
:109CF0001649C870704738B504467F2C0ED1022330
:109D00007F223648018800A801F0E8F9BDF800007C
:109D1000C00554BFBDF800406FF04A04FDF744FC95
:109D20000546F9F7B0FF30B964B204F19A00800536
:109D3000000C2B4908600548C4712846FDF73AFC21
:109D400031BD024890F9070070470000B428002098
:109D500040A0004080200040302000409827002094
:109D60001020004000E100E004A0004080E100E09D
:109D7000A8200040CDFF070008A000404020004080
:109D8000E62F002000A0004064100040E4100040D6
:109D90005C100040A42800206C150108A0280020B9
:109DA000982800201C10004060200040281000402F
:109DB0000C1000408420004098200040982E002085
:109DC0009420004090200040D4280020181000402B
:109DD000CE2F0020C0100040E52F00207215010892
:109DE000541000407068792D636F6D6D6F6E2E6337
:109DF00000000000DFF8143533F810001040C840B0
:109E0000704730B5DFF808350FF2B85434F8104019
:109E10009C60DFF8F84434F8105095431140294312
:109E2000D96002221A6000221A6024F810105868C3
:109E30000028FCD130BDDFF8DC04DFF8DC148A78C0
:109E40000AB149780FE089566FF008029142B8BF15
:109E5000302108DBC16D39B140F24A31C26DB1FB2E
:109E6000F2F189B2C91E01607047E0B50A237F2272
:109E7000DFF8A80400F062F84FF6FF72BDF8061094
:109E80000D20FFF7BEFF07BDF8B50546DFF8884493
:109E9000B5F5004F19D102237F22DFF8840400F0CA
:109EA0004DF8BDF80000000AFF2814BF0028182054
:109EB0006070BDF800000006C00E10281CBF001D19
:109EC00000F0B1F9BDF80000C543E07808B100200A
:109ED00005E0A089ADB26840C00701D50120E0705F
:109EE000A58105F00106C5F34007DFF838040168D5
:109EF00041F4004101604FF440520FF2EC4000EB9E
:109F000046004078010389B20220FFF77AFF30460D
:109F100002F082FC4022B90100F01EFA2D06A80EC4
:109F200000F001003843A070FFF785FFE07818B11A
:109F3000FFF79BFF0020E0700020F2BD018800A821
:109F400001F0CCB8DFF8D00380897047A0F10B0195
:109F500089B2A0F10B02D2B2102A01D38A20704735
:109F6000012202FA01F1DFF8C02393880B439380AA
:109F700001239370D3881943D180DFF8B0130022F6
:109F80000A7041E12DE9F04F87B0DFF89C53287843
:109F900004900B38C0B203900423039A0B2100A84D
:109FA000FEF7BFFF9DF800008DF80A009DF8010044
:109FB0008DF809009DF802008DF808009DF8030057
:109FC0008DF80500DA4E3078012804D16878471EF4
:109FD000BF41FF0F00E00127FEF7AAFC80469DF974
:109FE0000200A8F10A0408F10A0A5045B6BF8442EB
:109FF0004FF0010B4FF0000B012003998840ADF8A2
:10A0000006009DF80100000604D4A888BDF80610DB
:10A01000084201D04FF0010B02F074FC9DF80300E0
:10A0200000060AD4E888BDF80610084205D19DF95B
:10A0300000005045B8BF844202DB4FF0010901E047
:10A040004FF000094BEA070059EA000000F09B803E
:10A05000B848006800F002008DF80400DFF8D8A2CC
:10A06000DAF8000000F4E0600590B4484FF4E061D5
:10A0700001600020FFF733FEFDF7BBFEB04CA7B137
:10A08000687850B1AB48006840084000A9490860B2
:10A0900001203070FDF785FF07E0206840F4005094
:10A0A0002060206820F480502060307801280CD196
:10A0B000F9F79FFD9F48006840F001009D49086046
:10A0C000002030706420FDF76CFF2FB1687818B95C
:10A0D0000498C0B202F04FFC687838B1206820F4D0
:10A0E00080502060206840F400502060BDF80600D9
:10A0F000C643BBF1000F08D002F02AFD8DF8010025
:10A100008DF80280A8883040A880B9F1000F08D0EF
:10A1100002F0C5FD8DF803008DF80080E88830401E
:10A12000E8809DF900009DF90A10884202BF9DF861
:10A1300001009DF8091088420BD19DF902009DF99C
:10A140000810884202BF9DF803009DF80510884260
:10A1500006D0042300AA0399C9B20B20FEF7F2FE31
:10A160000598CAF80000FEF78BF99DF80400FFF788
:10A17000B6FD01F03EF8687828B148F260702060C2
:10A180006420FDF70EFF9DF8010002F04BFC9DF8E6
:10A19000030002F07FFD07B0BDE8F08F80B5FEF749
:10A1A000C3FBBDE80140EDE6FEF7BEBB70B5064659
:10A1B000A6F10B04FFF7B2FC0546A6F10B00C0B2F6
:10A1C000102801D38A2070BD5E488168090702D437
:10A1D0000068C00701D58C2070BD534806705A49ED
:10A1E0000A680C2A0ED0A4B20FF2701232F82420A2
:10A1F00090F908008018C861FFF7C4FE012D08BF60
:10A20000FFF720FC002070BD10B50446FEF78CFB64
:10A210002046BDE81040C9E74348007870473E48F3
:10A2200090F9000070472DE9F04186B006466FF0C6
:10A230002A00864246DB14237F224448FFF77EFE35
:10A24000BDF810004FF6FF71884203D0400448BFAC
:10A25000012506D43F2200211020FFF7CBFD044644
:10A2600000252D483A4906F12B02D2B22F2A1AD2E4
:10A2700013220FF2281300E0521ED2B213F912700B
:10A28000BE42F9DB03EB420676780E6013F812103B
:10A2900001700020002680460327ADB14FF6BF7243
:10A2A000BDF8101029E0092E0CDA325C0A60067045
:10A2B00014237F222748FFF741FE03200126B046E2
:10A2C0002827EAE78B201DE04FF46052C10200F01E
:10A2D00043F84FF4E062310200F03EF880224FEA8A
:10A2E000C81100F039F884F020003C18A4B2402CCA
:10A2F00028BF3F243F2284F0200100F02DF8FFF713
:10A300009AFD002006B0BDE8F08100005C2E002020
:10A31000E810004064100040A42800204015010807
:10A320005E1501081C10004098280020EC2F00202A
:10A33000C12800208020004000E100E080E100E032
:10A34000D010004060200040AC1000403C150108D7
:10A35000C01000403E1501080B2052E5AA2129003B
:10A360005523290000252800AA2627005528270064
:10A37000002A2600AA2B2600552D2500002F240098
:10A38000AA3024005532230000342200AA352200CE
:10A390005537210000392000AA3A2000D500E601F7
:10A3A000EC02EF03F204F405F506F707F808F909E3
:10A3B000FA0AFB0BFC0DFD0FFE11FF13001601192D
:10A3C000021C031F1000110020003000400041005B
:10A3D00050006000700080009000A000B000C0003D
:10A3E000D000E000F00000000000010310B501F013
:10A3F0000301890003880F248C40A34302FA01F172
:10A400001943018010BD10B501F007010378012444
:10A410008C40A34302FA01F11943017010BD2DE9EC
:10A42000F0477C4C20707C4D2878217859B10FF290
:10A430000821F8F757FD0FF24C212878F8F752FD64
:10A440000FF288210AE00FF2BC21F8F74BFD0FF262
:10A45000F8212878F8F746FD0FF230312878F8F720
:10A4600041FD4FF4C0056D4E6D4FDFF8B881DFF848
:10A47000B891DFF8B8A12078002829D0092200F08F
:10A480005AF800F053F80022152100F04CF8002291
:10A490001521B81CFFF7B7FF0922162100F04CF870
:10A4A0000122162100F044F800F03BF800F035F8E6
:10A4B00034683560F9F79DFB34605D4800214165E3
:10A4C0004FF480415B4A116004220260C16022E0C7
:10A4D000012200F030F800F029F80122152100F0E7
:10A4E00022F801221521B81CFFF78DFF0822162142
:10A4F00000F022F80822162100F01AF800F011F8F6
:10A5000000F00BF834683560F9F773FB3460BDE890
:10A51000F047FDF7CFBEBDE8F08701221621B81C39
:10A5200071E70122162108F102006CE701221521D2
:10A5300009F10A005AE715210AF10A0056E710B599
:10A5400000F040F822B1022908BF0FF2782115D09F
:10A5500019B102290ED00BD30EE0062422460FF2C9
:10A56000B021F8F7BFFC2046BDE8104002F064BC03
:10A570000724F3E71524F1E70FF284211EE010B55C
:10A5800000F020F822B1022908BF0FF2382115D0BF
:10A5900019B102290ED00BD30EE0062422460FF289
:10A5A0008021F8F79FFC2046BDE8104002F057BC20
:10A5B0000724F3E71524F1E70FF24421BDE810402A
:10A5C000F8F790BC8068016813480078114A127847
:10A5D000704710B5FFF7F6FF22B1022908BF0FF24E
:10A5E000E41115D019B102290ED00BD30EE00624C8
:10A5F00022460FF23C21F8F775FC2046BDE81040DA
:10A6000002F040BC0724F3E71524F1E70FF2F01144
:10A61000D4E70000DD2F002010270020382800207C
:10A6200018280020142800202C2800202028002092
:10A6300014A8004080E100E05043352F50433620FD
:10A64000617265206265696E6720636F6E66696717
:10A650007572656420666F722054585F4143544997
:10A6600056452F6E54585F4143544956453B20612F
:10A6700020706F77657220616D706C6966696572B4
:10A680002E0D0A004966207573696E67206120628D
:10A690007265616B6F757420626F6172642C204209
:10A6A0005554544F4E312773206A756D7065722C66
:10A6B00020425554544F4E315F454E2F4A392C207D
:10A6C00073686F756C642062650D0A0072656D6F4A
:10A6D00076656420666F72206E54585F414354491A
:10A6E00056452064756520746F2061206465626F33
:10A6F000756E636520636170616369746F722E0D9E
:10A700000A0000005043352F504336206172652007
:10A710006E6F74206265696E67207573656420666C
:10A720006F72206120706F77657220616D706C6947
:10A730006669657220616E64206172652062656978
:10A740006E670D0A00000000636F6E6669677572C0
:10A75000656420666F7220424F4152444C4544323A
:10A7600020616E6420425554544F4E312E202049B2
:10A7700066207573696E67206120627265616B6F18
:10A78000757420626F6172642C0D0A004255545436
:10A790004F4E312773206A756D7065722C204255BB
:10A7A00054544F4E315F454E2F4A392C2073686FF9
:10A7B000756C6420626520696E7374616C6C65648D
:10A7C0002E0D0A00424F4152444C454432206973D9
:10A7D00020756E617661696C61626C652064756577
:10A7E00020746F20706F77657220616D706C696680
:10A7F00069657220656E61626C65640D0A00000017
:10A80000496E76616C6964204C45440D0A00000075
:10A810006C65646F6E203D2025640D0A0000000009
:10A820006C65646F6666203D2025640D0A0000009B
:10A830006C6564746F67676C65203D2025640D0A44
:10A8400000000000002070472DE9FE4F9DF9308088
:10A8500001270578DFF89093B9F800B0DFF88C4352
:10A86000DFF88C637278002A1CBFB278002A06D009
:10A870006068401C60602068401C20605FE0DFF87A
:10A8800074A3802D05DA6A1C92B201465046F8F78F
:10A890002BFE94F8300085421CD10027002033792C
:10A8A00001E00127401CA84214DA00EB0A014978B4
:10A8B000021992F83120002B02BF002801F0DF01BD
:10A8C00002F0DF029142EDD00228EAD1F1780029AE
:10A8D000E8D0E6E7584600F0C9FA10B9E068401C35
:10A8E000E060DFF814030088F071B9F800007081AF
:10A8F0009DF8001031720199B16186F80680BDF8AB
:10A90000081071712169727951182161616941449E
:10A910006161216AF279511821622168491C216024
:10A92000616A4018606217B1A068401CA06070693D
:10A93000010018BF8047B07808B101207070BDE8F1
:10A94000F78FDFF8A802C16A491CC16270472DE980
:10A95000F04F8DB08DA20FF2FC238DA08DA18EA49F
:10A960008EA50FF2F8298EA70FF2F82C0FF2FC2E0D
:10A970000FF200388BA60FF2043ADFF874B29BF89E
:10A9800000B0BBF1000F0FD00FF2F82BCDF82CB0B8
:10A99000CDF828A00996CDF82080CDF81CE000F075
:10A9A00013F80FF26C200AE0CDF828A00996CDF834
:10A9B0002080CDF81CE000F007F80FF2D020F8F767
:10A9C000D0FF0DB0BDE8F08FCDF818C00597CDF8D9
:10A9D00010900395029401910090DFF82002D0F8C6
:10A9E000E0137047F0B58BB0DFF808522C78DFF831
:10A9F000006296F90600FEF79FFD07462146707932
:10AA0000FEF78FFD0994317A0891B1690791718938
:10AA10000691F1790591049796F906100391029039
:10AA200070790190707A0090338AB289DFF8D00192
:10AA300001880FF29820F8F7A3FF307880B163A067
:10AA4000F8F79EFF012662A704E0715D3846F8F72B
:10AA500097FF761CF6B2B442F7DA5EA0F8F790FFE3
:10AA60000FF29C200BB0BDE8F040F8F789BF2DE94C
:10AA7000F04782B0064600208DF80000FFF74EF840
:10AA80008146DFF87801D0F8E0A351460FF2782034
:10AA9000F8F776FF3046FFF75AFFDFF854610020E1
:10AAA00070700120B070FFF70AF800207072F0811A
:10AAB0003082DFF84C713880B081DFF84881DFF8F0
:10AAC0003441DFF8445119E041F6641C60453CBF55
:10AAD0000A210A2293FBF2F2002A3DD10020C0F1A4
:10AAE00064007072FFF77EFF0020707098F800001D
:10AAF00020B1FDF751FF08B100F05EFA9DF80000AB
:10AB0000652833D02878F8F7B2F818B100A928786A
:10AB1000F8F7B8F870780028E8D02078015D0019BF
:10AB200010F8010C40EA0120F1894118328A891A93
:10AB3000491EF181308238880B189BB289B20029F6
:10AB400018BF002810D00121642240F28A2C6045F1
:10AB5000BAD264210122BDE7484390FBF2F0C0B2B3
:10AB60006528BCD30020BCE76420B8E7B9F1010F29
:10AB700008BFFEF767FF0020B07051460FF2A41027
:10AB8000F8F7FEFEBDE8F387000000006E756D006B
:10AB90007365710070657200657272006C71690096
:10ABA000656400006670000010480021016041608B
:10ABB0008160C160016141610162416281628161C4
:10ABC000C161C16211480160704700007B00000054
:10ABD000202568007D0000008068006800B1012029
:10ABE0000349087070470000A62E00201829002095
:10ABF00050270020CC290020A82E0020A406010800
:10AC0000AA2E00204E270020102700208C2E002086
:10AC1000237B264E0D0A2020267420202026742017
:10AC200020267420202026742020267420267420BC
:10AC30002026742674202020267420267420267452
:10AC4000202020202020202674267426747D0D0AC2
:10AC5000000000006F666C6F000000007273736983
:10AC6000000000006761696E000000007374617489
:10AC70007573000074696D65000000006C656E6797
:10AC8000746800007061796C6F616400237B264EEC
:10AC90000D0A2020267420202026742020267420CF
:10ACA0002020267420202674202674202026742636
:10ACB0007420202026742026742026742020202032
:10ACC000202020267426747D0D0A00007B20263566
:10ACD00075202635752026357520263375202634B7
:10ACE00075202668202664202668202668202632C3
:10ACF0006820263468202664202668200000000092
:10AD0000207D0D0A000000007B264E2074657374C0
:10AD100020737461727420282765276E64297D0D65
:10AD20000A0000007B264E207465737420656E64F3
:10AD30007D0D0A0081B209B94BF6EF610E4A118010
:10AD4000000C08BF4FF6CE205080704702881304D5
:10AD500048BF4A40510001801046704738B5064C44
:10AD600062212046FFF7F2FF054641F20B01A01CCD
:10AD7000FFF7ECFF684032BDC627002010B504463F
:10AD8000DFF83C01D0F8E0140FF24810F8F7F8FDB6
:10AD9000A0680068C0B2FFF7D9F802460FF274113C
:10ADA0000FF26810F8F7ECFD2046BDE81040FBF705
:10ADB00021BD10B5FFF7C6F80446FFF7C3F88007BA
:10ADC0004CBF0FF294130FF29C13E0074CBF0FF22D
:10ADD00078120FF27C120FF2441100F023F8BDE854
:10ADE0001040F8F77FB870B50446A068057846684B
:10ADF000022D02DAF6B2022E04D30FF2741100F023
:10AE00000CF806E03046FFF70AFB45EA4600FFF77C
:10AE10003BF82046BDE87040CBE7DFF8A0000078A3
:10AE2000F8F760B8DFF894000078704770B5044612
:10AE3000FEF774FE0546244EA06800683070FEF7E9
:10AE40003EFEFFF7E9F9FFF7DFF996F900300FF260
:10AE50005C1204F111010FF23410F8F791FD012D8D
:10AE600004BFBDE87040FEF7EDBD70BD00F480404A
:10AE70007047164804210160016B41F00101016334
:10AE8000704730B500200021114A136C146C64081F
:10AE900064001464012414600A4C257855B91568BF
:10AEA000ED07FAD5012515600D46691CADB2022DDE
:10AEB000F3D301209BB2136430BD000010270020A3
:10AEC000A406010878270020A02800203020004098
:10AED00008A000407B264E2053657474696E67207D
:10AEE0006368616E6E656C20616E64207065726669
:10AEF0006F726D696E672066756C6C2063616C693A
:10AF000062726174696F6E2E2E2E00002674687D49
:10AF10000D0A00007374617475730000547820701A
:10AF20006F776572206D6F64652073657420746F30
:10AF3000202573206C6576656C2077697468202500
:10AF4000732050412E0D0A00424F4F535400000011
:10AF50004E4F524D414C000045585445524E414CC5
:10AF600000000000494E5445524E414C0000000084
:10AF7000496E76616C696420547820706F776572D1
:10AF8000206D6F64652E0D0A000000007B264E20A8
:10AF9000267464205B31316B487A20696E63726578
:10AFA0006D656E74735D7D0D0A0000006F666673DB
:10AFB0006574000070477047FFF7F0B838B5044675
:10AFC00043282FD044280ED0452806D0462818BF45
:10AFD00047280CD04D2825D01CE001F07DF801F069
:10AFE0007BF801F079F8BDE8314001F075B80E4DFD
:10AFF0002878B8B901202870002000F025FB472CE4
:10B000000CBF40F6010040F60200FDF77BFE002079
:10B01000287031BD40F2D3210FF21000BDE834405A
:10B02000F9F7B6B831BD0000DE2F0020656D62650E
:10B03000722D636F6E66696775726174696F6E2ECB
:10B040006300000038B544784568FCF7ADFA0C2180
:10B050006143194A8B585B1BB3F1004F98BF8D5069
:10B06000BDE83240FCF7A6BA38B500F00AF805EBA7
:10B07000102000026060022020702046BDE83240AF
:10B08000E0E704460D46FDF7EEBC38B50446FDF793
:10B09000EAFC05460BE0017841B1042904D041687F
:10B0A000691AB1F1004F01D86168884708342068F7
:10B0B0000028F0D131BD0000142B002072B670477B
:10B0C000BFF35F8FBFF34F8FBFF36F8F70470000E9
:10B0D00000BF30BF00BF704762B6704730B583B065
:10B0E000044610467F2808BF0020B1F5004F1AD152
:10B0F00008237F2240F6120100A8FFF7EFFF082285
:10B100000FF2380100A8F8F739FA30B908237F2286
:10B1100040F2A27100A8FFF7E1FF082200A9204633
:10B12000F8F7E2F937BD1A46034D294300FB031136
:10B130002046F8F7D9F937BD00000408FFFFFFFFEC
:10B14000FFFFFFFF70B505460E46FFF7B7FF3D4C0A
:10B15000206C20F008002064FFF7BEFFFCF724FA03
:10B16000310341EAC51141F00101374A116008215C
:10B170002160BDE87040FCF71DBA2DE9F041334C69
:10B18000334D304E25E0FFF799FF3248042101602E
:10B19000306C40F0080030642F6828684008400098
:10B1A0002860FFF78DFFD4F80080206820F0400071
:10B1B0002060FFF78DFFC4F800802F60FFF780FF4D
:10B1C000306C20F008003064234804210160FFF750
:10B1D00083FF30680007D6D5082030601F4800681C
:10B1E00080B2BDE8F08180B5FFF7ACFFBDE801405B
:10B1F000C3E7154801684908490001607047F8B580
:10B200000746FCF78CFE044639460320FFF7EBFFA8
:10B21000054639460120FFF7E6FF0646394600207D
:10B22000FFF7E1FF08490A68520852000A60401B14
:10B230000004711BB0FBF1F060434000000CF2BD54
:10B240000000000018A00040047000400080004092
:10B2500094ED00E000E100E080E200E000700040DA
:10B26000EFF3118060288041C043C00F7047000099
:10B27000424A0E2809D1012903D11078401C1070D0
:10B280000EE09078401C90700AE0162808D1012941
:10B2900003D15078401C507002E0D078401CD07030
:10B2A0000120107170472DE9F04F85B000218DF815
:10B2B0000810FF24A0468068007803902F4E0120DC
:10B2C000307171703170F170B1702D4F2D4D287843
:10B2D00020B10FF2B4013878F7F704FE0FF2E40161
:10B2E0003878F7F7FFFD0FF2F40907E05B465246A6
:10B2F0000FF24C11F7F7F6FD5446D84638789DF812
:10B300000810652931D002A9F7F7BCFC0398B0B941
:10B3100030790028F2D000203071B3783278387854
:10B32000297819B14946F7F7DDFDE7E7F178019192
:10B33000717800910FF2C401F7F7D4FDDEE70E201B
:10B34000FCF7ECFF82461620FCF7E8FF83465445E5
:10B3500008BFD845D0D0387829780029C6D05246C1
:10B360000FF2C401F7F7BEFDC6E703A1F7F7BAFD78
:10B3700005B0BDE8F08F00000D0A0000D82F0020B6
:10B3800010270020DD2F0020427574746F6E20316D
:10B3900020697320756E617661696C61626C6520ED
:10B3A00064756520746F20706F77657220616D70B1
:10B3B0006C696669657220656E61626C65640D0A10
:10B3C0000000000050726573732027652720746F9A
:10B3D00020656E642E2E2E0D0A00000042757474D6
:10B3E0006F6E20507265737365733A20305020255C
:10B3F000752030522025750D0000000042757474D0
:10B400006F6E20507265737365733A20305020253B
:10B41000752030522025752031502025752031525D
:10B420002025750D00000000425554544F4E305FEA
:10B4300050524553534544203D2025640D000000E3
:10B44000425554544F4E305F50524553534544205B
:10B450003D2025642C20425554544F4E315F5052AC
:10B460004553534544203D2025640D00F8B50600A2
:10B470000C4C276814D0FCF797F80B4D29782268FC
:10B4800022F8116037F8021BB142FBD1FCF792F8A9
:10B49000B81E2168401AC0052978000E884200D1E4
:10B4A000FF20F2BDB8270020BC270020FBF7DABA46
:10B4B00038B5064C2068216C01EA0005ADB2A8073A
:10B4C00048BF01F001FD256031BD000008A000402B
:10B4D00070B582B0044615460819A0F10806FEF7BB
:10B4E00095FB20B12078032824BF801E2070F078BF
:10B4F000FEF710F896F90210663149B20091034642
:10B50000707900F00F00B179090241EA0040F17949
:10B5100041EA000229462046FFF796F973BDFFF77E
:10B5200010BA000038B504461B4D214600F03DF826
:10B53000E860211D00F039F8A86004F1080100F06E
:10B5400034F8686004F10C0100F02FF8286031BD78
:10B55000F8B50446114D80202860114E0620306059
:10B560000720286030688007FCD5002704EB87019E
:10B5700000F01BF8A8627F1C042FF7D33068400747
:10B58000FCD500262A6B04EB860100F00BF8761C34
:10B59000042EF7D3F1BD00003830004000300040E9
:10B5A00010A00040002001F090BC002001F09BBCE6
:10B5B00070B504460D46FBF7F7FF06462846FFF731
:10B5C000B1FF2046FFF7C4FF3046BDE87040FBF7EF
:10B5D000F1BF002848BF404270470000174838B507
:10B5E0000446FBF7E1FF05461548002101600821EC
:10B5F00054F8042B826054F8042BC260491EF7D122
:10B6000001210160FFF75CFD2846BDE83240FBF7F1
:10B61000D1BF0B4800210160FFF752BD10B50446B1
:10B62000FBF7C2FF05496209520142F014020A62A7
:10B63000044A4A62BDE81040FBF7BCBFD427002093
:10B6400094ED00E009000B102DE9F94786B01222B5
:10B65000FF2100A8F7F78BFFDFF894905022FF211D
:10B660004846F7F784FF24254FF0120A00270FF20F
:10B6700090082048385C411C01EBD1714C101E49E8
:10B680007E5CFF2803D16F214046F8F781FD7F2EB5
:10B6900003D370214046F8F77BFD1848385C00B1B1
:10B6A0001934601C00FB0655012E1CBF29F817A099
:10B6B000B2447F1C122FDCDB40F21C44A5420ED3A7
:10B6C000F8F7B7FBFBF770FF23462A460FF240015D
:10B6D0000120F7F779FC9B214046F8F759FD00A9B6
:10B6E0009DF8180000F0F1F808B0BDE8F087000000
:10B6F000702B00206C1101088011010858110108FD
:10B7000073696D2D656570726F6D2E6300000000AA
:10B710000D0A4552524F523A2053696D45452064F7
:10B7200061746120746F6F206C617267652E2020D8
:10B73000436F6D70696C696E672077697468202546
:10B740006420776F72647320636F6E73756D6564C8
:10B750002E20204D617820616C6C6F7765642069C4
:10B76000732025642E0D0A0010B5DFF8E039DFF8EC
:10B77000E0492488001B03EB4000002304E030F87C
:10B78000134021F813405B1C9342F8DB002010BDEE
:10B790002DE9F04182B004460D4616460027DFF839
:10B7A000AC8901E0B81CC7B2B7421ADA7819407800
:10B7B000795D01EB0020ADF80000012200A907EB44
:10B7C000D77004EB6000DFF888391B88C01A08EBDB
:10B7D000400001F0E8FB0028E4D0FFF7EFFB002079
:10B7E00000E00120BDE8F681F8B504460E46154696
:10B7F00000270DE000F019F8761C04EB4700BDF8B7
:10B800000010090A4170BDF8000004F817007F1C01
:10B81000B7EB550FEEDBE80706D500F006F8281960
:10B82000BDF8001000F8011CF1BD012200A9B0B262
:10B830009AE7DFF81819DFF818291288801A01EB47
:10B840004001022001F076BBDFF80819415CDFF807
:10B850000829825CDFF80439C05C10B102F59972E6
:10B8600092B241EAC21080B2704710B5DFF8F038EA
:10B8700003EB4002DFF8DC48005D012801D11046EF
:10B8800010BD1088081803EB400010BD38B50C46F9
:10B89000DFF8D0180D782A462146FFF765FF20888B
:10B8A00000281CBF4FF6FF7188420AD0012000E03B
:10B8B000401CC0B2A84206D234F81010228891422F
:10B8C000F6D0002032BD012032BD2DE9F04F9DB0F1
:10B8D00089460446DFF89078002038707880DFF8D9
:10B8E0008C080088ADF8000008A9FFF7CFFF82465A
:10B8F00001207870DFF878080588DFF87808B0F85C
:10B900000080BDF80060DFF848080088ADF804004A
:10B9100083460AA9FFF7BAFFD0B1BAF1000F43D0AE
:10B920004FF6FE70BDF82010814204D1BDF828000A
:10B93000012806D10FE0012904BFBDF8281081427B
:10B9400032D0BDF82000BDF8281088422CD202E089
:10B95000BAF1000F27D0002078703046CDF808B03B
:10B960000795CDF81480DFF8FC1709788DF80610DC
:10B970000818ADF8100000F05DFABDF81000FFF7F0
:10B98000F3FEDFF8F40700880690BDF80200000B14
:10B990004FF6FF789DF80610884218BF0F2800D197
:10B9A00014B3002515E0012478780128D5D1584634
:10B9B0000296CDF81C800595D5E7069805FB00F4A6
:10B9C000BDF8040000F0E6FBBDF8000000F0E2FB6B
:10B9D0006D1C9DF806008542EFDB012038704D207C
:10B9E000FFF7ECFA0025FBE0BDF8105000F022FA5A
:10B9F0002846FFF7B9FE6E1CBDF80200C043C0B276
:10BA0000ADF80200DFF874070588BDF80200A8420F
:10BA100018BF01244FF0000A1FE0401CC1B2A94228
:10BA200017D2C0B28346DFF8581731F81B10BDF8A3
:10BA30000E209142F1D1FFF707FF4FF680710840C9
:10BA4000BDF80C104FF680721140884208BF0BF809
:10BA500009A00AF101001FFA80FABDF80200824530
:10BA600007DA022203A9B0B2FFF77EFEB61C00205F
:10BA7000D4E7002100E0491CA94219DA11F80900B5
:10BA80008842F8D0012413E02AF81160012201A9AC
:10BA9000BDF8103003EB4000401C00F0D0FABDF8B8
:10BAA0000400C0F3C710401C00EBD07006EB60062A
:10BAB000DFF8ACA6B6B20598864213DA012200A9D7
:10BAC0003046FFF751FEBDF8000040450AD0761C15
:10BAD000000ABDF8001001F07F02BDF80210884294
:10BAE00002DB012400252BE0002100E0491CA942D3
:10BAF000CCDA11F809308342F8D1C9B2FF29C5D098
:10BB00007F2A0CBF4FF0000C9446DFF84836CB5C20
:10BB10009C4509DABDF800C0CCF3C01CDFF83CE658
:10BB200011F80EE0F44501D00124AFE7012BABD0B2
:10BB30007F2A08BF00223AF811105118A4E76D1CA3
:10BB4000DFF840060088854204DA3AF815004045DF
:10BB5000F5D101247E80B5B2059885420ADA01222A
:10BB600000A92846FFF700FE6E1CBDF80000404506
:10BB7000F1D034E7002CFCD101220CA9029800F08E
:10BB80005EFABDF8300040450DD105E0401C80B2A2
:10BB9000202813D32034A4B20799029A891A8C4220
:10BBA00005DB0120387000201DB0BDE8F08FA5181E
:10BBB00020220CA9A8B2FFF7D7FD00200CA931F86C
:10BBC00010104145E2D0A8B2FFF733FE203CA4B2EA
:10BBD000E0E70298069905FB010000F0DCFA6D1C15
:10BBE0009DF806008542F4DB01203870414600F0E4
:10BBF00043F818B100F022F90028D4D10120D3E78E
:10BC00002DE9F84504460D4616469A463146284623
:10BC1000FFF72BFEB0F80080DFF83C75DFF85C150D
:10BC200009888D420AD27F2E08BF0026DFF824053E
:10BC3000285C864202DAE85D824503D040F2864104
:10BC400000F0F9F9DFF81405285C68B14146284690
:10BC500000F028FAE95D012908BF20700AD0022906
:10BC600014BF2060208005E0524641462046BDE8D2
:10BC7000F845B9E5BDE8F1852DE9F34F83B0DFF86C
:10BC8000D0040488DFF8E004407800281ABFDFF809
:10BC9000DC0400882046DFF8CC1409780D18ADB21A
:10BCA000DFF8D8040088ADF80800C043C0B200EB4C
:10BCB000013000F55060ADF8020000F0CAF92B1B0E
:10BCC00000F0C3F96E1CB6B2002832D10025DFF8AF
:10BCD000B07410E0E8B2FFF7B7FDADF8040037F834
:10BCE0001500ADF80600022200F0ACF9002820D1C2
:10BCF000B61CB6B26D1CBDF808008542EADB002513
:10BD000000E06D1CBDF80800854280F28E804FF087
:10BD1000000A1AE000F08EF81FFA89F0FFF724FD00
:10BD200009F1010900F095F9BB191B1B00F08DF911
:10BD3000002874D17F1CFFB25F45EBDBDFF84804BD
:10BD4000285C8619B6B20AF1010ADFF8080415F872
:10BD500000B05FFA8AFADA45D3D25146E8B2FFF76B
:10BD600084FD8046B8F80090DFF8F0032F5CF801FE
:10BD700040EA0520ADF80000BBF1010FBDF800005E
:10BD80000CBF40F07F004AEA0000ADF80000DFF889
:10BD9000BC03311B00EB4100711C89B201914FF6CD
:10BDA000FF7189451EBFBDF80010BDF810209142FB
:10BDB00018D19DF80C100029C5D0012200A901F06E
:10BDC000F2F8019E58BBA8F80060DFF88C032A5CEB
:10BDD000DFF8B80350F82510B0B2FFF7D9FC0028FF
:10BDE000ACD11FE0DFF87013695C491C01EBD17125
:10BDF000C9054FEA116B012200A901F0D4F8019E98
:10BE000068B9A8F80060002F95D04946E8B200F064
:10BE100049F901905A4600F015F900288ED0FFF735
:10BE2000CDF8002005B0BDE8F08FDFF83C03468078
:10BE30000120F7E701220DF1020170472DE9F041E1
:10BE400082B0DFF828030688DFF804030488DFF8EF
:10BE500018536878002812BF204630462646012233
:10BE600000A9FFF781FCBDF8000001280CBF4FF6C8
:10BE7000FE70401EADF80000DFF8E8020778DFF83A
:10BE8000CC823846471E70B1012200A9BFB2B81952
:10BE9000001B08EB400001F086F80028F1D0FFF706
:10BEA0008DF8002007E06978481E8041C00F687057
:10BEB000002028700120BDE8F6812DE9FE4F834661
:10BEC0000C4617469A4600208DF804000125394695
:10BED0005846FFF7CAFC81465E46A84909888B454B
:10BEE0000AD27F2F08BF00279A48305C874203DAC6
:10BEF0009948305C824503D040F2A95100F09BF88C
:10BF0000994F787820B19A48B0F80080904803E0C3
:10BF10009848B0F8008095480088397849B9798800
:10BF2000081A9B4909888842B4BF43204420FFF780
:10BF300045F8B9F800108948305C78B1584600F0EF
:10BF4000B1F8BAF1010F08BF217804D0BAF1020F9D
:10BF50000CBF2188216881426BD02BE002914FF009
:10BF6000000B23E0012200A902980BEBDB7300EB2E
:10BF7000630000F064F80BEB040040781BF8041039
:10BF800001EB002080B2AAF101018B4505D1C0B2BE
:10BF9000BDF80010C9B2ADF80010BDF8001088421D
:10BFA00018BF00250BF102005FFA80FBD345D9DBF7
:10BFB000002D3ED1FFF73EFFB9F80000401E00F013
:10BFC0003EF87148355C7888A8F10101491B81422F
:10BFD00000DB60B9387808B945201CE0BDF80210D4
:10BFE0000020FFF749FE20B301208DF80400788877
:10BFF000401C78805849725C214680B2FFF7C8FB2C
:10C00000B8B100F026F87B885B1E514C24881B1BBE
:10C0100000F01BF810B1FEF7D1FF0AE09DF8040014
:10C0200010B1FFF70BFF20B17888A9F8000028189D
:10C030007880BDE8F78F0FF26410F8F7A9B880B2E6
:10C04000FFF792BB01A94148331B00EB430000F00E
:10C05000AABF01220DF102013C48704770B582B0C1
:10C06000044600251926012200A9A0B2FFF77CFB97
:10C07000641CBDF8000048B14FF47F41401A02D063
:10C08000FF3806D007E0681C40B276BDAD1C761EB6
:10C09000E9D168B276BDBDF80000C0B200B96D1C30
:10C0A000E843F1E738B50C46002100912A49455C88
:10C0B0002A46214600A8FFF797FB681C00EBD070CA
:10C0C00004EB600080B2FFF7C9FF002848BFC043FF
:10C0D000009940B2401832BDF8B5234C20780028B2
:10C0E00032D11B480588607800281ABF1F4806888F
:10C0F0002E461C4807783846471E02281DD30122C9
:10C1000000A9FFB2B819FFF79AFFBDF80000002898
:10C11000F1D01948008807FB006000F03CF80020CF
:10C12000ADF80000012200A90848BB195B1BFFF70E
:10C130008CFF48B1FEF742FFF1BD3046FFF779FBB7
:10C14000FFB20FB901202070F1BD000000E001082E
:10C150002C130108801101086C1101085811010805
:10C16000702B002028130108D42F00203013010861
:10C170002E130108321301082A130108361301088F
:10C1800034110108381301083C130108E0120108BA
:10C1900034130108201880B2FFF74BBB73696D2D73
:10C1A000656570726F6D2D696E7465726E616C2E4F
:10C1B000630000002DE9F14F9AB0DFF8E8456068B0
:10C1C00018909DF86800072808BF032002D00828AF
:10C1D00002D102208DF86800DFF8CC552868696824
:10C1E00040EA0120A96840EA0140009068684007E1
:10C1F00003D5E06940F00200E0612868400703D5FC
:10C20000E06940F00400E0614FF0010A00982969FC
:10C210000AFA01F1084203D0E06940F00800E06149
:10C22000DFF87C7500207860DFF880859DF8680075
:10C23000012800F05282C0F0788203281ED005D376
:10C24000042840F072820020606017E0D8F84000B7
:10C25000C00703D5E06940F04000E061D8F8400035
:10C26000400703D5E06940F02000E061D8F84000C5
:10C27000800703D5E06940F01000E061FBF794F916
:10C28000F7F7E4FD8DF85C004FF0000BD8F84000A4
:10C290001690D8F844001590DFF81495D9F84C00A2
:10C2A0001490D9F850001390D9F854001290D9F88E
:10C2B00058001190DFF8FC0400681090DFF8F404D7
:10C2C00040680F90DFF8EC0440690E90DFF8E4045A
:10C2D000406A0D90DFF8E06430680C9070680B9055
:10C2E000B0680A90F068099030690890706907900A
:10C2F000B0690690F0690590B06B0490DFF8BC045B
:10C300000068DFF8BC144968039102212160DFF85E
:10C31000B4140968DFF8B024126841EA0221DFF89A
:10C32000AC24126841EA024102914FF0FF31616290
:10C33000DFF89C140A687968D20408D56A68D207C5
:10C3400005D5E269D20744BFD34641F4807100F0BD
:10C35000FBF9920408D56A68520605D5E269D2074E
:10C3600044BFD34641F4804100F0EEF952040AD5AF
:10C3700000F0E4F907D0E269D20704D5D346EA68B1
:10C380000AFA02F2114300F0DFF9120410D5009A04
:10C390002B690AFA03F31A420AD0E269D20702D4DF
:10C3A000E269120704D5D3462A690AFA02F2114358
:10C3B00000F0CAF9D20305D5E269120644BFD3469C
:10C3C00041F00061796000216A68D20748BF4FF4EC
:10C3D00080516A68520648BF41F4005100F0AEF93E
:10C3E00018BF41F480412B690AFA03F31A4218BFBF
:10C3F00041F40041E269D20605D4E269920602D412
:10C40000E269520601D541F01001E269120648BF07
:10C4100041F4803108400190A520F7F70EFDC4F8E3
:10C420003CA0E069A16B11B1616A0142FAD0616A76
:10C43000014200F0EF800020E063D346786840F0CE
:10C4400080407860FEF73AFE0720C8F800000F2011
:10C45000C9F80000FFF7C2F8189860601698C8F88D
:10C4600040001598C8F844001498C9F84C00139877
:10C47000C9F850001298C9F854001198C9F858002A
:10C48000CC48109901600F9941600E9941610D9956
:10C4900041620C9830600B9870600A98B0600998FF
:10C4A000F06008983061079870610698B06105984F
:10C4B000F0610498B063C14801990160C0480399D4
:10C4C0004160C4484FF0FF310160BE480268BE4879
:10C4D0000068BE490968636AE6693340D5F810C050
:10C4E0007E68DDF808E042EA002040EA014080EA88
:10C4F0000E0000990840590801F0010140EA81202E
:10C50000990801F0010140EA8100D90801F0010118
:10C5100001FA0CF1084303F47C7140EA0150304306
:10C520007860FBF741F8FEF7D7FD002020609DF80A
:10C530005C0008B1F7F776FC7868A0490968C90380
:10C5400003D5010144BF20212162D8F8401089079A
:10C5500004D5C10144BF0221C8F80C10D8F840101E
:10C56000490704D5810144BF0421C8F80C10D8F84C
:10C570004010C90703D5410148BFC8F80CA0D9F83D
:10C580004C1011F0E00F05D0C10503D590494FF4D0
:10C5900080520A60D9F8501011F0E00F05D0410424
:10C5A00003D58B494FF400520A60D9F8541011F0AA
:10C5B000E00F1EBFE9680AFA01F1084203D084497E
:10C5C0004FF480420A60D9F8581011F0E00F1EBFF6
:10C5D00029690AFA01F1084203D07D494FF400426B
:10C5E0000A60BBF1000F70D17B49096809056CD561
:10C5F0006168890769D59DF86810042965D06F497D
:10C600000968C90642D572490968C9063ED587F846
:10C6100000A05AE0BBF1000F7FF410AF65488069BD
:10C6200040084000634988616548C06840F00400E4
:10C630006349C860694880F800A04FF20F01684A5A
:10C64000138840F2072C634504BF53888B4203D103
:10C650004CF23C335380D346594B1B6843F0805314
:10C66000DFF85CC1CCF800300378002BFCD1BBF1C3
:10C67000000F1CBF51804FF0000B5748406800046A
:10C68000B860554989680843B860DDE64FF47A71AF
:10C6900000223A70534A536D43F001035365454BF2
:10C6A0009B69DB0758BF4FF4FA7113684A4C646802
:10C6B000494DAD6845EA0444BD68AC4205D11468F3
:10C6C000E41A2403240B8C42F0D340F0004078603D
:10C6D0001BB0BDE8F04FF7F755BDF7F7B7FB0446C1
:10C6E000A520F7F7AAFBFEF7E9FCF7F74BFD3E4D57
:10C6F0002E682868400840002860FEF7E1FC3B4FA8
:10C70000D7F80080386820F040003860FEF7E0FC81
:10C71000C7F800802E60FEF7D3FC0CB1F7F782FB60
:10C720001BB0BDE8F04FFEF7D7BC40F222410FF23C
:10C73000C8001BB0BDE8F04FF7F72ABD009AEB68C0
:10C740000AFA03F31A427047214A12687047164AE0
:10C75000CBB21360C1F307235360C1F3074191606B
:10C76000234900230B601368002B04BF5368002B80
:10C7700001D192681AB10A6842F001020A600A689F
:10C7800042F400720A600A6842F080020A6011E511
:10C7900018490978890141F4800141F48041D6E7C4
:10C7A000C02B00200400004008BC004014A0004042
:10C7B00014A80040044000400050004000E100E0A8
:10C7C00004ED00E008B0004008B4004008B80040A4
:10C7D00000E200E080E200E00C600040902E0020CB
:10C7E000000000203820004094ED00E00080004070
:10C7F000200000401D280020736C6565702E6300CA
:10C8000008237F22024801880248FEF767BC00BF68
:10C8100076150108982E0020F0B589B00446002056
:10C82000FBF756FB0A237F222548018800A8FEF764
:10C8300055FC4FF6FF75BDF80200A84204D1DC217B
:10C840000FF29400F7F7A4FC00260FF2A40701E012
:10C850002A4616B94FF47C4203E0022E08BF4EF27E
:10C860003F0200A800F032F8761C052EF0D3012C10
:10C8700003D114237F22134802E014237F2212489D
:10C88000018803A8FEF72AFC00260FF26C072A464F
:10C8900008E02A46012E08BF4FF6C07202D0082ECB
:10C8A00008BF002203A800F011F8761C0A2EF0D36E
:10C8B000012C04BF0120FBF70BFB09B0F0BD000009
:10C8C000401501083E1501083C15010830F8161006
:10C8D000F05DFDF796BA0000616E616C6F6775657B
:10C8E0002D63656C6C2D626961732E63000000001E
:10C8F00000100C0D0E000000010203040708090AD5
:10C900000B0F000010B584B00A237F220B4801886A
:10C9100000A8FEF7E3FB4FF6FF74BDF80000A0424D
:10C9200004D14E210FF21800F7F732FC2246BDF871
:10C9300000100020FDF765FA1FBD0000401501083A
:10C94000616E616C6F6775652D66696C7465722EBA
:10C95000630000002A490A68920992010A600A6885
:10C960001043086027484FF4004101600021016036
:10C970006420FBF716BB2DE9F0478046224DD5F821
:10C980000090286840F4004028601D4F386820F46B
:10C99000805038601D4C207868B11D48A1786278BD
:10C9A00000EB820212F82A2C891A00EB880010F89A
:10C9B0002A0C461802E0202601202070B0B2FFF7B2
:10C9C000C9FF0FF2500A02E0B0B2FFF7C3FF386BA5
:10C9D000042805D0386B400754BF761E761CF3E759
:10C9E000F86A38B184F80180A6701FFA89F02860CF
:10C9F000BDE8F08740F221115046F7F7C9FBE6E7A2
:10CA0000D0100040181000401C100040EC2F0020F7
:10CA10005CA30008616E616C6F6775652D76636F4E
:10CA20002E6300004FF4FE52810189B20C20FDF705
:10CA3000E8B92DE9F84F8A4CA568ADB200264FF051
:10CA40000A080127B94620681FFA80FAFEF7D1FBD1
:10CA5000B0202063DFF80CB2DBF800000120FBF708
:10CA6000A0FAB9F1000F11D0AAF10300874202DA4F
:10CA7000F81C87B213E057460AF5004020600621F3
:10CA80000920FEF75FFB4FF000090BE0DBF8000028
:10CA9000000707D5042FA6BFF81E87B2002707F5A9
:10CAA000004020601A2EA8BF6FF0090804DA16F1C2
:10CAB000190FB8BF4FF00A08464436B27019A0608B
:10CAC000DBF800000007C9D5012FC7DAB9F1000F64
:10CAD000C4D1A560C4F800A00820CBF800006248CB
:10CAE000006880B2BDE8F28F10B560494FF0FF32A8
:10CAF0005A4B1C7864B1002819BF4A605C484860F2
:10CB000041F211100860D9889888BDE8104090E77C
:10CB1000002819BF4A600A6048600860FEF769FB98
:10CB200006210920BDE81040FEF75DBB38B50120A5
:10CB3000FFF7DAFF04460020FFF7D6FF0546012085
:10CB4000FFF7D2FF4042001B00EB450000B232BDB0
:10CB50002DE9F04F83B0474CA06AADF8040020687F
:10CB6000ADF80200444D2868ADF800003B4E307827
:10CB700058B14FF6FF7200210820FDF73BF98046BF
:10CB8000C022C0210820FDF73CF93C4F3C4800780A
:10CB900010B148F260703860708840F4404040F056
:10CBA0004C00F8630220A0620120206040F24C405B
:10CBB000FBF7F7F90120E86028600020B0804020F2
:10CBC000F080307800B12020FFF72CFFFFF7AEFF98
:10CBD00083464020B0807F20F080FFF723FFFFF7DF
:10CBE000A5FF00F04FF8FE2101FB00FAABEB090BAB
:10CBF000307850B14846FEF7ECFC00F043F880B2C4
:10CC00000AEB8911B1FBF0F004E000F03CF880B2CF
:10CC1000BAFBF0F080B2401C4FEAC039BDF800000A
:10CC200028600020E86002202060BDF8020020603B
:10CC3000BDF80400A0620020F863307830B14FF6F0
:10CC4000FF721FFA88F10820FDF7DBF840F24C4034
:10CC5000FBF7A7F94FEA1940BDE8FE8FDC2800205A
:10CC6000C010004018A00040007000403810004084
:10CC7000EEEEFFFF6020004028100040D010004082
:10CC80009928002081465846FEF7A3BC3F22410068
:10CC900089B201E03F2201460220FDF7B2B82DE93A
:10CCA000F04F93B0564CE06CADF808002068ADF83A
:10CCB0000600544DE86AADF804004FF6FF720021FB
:10CCC0000120FDF797F8ADF802004FF6FF72002142
:10CCD0000B20FDF78FF8ADF800004FF40040206006
:10CCE00000202861686148F2020000F08DF84CF6DF
:10CCF0008C30E06448F2F000E8624FF48052114654
:10CD00000120FDF77EF84FF6FF7200210B20FDF7A2
:10CD100078F806210620FEF766FA804600F087F8CC
:10CD200083464CF69C30E0640020FFF7AFFF0621FD
:10CD30000846FEF707FA0026B0B2FFF7A7FF062164
:10CD40000620FEF7FFF9FEF718FA03A921F81600EE
:10CD5000761C202EF0DBFEF710FA1020FFF796FF6E
:10CD600000F065F8A0EB0B00BDF82C10A1EB08015A
:10CD7000404301FB01094FF0100A112700F050F861
:10CD800000F055F800F045F805DB81461FFA87FAF8
:10CD90007F1C202FF2DB504610280ED10F2700F009
:10CDA0003FF800F044F800F034F806DB81461FFA43
:10CDB00087FA781E07B2002FF1D5BDF80800E064AD
:10CDC000BDF806002060BDF80400E8624FF6FF726F
:10CDD000BDF802100120FDF714F84FF6FF72BDF800
:10CDE00000100B20FDF70DF801202861002000F055
:10CDF0000BF84FEA4A00C0B213B0BDE8F08F000054
:10CE0000C010004018100040286040F24C40FBF772
:10CE1000C8B8A0EB0B00404306FB0600484570472E
:10CE200003A830F81700A0EB0806B8B22EE70621D9
:10CE30000720FEF7D8B9000010B50446062C02D131
:10CE4000F6F724FF50B9E008032807D2E01080026B
:10CE50001A49012204F007039A400A5010BD10B588
:10CE60000446062C02D1F6F711FF50B9E00803285A
:10CE700007D2E01080021249012204F007039A4011
:10CE80000A5010BD10B50446062C02D1F6F7FEFE7E
:10CE900098B9FAF789FBE10803290AD2E110094A97
:10CEA00002EB81210A68012304F00704A3405A40E1
:10CEB0000A60BDE81040FAF77DBB10BD14B0004019
:10CEC00010B000400CB00040704710B5002300289F
:10CED00014BF1C46C3F10304E4B26254120A5B1C83
:10CEE000042BF4D310BD30B54A788B78CC78097810
:10CEF00018B120461D460C4602E0084615461A4663
:10CF000055EA002054EA022141EA004030BD000009
:10CF10004148018A40F6A772914202BF418A4FF40C
:10CF20007F40014204D102298041C043C00F7047B5
:10CF3000002070472DE9F84F82468846FAF734FB07
:10CF40000446364D2F682868400840002860FEF7E8
:10CF5000B7F8DFF8C0B001208BF80000FFF7D8FF6A
:10CF600020B9FF210FF2B800F7F712F92A48D0F8DC
:10CF7000289041464AF48070C84706462F60FEF765
:10CF80009FF82046FAF716FB00208BF800000FF2FE
:10CF900098040EB1305D04E041464AF40070C84781
:10CFA000005DBDE8F28F2DE9F84F804689464FEAD3
:10CFB000420AFAF7F9FA0546184E37683068400811
:10CFC00040003060FEF77CF8FFF7A2FF28B94FF46D
:10CFD000A1710FF24C00F7F7DBF80F48D0F824B03E
:10CFE0000023524649464046D84704463760FEF77C
:10CFF00067F82846FAF7DEFA0FF22C050CB1605DEF
:10D0000005E05346002249464046D847405DBDE80A
:10D01000F28F0000EB2F00200000040894ED00E0E8
:10D02000666C6173682E6300000202024B4B464738
:10D0300010B501F00301890003880F248C40A3433D
:10D0400002FA01F11943018010BD2DE9F047806813
:10D050000468017A01F00105017B01F00F09017CF0
:10D0600001F00108E4B22746604E182C07D33A4677
:10D070000FF2B4113078BDE8F047F5F733BF4FEA4F
:10D08000A70A007900F00F022146594800EB4A0038
:10D09000FFF7CEFF4A462146564800EB4A00FFF70D
:10D0A000C7FF554911EBE70104F007020123934044
:10D0B000DB430C781C4095402C430C704F4911EB1E
:10D0C000E7000178194008FA02F2114301700FF2EB
:10D0D00074113078F5F706FF3A460FF2B811307840
:10D0E000F5F700FF0FF2D0113078F5F7FBFE0FF2E5
:10D0F00010213078BDE8F047F5F7F4BE10B501F027
:10D1000007010368012405E010B501F0030189005F
:10D1100003680F248C40A34302FA01F11943016014
:10D1200010BD0000BCB580680468017901F00F05EE
:10D13000007A00F00102E4B22C4F182C03D32246EF
:10D140000FF2E40133E0E00803D0022807D003D354
:10D1500009E021462A4804E021462A4801E0214608
:10D160002948FFF7CBFFA00805281DD8DFE800F00D
:10D1700003070B0F13172A462146244812E02A46BC
:10D18000214623480EE02A46214622480AE02A4644
:10D190002146214806E02A462146204802E02A4648
:10D1A00021461F48FFF7B0FF22460FF28011387862
:10D1B00002B0BDE8B040F5F795BE10B580680068D4
:10D1C0000002000A17490860084C0FF2A4112078E9
:10D1D000F5F788FE0FF2E0112078F5F783FE0FF2E5
:10D1E00014212078BDE81040F5F77CBE1027002000
:10D1F000202800202C280020142800201828002097
:10D200000CB000400CB400400CB8004000B000402E
:10D2100004B0004000B4004004B4004000B8004036
:10D2200004B8004038280020706F727450696E2076
:10D230006F6620256420697320696E76616C69646D
:10D240000D0A000053657474696E6720626F617225
:10D25000642066696C65204750494F207661726989
:10D2600061626C65732C20706F77657275702063D6
:10D2700066672C20706F7765727570206F75742CDF
:10D2800020706F776572646F776E206366672C0D10
:10D290000A000000706F776572646F776E206F759B
:10D2A000742C20666F7220706F727450696E202526
:10D2B000642E0D0A0000000052656D656D62657296
:10D2C0002C20746865204750494F2773206E65777E
:10D2D00020706F776572757020616E6420706F7753
:10D2E0006572646F776E20636F6E666967757261D1
:10D2F00074696F6E20776F6E742062650D0A00008E
:10D300006170706C69656420756E74696C207468F6
:10D3100065206E657874206465657020736C656542
:10D3200070206379636C652E0D0A00005365747478
:10D33000696E67204750494F20636F6E66696720AA
:10D34000726567697374657220616E64206F7574AD
:10D3500070757420726567697374657220666F7288
:10D3600020706F727450696E2025640D0A000000F1
:10D3700053657474696E67206770696F5261646980
:10D380006F506F776572426F6172644D61736B208D
:10D390007661726961626C652E2020546865206E2A
:10D3A0006577206D61736B2077696C6C20616666B0
:10D3B0006563740D0A00000068616C537461636BEF
:10D3C000526164696F506F7765725570426F617218
:10D3D0006420616E642068616C537461636B526198
:10D3E00064696F506F776572446F776E426F6172D8
:10D3F000640D0A007768656E207468657920617233
:10D40000652063616C6C65642064756520746F20B1
:10D41000726164696F206265686176696F722E0D52
:10D420000A0000005B4801680909090141F0010197
:10D430000160594800210160704718B500210A2297
:10D4400000AB80B290FBF2F402FB1400C8542046FB
:10D45000491C0329F5D39DF8021001EB00105978FF
:10D4600001EB001080B29DF8001001EB001080B2BB
:10D4700012BDF0B585B00A9C0025002902D54942AD
:10D480002D2401E05CB12B2400F8014B07E00A24B5
:10D49000B1FBF4F604FB1611E9556D1C314600AFE3
:10D4A000EDB29542F3D30029F1D129464D1E51B179
:10D4B000EDB2E95D303100F8011B9D42F5D12E211E
:10D4C00000F8011BF1E7017005B0F0BD30B587B081
:10D4D000FFF7A8FF0020FAF791FE802809D1072363
:10D4E00009222A210120FAF717FE01A90120FAF7E3
:10D4F00079FE274C802834D1BDF80400FAF7A3FE4A
:10D50000054600F036F802AA0FF294012078F5F7EC
:10D51000E9FC2248ADB2AB2101FB150500F029F86A
:10D5200002AA0FF294012078F5F7DCFC05EBC500A8
:10D53000052190FBF1F000F5802505F5624500F02E
:10D5400018F8642095FBF0F080B2FFF776FFADF895
:10D550000400034602AA0FF278012078F5F7C2FC16
:10D5600005E002460FF274012078F5F7BBFC07B026
:10D5700030BD0120009004230522294602A878E747
:10D5800080B50120FAF73CFD0020BDE802409DE790
:10D590001027002000B4004004D000404F4A18007B
:10D5A00041444320566F6C746167652056203D20CE
:10D5B00025730D0A000000004144432074656D701E
:10D5C000203D2025732063656C736975732C2000E2
:10D5D0002573462025327846290D0A004144432010
:10D5E00072656164206572726F723A2030782578B6
:10D5F0000D0A000010B50FF2700481680968C9B205
:10D60000012900F1110105D10FF21C00F6F7B8F95C
:10D61000012104E00FF23000F6F7B2F900212046B4
:10D62000BDE8104000F028B87B264E20706C617970
:10D630002074756E65206173206261636B67726F21
:10D64000756E647D0D0A00007B264E20706C61793A
:10D650002074756E6520617320666F726567726FE6
:10D66000756E647D0D0A00001F0100011F0100019D
:10D670001F0100010F05000070B50C463F4D002151
:10D6800029650521A962012169610021A961A969B2
:10D6900041F44051A9613A4E706001780D22514326
:10D6A000E9620021696201780F2291FBF2F1407872
:10D6B000C822504390FBF1F07080022030700020AF
:10D6C0007070F9F771FF2F4901220A602E490A682C
:10D6D00042F001020A6010212962296841F001012B
:10D6E0002960F9F767FF01E0F6F7A3FB70782043A4
:10D6F000FAD070BDF0B522484288511E41802349BE
:10D70000002A37D102784768D4191C4B65781DB3BD
:10D71000D65DC8258EB14FF00D0E0EFB06F6DE620B
:10D7200000265E6210261E62D35D0F2693FBF6F381
:10D7300064786C4394FBF3F30AE040F29316DE62E4
:10D7400000265E621E6263786B4303EBD3735B104B
:10D750004380921C02700DE00A6C520852000A6469
:10D76000094A146864086400146000221A621A608E
:10D77000012242704FF0FF300860F0BD00E0004031
:10D78000CC27002040A8004000E100E000A80040B5
:10D790002DE9F04182B0DFF8E800007880018DF8D3
:10D7A000000000AC402060708DF8020000F05FF8CF
:10D7B00000260FF20C180027305D0121B940084205
:10D7C00002D03B4600F027F87F1C082FF4DB761CC4
:10D7D000032EF0DB0FF2FC0100F04CF800F044F8EF
:10D7E000FCF730F9F6F77CFBF9F7DEFE0446F6F7B6
:10D7F0004DF90320FEF7CCFFF6F762F92046F9F762
:10D80000D9FEF6F789FB0120FCF78BF80FF2F8013F
:10D81000287800F025B806F1410241462878F5F74E
:10D8200061BB000030BF70477047000030BF7047D9
:10D830007047000030BF70477047000030BF70472E
:10D840007047000030BF70477047000030BF70471E
:10D850007047000030BF70477047000030BF70470E
:10D86000F5F740FBBDE8F3812878F5F798BB034D49
:10D870000FF210012878F5F735BB000010270020C3
:10D880001D28002057696C6C2077616B65206672DB
:10D890006F6D204750494F206163746976697479D0
:10D8A000206F6E2074686520666F6C6C6F77696E90
:10D8B0006720706F72742070696E733A0D0A0000F1
:10D8C000506F72742025632C2070696E2025642EA1
:10D8D0000D0A0000456E746572696E6720534C45F1
:10D8E00045504D4F44455F4D41494E5441494E547A
:10D8F000494D4552207669612068616C536C6565BD
:10D90000702E2E2E0D0A00004177616B650D0A0006
:10D91000F8B5DFF8A4490FF25C6100F027FE0FF2C2
:10D920006C6100F023FE0FF29465DFF89039DFF8A8
:10D93000902900F0BDFC0FF298664CF2443200F0E2
:10D9400058FE0FF2946100F0A3FD00F00DFEDFF829
:10D950007439DFF8742900F0ABFC4FF2640200F078
:10D9600048FE0FF2846100F093FD00F0FEFDDFF849
:10D970005C39DFF85C2900F09BFC4FF2644200F058
:10D9800038FE0FF2746100F083FD00F0EEFDDFF869
:10D990004439DFF8442900F08BFC4EF2455200F088
:10D9A00028FE0FF2646100F073FD00F0DEFDDFF889
:10D9B0002C39DFF82C2900F07BFC4FF26E4200F08E
:10D9C00018FE0FF2586100F063FD00F0CEFDDFF8A5
:10D9D0001439DFF8142900F06BFC4FF2424200F0DA
:10D9E00008FE0FF2506100F053FD00F0BEFDDFF8BD
:10D9F000FC38DFF8FC2800F05BFC4FF2624200F0DC
:10DA0000F8FD0FF2486100F043FD00F0AEFDDFF8D5
:10DA1000E438DFF8E42800F04BFC4FF2742200F009
:10DA2000E8FD0FF2406100F033FD00F09EFDDFF8ED
:10DA3000CC38DFF8CC2800F03BFC4FF2762200F027
:10DA4000D8FD0FF2306100F023FD00F08EFDDFF80D
:10DA5000B438DFF8B42800F02BFC4FF2766200F007
:10DA6000C8FD0FF2246100F013FD00F07EFDDFF829
:10DA70009C38DFF89C2800F01BFC4FF2634200F05A
:10DA8000B8FD0FF2186100F003FD00F06EFDDFF845
:10DA90008438DFF8842800F00BFC4FF2744200F069
:10DAA000A8FD0FF2086100F0F3FC00F05EFDDFF866
:10DAB0006C38DFF86C2800F0FBFB4FF6097200F0C1
:10DAC00098FD0FF2F85100F0E3FC00F04EFDDFF896
:10DAD0005438DFF8542800F0EBFB4EF2636200F09C
:10DAE00088FD0FF2E85100F0D3FC00F03EFDDFF8B6
:10DAF0003C38DFF83C2800F0DBFB4EF26F6200F0B0
:10DB000078FD0FF2DC5100F0C3FC00F02EFDDFF8D1
:10DB10002438DFF8242800F0CBFB4EF26F3200F0FF
:10DB200068FD0FF2C85100F0B3FC00F01EFDDFF8F5
:10DB3000C039DFF8C02900F0BBFB4CF2563200F0D0
:10DB400058FD0FF2B45100F0A3FC00F00EFDDFF819
:10DB5000A839DFF8A82900F0ABFB4EF2453200F0FF
:10DB600048FD0FF2A85100F093FC00F0FEFCDFF836
:10DB70009039DFF8002A00F09BFB4EF6735200F05C
:10DB800038FD0FF29C5100F083FC00F0EEFCDFF852
:10DB9000E839DFF8E82900F08BFB4CF24E2200F068
:10DBA00028FD0FF2885100F073FC00F0DEFCDFF876
:10DBB000D039DFF8D02900F07BFB4CF6441200F09E
:10DBC00018FD0FF2785100F063FC00F0CEFCDFF896
:10DBD000B839DFF8B82900F06BFB4DF2430200F0D2
:10DBE00008FD0FF2685100F053FC00F0BEFCDFF8B6
:10DBF000A039DFF8A02900F05BFB4CF24B2200F0CB
:10DC0000F8FC0FF2585100F043FC00F0AEFCDFF8D6
:10DC10008839DFF8882900F04BFB4CF6535200F0AE
:10DC2000E8FC0FF2505100F033FC00F09EFCDFF8EE
:10DC30007039DFF8702900F03BFB4CF2431200F022
:10DC4000D8FC0FF2445100F023FC00F08EFCDFF80A
:10DC50005839DFF8582900F02BFB4CF2423200F023
:10DC6000C8FC0FF2345100F013FC00F07EFCDFF82A
:10DC70004039DFF8402900F01BFB4CF6431200F05E
:10DC8000B8FC0FF2245100F003FC00F06EFCDFF84A
:10DC90002839DFF8282900F00BFB4BF2542200F062
:10DCA000A8FC0FF21C5100F0F3FB00F05EFCDFF863
:10DCB0001039DFF8102900F0FBFA4DF2463200F07F
:10DCC00098FC0FF2145100F0E3FB00F04EFCDFF87B
:10DCD000F838DFF8F82800F0EBFA4BF2532200F0A6
:10DCE00088FC0FF20C5100F0D3FB00F03EFCDFF893
:10DCF000E038DFF8E02800F0DBFA4DF2433200F0C4
:10DD000078FC0FF2045100F0C3FB00F02EFCDFF8AA
:10DD1000C838DFF8C82800F0CBFA4CF2433200F0E4
:10DD200068FC0FF2F84100F0B3FB00F01EFCDFF8D6
:10DD3000B038DFF8B02800F0BBFA4DF2423200F004
:10DD400058FC0FF2EC4100F0A3FB00F00EFC0FF2C8
:10DD5000FC4100F00BFC4BF2346200F04AFC0FF285
:10DD60000C5100F095FB00F000FC0FF20C5100F09C
:10DD7000FDFB0FF234550022294600F03BFC4FF624
:10DD8000017200F036FC00F081FB00F0EEFB012296
:10DD9000294600F02FFC4EF2231200F02AFC0FF26D
:10DDA0009C5100F075FB00F0E0FB0222294600F0D8
:10DDB00021FC4EF2754200F01CFC0FF2985100F06D
:10DDC00067FB00F0D2FB0322294600F013FC4EF261
:10DDD000632200F00EFC0FF2905100F059FB00F0AE
:10DDE000C4FB0422294600F005FC4EF2635200F009
:10DDF00000FC0FF2885100F04BFB00F0B6FB05224F
:10DE0000294600F0F7FB4EF2621200F0F2FB0FF22F
:10DE1000805100F03DFB00F0A8FB0622294600F0EF
:10DE2000E9FB4EF6793200F0E4FB0FF27C5100F092
:10DE30002FFB00F09AFB0722294600F0DBFB4EF691
:10DE4000646200F0D6FB0FF26C5100F021FB00F091
:10DE50008CFB0822294600F0CDFB4EF2241200F084
:10DE6000C8FB0FF2605100F013FB00F07EFB0922AB
:10DE7000294600F0BFFB4EF2251200F0BAFB0FF26C
:10DE8000585100F005FB00F070FB0A22294600F013
:10DE9000B1FB4EF2261200F0ACFB0FF2585100F02D
:10DEA000F7FA00F062FB0B22294600F0A3FB4DF2CB
:10DEB000452200F09EFB0FF2505100F0E9FA00F00D
:10DEC00054FB0C22294600F095FB4EF2742200F020
:10DED00090FB0FF2445100F0DBFA00F046FB0D22FC
:10DEE000294600F087FB4FF60D7200F082FB0FF21F
:10DEF0003C5100F0CDFA00F038FB0E22294600F02C
:10DF000079FB4EF2564200F074FB0FF2345100F0F0
:10DF1000BFFA00F02AFB0F22294600F06BFB4FF4FA
:10DF2000654200F066FB0FF2285100F0B1FA00F0F4
:10DF30001CFB1022294600F05DFB4EF2015200F05E
:10DF400058FB0FF2245100F0A3FA00F00EFB11224F
:10DF5000294600F04FFB4EF2025200F04AFB0FF24E
:10DF6000185100F095FA39462078BDE8F440F4F7EE
:10DF7000B9BF0000546F6B656E204D656D6F72798F
:10DF8000204D61703A0D0A0D0A0000005374617251
:10DF9000742041646472657373202D20456E642083
:10DFA00041646472657373202D2D205B637265611B
:10DFB000746F725D206E616D650D0A0030782534D6
:10DFC00058202D20307825345820202D2D20000079
:10DFD0005B2532585D2000004D46475F434849505D
:10DFE0005F444154410000004D46475F5041525448
:10DFF0005F444154410000004D46475F544553542F
:10E0000045525F44415441004D46475F454D4245AE
:10E01000525F4555495F3634000000004D46475F6A
:10E02000414E414C4F475F5452494D5F4E4F524D08
:10E03000414C00004D46475F414E414C4F475F54B5
:10E0400052494D5F424F4F53540000004D46475FC9
:10E05000414E414C4F475F5452494D5F424F5448E7
:10E06000000000004D46475F5245475F5452494DFE
:10E07000000000004D46475F3156385F5245475F0C
:10E08000564F4C54414745004D46475F5652454612
:10E090005F564F4C54414745000000004D46475FD6
:10E0A00054454D505F43414C000000004D46475FD2
:10E0B000544553545F54454D500000004D46475F52
:10E0C0004649425F56455253494F4E004D46475FC1
:10E0D0004649425F434845434B53554D00000000BD
:10E0E0004D46475F4649425F4F4253004D46475FAA
:10E0F0004349425F4F4253004D46475F4355535497
:10E100004F4D5F56455253494F4E00004D46475FB5
:10E11000435553544F4D5F4555495F363400000019
:10E120004D46475F535452494E4700004D46475FA6
:10E13000424F4152445F4E414D4500004D46475FBE
:10E140004D414E55465F4944000000004D46475F33
:10E150005048595F434F4E46494700004D46475F80
:10E16000424F4F544C4F41445F4145535F4B4559DB
:10E17000000000004D46475F455A53505F53544FCF
:10E1800052414745000000004D46475F4153485FFC
:10E19000434F4E46494700004D46475F43424B457B
:10E1A0005F444154410000004D46475F494E53547F
:10E1B000414C4C4154494F4E5F434F444500000091
:10E1C0004D46475F4F534332344D5F424941535FA1
:10E1D0005452494D000000004D46475F53594E547C
:10E1E000485F465245515F4F464653455400000034
:10E1F0004D46475F4F534332344D5F534554544C63
:10E20000455F44454C4159004D46475F5345435592
:10E21000524954595F434F4E464947004D46475F68
:10E220004343415F5448524553484F4C440000001B
:10E230004D46475F5345435552455F424F4F544CFF
:10E240004F414445525F4B455900000028566972C2
:10E250007475616C20546F6B656E2920202020201E
:10E2600020202020202D2D20000000004D46475F5B
:10E270004555495F363400000D0A53696D756C6170
:10E2800074656420454550524F4D204C6F63617456
:10E29000696F6E202D2D205B63726561746F725DF6
:10E2A000206E616D650D0A00256420202D2D200053
:10E2B00029462078F4F716BE102700209507040899
:10E2C0007E0704089B07040896070408A1070408B2
:10E2D0009C070408A9070408A2070408BD0704084E
:10E2E000AA070408D1070408BE070408DB070408CE
:10E2F000D2070408DD070408DC070408DF07040868
:10E30000DE070408E1070408E0070408E30704083F
:10E31000E2070408E5070408E4070408F507040811
:10E32000F4070408F7070408F6070408FF070408C1
:10E33000F80704080F080408000804085354414370
:10E340004B5F4150535F4652414D455F434F554EE1
:10E3500054455200535441434B5F414C5445524E37
:10E360004154455F4B455900535441434B5F424F25
:10E370004F545F434F554E54455200005354414350
:10E380004B5F4E4F4E43455F434F554E54455200F1
:10E39000535441434B5F414E414C595349535F5293
:10E3A00045424F4F54000000535441434B5F4B458F
:10E3B00059530000535441434B5F4E4F44455F4413
:10E3C00041544100535441434B5F54525553545FA1
:10E3D00043454E5445520000535441434B5F4E4514
:10E3E00054574F524B5F4D414E4147454D454E545A
:10E3F00000000000535441434B5F504152454E547E
:10E400005F494E464F000000535441434B5F434128
:10E410004C5F444154410000535441434B5F4249D7
:10E420004E44494E475F5441424C4500535441438A
:10E430004B5F4348494C445F5441424C4500000007
:10E44000535441434B5F4B45595F5441424C450047
:10E45000535441434B5F4345525449464943415409
:10E46000455F5441424C4500535441434B5F5A4C25
:10E470004C5F444154410000535441434B5F5A4C5C
:10E480004C5F534543555249545900000FF208015F
:10E490002078F4F7C8BC0000535441434B5F4E56FC
:10E4A000444154415F56455253494F4E00000000CD
:10E4B00038B5DFF838410FF24C05294600F056F820
:10E4C000022200A92078F4F79AFC9DF80000592850
:10E4D00002D04E28F1D131BD0FF2540100F046F8C0
:10E4E0000120FDF7B1F80FF2780100F03FF831BDDF
:10E4F0001108040810080408190804081208040880
:10E500002908040857726974652064656661756C32
:10E510007420737461636B20616E6420617070207D
:10E52000746F6B656E733F28792F6E2900000000B1
:10E5300057726974696E672044656661756C7420F2
:10E54000537461636B20616E642041707020546F5E
:10E550006B656E732E2E2E20776169742E0000007D
:10E56000646F6E652E0000001FA739462078F4F70F
:10E57000B9BC00001A080408390804082A0804086D
:10E580003B0804083A0804083D0804083C0804084D
:10E590004D0804083E080408550804084E080408FD
:10E5A0007D08040856080408D90804087E080408F1
:10E5B000ED080408DA080408EF080408EE08040867
:10E5C000F1080408F0080408F3080408F208040835
:10E5D000F5080408F4080408F7080408F608040815
:10E5E00007090408F80804080D0A00001027002095
:10E5F000012231462078F4F775BC00001CB50446B2
:10E6000000F0D7FBDFF8C013498A01910FF2E03127
:10E61000009103460FF2D03204F111010FF2B43031
:10E62000F5F7AEF913BD3EB5044600F045FB0546CF
:10E630002B46B3A204F111010FF2C030F5F7A0F997
:10E6400055BB00F04AFB040023D0608802900FF213
:10E65000E0300190206900900FF2C83322880FF259
:10E66000BC310FF2A430F5F78BF9A368E2680FF222
:10E67000D031D6480078F4F735FCA08800900FF22E
:10E68000F833E2880FF2E4310FF2D430F5F778F97D
:10E6900037BD0FF2F0305FE037BD10B5044600F033
:10E6A00043FB04F111010FF2F830BDE81040F5F71B
:10E6B00067B910B5044600F010FB20B904F1110150
:10E6C0000FF2E430F1E7C168002000F04CFB034694
:10E6D0008BA204F111010FF20440F5F751F9B6A431
:10E6E00006E02046F5F74CF946F2A810F9F759FC78
:10E6F00000F04BFB0028F4D10FF20040BDE81040C1
:10E70000F5F73EB930B583B081680C684D68019467
:10E710000FF2244100912B46A8A200F111010FF243
:10E72000EC30F5F72DF92946204600F01CFB024697
:10E7300073A10FF20C40F5F723F99FA406E02046E1
:10E74000F5F71EF946F2A810F9F72BFC00F01DFBB7
:10E750000028F4D10FF2A430BDE83E40F5F710B91F
:10E760002DE9F04786B081680C6800F06AF80FF276
:10E77000D830F5F7F6F80FF2F8390FF2442A0FF215
:10E78000E4380EE001A9715C5046F5F7F9F8761C03
:10E79000F6B2BE42F6DB4846F5F7F2F8ED1BADB235
:10E7A0003C197DB1112DACBF10272F463A4601A967
:10E7B000204600F0CAFA024621464046F5F7E0F846
:10E7C0000026E5E73AE02DE9F04786B08168D1F808
:10E7D000008000F036F80FF2A030F5F7C2F80FF223
:10E7E000E0190FF2803A01AC0EE0395D4846F5F7CA
:10E7F000C7F87F1CFFB2B742F7DB0FF27430F5F7B2
:10E80000BFF8AD1BADB2B044C5B1112DACBF1026E1
:10E810002E46002703E0FCF7A1FA38557F1CFFB213
:10E82000B742F8DB324601A9404600F085FA0246BD
:10E8300041465046F5F7A4F80027DBE706B0BDE8EF
:10E84000F0878D880FF2143100915EA30FF2E82259
:10E8500000F1110170470288130448BF4A4051007B
:10E8600001801046704738B5594C62212046FFF7A9
:10E87000F2FF054641F20B01A01CFFF7ECFF6840D8
:10E8800032BD2DE9F041C4B081680D684C6800F0DC
:10E8900088F80FF20C30F5F773F80FF21C1804E04B
:10E8A0004046F5F76DF8E41B7D191CB3FCF756FAEA
:10E8B000C7B2A74228BFA7B2002604E0FFF7D3FFE4
:10E8C00003A97054761CF6B2BE42F7DB3A4603A9A0
:10E8D000284600F031FA0028E2D0029737A10191D2
:10E8E00000950FF25423024636A10FF2E020F5F70F
:10E8F00047F803E00FF2F820F5F742F84EE0000089
:10E90000657272002DE9F041C4B081680C684D68F1
:10E9100000F047F80FF2F420F5F732F80FF29808FC
:10E9200004E04046F5F72CF8ED1B3C1995B3FCF7D5
:10E9300015FAC7B2AF4228BFAFB23A4603A9204684
:10E9400000F003FA020009D002971CA00190009485
:10E950000FF2E4131BA10FF2DC2018E0002600E008
:10E96000761CF6B2BE42DCDAFFF77DFFC0B203A927
:10E97000715C8142F4D002910FF214310191009048
:10E980000FF2003332190FF2B0110FF2C820F4F772
:10E99000F7FF03E00FF25820F4F7F2FF44B0BDE8B0
:10E9A000F0818B680A490B801A0C4A800FF21422FE
:10E9B00000F11101704700002E0000006C656E0030
:10E9C00020257800657272000000000810270020E2
:10E9D000C82F00207B264E202674326820267432F1
:10E9E000687D0D0A0000000076657273696F6E0025
:10E9F00042415476657273696F6E00007B264E202B
:10EA00002674680D0A000000267432680D0A267408
:10EA1000700D0A267432680D0A000000696E666F78
:10EA20005665720070617274446573630000000083
:10EA30006361706162696C697469657300000000EC
:10EA40007B7061727453697A653A256C7D207B70A6
:10EA500061676553697A653A256C7D0D0A0000008F
:10EA6000267475202674757D0D0A0000706172741D
:10EA700045726173654D73007061676545726173BE
:10EA8000654D73004E6F207061727420696E666F01
:10EA900020617661696C61626C657D0D0A00000021
:10EAA0007B264E7D0D0A00007B264E204E6F207087
:10EAB00061727420696E666F2C2063616E2774200A
:10EAC0006572617365206368697021207B6572726D
:10EAD0003A307830317D7D0D0A0000007B264E20D3
:10EAE0004368697020457261736520537461727464
:10EAF000696E6720267468200000000020436F6D57
:10EB0000706C657465217D0D0A0000007B264E2027
:10EB100045726173696E6720267434682062797467
:10EB20006573207374617274696E672066726F6DAD
:10EB300020267434682000006164647200000000C4
:10EB40002674682000000000237B264E20267420B7
:10EB500026742026747D0D0A000000006461746133
:10EB6000000000007B5B2634685D202668207B0067
:10EB7000207D0D0A00000000237B264E20267420F5
:10EB800026742026747D0D0A57726974696E672099
:10EB900072616E646F6D20646174610D0A00000023
:10EBA0007B264E2057726974696E672072616E64AD
:10EBB0006F6D20646174612066726F6D20267434FD
:10EBC0007820000073656564000000000D0A57722C
:10EBD000697465204572726F722120267468202640
:10EBE0007434682026743268207D0D0A000000000D
:10EBF00020436F6D706C65746521207B6572723A7D
:10EC0000307830307D7D0D0A000000007B264E20DC
:10EC1000566572696679696E672072616E646F6DA0
:10EC200020646174612066726F6D202674347820D0
:10EC3000000000000D0A52656164204572726F7217
:10EC400021202674682026743468202674326820B7
:10EC50007D0D0A000D0A4D69736D6174636820456E
:10EC600072726F7221207B6572723A307830317D1A
:10EC700020267434682026746820267468207D0D50
:10EC80000A00000065787065637465640000000028
:10EC9000656E636F756E7465726564004A490A8BB0
:10ECA000120A022A02D1498A814204D218210FF2A3
:10ECB0002810F5F76DBA704780B540F20510FFF7E0
:10ECC000EDFF4148016B408AB0F5847F24BFBDE869
:10ECD000014008478847002002BD38B540F20510C2
:10ECE000FFF7DCFF3848418AB1F5847F1AD3018BE6
:10ECF00040F20322914211D13449CC6DB4F1006F3E
:10ED00000CD9006C8047324D182201462846F4F792
:10ED1000EBFB3048001BE860284632BD006CBDE8C4
:10ED200032400047002032BD80B500F03FF8264851
:10ED3000C06BBDE80240004770B500F034F800F049
:10ED40000DF89B6BBDE87040184770B500F02BF8CC
:10ED500000F004F85B6BBDE8704018473246294666
:10ED60002046194B704738B504460D4600F01EF892
:10ED7000154A508AB0F5847F05D329462046526C47
:10ED8000BDE838401047882032BD80B500F00EF84D
:10ED90000D48418AB1F5847F03D3806CBDE8024001
:10EDA0000047002002BD04460D46164640F20710FB
:10EDB00074E70548018B090A022901D1408B70478D
:10EDC0004FF6FF70704700000000000800200008A8
:10EDD000582B002000000208626F6F746C6F616432
:10EDE00065722D696E746572666163652D61707000
:10EDF0002E6300002DE9F84F0024DFF8548198F8C5
:10EE000000008DF80100534EB0688DF80000D6F870
:10EE100000A04E4F387888F800004F4D4F490978D0
:10EE200089B101280FD10FF2401100F099F80FF2CB
:10EE3000981100F095F80FF2EC1100F091F80FF234
:10EE40000C2100F08DF8287839780A0027D00229A3
:10EE500009D003291AD0B26822F04002B2603268A9
:10EE600022F470623260B26822F08002B2603268CE
:10EE700022F47042326001290CBF0FF268220FF2B7
:10EE80006C220FF24C21F4F72DF80CE0316821F4DC
:10EE9000704141F4804131600FF2582101E00FF2DE
:10EEA0006C21F4F71FF8F4F7D8FF81460227F9F731
:10EEB000D5FD83464FF47A70F9F773F8641C41F27C
:10EEC0008830A4B2844203D10FF2542128782DE077
:10EED000F9F7C4FD5845EDD07F1EE8D1F9F7BEFD26
:10EEE000074642F60410F9F75CF8F9F7B7FDC01BC6
:10EEF00087B20A2099FBF0F20FF27C212878F3F711
:10EF0000F1FF22460FF294212878F3F7EBFF3A46FF
:10EF10000FF2A4212878F3F7E5FF2878A7F109017B
:10EF200003292CBF0FF2C0210FF2C421F3F7DAFF3F
:10EF30009DF8010088F800009DF80000B0605FFABD
:10EF40008AF03060BDE8F14FF4F787BF4C2700200E
:10EF5000E12F002004B8004010270020DD2F002002
:10EF60002878F3F7BFBF00005761726E696E673A89
:10EF700020596F752772652072756E6E696E6720F5
:10EF8000746865207274632074657374207768698F
:10EF9000636820617373756D657320616E20657899
:10EFA0007465726E616C2033324B487A20787461DC
:10EFB0006C206973206F6E2050433620616E642090
:10EFC0005043372E0D0A00005761726E696E673A22
:10EFD00020497420616C736F206170706561727379
:10EFE000207468617420796F752772652075736964
:10EFF0006E67207468652054582041637469766593
:10F000002066756E6374696F6E616C697479206FC8
:10F010006E2050433520616E64205043362E0D0A19
:10F02000000000005761726E696E673A20504336E7
:10F030002063616E277420626520757365642066A5
:10F040006F7220626F7468210D0A00005761726E42
:10F05000696E673A20546869732074657374207709
:10F06000696C6C20666F7263652050433620616E58
:10F07000642050433720746F20617373756D652071
:10F08000616E2065787465726E616C207874616C55
:10F090002069732070726573656E742C20627574BC
:10F0A000206265207375726520746F2063686563E4
:10F0B0006B20796F757220696E74656E646564206B
:10F0C000504336207573616765210D0A000000000A
:10F0D0005573696E672033326B487A2025700D0AAC
:10F0E000000000005854414C0000000053696E6558
:10F0F000000000005573696E672033326B487A2038
:10F100004469676974616C0D0A0000005573696E8B
:10F110006720496E7465726E616C2052430D0A005F
:10F120004552524F523A2053746172747570207474
:10F13000696D6564206F757420283E3520736563A2
:10F140006F6E6473292C2074686520626F6172642D
:10F150002069732070726F6261626C79206D6973CF
:10F1600073696E6720612033324B487A206372796D
:10F170007374616C210D0A00666972737420617387
:10F18000796E63207570646174652074696D653A89
:10F19000202575206D730D0A0000000066697273EA
:10F1A00074207469636B2074696D653A202575203D
:10F1B0006D730D0A0000000031306D73206F662002
:10F1C0007469636B732C2073686F756C642062655F
:10F1D000203130202B2F2D2031207469636B733A3E
:10F1E000202575203D2000004641494C0D0A0000B5
:10F1F000504153530D0A0000DFF87001007870474A
:10F200002DE9F04F85B0054600208DF80000002460
:10F210004FF00A09574E306880B20390A246A868A2
:10F220000768FAF7F9FF804600F096F8F8B2FAF7A7
:10F230008DFE00F0A7F82846F7F7DCFA0FF29811D8
:10F24000FFF7DAFFF3F74EFEB06880B20290484D48
:10F25000A86AADF806002868ADF80400464F386883
:10F26000ADF802004FF6FF7221460820FAF7C2FD02
:10F270008346C02211460820FAF7C3FD3A480078B9
:10F2800010B148F2607030614CF25C00F064022012
:10F29000A8620120286040F24C40F8F782FE01206D
:10F2A000F86038607F20FDF7BDFB039800F5004053
:10F2B000306009E014F1190FB8BF4FF00A094C444F
:10F2C00024B202982018B0609DF80000652820D074
:10F2D000FFF792FFF3F7CBFC20B100A9FFF78CFFFB
:10F2E000F3F7D0FCBAF1000F04D04FF0FF30786193
:10F2F000224803E00020786141F2111038618AF061
:10F30000010A0120F8F74DFE1A2CD3DB6FF0090932
:10F31000D5E70298B06003983060BDF8020038600D
:10F320000020F86002202860BDF804002860BDF8C5
:10F330000600A8620020F0644FF6FF7259460820CC
:10F34000FAF75FFD40F24C40F8F72BFE4046FAF723
:10F35000FDFD05B0BDE8F08F0948D0F8E0140FF2CC
:10F360003400F4F70DBB000099280020102700207E
:10F3700060200040C010004028100040EEEEFFFF6B
:10F38000A406010802460FF248010FF23C00F4F710
:10F39000F7BA00007B264E2053657474696E6720AF
:10F3A0006368616E6E656C20616E64207065726664
:10F3B0006F726D696E672063616C696272617469F6
:10F3C0006F6E2E2E2E0000002674687D0D0A000040
:10F3D0007374617475730000436F6E74696E756F3A
:10F3E0007573204D6F64204441432043616C202796
:10F3F00065276E642E0D0A0005E004E003E002E0DC
:10F4000001E000E0FFE772B61EF0080F08D01EF022
:10F41000040F0BD0DFF848E0AEE8FF1F11480AE008
:10F42000DFF83CE0AEE8FF1F0F4804E0DFF830E013
:10F43000AEE8FF1F0D486946EFF309828EE807002A
:10F4400086460B480B4C854501D3A54501D384F373
:10F450000888F4F7B4FE84F30888F9F753FC000039
:10F4600004000020FDFFFFFFF1FFFFFFF9FFFFFF9A
:10F47000F81F002010270020FFF7C4BF80B5F8F761
:10F4800017FDF0210248BDE80440FBF7EDBD00BFC9
:10F49000D82B00204C480068854600F001F800BFDA
:10F4A0004A4C40F20730206049480121016072B6A1
:10F4B000F8F77AF847480168490849000160F8F709
:10F4C0006DFA40F207254FF20F06434F6069800640
:10F4D00005D57888B04204BF3888A84237D1DFF814
:10F4E000FC8040463E494FF0CD3201E040F8042B0D
:10F4F0008842FBD33B4A3C493C48F4F761FA3C491B
:10F500003C4800F0ADF83C493C4800F0A9F83C4AC2
:10F510003C493D48F4F754FA6069C00605D4788840
:10F52000B04204BF3888A84201D1384800E03848CA
:10F53000A8EB000100F098F8364A37493748F4F74D
:10F540003FFA3749374800F08BF8F9F720FC364886
:10F55000364941604FF07841416135498161354913
:10F56000C1613549354A0A604FF080324A60344BF8
:10F570008B60CA60334A0A61334981604FF4047179
:10F5800001614FF4E0210162616989060ED5798835
:10F59000B14204BF3988A94208D02C4900220A7020
:10F5A000016841F08051016000F062F8FCF716F844
:10F5B000F8F71EFF62B6F3F7ADF84FF4A9710FF23A
:10F5C0009000F4F7E5FD70470020000818000040A7
:10F5D00020400040FCED00E000000020B81F0020AB
:10F5E00010270020E00100007815010810270020F6
:10F5F000FF060000F02800200000000000000000CE
:10F600000000000000000000000000009800002042
:10F61000000000200000000000000000F028002092
:10F6200000000000F028002004ED00E000210008A8
:10F63000F8F8F88080F8404000E400E080804080E6
:10F6400060808080E08080800004FA05902E002099
:10F6500063737461727475702D6961722E6300003A
:10F660000022F8F76BB90000002200F009B8000092
:10F670000248006880F3088862B67047942E002024
:10F6800000B500BF130096469446103928BFA0E885
:10F690000C50FAD85FEA417C28BF0CC048BF40F844
:10F6A000042BC90728BF20F8022B48BF00F8012B04
:10F6B00000BD00000B48007850B1EFF30880A0F1C6
:10F6C000200080F3088880E8F00F0749086030BF09
:10F6D0000548006890E8F00F00F1200080F30888EA
:10F6E00070470000902E0020942E0020626F6172FF
:10F6F000642D74657374000073657462726463666C
:10F700006700000075317531753175317531000054
:10F7100053657420626F61726466696C652047503E
:10F72000494F207661726961626C65732028706F41
:10F73000727450696E232C2070754366672C20709C
:10F74000754F75742C2070644366672C2070644F6D
:10F75000757429007365746770696F63666700006C
:10F760007531753175310000536574204750494F2C
:10F7700020726567732028706F727450696E232C35
:10F7800020726567206366672C20726567206F753D
:10F7900074290000736574677270626D0000000068
:10F7A00075340000536574206770696F5261646935
:10F7B0006F506F776572426F6172644D61736B2039
:10F7C0007661726961626C65000000006275747434
:10F7D0006F6E2D7465737400627574746F6E0000C3
:10F7E000753100005465737420427574746F6E73C4
:10F7F0002E20557365207531213D3020666F7220B3
:10F80000706F6C6C696E67006C65642D74657374E1
:10F81000000000006C65644F6E0000005475726E4D
:10F8200073206F6E204C4544207531006C65644F29
:10F83000666600005475726E73206F6666204C45D4
:10F8400044207531000000006C6564546F67676C7C
:10F8500065000000546F67676C6573204C45442059
:10F860007531000061646363616C2D7465737400AD
:10F870006164637465737400000000004D6561731A
:10F880007572652074656D7065726174757265005E
:10F890006770696F2D746573740000006770696F1D
:10F8A00052656164000000005072696E7420616CE2
:10F8B0006C204750494F207374617465000000004C
:10F8C0006770696F53657400753175310000000011
:10F8D0005772697465206120706F727427732047B6
:10F8E00050494F5F507853455420726567000000BF
:10F8F0006770696F436C65617200000057726974CC
:10F9000065206120706F72742773204750494F5FE4
:10F910005078434C52207265670000006770696F31
:10F920004F7574005772697465206120706F72742E
:10F930002773204750494F5F50784F5554207265C8
:10F94000670000006770696F436667007531753442
:10F95000000000005772697465206120706F727436
:10F960002773204750494F5F5078434647482F4CF4
:10F97000207265677300000073776A44697361627F
:10F980006C65000053574A2044697361626C6520BE
:10F99000283129206F7220456E61626C6520283005
:10F9A000290000006770742D746573742D74320023
:10F9B00062757A7A65720000706C61792062757A7E
:10F9C0007A65722028303D666F726567726F756E5A
:10F9D000642C20313D6261636B67726F756E6400E9
:10F9E000736C6565702D746573740000736875744D
:10F9F000646F776E00000000507574207468652095
:10FA00006368697020696E2074686520446565705C
:10FA100020536C656570207374617465000000008C
:10FA2000746F6B656E2D636F727465786D332D74B2
:10FA300065737400746F6B4D617000005072696E75
:10FA4000742074686520546F6B656E204D656D6F12
:10FA50007279204D617000006C6F6164546F6B733C
:10FA6000000000004C6F616420737461636B20615F
:10FA70006E64206170706C69636174696F6E20746C
:10FA80006F6B656E2064656661756C747300000051
:10FA90005072696E7420637261736820696E666F5C
:10FAA000726D6174696F6E00657874666C617368FD
:10FAB0002D74657374000000617070626C766572FD
:10FAC000000000005265706F7274207468652076C3
:10FAD000657273696F6E206F662074686520696E49
:10FAE0007374616C6C65642061707020626F6F74F8
:10FAF0006C6F6164657200006566496E6974000030
:10FB0000496E697469616C697A65207468652065FD
:10FB1000787465726E616C20666C617368206472C3
:10FB20006976657200000000656673687574646FBD
:10FB3000776E000053687574646F776E2074686523
:10FB40002065787465726E616C20666C61736820E4
:10FB50006472697665720000656643686970457213
:10FB6000617365004572617365207468652065780E
:10FB70007465726E616C20666C617368206368697D
:10FB800070000000656650616765457261736500CD
:10FB90007534753400000000286164647265737305
:10FBA000206C656E29204572617365207061676500
:10FBB00073206F6E207468652065787465726E615D
:10FBC0006C20666C617368206368697000000000D7
:10FBD000656652656164000075347532000000008E
:10FBE0002861646472657373206C656E29205265A8
:10FBF000616420646174612066726F6D2074686551
:10FC00002065787465726E616C20666C6173682023
:10FC1000636869700000000065665772697465006A
:10FC20002861646472657373206C656E2920577255
:10FC30006974652072616E646F6D20646174612007
:10FC4000746F207468652065787465726E616C20CD
:10FC5000666C61736820636869700000656657723E
:10FC600069746554657374007534753475340000B7
:10FC70002861646472657373206C656E20736565BA
:10FC800064292057726974652072616E646F6D20FB
:10FC9000646174612C206C656E6774687320746F86
:10FCA000207468652065787465726E616C20666C7E
:10FCB00061736820636869700000000065665265C2
:10FCC00061645465737400002861646472657373C1
:10FCD000206C656E207365656429205665726966BF
:10FCE000792072616E646F6D20646174612C206C88
:10FCF000656E6774687320726561642066726F6DEB
:10FD0000207468652065787465726E616C20666C1D
:10FD1000617368206368697000000000746F6B6530
:10FD20006E2D746573740000496E766F6B65207478
:10FD30006F70206C6576656C20746F6B656E2069E2
:10FD40006E697469616C697A6174696F6E00000034
:10FD5000746F6B52656164007532000052656164B6
:10FD600020616C6C2064617461206F662061207476
:10FD70006F6B656E202875323D63726561746F72BA
:10FD800020636F6465290000746F6B52656164497C
:10FD900064780000753275310000000052656164BE
:10FDA00020616E20696E646578206F662061207422
:10FDB0006F6B656E202875323D63726561746F727A
:10FDC00020636F64652C2075313D696478290000DB
:10FDD000746F6B5772697465000000005772697424
:10FDE0006520616C6C2064617461206F6620612005
:10FDF000746F6B656E202875323D63726561746F38
:10FE00007220636F64652900746F6B577269746543
:10FE100049647800577269746520616E20696E6468
:10FE20006578206F66206120746F6B656E20287581
:10FE3000323D63726561746F7220636F64652C205C
:10FE400075313D6964782900746F6B44756D70007D
:10FE500044756D702074686520656E7469726520E4
:10FE6000746F6B656E20646174612073657400004B
:10FE700072657365742D7465737400005072696ED9
:10FE80007420746865205265736574537472696E6A
:10FE9000670000006173736572746D650000000097
:10FEA0005265736574732074686520636869702097
:10FEB0007573696E67206173736572742829000019
:10FEC0006D6973632D746573740000007274630050
:10FED000546573742065787465726E616C2033327A
:10FEE0002E373638204B487A206372797374616CF0
:10FEF000206F7363696C6C61746F72202875736511
:10FF000064206173205254432F73797374656D209C
:10FF100074696D6572292E007068792D636F6D6D3F
:10FF20006F6E000063616C6C20656D526164696F77
:10FF3000496E697428292E005365656420746865CC
:10FF400020504E524720776974682072616E646F4A
:10FF50006D20646174612066726F6D207468652025
:10FF6000726164696F000000736574506572546556
:10FF700073740000286D2920536574205061636BF1
:10FF80006574204572726F722052617465207465C9
:10FF90007374206D6F646520746F206D2028302D80
:10FFA00064697361626C652C20312D656E61626CD1
:10FFB000652900006765744368616E6E656C0000BA
:10FFC000476574207468652063757272656E74206D
:10FFD0006368616E6E656C007365744368616E6E14
:10FFE000656C0000286329205365742074686520BF
:10FFF000726164696F206368616E6E656C20746FF6
:020000040801F1
:100000002063000067526164506F775374617465B8
:10001000000000004765742074686520726164699F
:100020006F2063757272656E7420706F77657220D1
:10003000737461746500000073526164506F77538C
:1000400074617465000000002873292053657420D2
:1000500074686520726164696F2063757272656E81
:100060007420706F77657220737461746520746F8B
:1000700020732028302D61736C6565702C20312D24
:100080006177616B652900006765744363610000F7
:1000900047657420436C656172204368616E6E65CC
:1000A0006C204173736573736D656E742E202031FF
:1000B000203D20436C6561723B2030203D2042751D
:1000C00073792E00676574527373690047657420F5
:1000D0005253534920696E2064426D206F766572D9
:1000E00020382073796D626F6C20706572696F645F
:1000F000732E000067657445640000004765742036
:100100003830322E31352E3420454420282D3130E0
:100110003064426D20746F202D333664426D203A76
:10012000203078303020746F203078666629206F58
:1001300076657220382073796D626F6C20706572FD
:10014000696F64732E0000007068792D636F6D6DA8
:100150006F6E2D727800000073686F775061796C54
:100160006F616400456E61626C652831292F646996
:100170007361626C6528302C64656661756C7429E6
:1001800020504859207061796C6F616420646973F4
:10019000706C617920696E205258206F757470758B
:1001A000740000007278000052656365697665200E
:1001B0006D6F6465000000007068792D636F6D6D70
:1001C0006F6E2D747800000053657475702054585C
:1001D00020666F722049454545203830322E313532
:1001E0002E34205045522074657374006765745432
:1001F00078506F776572000047657420637572727E
:10020000656E7420726164696F20545820706F7736
:10021000657220696E2064426D000000736574543D
:1002200078506F77657200007331000028702920C4
:1002300053657420726164696F20545820706F7721
:10024000657220746F20702064426D00676574547D
:100250007844656C617900004765742054582069C2
:100260006E746572706B742064656C617920696E60
:1002700020757300736574547844656C617900006F
:100280002864292053657420726164696F20747832
:1002900020696E746572706B742064656C6179207E
:1002A000746F20642075730074780000286E292014
:1002B0005458206E20706B74732028303D696E6630
:1002C000696E697465290000747853747265616D94
:1002D00000000000545820636F6E74696E756F756E
:1002E000732073747265616D206F662072616E6435
:1002F0006F6D2073796D626F6C7300007478546F4A
:100300006E65000054582073696E676C65206361E8
:100310007272696572206672657175656E637900C7
:10032000736574486F6C644F66660000456E616269
:100330006C652831292F64697361626C65283029E6
:1003400020526164696F20486F6C644F6666204775
:1003500050494F20636F6E66696700007478486F7C
:100360006C644F6666000000286E29205458206E89
:1003700020706B74732028303D696E66696E6974F5
:100380006529207769746820526164696F20486F1D
:100390006C644F666620636865636B696E67000016
:1003A00067657454785061636B6574004469737059
:1003B0006C617920545820706B74206C656E677482
:1003C000682026207061796C6F61640073657454D5
:1003D000784C656E677468005365742054582070BB
:1003E00061796C6F6164206C656E677468000000F1
:1003F00073657454785061796C6F6164000000001B
:10040000286F206430206431206432206433292036
:1004100053657420545820706B74207061796C6F30
:10042000616420646174612064302D332061742024
:100430006F6666736574206F000000007068792D28
:10044000656D323530636C617373000063616C43BA
:1004500068616E6E656C0000536574207468652079
:100460006368616E6E656C3B20706572666F726D5D
:100470002066756C6C2063616C6962726174696F6F
:100480006E0000006765745478506F774D6F646537
:1004900000000000446973706C6179732054782007
:1004A000706F776572206C6576656C20616E642074
:1004B00050412073657474696E677300736574547A
:1004C00078506F774D6F646500000000286C2070D5
:1004D000292053657420547820706F776572206CE2
:1004E0006576656C206C2028303D6E6F726D616C96
:1004F0002C20313D626F6F73742920616E6420502F
:100500004120702028303D696E742C20313D657883
:100510007429000073657453796E4F666673657451
:1005200000000000286F29204F66667365742074F0
:1005300068652073796E7468206672657175656E82
:100540006379206279206F2031316B487A20696E9F
:100550006372656D656E74732E0000007068792D8E
:10056000656D337878000000746573744D6F644373
:10057000616C000053657420746865206368616E67
:100580006E656C3B20706572666F726D2063616C86
:100590006962726174696F6E3B207468656E206376
:1005A0006F6E74696E756F75736C792072657065A6
:1005B0006174207468652061637469766520747263
:1005C000616E736D69742070617274206F66204D66
:1005D0006F64204441432063616C69627261746995
:1005E0006F6E0000706C6174666F726D7465737409
:1005F0000000000076657273696F6E005072696E5C
:1006000074732076657273696F6E20696E666F729F
:100610006D6174696F6E2E00766572626F7365002E
:100620005365747320766572626F73697479206F95
:10063000662068656164657220636F6D6D616E64CC
:10064000207461672064656C696D2074657874003E
:1006500068656C70000000005072696E74732074DD
:100660006869732068656C70206D656E75000000A8
:100670006C69737400000000620000006C697374A0
:1006800020636F6D6D616E6473206F66207370659B
:10069000636966696564206D6F64756C65206E6161
:1006A0006D650000ECF600089121000800000000D4
:1006B00000000000F8F600084BD0000804F700081E
:1006C00010F7000854F7000825D1000860F700086B
:1006D00068F7000894F70008BBD10008A0F70008ED
:1006E000A4F70008CCF700089121000800000000E2
:1006F00000000000D8F70008A7B20008E0F70008E3
:10070000E4F7000808F80008912100080000000044
:100710000000000014F800083FA50008E0F70008FA
:100720001CF800082CF800087FA50008E0F7000876
:1007300034F8000848F80008D3A50008E0F70008DE
:1007400054F8000864F80008912100080000000037
:100750000000000070F8000881D5000878F8000853
:100760007CF8000890F800089121000800000000C3
:10077000000000009CF800089171000878F800085B
:10078000A8F80008C0F800085F720008C8F8000860
:10079000D0F80008F0F800089B720008C8F80008BC
:1007A000FCF800081CF90008DD720008C8F8000811
:1007B00024F9000844F90008157300084CF90008F2
:1007C00054F9000878F9000861730008E0F70008A0
:1007D00084F90008A4F90008912100080000000035
:1007E00000000000B0F90008F5D50008E0F70008A7
:1007F000B8F90008E0F900089121000800000000A5
:1008000000000000ECF9000891D7000878F8000813
:10081000F8F9000820FA0008912100080000000003
:100820000000000034FA000811D9000878F8000828
:100830003CFA000858FA0008B1E4000878F800080B
:1008400064FA0008142A00080952000878F8000821
:1008500090FA0008A8FA00089121000800000000A2
:1008600000000000B8FA0008FDE5000878F800086C
:10087000C4FA0008F8FA000827E6000878F800082B
:1008800000FB000828FB00089BE6000878F8000839
:1008900034FB000858FB0008B3E6000878F80008AD
:1008A00064FB000884FB000805E7000890FB0008D3
:1008B00098FB0008D0FB000861E70008D8FB00089F
:1008C000E0FB000818FC0008C7E70008D8FB000898
:1008D00020FC00085CFC000883E8000868FC0008B5
:1008E00070FC0008BCFC000805E9000868FC000872
:1008F000C8FC00081CFD0008912100080000000051
:1009000000000000202A0008F752000878F80008CC
:1009100028FD000850FD00087D54000858FD00081F
:100920005CFD000888FD00081F55000894FD0008C4
:100930009CFD0008D0FD0008E555000858FD0008A2
:10094000DCFD000808FE00088956000894FD000838
:1009500014FE000848FE0008B157000878F80008A7
:1009600050FE000870FE0008912100080000000001
:10097000000000002C2A0008C766000878F800086C
:100980007CFE000894FE0008BD66000878F80008A8
:10099000A0FE0008C0FE0008912100080000000031
:1009A00000000000CCFE0008F5ED000878F8000813
:1009B000D0FE000818FF0008912100080000000088
:1009C00000000000382A00080D67000878F80008C9
:1009D00024FF0008442A00084767000878F8000848
:1009E00038FF000868FF000859670008E0F70008B2
:1009F00074FF0008B4FF0008F567000878F80008E5
:100A0000C0FF0008D8FF000813680008E0F70008DE
:100A1000E4FF0008040001088967000878F800086E
:100A20001400010838000108AB670008E0F700086F
:100A300048000108880001085568000878F8000897
:100A400090000108C40001088968000878F80008CF
:100A5000CC000108F4000108C568000878F8000817
:100A6000FC00010848010108912100080000000075
:100A70000000000058010108D9AB0008E0F70008A9
:100A800064010108A40101086FAA000878F80008B1
:100A9000A8010108B8010108912100080000000028
:100AA00000000000502A00086B6E000878F800086B
:100AB000C8010108EC010108F16A000878F8000893
:100AC000F80101081C020108116B00082802010846
:100AD0002C0201084C0201084D6B000878F8000850
:100AE0005802010874020108716B000858FD0008E3
:100AF00080020108A80201087D6B000858FD00086B
:100B0000AC020108C80201084D6D000878F8000821
:100B1000D4020108FC0201087F6D000878F8000883
:100B20000403010820030108CF6C0008E0F7000867
:100B30002C0301085C030108156D000858FD00082E
:100B400068030108A0030108C96D000878F80008CF
:100B5000AC030108CC0301081F6E0008E0F7000891
:100B6000D8030108F0030108296E000804F7000803
:100B7000000401083C040108912100080000000065
:100B8000000000004C0401087DAD0008E0F70008FB
:100B90005804010884040108B3AD000878F800087F
:100BA00094040108BC040108E7AD0008C8F8000877
:100BB000CC040108140501082DAE00082802010824
:100BC000240501085C0501089121000800000000CF
:100BD000000000006805010801F20008E0F70008C5
:100BE00074050108E40501089121000800000000D7
:100BF00000000000F4050108D525000878F8000879
:100C0000FC05010818060108B524000804F70008CF
:100C100020060108500601089321000878F8000812
:100C200058060108700601085F23000878060108CD
:100C30007C06010800000000000000000000000029
:100C4000000000004941434356494F4C3A2061742B
:100C500074656D7074656420696E73747275637405
:100C6000696F6E2066657463682066726F6D2061BF
:100C7000206E6F2D6578656375746520616464729C
:100C8000657373004441434356494F4C3A206174A5
:100C900074656D70746564206C6F6164206F722080
:100CA00073746F726520617420616E20696C6C656D
:100CB00067616C20616464726573730000000000FA
:100CC0004D554E53544B4552523A20756E737461D4
:100CD000636B2066726F6D20657863657074696FF1
:100CE0006E2072657475726E206361757365642021
:100CF0006163636573732076696F6C6174696F6E8D
:100D0000000000004D53544B4552523A2073746119
:100D1000636B696E672066726F6D206578636570BE
:100D200074696F6E206361757365642061636365C8
:100D300073732076696F6C6174696F6E00000000D8
:100D40004D4D415256414C49443A204D4D4152205F
:100D5000636F6E7461696E732076616C696420667E
:100D600061756C74206164647265737300000000C7
:100D7000494255534552523A20696E7374727563F5
:100D800074696F6E20707265666574636820636154
:100D90007573656420627573206661756C740000FC
:100DA0005052454349534552523A20707265636927
:100DB0007365206461746120627573206661756C6F
:100DC00074000000494D5052454349534552523A30
:100DD00020696D7072656369736520646174612058
:100DE000627573206661756C74000000554E535433
:100DF0004B4552523A20756E737461636B696E672E
:100E0000206F6E20657863657074696F6E207265FF
:100E10007475726E206361757365642064617461BA
:100E200020627573206661756C74000053544B45E5
:100E300052523A20737461636B696E67206F6E2043
:100E4000657863657074696F6E20656E7472792061
:100E500063617573656420646174612062757320D9
:100E60006661756C740000004246415256414C491F
:100E7000443A204246415220636F6E7461696E733A
:100E80002076616C6964206661756C7420616464AD
:100E90007265737300000000554E444546494E5339
:100EA00054523A20747269656420746F20657865C5
:100EB0006375746520616E20756E646566696E6524
:100EC0006420696E737472756374696F6E000000DC
:100ED000494E5653544154453A20696E76616C69C7
:100EE000642045505352202D20652E672E2C2074EF
:100EF0007269656420746F20737769746368207405
:100F00006F2041524D206D6F64650000494E565070
:100F1000433A20657863657074696F6E20726574FA
:100F200075726E20696E7465677269747920636882
:100F300065636B73206661696C6564004E4F435056
:100F40003A20617474656D7074656420746F2065F7
:100F5000786563757465206120636F70726F636577
:100F600073736F7220696E737472756374696F6ED8
:100F700000000000554E414C49474E45443A20611F
:100F80007474656D7074656420616E20756E616C3B
:100F900069676E6564206D656D6F7279206163634A
:100FA0006573730044495642595A45524F3A20617D
:100FB0007474656D7074656420746F206578656302
:100FC0007574652053444956206F72205544495624
:100FD00020776974682064697669736F72206F6620
:100FE0002030000052455345525645443A20617422
:100FF00074656D70746564206163636573732070DC
:10100000617374206C6173742070657269706865B7
:1010100072616C20726567697374657220616464C3
:10102000726573730000000050524F54454354459D
:10103000443A20617474656D7074656420757365DD
:1010400072206D6F646520777269746520746F20FB
:1010500070726976696C6567656420706572697025
:10106000686572616C00000057524F4E4753495AF1
:10107000453A20617474656D7074656420382F3151
:10108000362D6269742061636365737320746F2009
:101090007065726970686572616C207265676973EA
:1010A0007465720054696D657231000054696D6534
:1010B000723200004D616E6167656D656E7400008F
:1010C0004261736562616E6400000000536C656587
:1010D000705F54696D6572005343310053433200B1
:1010E0005365637572697479000000004D41435F78
:1010F00054696D65720000004D41435F5458000013
:101100004D41435F52580000414443004952515FF2
:10111000410000004952515F420000004952515FB6
:10112000430000004952515F44000000446562756D
:101130006700000001FF23E175E463E263E562E11B
:1011400079EB64EE24E125E126E145D274E20DFF5E
:1011500056E400E501E502E50001000101000000A0
:101160000000000000000000000000000204110266
:10117000040211101A080A040D0B195C1028000053
:10118000010101010101010101010110000600003E
:1011900001010000FC03000000000000000000004E
:1011A000000000000000000000000000000000003F
:1011B000000000000000000000000000000000002F
:1011C000000000000000000000000000000000001F
:1011D000FFFFFF0000000000000000000000000012
:1011E00000000000000000000000000000000000FF
:1011F00000000000000000000000000000000000EF
:10120000FFFF0000FFFFFFFFFFFFFFFFFFFF0000EA
:101210007F807F80000000000000000000000000D0
:1012200000000000000000000000000000000000BE
:1012300000000000000000000000000000000000AE
:10124000000000000000000000000000000000009E
:10125000000000000000000000000000000000008E
:10126000000000000000000000000000000000007E
:10127000000000000000000000000000000000006E
:10128000000000000000000000000000000000005E
:10129000000000000000000000000000000000004E
:1012A000000000000000000001000000000000003D
:1012B000000000000000000000000000000000002E
:1012C000000000000000000000000000000000001E
:1012D000000000000000000000000000000000000E
:1012E00094110108981101089C110108B01101081E
:1012F000B4110108B8110108BC110108D01101088E
:10130000E0110108FC110108041201081012010883
:101310001412010824120108301201084C120108AD
:10132000A8120108B8120108020000040000FF071B
:101330000008FF0F0004120028000000011B091A1A
:101340001B0109080D04050207060D2E08140000F4
:10135000554E4B00474F200042544C00474F32003F
:10136000474F3300474F3400474F3500474F360053
:10137000474F3700474F3800474F3900474F41002C
:10138000474F4200474F4300474F4400474F4500F7
:10139000474F46004A4D50004244520055505200BB
:1013A00042544D004D534D0046544C00554E4B0099
:1013B000474F200042544C004241440046544C00E8
:1013C000465243004F54410044534C00554E4B008D
:1013D00050494E00554E4B00485620004C562000B8
:1013E000554E4B00455850004C574D00554E4B0044
:1013F0005242540044534C00554E4B00415354004C
:10140000554E4B0056465900494E4800554E4B002C
:101410004C434B0058544C004F424600554E4B0035
:10142000485244004D454D00425553005553470026
:1014300044424700444D41005643540040004000A0
:10144000000040006E6F206572726F720000000035
:1014500073657269616C20706F7274206572726F4F
:1014600072000000636F6D6D616E642070726F6357
:101470006573736F72206275737900006E6F2073ED
:1014800075636820636F6D6D616E6400696E636F74
:10149000727265637420636F6D6D616E642061723A
:1014A00067756D656E747300746F6F206D616E7912
:1014B00020636F6D6D616E6420617267756D656E1E
:1014C00074730000696E7465676572206172677578
:1014D0006D656E74206F7574206F662072616E6723
:1014E00065000000617267756D656E742073796EBA
:1014F000746178206572726F720000006D6573739D
:1015000061676520746F6F206C6F6E67000000006C
:101510006D697373696E672062696E617279206D9F
:10152000657373616765207465726D696E61746F50
:10153000720000007E0796079C07A207AA07BE0755
:10154000D207DC07DE07E007E207E407F407F60747
:10155000F8070008100812081A082A083A083C0878
:101560003E084E0856087E08DA08EE08F008F20831
:10157000F408F608F8080080FF000000A40601083F
:10158000AD250008F02800200A100000000000002F
:10159000000000000000000000000000000000004B
:1015A000000000000000000000000000000000003B
:1015B0000101010101010100000000010100000022
:1015C000000000000000000000000000000000001B
:1015D000000000000C6388012211443366550400AA
:1015E000010001009C6300000000000000000000FA
:1015F00000000000000000000000000000000000EB
:10160000010004030500010018180000000000207C
:1016100000030020180300203003002048030020AE
:1016200060030020060000006E0300200500EFBEEE
:10163000CEFA0000000100000000000010000008C9
:1016400025E80B06110000401F1010121280004008
:101650001D031013130000201BC00B1314000020E7
:1016600008000B101500002012000B1316000020BC
:1016700012000B131700002012000B13E84FE500B7
:10168000EF566500000000004919991191880998EA
:101690001949141888188811118881881881181818
:1016A00000000000FF000000FE000000000000003D
:1016B0000000000000000000EC2B0020742C002033
:1016C00000000000FC2C0020842D0020CC2D0020E8
:1016D00000000000142E00204414010850140108DA
:1016E000641401087C1401088C140108A814010872
:1016F000C4140108E4140108FC14010810150108C1
:101700000B010000000000000000000003180000B2
:101710001316191C1F0000000080000000000001CB
:101720000001017F010000FF00010000FEFFFFFF3C
:1017300000000000000000000000000001000000A8
:10174000B81F002001001000000000000000000091
:101750000100FFFFFFFF0000FFFFFFFFFFFFFFFF94
:10176000FFFFFFFFFFFFFFFFFFFFFFFFFFFFFFFF89
:10177000FFFFFFFFFFFFFFFFFFFFFFFFFFFFFFFF79
:10178000FFFFFFFFFFFFFFFFFFFFFFFFFFFFFFFF69
:10179000FFFFFFFFFFFFFFFFFFFFFFFFFFFFFFFF59
:1017A000FFFFFFFFFFFFFFFFFFFFFFFFFFFFFFFF49
:1017B000FFFFFFFFFFFFFFFFFFFFFFFFFFFFFFFF39
:1017C000FFFFFFFFFFFFFFFFFFFFFFFFFFFFFFFF29
:1017D000FFFFFFFFFFFFFFFFFFFFFFFFFFFFFFFF19
:1017E000FFFFFFFFFFFFFFFFFFFFFFFFFFFFFFFF09
:1017F000FFFFFFFFFFFFFFFFFFFFFFFFFFFFFFFFF9
:020000040804EE
:020000040804EE
:00000001FF
