S02100006170702D626F6F746C6F616465722D7370692D6D3435706532302E73333787
S31508000000000400206F00000885000008850000082D
S31508000010A70B090100000000010221510040000859
S31508000020040C0000030D0008E10F00082006000874
S31508000030A707000827080008870800081B08000803
S31508000040F107000869090008F70700085E000000C4
S31508000050FFFFFFFF09480068202100EA010028B1D8
S315080000600748016842685FEA010D10477047FFF7C5
S31508000070F1FF00F013F800F045F800002C000040EE
S315080000800040000806E000005FEA000D704744489B
S31508000090008870474FF4017000F09CB838B54FF2ED
S315080000A00F04404D00F0C2F828B140F20520288020
S315080000B06C80012032BD3C480068C00613D56888AC
S315080000C0A0421CD1288840F2022188421CBF40F277
S315080000D00621884213D040F2011188421CBF40F223
S315080000E0111188420BD0314C208A40F6A72188424C
S315080000F005D12068FFF7C8FF6068804700BF002069
S3150800010032BD000038B5044672B629480168490868
S315080001104900016000F0D0F8234800680009C107CB
S3150800012054BF2449244902E0CD2201F8012B234A71
S315080001309142F9D32249234A234B03E011F8015B84
S3150800014002F8015B9A42F9D32049214A002301E0CB
S3150800015001F8013B9142FBD340F20521114A53882D
S315080001604FF20F05AB420BD113888B4206D0C0075E
S3150800017006D5180A012818BF022801D1194601E038
S3150800018004B90021064801804CF23C30508000F04A
S3150800019019FA4FF40170BDE8324000F01BB80000B0
S315080001A0B80C0020000000202C0000400040000889
S315080001B0FCED00E00000002098000020000400206C
S315080001C0F811000800040020080400200804002094
S315080001D0BD0C00200D4930220A600D490A600D4900
S315080001E00A600D4910220A60010A08BF00020B497D
S315080001F008804FF20F004880BFF35F8F0848002140
S315080002000160416007480849016070473020004096
S3150800021030C8004030C0004010E000400000002018
S315080002201C4000400CED00E00400FA050020704771
S3150800023080B500F0F9F90121062000F000FA062041
S3150800024000F02DFA0121072000F0F9F9072000F047
S3150800025019FA1748016821F01001016001BD000074
S31508000260052800D9704710B5DFE800F01721030FFD
S315080002701C17104C2088411E2180C0B9072000F0A9
S315080002801BFA42F21070208010BD072000F007FA12
S315080002900620BDE8104000F00FBA0620BDE8104061
S315080002A000F0F0B90620BDE8104000F0F8B910BD1E
S315080002B000BC0040BA0C002006E05248016841F034
S315080002C001010160012141605348512101607047D5
S315080002D0F8B5504C4C4D4FF6FF774D4EB088B842A6
S315080002E027D102237F224D480188301D00F0FAF9F4
S315080002F0B088B84204BF0220B080A069800703D442
S31508000300A06940F00200A06101207070B0882060EA
S315080003100720286000206860A8603C484FF00071FC
S315080003200160A069C00732D5E06980B348F69F40EE
S315080003303CE0A0698007E3D52868C00348BF00F001
S3150800034051F8707898BBA06810F00100A168B288CF
S3150800035003D10F2A08D2521C06E0890704D5F17882
S3150800036011B1032A28BF521EF07092B2022A38BF72
S315080003700222B2802068B1888842C5D1A06900F0FF
S315080003800300032818BFFFF798FF0120F2BDA069F4
S31508000390C00701D5E06920B1A069C00704D4E069A7
S315080003A010B144F24F6001E042F227306860002045
S315080003B0F2BD80B51A48017829B9C07807281CBF4C
S315080003C00928032809D01748016841F4807101609B
S315080003D003E040F2DC5000F0B9F9FFF779FF002896
S315080003E0F7D001BD0848002141608160016821F00D
S315080003F00201016005484FF00071016004480021C0
S31508000400417070471C40004010E000E004ED00E039
S31508000410000400200440004000800040F411000859
S3150800042096070808384000400078704700210160A8
S315080004308180C18001817047F8B504460D4616468D
S31508000440002710E02068803020600020E0808020AF
S315080004502081A088401CA080E088411CE18000190A
S31508000460807A78557F1CBFB2B7420CD2E0882189C2
S315080004708842F1D3802204F10A01206800F0D3F9FA
S315080004800028DFD0F2BD0020F2BD0020704710B56D
S31508000490044600F0D0F82046BDE8104000F08BBABC
S315080004A02DE9F043A5B000F06DFA00F0C4F800F0AD
S315080004B0C1FA012100A800F0C5FA404C04F18005F4
S315080004C000206860A86000F093F900280FBFE86074
S315080004D08168E9604088A4F8800000A800F076FBEF
S315080004E0070046D1BDF80420BDF8060000A940184B
S315080004F000F20A065FFA82F894F8800080070FD5A2
S31508000500E96869B1686808EB00024B1E22EA03072E
S3150800051010B1A868B84203D2384600F025FAAF6091
S3150800052042463146686800F0AEF907000FD14246E8
S315080005302146686800F077F9002000E0401C404535
S3150800054005DA015D825D9142F8D0832706E0686886
S3150800055040446860002FC0D01B2FBED00420FFF790
S315080005607FFE0121384600F0B9FA384625B0BDE8C5
S31508000570F083172FF0D10020F8E770B5DAB00446FB
S3150800058036A8FFF753FF012000904FF402630C4A88
S3150800059036A901A800F0B5FB0FF284050FF2740620
S315080005A000F049F8002C14BF3246002201A928465B
S315080005B000F016FD5028F3D05AB070BD280C002064
S315080005C00804002080B5FFF7F4FEFFF731FE00F0BF
S315080005D0EAF818B14FF40170FFF7FCFD00F02BF8AC
S315080005E0FFF755FD40F2011188421CBF40F2111178
S315080005F0884207D040F2052188421CBF40F20321F9
S31508000600884201D1012000E0002000F009FD002009
S3150800061002BD000065110008A111000829040008A0
S31508000620390400088B0400080E48012181604EF643
S31508000630BE21416000E00C4801210160704710B5F9
S3150800064082080FF2280353F82220136800F00300EB
S3150800065080000F248440A34301FA00F01843106079
S3150800066010BD0000006000400860004000B0004077
S3150800067004B0004000B2004004B2004000B400409C
S3150800068004B40040C108032908D2C1104902124A1D
S31508000690012300F0070003FA00F050507047C10824
S315080006A0032908D2C11049020C4A012300F00700A9
S315080006B003FA00F050507047C10803290BD2C11045
S315080006C0074A02EB41210A68012300F0070003FAF2
S315080006D000F050400860704714B0004010B0004069
S315080006E00CB0004030B583B0044610467F2808BFDA
S315080006F00020B1F5004F1AD108237F2240F61201D7
S3150800070000A8FFF7EFFF08220FF2380100A800F053
S31508000710E4FC30B908237F2240F2A27100A8FFF753
S31508000720E1FF082200A9204600F0BEFC37BD1A46A4
S31508000730034D294300FB0311204600F0B5FC37BDE5
S3150800074000000808FFFFFFFFFFFFFFFF0A490A68CE
S315080007500A4B1B68DB0758BF4008032809D34B6DB3
S3150800076043F001034B650B689B1A1B031B0B834263
S31508000770F9D3704700000000382000401C400040B4
S315080007807449086048680007FCD5086870477149CD
S31508000790FF2008604A681207FCD54A68920748BFD6
S315080007A00868C0B2704710B56B4C41F64910206016
S315080007B06A480021C160016141601021416002213F
S315080007C0016042F21070FFF7C1FF606940F008004F
S315080007D060619F20FFF7D4FFFFF7D9FF216941F039
S315080007E008012161202801D1002010BD862010BDF6
S315080007F00FF2781070470020704710B5584C6068A3
S3150800080040F0080060600520FFF7BAFFFFF7BFFF5A
S31508000810216841F00801216010BD80B5FFF7EDFFA2
S31508000820C007FBD401BDF8B506460C4615464D482B
S3150800083086423CBFA919814201D38520F2BDFFF744
S31508000840DCFFC007FBD400F07EF80320FFF798FF13
S31508000850300200F076F8300400F073F8F0B2FFF7D3
S315080008608FFF05E0FFF7E7FEFFF791FF04F8010B9E
S315080008702846451E80B20028F4D1386840F00800A2
S3150800088038600020F2BD2DE9F84F04468846164622
S31508000890344884423ABF31198142852012D24FF436
S315080008A0807A200607D0200A000200F5807081426F
S315080008B005D3051B04E040F20110864204D23546F2
S315080008C01EB90020BDE8F28F5546AB46C146FFF774
S315080008D094FFC007FBD400F036F80620FFF750FF58
S315080008E0386840F008003860786840F0080078609A
S315080008F00A20FFF745FF200200F023F8200400F045
S3150800090020F8E0B203E0FFF796FE19F8010BFFF7AF
S3150800091037FF5846A0F1010B80B20028F3D138689A
S3150800092040F008003860FFF768FFC007FBD4761B65
S31508000930A8B20444804440F20110B6B28642C3D23B
S31508000940BDE7000E1CE7064F786840F0080078609F
S31508000950704700003CC0004000B0004054C0004052
S3150800096010B0004001000400882070470201000012
S31508000970000000000001000000000400EC1100085F
S315080009800100000080B52848682141610021816185
S31508000990022181600121016009210920FFF74FFE2C
S315080009A004210A20BDE80440FFF749BE1F48006835
S315080009B04006FBD570471E49CA685207FCD5086031
S315080009C0704710B5044603E014F8010BFFF7F3FF70
S315080009D020780028F8D110BD10B5044620090A2849
S315080009E02CBF37303030C0B2FFF7E5FF04F00F00F8
S315080009F00A282CBF37303030C0B2BDE81040DAE7DD
S31508000A000A48006810F0020018BF0120704710B5A8
S31508000A100446FFF7F5FF20B105480068207000205E
S31508000A2010BD012010BD000054C8004048C8004051
S31508000A303CC8004080B500A8FFF7E9FF0028FAD0B7
S31508000A4001BD0000017001224270827001290CBFAD
S31508000A508021402181800021C18001811D480160DB
S31508000A600E218162016821F01001016000214163B5
S31508000A7041627047F8B504460D46164616484FF0CB
S31508000A80FF310160134FFE6200207862386840F03B
S31508000A9001003860FFF7CFFD012C19D16DB9FFF7BA
S31508000AA0AFFF78B9786AB042F4D3002EF2D038682E
S31508000AB04008400038601620F2BD2846FFF7A7FF19
S31508000AC00028EFD138684008400038600020F2BDA1
S31508000AD00120F2BD00F0004000A8004038B50446E9
S31508000AE00D4600F009F800F007F82A4621461820B6
S31508000AF0BDE83840FFF7CBBC2A4621461820FFF749
S31508000B00C6BC30B583B00446002020814AF6B4320C
S31508000B1000A92078FFF7AEFF08B11C203EBD9DF85E
S31508000B200000032818BF182801D118203EBD042844
S31508000B3001D117203EBD012801D021203EBD002548
S31508000B4000E06D1CEDB2A188091D8D420BDA40F25A
S31508000B50DD22281900F10A012078FFF78BFF00280B
S31508000B60EFD026203EBD0025002006E00146EDB266
S31508000B702819007B00F0C2FA6D1CA188EAB28A42E5
S31508000B80F4D3A27AE37A9B18FF2B01D022203EBD2C
S31508000B900B191D7BB5EB102F01D023203EBD5B7BC7
S31508000BA0C0B2834201D024203EBDA078824207D03D
S31508000BB0401EC0B2824201D127203EBD25203EBD3F
S31508000BC0881C20810220E08000203EBD38B50446FE
S31508000BD06078012804D023D3032855D018D31FE002
S31508000BE02078012811D13B254320FFF7E4FE40F287
S31508000BF0DD2200212078FFF73DFF30B12846451E4B
S31508000C00C0B20028F0D11B2032BD0220607010E06F
S31508000C10FFF710FF00F03AF8A078401CA07008E033
S31508000C20182032BD2278A078411EC9B20620FFF7E7
S31508000C302EFC2046FFF765FF050018BFFFF7FAFEF2
S31508000C40272DEFD0A8060BD52278A1781520FFF717
S31508000C501EFC002DEDD10320FFF702FB002032BD5C
S31508000C60680603D4182D18BF1C2D07D121782846ED
S31508000C70FFF734FF04206070284632BD172DE8D1EF
S31508000C8000F004F803206070172032BD2278A1789E
S31508000C900620FFF7FCBB0000F8B504460D461646CD
S31508000CA01F4607E03046A047294600F039FA0546B0
S31508000CB07F1E761CBFB2002FF4D12846F2BD38B588
S31508000CC00C46154605E0014614F8010B00F028FA13
S31508000CD06D1EADB2002DF6D132BDF8B504460D46EF
S31508000CE016461F463A463146286823689847040040
S31508000CF005D13A463146E868FFF7E1FFE860204645
S31508000D00F2BD10B5029C84720381426001604FF007
S31508000D10FF31C1600021017410BD2DE9F84F04466A
S31508000D208B461E469BF81B70802F28BF8027D068ED
S31508000D30A649884250D1002E4CD0B06800904FF09A
S31508000D40FF384FF000090BEB490A9AF848500FE0B4
S31508000D50FF2D16D0FFF76FFC4FF40063E80240F052
S31508000D60006241460098FFF797FF8046681CC5B2A7
S31508000D709AF84900A842EBDA09F10109B9F1060F18
S31508000D80E1DBDBF844006FEA0801884224D1A06859
S31508000D9000BA7A08594673689847C8B9E06805BA28
S31508000DA0A06802BA3B464FF0FF31B068FFF774FF00
S31508000DB0C04385420CD140F6A720ABF81000A068C6
S31508000DC000BA01220BF1100110307368984708B178
S31508000DD0422002E0172000E04320BDE8F28F2DE90B
S31508000DE0F84F80460D469146D5F804A02889ADF8F7
S31508000DF0000005F1140606F1100704235246404682
S31508000E00FFF76BFF002824D1BAF8000040BA1FFA92
S31508000E1080FBBAF8020040BA84B2E00748BF462011
S31508000E2075D4B4F5026FC8BF4E2070DC002C6DD0A7
S31508000E305FEA0B000AD04FF60441BBEB010000F055
S31508000E40AD80FF3865D0FE3863D0BDE0287C08B198
S31508000E5051205CE08D2C28BF4F2058D22346321DE6
S31508000E6000F0BBF8002852D1FA7E802A28BF8022DB
S31508000E7002F10C00844201BFB08840BA00F47F40FA
S31508000E80B0F5007F3ED1F08840BA4EF25031884224
S31508000E9002BF388A40F6A721884202BF788A00F442
S31508000EA07F40B0F5807F2DD1B06800BA4849C9693E
S31508000EB0884227D14648008B40F2032188420BD14D
S31508000EC0788AB0F5847F1DD3F86D41051AD141495A
S31508000ED0081AB0F5F02F15D84FF6FF70388206F1CC
S31508000EE010014FF0FF30FFF7EAFEF16809BAC9436F
S31508000EF0884204BF387E042804D1787E0C2818BF9F
S31508000F00062801D0452002E0012028740020BDE80B
S31508000F10F28F287C002843D0042300F05DF80028CF
S31508000F20F5D1DAF8000006BA201F84B22848C0694D
S31508000F30864238BF4820EAD3A019796D884228BF6F
S31508000F404920E4D24FF6035083450DD1B9F1000F7D
S31508000F500AD031460220D9F80020904720B14A200D
S31508000F60D5E7E01B84B2BE19002CCFD0BDF800002F
S31508000F708442B4BF274607463B4600F02DF80028B2
S31508000F80C5D1B9F1000FECD07A0851463046D9F8E8
S31508000F90043098470028E4D04B20B8E7287C08B9E5
S31508000FA04120B4E7042C18BF4C20B0D104236A684A
S31508000FB000F013F80028AAD14B462A46394630468F
S31508000FC001B0BDE8F04FA8E64420A0E7E320BBDE69
S31508000FD00000000800E007085246294640467CE61D
S31508000FE070B504460D4616462889C10701D48028DF
S31508000FF003DA4F2070BDA87A78B9324629462046CA
S31508001000FFF7EDFE0028F6D0172807D12868616893
S315080010108847172802D1002070BD502070BD0000F7
S3150800102010B504460020FFF71BF924BB0020FFF784
S31508001030A4FA50B90120FFF7A0FA30B90520FFF746
S315080010400FF940F20120FFF7C5F80420FFF708F969
S315080010500120FFF705F940F20320BDE81040FFF72D
S31508001060B9B80FF23400FFF7ACFCFFF79FFC40F26B
S315080010700220FFF7AFF8FFF713FA0400F1D00FF2DA
S315080010802000FFF79EFC2046FFF7A6FC01A0FFF70D
S3150800109098FCF0E70D0A00000D0A4F6B0D0A0000D8
S315080010A00D0A455252200000814212D21018401EE5
S315080010B05118491E92B2002A1EBF11F8013900F8CC
S315080010C00139521EF6D1704711F8013B00F8013B71
S315080010D0521E92B2002AF7D1704710B500E0521E90
S315080010E092B232B110F8013B11F8014BA342F6D087
S315080010F001E0002010BD181B40B210BD0A0242EAEA
S3150800110011214840C0F30311484080EA00304101EC
S31508001110C9B20206D20E41EA0221484080B270479F
S315080011200A0A4840C0B208214308C00746BF034818
S3150800113058401846491EF7D1504070472083B8EDED
S315080011402748018A40F6A772914202BF418A4FF4A6
S315080011507F40014204D102298041C043C00F704735
S3150800116000207047F8B504460D461C4E0120307025
S31508001170FFF7E6FF18B94FF40170FFF72BF8184888
S31508001180876A294644F48070B847002131700FF207
S31508001190540618B9294644F40070B847805DF2BD74
S315080011A02DE9F041044688465600FFF7C9FF18B9ED
S315080011B04FF40170FFF70EF80948476A00233246D4
S315080011C041462046B8470FF21C0520B9334600228F
S315080011D041462046B847405DBDE8F081BC0C00207A
S315080011E000000808000202024B4B46474D343550B2
S315080011F045323000EE08000000000001FFFF000045
S7050800006F83
