S02400007365637572652D73657269616C2D756172742D626F6F746C6F616465722E7333375B
S31508000000000400206F00000885000008850000082D
S31508000010A70B09010000000001012151002000087A
S315080000200403000009090008A10D00087C04000863
S3150800003000000000000000000000000000000000B2
S315080000400000000000000000000000005E00000044
S31508000050FFFFFFFF09480068202100EA010028B1D8
S315080000600748016842685FEA010D10477047FFF7C5
S31508000070F1FF00F010F800F041F800002C000040F5
S315080000800020000803E000005FEA000D70474FF407
S31508000090017000F09BB838B54FF20F043F4D00F0E1
S315080000A0C1F828B140F2052028806C80012032BDB5
S315080000B03B480068C00613D56888A0421CD128882A
S315080000C040F2022188421CBF40F20621884213D022
S315080000D040F2011188421CBF40F2111188420BD030
S315080000E0304C208A40F6A721884205D12068FFF7C0
S315080000F0CBFF6068804700BF002032BD38B5044694
S3150800010072B62948016849084900016000F0D0F82C
S31508000110234800680009C10754BF2449244902E05E
S31508000120CD2201F8012B234A9142F9D32249234AC9
S31508000130234B03E011F8015B02F8015B9A42F9D3FD
S315080001402049214A002301E001F8013B9142FBD3F3
S3150800015040F20521114A53884FF20F05AB420BD1E5
S3150800016013888B4206D0C00706D5180A012818BF7F
S31508000170022801D1194601E004B900210648018088
S315080001804CF23C30508000F05FF94FF40170BDE846
S31508000190324000F01BB80000280C002000000020A8
S315080001A02C00004000200008FCED00E000000020C4
S315080001B09800002000040020E41500080004002030
S315080001C008040020080400202D0C00200D493022C8
S315080001D00A600D490A600D490A600D4910220A6035
S315080001E0010A08BF00020B4908804FF20F00488039
S315080001F0BFF35F8F0848002101604160074808493E
S31508000200016070473020004030C8004030C00040D0
S3150800021010D00040000000201C4000400CED00E01B
S315080002200400FA050020704780B500F02BF901217B
S31508000230062000F032F9062000F05FF901210720B8
S3150800024000F02BF9072000F04BF91748016821F058
S315080002501001016001BD0000052800D9704710B5DE
S31508000260DFE800F01721030F1C17104C2088411EE9
S315080002702180C0B9072000F04DF942F210702080A5
S3150800028010BD072000F039F90620BDE8104000F03F
S3150800029041B90620BDE8104000F022B90620BDE8A5
S315080002A0104000F02AB910BD00BC00402A0C0020FE
S315080002B006E04B48016841F00101016001214160F7
S315080002C04C48512101607047F8B5494C454D4FF6E9
S315080002D0FF77464EB088B84227D102237F22464888
S315080002E00188301D00F02CF9B088B84204BF0220FE
S315080002F0B080A069800703D4A06940F00200A0611D
S3150800030001207070B088206007202860002068608F
S31508000310A86035484FF000710160A069C00732D562
S31508000320E06980B348F69F403CE0A0698007E3D5C2
S315080003302868C00348BF00F043F8707898BBA068E7
S3150800034010F00100A168B28803D10F2A08D2521C06
S3150800035006E0890704D5F17811B1032A28BF521E91
S31508000360F07092B2022A38BF0222B2802068B188A1
S315080003708842C5D1A06900F00300032818BFFFF71B
S3150800038098FF0120F2BDA069C00701D5E06920B138
S31508000390A069C00704D4E06910B144F24F6001E0D7
S315080003A042F2273068600020F2BD80B503E040F2D3
S315080003B0DC5000F0F9F8FFF787FF0028F7D001BDF9
S315080003C00848002141608160016821F0020101604E
S315080003D005484FF0007101600448002141707047DC
S315080003E01C40004010E000E004ED00E0000400209E
S315080003F00440004000800040E0150008007870477F
S3150800040030B5DBB00446214636A800F0E7F80020F0
S3150800041000904FF402630B4A36A901A800F074FA5B
S315080004200FF24C0201A90FF2540000F0B9FC054680
S3150800043000F02FF81DB12146284600F01BF9284682
S315080004405BB030BD0804002080B5FFF7AEFFFFF7AC
S31508000450EBFE00F0D3FC00F059FD40F20120FFF757
S31508000460B5FE002002BD012A08BF00F0DBBC7047BC
S315080004705515000891150008FD0300082F08000807
S31508000480670800080E48012181604EF6BE214160CA
S3150800049000E00C4801210160704710B582080FF290
S315080004A0280353F82220136800F0030080000F2465
S315080004B08440A34301FA00F01843106010BD000001
S315080004C0006000400860004000B0004004B00040F2
S315080004D000B4004004B4004000B8004004B800402E
S315080004E0C108032908D2C1108902124A012300F063
S315080004F0070003FA00F050507047C108032908D2D4
S31508000500C11089020C4A012300F0070003FA00F023
S3150800051050507047C10803290BD2C110074A02EB95
S3150800052081210A68012300F0070003FA00F0504011
S315080005300860704714B0004010B000400CB000408E
S3150800054030B583B0044610467F2808BF0020B1F5B1
S31508000550004F1AD108237F2240F6120100A8FFF7A0
S31508000560EFFF08220FF2380100A800F0F9FD30B9B4
S3150800057008237F2240F2A27100A8FFF7E1FF0822B4
S3150800058000A9204600F0CCFD37BD1A46034D294385
S3150800059000FB0311204600F0C3FD37BD0000040828
S315080005A0FFFFFFFFFFFFFFFF0A490A680A4B1B68A8
S315080005B0DB0758BF4008032809D34B6D43F00103F6
S315080005C04B650B689B1A1B031B0B8342F9D37047B9
S315080005D000000000382000401C4000400170012245
S315080005E04270827001290CBF802140218180002140
S315080005F0C18001811D4801600E218162016821F0D8
S31508000600100101600021416341627047F8B5044654
S315080006100D46164616484FF0FF310160134FFE622D
S3150800062000207862386840F001003860FFF731FF33
S31508000630012C19D16DB900F044FC78B9786AB0423A
S31508000640F4D3002EF2D038684008400038601620EF
S31508000650F2BD284600F03CFC0028EFD13868400877
S31508000660400038600020F2BD0120F2BD00E00040E5
S3150800067000A8004038B504460D4600F009F800F019
S3150800068007F82A4621461820BDE83840FFF7EBBE92
S315080006902A4621461820FFF7E6BE30B583B0044641
S315080006A0002020814AF6B43200A92078FFF7AEFF71
S315080006B008B11C203EBD9DF80000032818BF182865
S315080006C001D118203EBD042801D117203EBD0128BE
S315080006D001D021203EBD002500E06D1CEDB2A188A9
S315080006E0091D8D420BDA40F2DD22281900F10A01B4
S315080006F02078FFF78BFF0028EFD026203EBD002587
S31508000700002006E00146EDB22819007B00F03AFD0C
S315080007106D1CA188EAB28A42F4D3A27AE37A9B18BE
S31508000720FF2B01D022203EBD0B191D7BB5EB102FE8
S3150800073001D023203EBD5B7BC0B2834201D024207A
S315080007403EBDA078824207D0401EC0B2824201D187
S3150800075027203EBD25203EBD881C20810220E08042
S3150800076000203EBD38B504466078012804D023D35E
S31508000770032855D018D31FE02078012811D13B252E
S31508000780432000F04FFB40F2DD2200212078FFF7DE
S315080007903DFF30B12846451EC0B20028F0D11B20C7
S315080007A032BD0220607010E000F0A4FB00F03AF8B9
S315080007B0A078401CA07008E0182032BD2278A078E6
S315080007C0411EC9B20620FFF74EFE2046FFF765FF19
S315080007D0050018BF00F08EFB272DEFD0A8060BD515
S315080007E02278A1781520FFF73EFE002DEDD10320D3
S315080007F0FFF732FD002032BD680603D4182D18BF56
S315080008001C2D07D121782846FFF734FF0420607095
S31508000810284632BD172DE8D100F004F80320607091
S31508000820172032BD2278A1780620FFF71CBEF8B53E
S3150800083004460D461646002706E0E088411CE1807E
S315080008400019807A78557F1CBFB2B74209D2E08872
S3150800085021898842F1D32046FFF784FF0028ECD08F
S31508000860F2BD0020F2BD10B504462046FFF77AFF18
S315080008700028FAD010BD0000F8B504460D46164605
S315080008801F4607E03046A047294600F08DFC05467E
S315080008907F1E761CBFB2002FF4D12846F2BD38B5AC
S315080008A00C46154605E0014614F8010B00F07CFCE1
S315080008B06D1EADB2002DF6D132BDF8B507460E460F
S315080008C014461D462A46214630683B689847070065
S315080008D005D12A462146F068FFF7E1FFF060D6F811
S315080008E0A8002818C6F8A80096F8A70050B1AC3694
S315080008F02A462146304600F02BFD2A462146304638
S3150800090000F0A6FC3846F2BD10B5029C847203813D
S31508000910426001604FF0FF31C16000210174A0F808
S31508000920A410802180F8A610002180F8A710C0F82E
S31508000930A8102822AC30BDE8104000F00ABC2DE90A
S31508000940F84F04468B461E469BF81B70802F28BF1F
S315080009508027D0689249884250D1002E4CD0B06882
S3150800096000904FF0FF384FF000090BEB490A9AF850
S3150800097048500FE0FF2D16D0FFF78BFD4FF40063AC
S31508000980E80240F0006241460098FFF775FF80468E
S31508000990681CC5B29AF84900A842EBDA09F10109C0
S315080009A0B9F1060FE1DBDBF844006FEA080188427B
S315080009B024D1A06800BA7A08594673689847C8B916
S315080009C0E06805BAA06802BA3B464FF0FF31B06846
S315080009D0FFF752FFC04385420CD140F6A720ABF87B
S315080009E01000A06800BA01220BF1100110307368DC
S315080009F0984708B1422002E0172000E04320BDE8EE
S31508000A00F28F2DE9F44F82B081460D46D5F804B031
S31508000A102889ADF8000005F1140606F1100704232D
S31508000A205A4600F0BBF9002871D1BBF8000040BA5D
S31508000A301FFA80F8BBF8020040BA84B2E00748BF44
S31508000A40462064D4B4F5026FC8BF4E205FDC002C84
S31508000A505CD0DFF850A15FEA080009D04FF60441E0
S31508000A60B8EB010052D0FF3853D0FE3851D095E08C
S31508000A70287C08B151204AE08D2C28BF4F2046D249
S31508000A802346321D00F089F9002840D1FA7E802AD3
S31508000A9028BF802202F10C00844201BFB08840BA08
S31508000AA000F47F40B0F5007F2CD1F08840BA4EF2B2
S31508000AB05031884202BF388A40F6A721884221D1A0
S31508000AC0788A00F47F40B0F5807F01BFB06800BA2D
S31508000AD0DAF81C10884215D14FF6FF70388206F1F5
S31508000AE010014FF0FF30FFF7DAFEF16809BAC94383
S31508000AF0884204BF387E042804D1787E032818BFAC
S31508000B00062801D0452002E0012028740020BDE80F
S31508000B10FE8F287C08B94120F9E7042300F03CF948
S31508000B200028F4D1DBF8000006BA201F84B2DAF8F0
S31508000B301C00864238BF4820E9D3A019796D88423F
S31508000B4028BF4920E3D24FF6035080450CD10298BE
S31508000B5050B131460220029A1268904720B14A20C5
S31508000B60D5E7E01B84B2BE19002CCFD0BDF8000033
S31508000B708442B4BF274607463B4600F00DF90028D5
S31508000B80C5D102980028ECD07A0859463046029B0F
S31508000B905B6898470028E4D04B20B8E74420B6E7BE
S31508000BA0E320BBDE000000082DE9F843044688462A
S31508000BB0154605F1AC062F89102C38BF4E202CD3CC
S31508000BC00423324600F02BF838BB0C23321D00F004
S31508000BD026F810BBA4F11001306800BA30608CB258
S31508000BE02146304600F0FCFA06E04A466968304677
S31508000BF000F02EFBA4EB0904A4B254B1A146BC42F2
S31508000C0088BFB9464B466A6800F009F80028ECD058
S31508000C1003E0304600F03FFB0020BDE8F28329469A
S31508000C2040464AE62DE9FE4F81460C4690466668E0
S31508000C3004F1140A0AF1100B04F1A405A878832814
S31508000C4005D14FF60710AF888221A9700AE0042360
S31508000C50324600F0A3F8002866D1308840BA718879
S31508000C6049BA8FB2F90748BF46205DD4A97880B241
S31508000C704FF20972801A58D04FF4FF72801A3AD090
S31508000C80FF382FD0FF3802D0FF386BD081E080299B
S31508000C906AD1062F23D3062301AA21464846FFF721
S31508000CA00CFEE8B9BDF8040040BA00F47F40B0F580
S31508000CB0007F01BFBDF8080040BA4EF250318842A5
S31508000CC00DD1BDF8060040BA012818BF522007D139
S31508000CD0BDF8060040BAA4F8A400002000E04520AC
S31508000CE0812154E081293FD1224649463846FFF7FB
S31508000CF05BFF82214BE0822936D1042F2DD30120B8
S31508000D00E87000206860424621464846FFF779FEAB
S31508000D1018BB0021E97069688F421ED3B94239D2DF
S31508000D208322AA70791A696034E082291CD104F1F9
S31508000D30AC08404600F0AFFA2089B842B8BF4F2049
S31508000D4028DB3B463246214600F028F810BBFAB2AB
S31508000D503146404600F0C5FA08B954201AE000208A
S31508000D60842114E0842901D0512013E0042F18BFF0
S31508000D704C200FD104233246214600F00FF848B91B
S31508000D804346224659465046FFF7D9FD8521A970A4
S31508000D9000E04420BDE8FE8F5A46294648468CE5C1
S31508000DA070B505460C4616462089C10701D4802829
S31508000DB001DA4F2070BD00F007FA08B9532070BD5C
S31508000DC0324621462846FFF72DFF002818BF172868
S31508000DD003D08F2184F8A61070BD94F8A600852844
S31508000DE006D1206869688847172805D1002070BD94
S31508000DF0A07A0028E4D0502070BD000080B53A489B
S31508000E00682141610021816102218160012101601F
S31508000E1009210920FFF741FB04210A20BDE8044007
S31508000E20FFF73BBB3249CA685207FCD508607047D2
S31508000E3010B5044603E014F8010BFFF7F3FF20781A
S31508000E400028F8D110BD7CB500A90FF2B80218CA5F
S31508000E5018C1052104220A230CE080B290FBF3F4A2
S31508000E6003FB1405EDB2204600AC05F130060E551D
S31508000E7005B10A46491E49B20029EED5D2B200A8E4
S31508000E801018FFF7D5FF73BD10B5044620090A28C8
S31508000E902CBF37303030C0B2FFF7C4FF04F00F0064
S31508000EA00A282CBF37303030C0B2BDE81040B9E749
S31508000EB010B50446200AFFF7E7FFE0B2BDE8104088
S31508000EC0E2E70A48006810F0020018BF01207047E0
S31508000ED010B50446FFF7F5FF20B1054800682070F5
S31508000EE0002010BD012010BD54C8004048C800406D
S31508000EF03CC8004080B500A8FFF7EAFF0028FAD0F2
S31508000F0001BD000030303030300000002DE9F84FC8
S31508000F10FFF7BFFAFFF7EEFF0020FFF79DF90FF284
S31508000F207018474D44A60FF23C1B44A4DFF81491F1
S31508000F300FF2141A1DE05046FFF77AFF0C27B9F88E
S31508000F401A00384100F00F00FFF77DFF012FA4BFFC
S31508000F502E20FFF767FF3F1FF1D52046FFF768FFF2
S31508000F60B9F84C00FFF76FFF5846FFF761FFFFF728
S31508000F70C1FFFFF78EFA0220FFF76EF900A8FFF708
S31508000F80A7FF0028F5D19DF80000FFF74BFF9DF855
S31508000F9000000A2818BF0D28CDD0312804D03228E1
S31508000FA02FD0332832D0E2E70FF2F400FFF740FFE4
S31508000FB00120FFF725FA07460FF2F800FFF738FF7A
S31508000FC0380005D10520FFF747F90FF2FC00CCE7FA
S31508000FD00420FFF741F90FF2FC00FFF729FFB806D6
S31508000FE048BF0FF2FC0005D478064CBF0FF2081074
S31508000FF00FF22010FFF71CFF3846FFF759FF30465F
S31508001000B3E70120FFF728F9BDE8F18F002730463E
S31508001010FFF70EFF288A40F6A721884218BF4046E8
S31508001020A3D1781990F824007F1C20B1FFF7FAFEA7
S31508001030FFB2202FF5D3E2E70D0A00002062000078
S3150800104000200008000000080D0A454D33353720FA
S3150800105053657269616C20426F6F746C6F61646569
S31508001060722076000D0A312E2075706C6F6164202F
S3150800107065626C0D0A322E2072756E0D0A332E20AB
S3150800108065626C20696E666F0D0A424C203E200030
S315080010902A2A206E6F20617070202A2A0D0A000005
S315080010A00D0A626567696E2075706C6F61640D0A5A
S315080010B0000000000D0A53657269616C2075706C3A
S315080010C06F61642000000000636F6D706C65746565
S315080010D00D0A000061626F727465640D0A000000F3
S315080010E00D0A584D6F64656D20626C6F636B2065E1
S315080010F072726F72203078000D0A646F776E6C6FAB
S3150800110061642066696C65206572726F722030783A
S31508001110000000000D0A6572726F722030780000B8
S31508001120814212D21018401E5118491E92B2002A46
S315080011301EBF11F8013900F80139521EF6D1704761
S3150800114011F8013B00F8013B521E92B2002AF7D172
S315080011507047130003D00A46194600F025B97047B0
S3150800116010B500E0521E92B232B110F8013B11F8E8
S31508001170014BA342F6D001E0002010BD181B40B277
S3150800118010BD00000A0242EA11214840C0F30311CB
S31508001190484080EA00304101C9B20206D20E41EA4F
S315080011A00221484080B270470A0A4840C0B2082166
S315080011B04308C00746BF034858401846491EF7D19A
S315080011C0504070472083B8ED00206049415CFF29F4
S315080011D001D001207047401C1028F6DB002070471C
S315080011E012B583B00446206800BA00903A200399E5
S315080011F001B17A2020740C22211D04F11100FFF799
S315080012008FFF03220DF1010104F11D00FFF788FF8E
S3150800121000F03CF80398D0B1B0F57F4F05D200BA7C
S31508001220039002220DF10E010EE00FF278100088ED
S31508001230ADF80400039800BA0390022201A92046DB
S3150800124000F006F8042203A9204600F001F81FBDA5
S31508001250F8B504460D461646002714E094F825000E
S315080012600019017C7A5D5140017494F82500401CF0
S3150800127084F82500C0B2102804D300F007F800202F
S3150800128084F825007F1CB742E8D3F1BD2F4904F145
S31508001290100000F003B91FB5044600A8102100F09D
S315080012A007F994F82500C0F11000C11000EB117180
S315080012B00911A0EB011200A92046FFF7C9FF1FBDBF
S315080012C01FB50C4600AA011D002000F027F80020D3
S315080012D0015D00AA825C51400155401C1028F7DBCD
S315080012E01FBD38B504460D46102A07D12068216A65
S315080012F094F8242002EB0111884201D0002032BD67
S3150800130029462046FFF7DCFF102204F11001284683
S31508001310FFF726FF401E8041C00F32BD11B581B0D0
S31508001320144600BA0190022020700C22601CFFF7B8
S31508001330F7FE03220DF1050104F10D00FFF7F0FE9B
S315080013400249204600F0AAF813BD0000F808040870
S31508001350F0B585B004460D461646002100271DE067
S3150800136031B900AA211D206A401CFFF7D7FF0121C9
S3150800137004F120007A5D03790DF1000C13F80C30A6
S315080013805A407A550279521CD2B2102A04D3002246
S31508001390216A491C2162002102717F1CB742DFD3F2
S315080013A005B0F0BDFFFE000062F30F2262F31F4294
S315080013B0401810F0030308D0C91A1FD3DB0748BF2B
S315080013C000F8012D28BF20F8022D130030B414466A
S315080013D01546103928BF20E93C00FAD8490728BF26
S315080013E020E90C0048BF40F8042D890028BF20F8E2
S315080013F0022D48BF00F8012D30BC7047C91818BF28
S3150800140000F8012DCB0728BF00F8012D7047000012
S3150800141038B504461B4D214600F03DF8E860211D0D
S3150800142000F039F8A86004F1080100F034F86860A3
S3150800143004F10C0100F02FF8286031BDF8B5044618
S31508001440114D80202860114E062030600720286044
S3150800145030688007FCD5002704EB870100F01BF8ED
S31508001460A8627F1C042FF7D330684007FCD50026F6
S315080014702A6B04EB860100F00BF8761C042EF7D3D2
S31508001480F1BD0000383000400030004010A0004098
S31508001490002000F010B8002000F01BB810B5044674
S315080014A00846FFF7B5FF2046BDE81040C6E700002E
S315080014B0002200F023B810B50023002814BF1C46EC
S315080014C0C3F10304E4B26254120A5B1C042BF4D37E
S315080014D010BD30B54A788B78CC78097818B1204693
S315080014E01D460C4602E0084615461A4655EA0020EF
S315080014F054EA022141EA004030BD000000B500BFB1
S31508001500130096469446103928BFA0E80C50FAD81E
S315080015105FEA417C28BF0CC048BF40F8042BC907C6
S3150800152028BF20F8022B48BF00F8012B00BD000099
S315080015302848018A40F6A772914202BF418A4FF4B1
S315080015407F40014204D102298041C043C00F704741
S3150800155000207047F8B504460D461D4E0120307030
S31508001560FFF7E6FF18B94FF40170FEF72FFE19488A
S31508001570876A294644F48070B847002131700FF213
S31508001580580618B9294644F40070B847805DF2BD7C
S315080015902DE9F041044688465600FFF7C9FF18B9F9
S315080015A04FF40170FEF712FE0A48476A00233246D6
S315080015B041462046B8470FF2200520B93346002297
S315080015C041462046B847405DBDE8F081000000006E
S315080015D02C0C002000000408000202024B4B464770
S311080015E0EE08000000000001FFFF0000FC
S7050800006F83
